:020000041000EA
:1000000000B5324B212058609868022188439860DF
:10001000D860186158612E4B002199600221596106
:100020000121F02299502B49196001219960352056
:1000300000F044F80222904214D00621196600F024
:1000400034F8196E01211966002018661A6600F04E
:100050002CF8196E196E196E052000F02FF8012189
:100060000842F9D1002199601B49196000215960AB
:100070001A491B48016001219960EB211966A021F2
:10008000196600F012F800219960164914480160C1
:100090000121996001BC002800D000471248134993
:1000A000086003C880F30888084703B5996A0420EC
:1000B0000142FBD001200142F8D103BD02B5186610
:1000C0001866FFF7F2FF186E186E02BD00000240BE
:1000D000000000180000070000035F00212200005C
:1000E000F4000018222000A00001001008ED00E03C
:1000F00000000000000000000000000074B24E7A12
:1001000000200420F7010010C3010010C5010010F9
:10011000C1010010C1010010C1010010C101001097
:10012000C1010010C1010010C1010010C701001081
:10013000C1010010C1010010C9010010CB01001065
:10014000CD010010CD010010CD010010CD01001037
:10015000CD010010CD010010CD010010CD01001027
:10016000CD010010CD010010CD010010CD01001017
:10017000CD010010CD010010CD010010CD01001007
:10018000CD010010CD010010CD010010CD010010F7
:10019000CD010010CD010010CD010010CD010010E7
:1001A000CD010010CD010010CD010010CD010010D7
:1001B000CD010010CD010010CD010010CD010010C7
:1001C00000BE00BE00BE00BE00BE00BE00F04BF888
:1001D000103800BEF2EB8871F00B01100C0C01100E
:1001E0003402001090A31AE700202149086006C8D5
:1001F00081F3088810471F48006800282FD10DA4FC
:100200000ECC002902D000F012F8F9E71A491B4A77
:10021000002000E001C19142FCD1194988471949E9
:1002200088471949884700BEFDE701C901C29A42C3
:10023000FBD370470C0C0110C0000020E80A00201E
:1002400034160110000004200000042034160110B0
:1002500000100420001004200000000070470B482C
:1002600002F046FE0047EFF30580C0B27047000081
:1002700008ED00E0000000D0E80A002034840020EF
:10028000512800103D03001075290010575600003A
:1002900006005250ABB36053840B0110060052505D
:1002A000861C0302940B0110060052505422A29D9A
:1002B000A00B011005005250DE65F46834160110E1
:1002C000F8B5C04610B5064C2378002B07D1054B76
:1002D000002B02D0044800E000BF0123237010BDB2
:1002E000000E002000000000D8550010044B10B58F
:1002F000002B03D00349044800E000BF10BDC046F6
:1003000000000000040E0020D85500107047C046C1
:100310007047C0467047C04610B538217820044A5F
:1003200000F05AFB034B1860034B186010BDC04629
:10033000D8550010200E00202C0E0020F0B5DE460F
:100340004E4645465746E0B583B000F02FFD802667
:1003500000F014FD002301244B4D760008C5200059
:1003600003F0B0FDEE21890503F075FD474903F068
:1003700072FD03F017FE013401C5B442EFD1002035
:1003800000F074FC00F0BAFB00F0B2FB0028FBD1D7
:1003900000F09EFB00F09CFB4B2000F067FCFFF799
:1003A000B5FF00F0E7FC3A4B00279B46186000239E
:1003B0009A46384B384D994600F086FB060000F00F
:1003C00099FA00F0A3FA00F0A7FA00F0BDFA00F0E5
:1003D000C3FA00F0DDFA00F0E5FA5A464B4612681F
:1003E0001A6000F0C7FC5B46186000F06DFB7B1CD8
:1003F000040038009846FFF78BFF00F065FB001BF8
:10040000E86000F061FB009000F072FB0028FBD177
:1004100000F05AFB5346C01A686100F055FB040017
:1004200000F052FB82464046FFF774FF00F04CFBA1
:100430005346C01A286100F047FB019000F048FBCA
:1004400000F042FB804600F03FFB824600F056FB86
:1004500000F03AFB861B31001048AE6002F07AFDD6
:10046000013000230237286028280AD9009B444421
:10047000E01A019B3100C01A6423584302F06AFD60
:1004800003006B6098E7C046247F0020DB0FC94063
:10049000C07E0020D47E0020E07E00203F420F007E
:1004A00010B57821084A782000F096FA074B802191
:1004B0001860074B074A1860802000F08DFA064B41
:1004C0001860064B186010BD400E0020F87E00201A
:1004D0003C0E0020188B0010240E0020C87E002047
:1004E000F0B54E4645465746DE4690460A14520041
:1004F0008446105A394AE0B505031540054338488B
:10050000384A054014782F033F0F7C430F342411E1
:100510002707FF0F099EE4199146E4B2771E002ECB
:100520001FD04246002A22D12D4A654394462E4AC6
:10053000654494462D4A102191460C1B1E88274A7B
:1005400031031140624631430140614349190E0CA9
:1005500016404A4609091140314319800233013FD0
:10056000ECD2F0BCBB46B246A946A046F0BD012283
:1005700092461A88414493461603184A16405A4632
:10058000164310220640121B5643154A6C439346ED
:100590005C443419154A25091540134A240C1440AB
:1005A00062462C431C800C146400A45A0B4A250399
:1005B0001540FF22254305402C0C14404A4616786E
:1005C000524666430F363611F6B2F4081440341919
:1005D000E4B20233013FCCD2C3E7C04600000F0FA4
:1005E0000F0F0F0FC4010020F0F000000F0F0000EC
:1005F000F0B557464E46DE464546E0B54E4E040041
:10060000736900209B464D4B83B01F68B369BA469F
:10061000DA449846D146C144A1451CD9316A002923
:1006200020D1474BB5681B6800933B00AF4200D90F
:100630002B009C421BD22900200202F08BFC009B65
:1006400043431D0AF369002B36D14346002B01D0EA
:10065000444545D8E8B203B0F0BCBB46B246A94613
:10066000A046F0BD200002F075FC641AD9E7F368DB
:1006700001935B19BB422FD89C4205D3A74244D9B2
:10068000336964211802D8E733696421180280278E
:1006900002F060FC7F003B1A9A46601B0199000241
:1006A00002F058FC53465843009B000A3F1A7B4314
:1006B0001D0AF369002BC8D004F0D2FDF769390098
:1006C00002F048FC7F08B369C91B98466D181AD41C
:1006D000642DBADD6425B8E73B009C42CED2D3E757
:1006E000E01AFFF785FF060028004946604302F044
:1006F00031FC4B460500181B4946704302F02AFCAA
:100700004019C0B2A7E700259FE70025A24599D967
:10071000E01B5946000202F01DFC01353369FF352C
:100720002D1A6421180202F015FC4543009B2D0A86
:100730006B431D0A86E7C046FC7E0020207F002018
:10074000D4010020F0B54E4657464546DE46E0B59A
:10075000624C634F634B266899463D6885B0002E16
:1007600002D0616800293ED16B1C3B606369A769B8
:100770009B465D4B00211E6833005B449A46BA4499
:100780000193AA451FD9216A002927D1574B1B681D
:100790000293A36898463300464500D94346AB42CE
:1007A0002BD94146280202F0D5FB029B43431B0A8A
:1007B0009846E369002B47D1002F01D0BD4257D89E
:1007C000FF21434619404B46186800F073FA05B004
:1007D000F0BCBB46B246A946A046F0BD280002F0D8
:1007E000B9FB6D1AD2E7280002F0B4FB404B464338
:1007F00018684B4636181E60B6E7E3680393434417
:10080000B34231D89D4205D3AE4249D92369642110
:100810001802C8E7236964211802802602F09AFBB7
:100820007600331A9B464346E81A0399000202F009
:1008300091FB5B465843029B000A361A73431B0A1E
:100840009846E369002BB7D004F00AFDE669310051
:1008500002F080FB43467608891BC9181CD4642922
:1008600038DC8846A769A7E733009D42CCD2D1E7A0
:10087000E81BFFF7BDFE040040465146684302F006
:1008800069FB53460600581B5146604302F062FB69
:10089000FF218019014096E70023A76998468BE75E
:1008A00000239846019BAB4200D882E7A81B59461B
:1008B0008026000202F04EFB236976006421361A7E
:1008C000180202F047FB7043029B010A4B431B0ACC
:1008D00098466EE76423A76998466DE7FC7E002082
:1008E000C47E00201C0E0020207F0020D4010020A8
:1008F000300E00200F2310B50F220F210F2000F023
:100900005BF8014B188010BD2C8400200F22014B96
:100910001A707047C40100200023064A1360064A7B
:100920001360064B064A1B68196811605A68054B2C
:100930001A607047340E0020380E00203C0E002054
:10094000D0010020CC010020014B024A1A60704700
:10095000C8010020E1040010074B084A1B68084941
:10096000136000220A6007490A601968064A11608C
:100970005A68064B1A607047F87E00203C0E002033
:10098000340E0020380E0020D0010020CC010020C1
:100990000023024A1360024A13607047D87E002089
:1009A000DC7E00200023024A1360024A1360704775
:1009B000CC7E0020D07E002010B5F024120224014D
:1009C00014400F220240FF20224309031B010A4367
:1009D0001840104380B210BDF8B507000C200E007F
:1009E000150003F0E5FD0023040083600760466006
:1009F000002D02D02000A560F8BD7E43044B70009E
:100A00009E4201D90120404203F0D6FD0500F1E7E6
:100A1000FCFFFF3F10B5FFF795FE012010BDC0465B
:100A2000A022234BD205D2580123224910B50868D1
:100A3000834013420ED0204A1360204A13880133AA
:100A40001BB21380782B06DD01235B42138000224A
:100A50001B4B1A7010BD1B4B1B68986813881BB288
:100A6000002B06DD13881BB2013B1C01E31A1B019E
:100A7000C01814883C23002C08D10A68A021C9059D
:100A80008C46920162441060D361E3E713881BB285
:100A9000783B5A4253413B225B4293430A68A02170
:100AA000C9058C469201624478331060D361D1E766
:100AB0000C040000280E00200C240050DC01002053
:100AC0002E840020F87E002010B501F0E5FB10BD5B
:100AD000D021012209064B681B0A1A42FBD1D02102
:100AE000012209064B681B0A1A42FBD07047C04618
:100AF000014B18787047C0462E840020174A13789F
:100B0000002B00D0704701211170154A1380154B3E
:100B10001B68996813881BB2002B06DD13881BB273
:100B2000013B1801C31A1B01C91810883C23002877
:100B300009D1A020C00584460B4A12689201624484
:100B40001160D361DEE713881BB2783B5A425341F0
:100B50003B225B4293437833EBE7C0462E84002070
:100B6000DC010020F87E0020280E0020F0B5CE46E3
:100B7000474680B5354B89B004000D0018683449EC
:100B8000984603F06BFE80235B020493C0231B0393
:100B90000693030080271233C2011B0313432D4A1F
:100BA000FF0513403B4305930123060099462900A6
:100BB0002000009307220133079703F039FF264BEB
:100BC00029000493069B20000393039A234B1340B0
:100BD0000693234A079B03931A40224B1343079320
:100BE0000022C02303F09EFEC02229002000C02363
:100BF00003F0DAFE069B072003939B009B081F432C
:100C000043461968184B06979C4661444B1E994110
:100C1000063100F09BFC43461968134B06209C46A6
:100C200061444B1E9941063100F090FC320004AB48
:100C30002900200003F03EFF4B46AB4022681343DF
:100C4000236009B0C0BCB946B046F0BDD801002051
:100C5000E88A0010FFFFFF9F00010200FFFFF5C1BF
:100C6000E0830FFC071810000000E0AF10B503F0A0
:100C700029F90B4903F0DBF80A4903F0BDFA0A4BE6
:100C80000A491C6803F0E7F8FC21890503F0CCF859
:100C900003F072F96040064B0004000C186010BDB0
:100CA0000000C842333333408400054000FF7F47D3
:100CB00084100540F0B5C646264B00B51E680400FA
:100CC00030000F0003F0FEF8011C234803F0AFF8DA
:100CD000051C200003F0F6F8011C281C03F0A7F8FF
:100CE000804603F049F9C5B2280003F0F1F8011C71
:100CF000404603F096F88321C90503F0ACF803F0F1
:100D00003BF92D01154A3304C0B21B0C054395660F
:100D10003800536703F0D6F8114903F088F81149F9
:100D200003F06AFA071C20000F4B70430F491D683F
:100D300002F010F903F0C6F8391C03F08CF803F048
:100D40001BF9000468400A4B000C0004186080BCCA
:100D5000B846F0BDE0010020286B6E4D0000054054
:100D60000000C8426666E63F70000540102700009C
:100D700070100540D0231B065868704700B585B039
:100D800001F096F8064B074A029300230193064BA5
:100D9000009301235B4201F08FF805B000BDC0460F
:100DA000E80A002018FCFFFF150A0010F0B5DE4627
:100DB00057464E464546002288218024E0B51A4B0E
:100DC0001A4885B058509A671A5104341A51103293
:100DD0005850DA670F3A84399A670C2000F0B6FB56
:100DE000134B144A1B680D201B041B0C136002F0EC
:100DF00027F80A2001F0CCF90F4803AB02AA01A999
:100E000000F0E8FA002803D10B490C4801F0B4FDCA
:100E1000039A0299019800F0A1FAD0231B0600243E
:100E20000126172798460EE000000540FFFF00004E
:100E3000840005408410054090D00300588A0010BB
:100E40000134202C13D03500A5402F42F8D00521C5
:100E5000280000F07BFB33004246AB400121936247
:100E600028000022013400F089FB202CEBD1D02394
:100E70001B060126022798461F3C3500A5402F423D
:100E800008D00521280000F061FB33004246AB404A
:100E9000536293610134202CEFD103F0CFFE1F2168
:100EA0001A2000F053FB002200211A2000F066FBFC
:100EB00000211A2000F07AFB9C239B46FC4BFD4D41
:100EC00098465B4642460026EA50404698225946DC
:100ED000103BEE509A460833EE50AE506850012059
:100EE000814610274B4650460C396F502B508C3999
:100EF0007E3800F02BFB882340468022E850AE6706
:100F0000AE500432AE50E8504846EF670421A8675F
:100F10000C3000F01BFB4346584698222B5050469D
:100F200094232E50EE505B46AE5042469021EA503C
:100F30004A466F502A50D0258C397D3800F006FB88
:100F4000DD49DE482D0603F0FDFD0521042000F0FB
:100F5000FDFA6F626420AF6101F01AF96F61F13739
:100F6000FF370521092000F0F1FA052105206F6205
:100F700000F0ECFA6C620121062000F0E7FA012192
:100F8000072000F0E3FA4A466B466C6103A91A7326
:100F9000CA48AC61AF6104F00FFB6C61052001F041
:100FA000F7F836236A4603A91373C448AC610122DB
:100FB000AF6104F001FB0122C1496F61BF4804F039
:100FC000FBFA35236A466C6103A91373BB48AC6115
:100FD0000122AF6104F0F0FABA4B012219006F61EF
:100FE000B648984604F0E8FAB2236A466C6103A951
:100FF0001373B248AC610122AF6104F0DDFA4346DD
:101000000522191D6F61AD4804F0D6FA3A236A46ED
:101010006C6103A91373A948AC610122AF6104F0AC
:10102000CBFA0122A8496F61A44804F0C5FA26232F
:101030006A466C6103A91373A048AC610122AF61D9
:1010400004F0BAFAA14B012219006F619B4899463E
:1010500004F0B2FAB7236A466C6103A91373974888
:10106000AC610122AF6104F0A7FA012298496F61D7
:10107000924804F0A1FABB236A466C6103A913737A
:101080008E48AC610122AF6104F096FA01229149C9
:101090006F618A4804F090FAC0236A466C6103A924
:1010A00013738648AC610122AF6104F085FA012216
:1010B00089496F61814804F07FFAC2236A466C61F6
:1010C00003A913737D48AC610122AF6104F074FA87
:1010D000012249466F61794804F06EFAC3236A46DB
:1010E0006C6103A913737548AC610122AF6104F010
:1010F00063FA012279496F61704804F05DFAC423F4
:101100006A466C6103A913736C48AC610122AF613C
:1011100004F052FA012272496F61684804F04CFAF7
:10112000D0236A466C6103A913736448AC61012241
:10113000AF6104F041FA02226A496F615F4804F02E
:101140003BFAC6236A466C6103A913735B48AC6122
:101150000122AF6104F030FA012263496F61574800
:1011600004F02AFAE0236A466C6103A9137353481A
:10117000AC610122AF6104F01FFA0E225B496F617E
:101180004E4804F019FAE1236A466C6103A913730F
:101190004A48AC610122AF6104F00EFA0E225449B4
:1011A0006F61464804F008FA21236A466C6103A97E
:1011B00013734248AC610122AF6104F0FDF96C6128
:1011C000732000F0E5FF11236A4603A913733B481F
:1011D000AC610122AF6104F0EFF929236A466C612A
:1011E00003A913733548AC610122AF6104F0E4F93F
:1011F0002A236A466C6103A913733048AC6101224B
:10120000AF6104F0D9F90C239C46E0440422414626
:101210006F612A4804F0D0F92B236A466C6103A958
:1012200013732648AC610122AF6104F0C5F90422B2
:1012300041466F61214804F0BFF92C236A466C6176
:1012400003A913731D480122AC61AF6104F0B4F926
:101250006C610820AC616F6100F0BCF980235B0019
:10126000244CAB62244D21682868FFF77FFC234B98
:1012700029681E60224A23681800914200D0083075
:10128000204DC2031543A022002404339B00D20545
:10129000CB18146053609460156101251A4B01212D
:1012A0001D6000F00FFA0B20184900F025FA2FE01E
:1012B000FFFF00000000054000127A0000C003405C
:1012C0008C8A0010D48A0010908A0010948A001032
:1012D000988A00109C8A0010A08A0010A48A00102E
:1012E000A88A0010AC8A0010B08A0010B48A0010DE
:1012F000C48A001024830020D8010020280E00207A
:10130000000020501900400004240050210A001061
:1013100001210B2000F0D6F90C4B0D4A5C66DC660F
:101320001C675A67102204219A660B205D6600F044
:101330000DF9084B084A1B681B0C1B04136005B011
:10134000F0BCBB46B246A946A046F0BD0000054031
:10135000FFFF00007000054070100540F0B583B03D
:1013600005000E00140000F08BF9002801D003B036
:10137000F0BD154F01223B0001210097053001F01F
:1013800019FB33002A0000940121104801F000FDF0
:1013900021002800714301F0DDFD04000C4B002208
:1013A00000930221042001F005FB2300002201210B
:1013B0000094052001F0FEFA3B0002220021009774
:1013C000062001F0F7FAD2E7006CDC020080024050
:1013D000001BB700F0B5DE4657464E464546E0B521
:1013E000070085B0042003930191029201F0CAFC2A
:1013F000FA21890001F0AEFD32238246FF3399467F
:1014000086005644B6014F4B4F4AF31807249342C7
:101410000ED901235B429C465346E144F61A4B46E3
:10142000002BF0D100205DE0002900D186E00624E9
:1014300021003000614301F08DFD874242D0631EE0
:101440009846012CE5D01D0065433000290001F0CD
:1014500081FD87424DD0A31E9B46022C4FD02D1BF1
:101460002900300001F076FD87424AD0E31E9B46FA
:10147000032C61D02D1B2900300001F06BFD874249
:1014800043D0231F9B46042C45D02D1B2900300040
:1014900001F060FD874240D0631F9B46052C42D07F
:1014A0002D1B2900300001F055FD87423DD04346F9
:1014B000052B3FD03000E91F01F04CFD8742B3D02F
:1014C0000624B5E70029BAD1A0464246012073019F
:1014D0009B1B9B009E19019BF6001E60029B1C60DB
:1014E000039B1A6005B0F0BCBB46B246A946A046B5
:1014F000F0BD0029E9D0A31E9B46022CAFD10124E8
:1015000096E70029B2D1D846DFE70029FBD0231F98
:101510009B46042CB9D103248AE70029F3D0631F2A
:101520009B46052CBCD1042482E70029EBD043461E
:10153000052BBFD105247BE7022479E701239846D8
:10154000C3E7C046508EF4FF50F80C00094A8300F0
:1015500094464022634410B51C68C0006240C02419
:1015600014408022520113431C60034B9C4660448C
:10157000416010BD04C00140004001400A4B8000A2
:101580009C4604236044002901D00C230821002A32
:1015900000D10B00026853400C221A4080235B01EB
:1015A000184302607047C04604C00140084B8000E9
:1015B0009C466044002905D080239B0118434023AA
:1015C00003607047C0239B01184340230360F8E782
:1015D00004C001400123D02283401206936293612C
:1015E000094A83009446402263441968C0004A4077
:1015F000C02111408022520113431960034B9C46C5
:10160000052360444360704704C00140004001402E
:10161000EFF3108072B6034A1368002BFCD0BFF3BF
:101620005F8F70472C0100D0BFF35F8F0022024B09
:101630001A6080F3108870472C0100D070B5EFF36A
:10164000108C72B60D4D2B68002BFCD0BFF35F8F52
:101650000724CB08C618C05C01230C40A3401C0023
:101660000440034207D103433370BFF35F8F2C6004
:101670008CF3108870BD100001F07EF92C0100D0B1
:10168000024B18688007C00F7047C04600C0064074
:101690000021044B044ABFF35F8F02C39342FAD187
:1016A0007047C046000100D0800100D0044A107885
:1016B000431CDBB2172B00D9102313707047C046B0
:1016C000E401002001238340002904D0034A136071
:1016D000034A13607047034A1360FBE780E200E0AF
:1016E00000E100E080E100E0024B10309B688000E8
:1016F000C058704700ED00E070B50D00EFF31086A4
:1017000072B60F4A1368002BFCD0BFF35F8F0D4BEE
:1017100010309B6884001B590B4A934203D09D42B2
:1017200001D001F041F9074B9B681D51BFF35F8F5A
:10173000BFF35F8F0022024B1A6086F3108870BDE2
:10174000240100D000ED00E0CD010010F0B5DE4630
:1017500057464E464546E0B50C0083B0EFF3108A7D
:1017600072B65A4A1368002BFCD0BFF35F8F102269
:10177000914681444A46564B96009B689D59554B6D
:1017800098469D4205D0A54216D0534FEB1B2F2BF8
:1017900014D94F4B9B689D51BFF35F8FBFF35F8F91
:1017A00000224A4B1A608AF3108803B0F0BCBB4693
:1017B000B246A946A046F0BD1D00EAE701238340DA
:1017C0009B465A46454B1B681A4000925A46444B6A
:1017D0001A60BFF35F8FFEF746FD0190002803D02B
:1017E000814501D001F0E0F801232A009A43936873
:1017F0009C4208D15FE04B005B189B00FB18996886
:10180000A14211D01A00062151560029F3DA009B9B
:10181000002B05D05A46334B1A60304B1A60B8E79C
:101820005A462F4B1A60B4E706215956002921DB8E
:101830004A00501880003C188046A0689860E07903
:10184000D871062020569871002824DBA488F81A45
:101850006405241544440019E0240005400D2402C9
:10186000204398805218204B9200BF181A781970A4
:10187000BA71CCE70199002910D1FF3191711B4950
:10188000918019490A789A71194ADB1B5B415A43C6
:10189000120D0A70BBE7BD200002E2E7154A1649A7
:1018A000D21A083A5002400D014399801349520858
:1018B0000A43DA80ABE70621515613000029B7DA54
:1018C000019A002AEAD14546DBE7C046240100D050
:1018D00000ED00E0CD010010E801002000E100E093
:1018E00080E100E080E200E03084002000BDFFFFE6
:1018F000AAAA00002202002000F0FFFF00F8FFFF6C
:10190000F8B5012504000543FEF7ADFCEFF3108C9C
:1019100072B6214A1368002BFCD0BFF35F8F1F4EB5
:101920002100B7681E4A1F4B891A49414B431B0DC2
:1019300059B28300F858A8421CD00623D3568B42D4
:101940001CD01223D3568B4222D01E23D3568B4257
:1019500020D02A23D35603208B4210D0124B1A7862
:101960001970A271BFF35F8F00220B4B1A608CF3CA
:101970001088F8BDB2680D48D050EFE70020430052
:101980001B189B00D218FF239371094B9380E5E746
:101990000120F4E70220F2E7240100D000ED00E08E
:1019A000E8010020AAAA000030840020CD01001028
:1019B00000BDFFFF054B064A1360064A13605360E3
:1019C0009360D3601361536193617047808080801E
:1019D00000E400E004E400E0024B9C46614489001E
:1019E000016070474000003483680B4810B584469E
:1019F00061446244090112019A18591854684B68ED
:101A000001209C4201D802D00020C0B210BD126853
:101A10000B689A42F9D8F7E7FFFFFF0F10B50800EF
:101A20000B690C009847002802D02068616810BD3F
:101A3000E06000210020FAE70A4B1968EFF31080FC
:101A400072B60A68002AFCD0BFF35F8F1B68BFF331
:101A50005F8F00221A6080F3108840BF00200021B1
:101A60007047C04618840020F8B557464E46454694
:101A7000DE46E0B599460CAB1C780DAB1B78060032
:101A800090469A460768002C11D1BC7B002C42D0AE
:101A900065003B682D19033D59194B78BB73002B2A
:101AA00000D1FB7300238B704B700B7004E065005A
:101AB0003B682D19033D5919B2682A4B944642469A
:101AC000E3181B0163441A604A465A600A9A9A60F6
:101AD0000B9ADA6000238B704B700B707B7B9B46FC
:101AE000002B2BD022005946B8687B6898473A688B
:101AF000002816D05B4658465B005B445519033BF3
:101B0000A870D118D35C002B00D06B705B460C70B2
:101B10007B73A34513D0F0BCBB46B246A946A04692
:101B2000F8BD5B465B005B44033BD3189C705119C6
:101B3000525D002A00D05A705B460B707C7342469F
:101B40004B46307D00F008FC051E06D05346002BA6
:101B500003D12100306800F021FE0E9B002BDAD06B
:101B60001D70D8E7FFFFFF0FF0B5DE464E46574623
:101B700045460023E0B58DB00A936B4B8200D358E5
:101B80000B90994600239B464B46079300F084FB3D
:101B9000079C06000F006268EFF3108572B61368A9
:101BA000002BFCD022000794BFF35F8F2468637B77
:101BB0009946002B67D092685C4B90464B441B01C2
:101BC000984443461A685B6810001900801BB941AD
:101BD00000295FDD0B9800F0BFFB0023002698462C
:101BE00000279A46079C6368BFF35F8F5A461A60C6
:101BF00085F310885346002B08D10028C6D10DB0BC
:101C0000F0BCBB46B246A946A046F0BD0A9B414681
:101C100018024B461843D047089009916268EFF3C9
:101C2000108572B61368002BFCD00794BFF35F8F4A
:101C30000899099A002A48DB114303D0079B1B69C6
:101C4000002B5DD1079B1B68D97B002907D04A0078
:101C5000521819688C4649466244033A51704A4604
:101C6000DA734B46079A013BD168CA5C0132CA5409
:101C70005B46079A13615368BFF35F8F5A461A6039
:101C800085F3108882E700230026984600279A46AD
:101C90000020A7E7002901D100289BD100212000C6
:101CA00000F0FEFC43461E685F689B68079A9A46F0
:101CB0004346DB689846D3684B44013B1B780A9344
:101CC0001B020343136100208CE72369002BB9D06A
:101CD00033003C005B1A94411A002300A74219D834
:101CE0009F421BD05946049101210391494602911C
:101CF00041460191514607980091FFF7B5FEB7E7BD
:101D000000F0CAFA089A099B06000F0092197B415D
:101D10009942E5D901225242D317E3E79642E1D92D
:101D200001225242D317DDE704840020FFFFFF0F9A
:101D3000F8B557464E464546DE46E0B5404D81462D
:101D40008A466A68EFF3108872B61368002BFCD0DD
:101D5000BFF35F8F2E68B47B002C39D067003368E7
:101D60003F19033FDB195A78B273002A00D1F2738E
:101D7000A968344A8C464946A2181201624411608F
:101D800051465160304991600021D160997059707D
:101D90001970737B9B46002B35D022001900B06868
:101DA000736898473268002820D05B4658465B002D
:101DB0005B44D719033BB870D118D35C002B00D01B
:101DC0007B705B460C7073735C451DD0002626E06B
:101DD0006B68BFF35F8F1C6088F31088012040425E
:101DE000F0BCBB46B246A946A046F8BD5B465B00C8
:101DF0005B44033BD3189C70D119D25D002A00D0FC
:101E00005A705B460B7074734A465346287D00F047
:101E1000A3FA061EDAD02100286800F0BFFCEB68A8
:101E20001B19013B19786B68BFF35F8F00221A60A2
:101E300088F310880020002ED2D108022043CFE77B
:101E400030020020FFFFFF0F391A001010B5124CAE
:101E50006368002B04D00A211048FFF7BDFD10BDB8
:101E600023000F4A1021206800F038FB032000F007
:101E700007FA032000F0E0FA03200A4900F026FAEE
:101E8000FFF714FC084B9C46032360442375074B63
:101E900080006060DC60DEE73002002018840020F3
:101EA000E9190010691B0010400000340484002070
:101EB0000048704730020020F0B54E464546DE46E9
:101EC0005746E0B585B010990500894611001943C1
:101ED00000D1ECE0D81704005440260004005C4018
:101EE00001002700361A8F4149460E980A600F9A62
:101EF0004B604A618D60086100F0CEF902000B0072
:101F0000B6185F4100960197B94200D9DDE000D1D3
:101F1000D7E00023A8469B461F0043465A68EFF3CC
:101F2000108A72B61368002BFCD0BFF35F8F434654
:101F30001E68B47B002C00D18BE063001B19033BAF
:101F40001A0094460393336863445A78B273002AA4
:101F500000D1F27341468968604A8C460098019925
:101F6000A21812016244106051605D4991604946B7
:101F7000D1605A469A705A701A70757B002D00D144
:101F800085E022002900B06873689847326800280D
:101F900000D171E003996B005B195118033B8D7000
:101FA000D018D35C002B00D089E0047075733E001C
:101FB000AC4200D16CE043464246DB6852681B19D4
:101FC000013B1B78BFF35F8F594611608AF310887D
:101FD000002E0CD101261B021C434B463000DC6056
:101FE00005B0F0BCBB46B246A946A046F0BD484687
:101FF000036998470700031E01D10024EDE74A4614
:102000001468556822002A4365D0002D0BDA009829
:10201000019902000B00121BAB41994213D822D048
:102020000092019379E700F037F902000B00A41841
:102030005D4100940195A94205D800D06DE7009953
:102040008A4200D869E701235B42DC1700930194C0
:1020500063E75B68BFF35F8F1C608AF3108801241D
:1020600000266442B9E700999142D9D901235B4225
:10207000DC170093019450E76B005B19033B039856
:10208000D3189C701118125C002A15D10D7074734E
:102090004346187D009A019B00F05EF9061E00D1B0
:1020A00089E743462100186800F078FB83E70126A2
:1020B00000270122002317E75A700D70E7E74B70E5
:1020C00073E700998A4200D823E701235B42DC17BB
:1020D000009301941DE71E0000247EE7FFFFFF0F21
:1020E0001D1A0010F0B504000D0006267642F71701
:1020F000C64636196F4100B58F4213D810D000F094
:10210000CBF832003B00121A8B41002B14DC002B61
:1021100037D02900200000F0C9F880BCB846F0BDD7
:102120008642ECD90026002700F0B6F832003B00CA
:10213000121A8B41002BEADD30003900FFF7F8FD61
:102140000028E6DB00239846BC460F4A0F4F7B6A07
:102150009C4504D8B96A8E42DBD99C45D9D1116817
:10216000EFF3108072B60B68002BFCD0BFF35F8FCB
:102170001368BFF35F8F4146196080F3108820BF5A
:10218000E5E7002AC5D0D7E71884002000400540C5
:1021900070B5060000F080F8FA2204000D0000235C
:1021A00030000021920001F01FFE001969418D42AC
:1021B00005D802D0FFF796FF70BD8442FAD90120FE
:1021C0004042C117F6E7C046F0B5D6464F464646F0
:1021D000C0B5EFF305833F22134018001038EFF32A
:1021E000108C72B6204D2A68002AFCD0BFF35F8F96
:1021F0000122110081401D4C884661631C49170073
:102200000E788A463100C1400F400A4209D1BFF31F
:102210005F8F2F608CF31088E0BCBA46B146A846A9
:10222000F0BD14498200646A51588C420FD3124B9E
:10223000D25843469E4353461E70BFF35F8F002320
:102240002B608CF31088002AE6D09047E4E70B4A15
:102250009B00904643441A681A60BFF35F8F0023C7
:102260002B608CF31088D7E7280100D00040054090
:10227000318400201C84002078830020D03F05405A
:1022800010B50100024A0348FFF7D8F910BDC04657
:10229000180B01102F840020034B596A0A00986A1A
:1022A000596A8A42FAD1704700400540064A536A8B
:1022B0009942FCD807D1044B02E05A6A914202D1FC
:1022C0009A6A8242F9D370470040054070B5040015
:1022D0000D00EFF3108672B61A4A1368002BFCD07B
:1022E000BFF35F8F002D1BD02000FFF7FDF91649CB
:1022F00081420AD02000FFF7FFF901212000FFF7FB
:10230000E1F90123A340114A1360114BA400E550E9
:10231000BFF35F8F00220B4B1A6086F3108870BDED
:102320000B4BA200D5500122A2400A4920000B7895
:1023300093430B700449FFF709FA00212000FFF7CF
:10234000C1F9E5E7280100D0C92100103860054037
:102350007883002031840020F0B54F46D6464646AB
:10236000C0B507002F4C616A0D00A66A616AA942D8
:10237000FAD18B4208D805D00120E0BCBA46B1465C
:10238000A846F0BDB242F7D9EFF3108A72B62648DC
:1023900001680029FCD0BFF35F8F0125BD402349B0
:1023A000204C8846097889462943C9B28C46414663
:1023B00060460870391D1E48890065630A51B900DE
:1023C0000B50216A0020294219D0616A0800A66AD0
:1023D000616A8142FAD18B4219D801D1B24216D832
:1023E000CC451DD00F4B1F201D625D6301230740AC
:1023F000BB40104A1E38136043464A461A70BFF36A
:102400005F8F0022084B1A608AF31088B5E700201E
:10241000BFF35F8F0022044B1A608AF31088ACE789
:102420000120ECE700400540280100D03184002065
:102430001C84002080E200E0EFF3108C72B60A49A1
:102440000B68002BFCD0BFF35F8F01238340074A4A
:102450000748136202789A430270BFF35F8F00232C
:102460000B608CF310887047280100D000400540B5
:102470003184002070B5050014001600002915D025
:102480000C00002A12D080686B68984729680028E1
:102490000ED073009B196200033B1219CB18033A4C
:1024A0009C7088188A5C002A15D10670200070BDC7
:1024B00063001B197200033B9219CB18033A9E70FC
:1024C00088188A5C002A02D104703400EEE75A7042
:1024D00004703400EAE75A700670E7E730B58360AD
:1024E0000023CCB243730133047342608373C4731B
:1024F0000D000068012C06D9421C0133DBB21370B9
:1025000003329C42F9D1FF2129404B005918002386
:1025100040180338437030BDF8B5CE464746060034
:102520000C0080B5002907D04D0003686D18033DED
:102530005A195778002F04D12000C0BCB946B046C4
:10254000F8BD7900C919033988464344597889464A
:1025500000215970517073683A00210080689847D3
:102560003368002814D042469A18947059195B5D5C
:10257000002B00D053700F70270049463000FFF742
:10258000CBFF390002003000FFF774FF0400D3E7EF
:10259000424641465D19AF709A185B5C002B00D033
:1025A0006B701470E9E7C046F0B557464546DE4605
:1025B0004E46E0B50D006B0001685B19DF1E04009C
:1025C000C85D83B00192CA1900284CD043001B1883
:1025D000033BCB185E78B446002E16D1019E002E28
:1025E0003ED0E67B002E04D073009B19CB18033B32
:1025F0005D70E57300282FD10023537003B0F0BC49
:10260000BB46B246A946A046F0BD72006244033AFA
:1026100089184A78904600224A7091465A70010003
:1026200032002000FFF726FF43468246002B07D0EA
:102630005B0021684344033BCB185A78002A16D12B
:10264000424651462000FFF715FF2168019BCA1939
:10265000002BC6D10028CFD043001B18033BCB185A
:1026600000219970C8E7019B002BBAD1C4E7500044
:1026700080180338091848788346484648705870CF
:1026800041462000FFF7F6FE594680462000FFF73E
:1026900043FF414602002000FFF7ECFE8046CFE7F3
:1026A000F0B557464546DE464E46E0B583B001914B
:1026B000457B04006B0000685B19DF1EC15DC21919
:1026C00000294ED04B005B18033BC3185E78B4461C
:1026D000002E18D1019E002E40D0E67B002E04D0A3
:1026E00073009B19C318033B5D70E573002931D15A
:1026F000002328005370617303B0F0BCBB46B246A0
:10270000A946A046F0BD72006244033A80184278A0
:1027100090460022427091465A7020003200FFF726
:10272000A9FE43468246002B07D05B002168434444
:10273000033BCB185A78002A17D142465146200055
:10274000FFF798FE019B01002068C219002BC4D13D
:102750000029CDD04B005B18033BC31800209870B4
:10276000C6E7019B002BB8D1C2E7500080180338A0
:1027700009184878834648464870587041462000FA
:10278000FFF778FE594680462000FFF7C5FE414618
:1027900002002000FFF76EFE8046CEE770B5040011
:1027A00000292CD0437B8B422ED00568480040186E
:1027B000033828188278002A21D053009B18033B45
:1027C000EA5CEE188A4202D11BE0002A08D05300CE
:1027D0009B18033BEB185A788A42F6D142785A701C
:1027E00000230122837043702000FFF7DDFE617B30
:1027F00002002000FFF73EFE6073012000E0002091
:1028000070BD43783370EBE701221900FFF7CCFE6F
:1028100060730120F4E7C04610B50400FEF746FFE0
:1028200001002000FFF7D8F8FF232371BFF35F8F6B
:1028300010BDC04610B50400FEF738FF01002000AF
:10284000FFF7CAF8FF23A380BFF35F8F10BDC04618
:102850002C4B2D4A70B51A602C4A2D4B2D491A600D
:1028600014008B689C43FBD12B4D2C4EB54208D2F3
:10287000013E761BB60808CD984723000134B342C9
:10288000F9D100F021F9264A214B1A60214A9368B8
:10289000DB43DB01DD09002BF9D14022214B224C27
:1028A000224E9A675A671A67DA66B44208D22368DA
:1028B0002000002B20D00834FFF7BCFFB442F6D331
:1028C0001B4E1C4CC022A168300001F06BFEA660BC
:1028D000FEF7DEFEFFF76EF8FFF7B8FA164C174E5C
:1028E000B44208D2013E361BB60808CC98472B00EC
:1028F00001359E42F9D170BD0834FFF78DFFB44217
:10290000D5D3DDE700E00040BFCDFBFEFE7F3C00FD
:1029100000F0004000C00040C80A0020D80A002093
:10292000FFFFFF0100F00140C00A0020C80A00209C
:102930000000002000ED00E0D80A0020E80A002096
:10294000094A03001068002805D00849C3188B42C3
:1029500007D81360704706480449C31810608B42BB
:10296000F7D901204042F5E7FC8300200000042055
:102970003484002000BEFDE70FB400B5084883B0E2
:1029800001F04EFF049B002B07D005A91800019110
:1029900000F088FA034801F043FF00BEFDE7C0469F
:1029A0003C0B01104C0B011010B50148FFF7E4FF80
:1029B000500B0110F0B54546DE4657464E46E0B591
:1029C00083B001920C9A050088469A4200D974E0BF
:1029D0001A0E93461E023000002359460C9A00F04E
:1029E000FBFA374B6C009C466419A400644463688E
:1029F0000700834200D260602B1FDBB29946012B97
:102A000035D9C02380229B01234312011A602D4B2C
:102A1000AD0059599A46002905D0586900F09AFA34
:102A200001300138FDD1019A236852015340E02260
:102A30001A4080235B0123431A604A46012A2FD99A
:102A4000802380229B01234312011A60300000235F
:102A50003A005946676000F0BFFA534658510120CA
:102A600003B0F0BCBB46B246A946A046F0BD434603
:102A7000012BC6D1C02303229B0123431A60023AD3
:102A8000A3681A42FCD0019A236852015A40E023FD
:102A90001A4080235B0123431A600A4AAD00924624
:102AA00042462168514003220A401A6001224346EF
:102AB0009A40A3681A42FCD0C2E70020D0E7C04683
:102AC000008000408883002030B50C2083B000F0E7
:102AD000C5F9FEF7D5FD00280ED0944B944A1A6034
:102AE0005A609A60DA601A615A619A61DA611A6210
:102AF000904A5A6203B030BD8F4CA06700F0B6F91F
:102B000001228E4B1A60636C012BFCD103228C4B8B
:102B10001A60894A936B012BFCD101330121894A48
:102B200089480093043300F033F90523874A009362
:102B30000121874800F02CF9864B5A68FF2A02D8F9
:102B4000802252005A608022784C7D4B216912010C
:102B5000804D1A60002905D0606900F0FBF9013052
:102B60000138FDD1E0217B4B02201A681140802200
:102B700052012A4311601968484003210140116045
:102B800004219A681142FCD08022802192012A43BC
:102B900009011160802252005A606F4B23616F4B14
:102BA0005968FF2900D85A600321644A6B4B1160B1
:102BB00002399A681142FCD0E0201A681040802245
:102BC00052011A4310601868484003210140022056
:102BD000116062498A681042FCD08022920113433E
:102BE000802212011A6080225D4B52004A606361AC
:102BF0005C4B5968FF2900D85A6080225A4BE16922
:102C00001201584D1A60002905D0606900F0A2F940
:102C100001300138FDD1E02252490B681A4080236F
:102C20005B012B431A60802380229B012B431201FE
:102C30001A6080223E4B52004A60E3614B4B596858
:102C4000FF2900D85A608022494B216A1201474D62
:102C50001A60002905D0606900F07CF90130013864
:102C6000FDD1E02241490B681A4080235B012B43D0
:102C70001A60802380229B012B4312011A6080235B
:102C800080225B004B602A4BD2022362394B596889
:102C9000914200D25A608022374B616A1201354D51
:102CA0001A60002905D0606900F054F9013001383C
:102CB000FDD1E0222F490B681A4080235B012B4392
:102CC0001A60802380229B012B4312011A6080230B
:102CD000DB024B60174B6362284B5A68FF2A02D80D
:102CE000802252005A608022254BA1691201234D97
:102CF0001A60002905D0606900F02CF90130013814
:102D0000FDD1E0221D490B681A4080235B012B4353
:102D10001A60802380229B012B4312011A608023BA
:102D20005B004B600E4BA361E4E6C0468883002045
:102D3000006CDC021BB70000008000403CB000408B
:102D400030B00040002F685900800240008C864758
:102D500000C0024030800040001BB7003C800040B3
:102D6000405973075480004054B0004060800040D8
:102D700060B000406C8000406CB000404880004073
:102D800048B00040014B8000C05870478883002045
:102D9000F0B5C646040000B50C2090461F000E009A
:102DA00000F0D8F84101091A8D01691AC900091803
:102DB0008901404600F0CEF8069B3F041A032368C1
:102DC0001743002B22DB1A4B1A4DE21853425A418B
:102DD00080235B019C461203174B62441A60174B19
:102DE0001A601100AB689943FBD1C022231D9201E8
:102DF0001A4321232660A06013602368002BFCDAAD
:102E00000823E760136080BCB846F0BD3F2322680A
:102E10001340B342D7D1A3681B051B0D8342D2D107
:102E2000EE22E368D2021340BB42CCD1EBE7C046AE
:102E30000040FDBF00C0004000E0004000F0004046
:102E4000044B00011B685840F0231840024B1860E7
:102E50007047C04600400640005006408023024AAA
:102E60009B000343D362704700800540AA23064AB3
:102E70001B0113602F230549D360054B196053686C
:102E8000002BFCDA7047C0460040024000B0FA0058
:102E90000060024010B5002800D110BD01F070FCA8
:102EA000FBE7C04610B5094A0300146884B0002C43
:102EB00008D0012200910648524203A9A0470120F0
:102EC00004B010BD01F0ACFC0020F9E70084002044
:102ED000952E001001480421014B18476002002084
:102EE000112F0010014B9B68184700006002002062
:102EF000142310B50100188804331B88984710BDAF
:102F0000162310B50100188802331B88984710BD9E
:102F1000F8B54746CE4680B50F1E19D01423994602
:102F2000043304000025012698464B461888434682
:102F300021681B88984701C4431E984101354042CF
:102F40000640AF42F1D13000C0BCB946B046F8BD32
:102F50000126F8E7114A936F9B0813D21066516659
:102F6000002905D0FFE7FFE7FFE7516F106F7047BB
:102F700004B5002801D00020C04302F00DFB002161
:102F800004BDC046F0B5146E556E576F166FFFF74F
:102F9000E5FF1466556657671667F0BD000000D060
:102FA00094464E4A926F9208624601D230E0C04683
:102FB000F0B54A4EB56F6D08FCD3346E756E776F01
:102FC000366F00F025F89446444A146655665767F4
:102FD00016676246F0BDC0469446404A926F92081A
:102FE000624601D258E0C046F0B53C4EB56F6D0860
:102FF000FCD3346E756E776F366F00F04DF89446E3
:10300000364A14665566576716676246F0BDC04675
:10301000002B24DB11D000293EDA00B5C943404221
:1030200000D1013100F038F8C943404200D10131EC
:10303000DB43524200D1013300BD002AEBD100280E
:1030400001D1002905D00020C90FC90701D1C04313
:10305000410800B502F098FA0022002300BD00B537
:1030600000290ADBDB43524200D1013300F014F89F
:10307000C943404200D1013100BDC943404200D1A3
:103080000131DB43524200D1013300F005F8DB434C
:10309000524200D1013300BD002923D1002B18D1A9
:1030A000002A0CD0BC460D4F38667A6600210023FA
:1030B000FFE7FFE7FFE77A6F386F67467047002842
:1030C00001D00748010000B502F05EFA002200239B
:1030D00000BD02000B00002000217047000000D05E
:1030E000FFFFFFFF002B00D0BFE0130C28D1002A08
:1030F000E7D080B4114F39667A66FFE7FFE730B456
:10310000040C7B6F396F1B0423433B667A66FFE731
:10311000FFE7FFE7C04684B27B6F3D6F1B0423438C
:103120003B667A66FFE7FFE7C04600232C042D0CC0
:103130007A6F386F00196941B0BC7047000000D049
:10314000F0B594460025140E01D112020835140F73
:1031500001D112010435940F01D192000235D40F30
:1031600001D152000135D40B0134254F7C66254C2A
:103170003C660E0C93B2FFE7FFE7FFE73C6F664348
:10318000360C7703BE467343DF0B5B04C01AB941AC
:10319000130C7343DB18C91ACE086643360CB644C9
:1031A00093B273431F0F1B01C01AB941130C734331
:1031B0001F0B1B05C01AB941860D8F023E436643A3
:1031C000360C092D24DB520A7243801A7703460A13
:1031D0006643360C16235B1BDE40DF40BF19644696
:1031E0006643821B7046043506330100D940A8406F
:1031F000C01900D30131A24206D20023F0BD000065
:10320000000000D0FFFFFFFF121B0130F3D3F1E7F6
:1032100009277F1BFE406446A2B27243801A00D287
:103220000139220C7243130C1204821A99410B00CB
:103230007046043513370100F940A840801900D3C7
:103240000131002B02D1A2420AD2F0BD013000D3DD
:103250000131121BFAD2013BF8D1A24200D2F0BDDB
:10326000013000D30131121BF7E7F0B51C0C00D080
:1032700080E00CB400251C0A04D11B02160E334357
:10328000120208351C0B04D11B01160F3343120127
:1032900004359C0B04D19B00960F334392000235FA
:1032A000DC0B02D192185B4101351C009718644178
:1032B0000134464F7C66464C3C660E0CFFE7FFE748
:1032C000FFE7C0463C6F6643360C7703BE4697B2B5
:1032D0007743C01B00D20139C01B00D201399FB215
:1032E0007743C91BC91B170C77437E04FF0B801B58
:1032F000B941CE086643360C0C2D33DBB644120BB5
:103300001F053A431B0B97B27743C01B00D201390C
:103310009FB27743C91B170C77433E043F0C801BB9
:10332000B941860D8F023E43664329277F1BFE402D
:103330000C3D7746AF40BF1930BCA2B2ABB272436E
:103340007343801A9941220C7243130C1204801AA1
:10335000994102000B000137001BA941F9D2781EE8
:103360000021F0BD0C277F1BFE4077467F0BAF404E
:10337000FF19E0E700245D1C07D0144F7D66396615
:10338000FFE7FFE7FFE7FFE73C6F95B29EB26543BB
:103390006643401BB141150C1E0C65436643360461
:1033A0002F0C3E432D04401BB141994204D2020030
:1033B0000B0020000021F0BD01D19042F7D3801A0C
:1033C000994101349942F2D3F6E70000000000D0A1
:1033D000FFFFFFFF48404140484018B41B4B5B686B
:1033E000FC46019308BD04DF6335001018B4174B89
:1033F0001B68FC46019308BD00DF6D350010944644
:10340000134A926F920809D2624618B40F4BDB68D8
:10341000FC46019308BD0CDF253800100C4AF0B5BE
:10342000146E556E576F166F6246FFF7EEFF084A2F
:103430001466556657671667F0BD18B4034B9B6852
:10344000FC46019308BD08DFC9360010000C0020BF
:10345000000000D018B4044BDB6FFC46019308BD9C
:103460007CDFD53900100000000C002018B4044B9C
:10347000DB6CFC46019308BD4CDF813B0010000073
:10348000000C002018B4044B1B6DFC46019308BDD2
:1034900050DF1D3C00100000000C0020132370B50D
:1034A0001D78012D15D010DD1C48FFF729FD1C4C9F
:1034B00001008022200001F075F8022D06D0194885
:1034C000FFF716FD184B186070BD154C174BA36421
:1034D000F5E7164B124C23606360A360E360236141
:1034E0006361A361E36123626362A362E3622363B6
:1034F0006363A363E36323646364A364E364236596
:103500006365A365E36523666366A366E366236775
:103510006367A367E367A364D1E7C0465344000031
:10352000000C00204C3300001484002031350010C2
:1035300007B5604601880A0A0230DF2AFAD1C9B20B
:10354000820804D3028840880004104300E0006829
:10355000014A5050039007BD000C00200FB403BC7B
:103560000CBCF0B50124E407634000E0F0B50C0D9D
:10357000CF0F661E3605891B640503D3C94340423D
:1035800000D30131640D03D0661CF60A07D0E41B9A
:1035900000207F00791C89078912803C24031D0DBF
:1035A000DF0F6E1E36059B1B6D0503D3DB435242B6
:1035B00000D301336D0D03D06E1CF60A07D0ED1B4E
:1035C00000227F007B1C9B079B12803D2D032F1B3D
:1035D000661B58D4A446202E46DA20371400BC407F
:1035E0001D00BD40F24033412A4380185941CB0FA2
:1035F00005D0C943C0430022644250415141624654
:103600004D0D28D10D0D07D100281FD024194041A0
:103610004941013A0D0DF9D0640006D3013000D3C1
:103620000131002C01D140084000013A0BD4941C18
:10363000E40A04D112051144DB071944F0BDD9078F
:10364000204B194300E0D9070020F0BD0029DDD14F
:10365000002CDBD1F0BD0132C6074008CD0728435E
:103660004908002EE1D0D9E73C2E29DA203E403728
:103670001400BC4000D00124F24014431A00BB40A7
:103680001C43D317ACE7AC46202F08DA20360400E1
:10369000B4400D00B540F84039412843A5E73C2F20
:1036A0000CDA203F40360400B44000D00124F8403A
:1036B00004430800B1400C43C117EAE710001900A9
:1036C000002494E70000F07FF0B50C0D661E36056F
:1036D000891BE60A6405640D02D0651CED0A04D05E
:1036E000002001210905803C2403A4461C0D671E0F
:1036F0003F05DB1BE70A6405640D02D0651CED0A7B
:1037000004D0002201231B05803C2403774064443D
:1037100097B484B296B27443070C7E43150C6F4382
:1037200080B26843361802D3012000043F183004E9
:10373000350C00197D41844688B29AB250430C0C76
:1037400062431F0C7C438EB27E43921902D3012642
:103750003604A4191604170C3618674101BC81B24F
:103760009AB25143040C62431B0C5C4380B2584331
:10377000121802D30120000424181004130C40185E
:1037800063412D185E410020474106BC88B293B2C8
:1037900058430C0C6343120C544389B251435B18D9
:1037A00002D301210904641819041A0C0918624192
:1037B0006D1856410020474118BCF902720D1143A3
:1037C000F0026A0D1043ED020A0D03D16D1940415C
:1037D0004941013B124E9B1B7600B3420ED26D0055
:1037E00007D30130002671416646354301D14008B8
:1037F00040001B05C918E4072144F0BD0BDA013372
:1038000006D1013004D101314F0D01D04908F2E752
:10381000E1070020F0BD013631050020EBE7000094
:10382000FF030000F0B51C0D671E3F05DB1BE70A18
:103830006405640D02D0661CF60A04D00022012340
:103840001B05803C2403D0252D060026F6432E665A
:103850001E096E66CE0FF619B44649004F0D02D010
:103860007E1CF60A03D000200021403F3F033E1B90
:10387000B600B444013F7F05C91B49082E6F0136CD
:1038800076089C02950D25437543ED137543AD13E2
:1038900001356D10F603761B0CB4CC02450D2C439C
:1038A000A2B2B3B25A43270C7B43350C6F43A4B288
:1038B0006C431B1902D3012424043F191C041D0C62
:1038C000A4187D4124196D41009A91B2ACB26143B4
:1038D000170C7C432B0C5F4392B25A43A41802D3BB
:1038E00001221204BF182204230C52187B41019CB0
:1038F0006C431B19520ED9010A434401A01A81B22C
:10390000B2B2514303145A43360C734387B2774320
:10391000D617D21900277E4136049B191704160CBE
:103920007F185E417316ED18F30100268033754150
:10393000A90F06D16400690AE8055B0A184309D299
:103940002FE00422944480337541A90AA8059B0AFC
:10395000184326D3404149412404009A019B0D009D
:103960005543641B4343E41A95B286B27543170C62
:103970007E43030C5F4392B25A43B61802D301222E
:103980001204BF183204330C52197B4152429C413D
:10399000002C02D40022013051414008CA071043D4
:1039A000490802B06246D7079210084BD218084B5C
:1039B0009A4203D212058918C919F0BD0020002AC5
:1039C00001DC3900F0BD01331905F5E7FD03000006
:1039D000FE0700004A00520D144BD21A13DDFF2AD5
:1039E0001EDAD205CB0FDB071A43C300400F0903D1
:1039F000490A084310435B0001D301D001307047EE
:103A00004308FBD2704702D0C80FC00770470A03B3
:103A100012130132F8D1420F072AF5D1012200E03A
:103A2000FF22C80F00028018C00570478003000005
:103A300000210A00002104E000210A00C11704E06F
:103A40000022002306E0C0460022CB175840594010
:103A5000C01A994130B5184CA21A002903D10100AF
:103A600010D00020203A4C1512D104D2013A00188F
:103A700049414C0DFAD3114CA24204D212058918C7
:103A8000DB07C91830BDD243520D00200021F5E7F5
:103A900003D4013A00184941FBD50B324405C00A52
:103AA0004D052843C90A640003D0002460416141E8
:103AB000E1E7E0D34408F8E732040000FE07000025
:103AC0000A0DCC0F531E1B05C91A520503D3C94357
:103AD000404200D30131520D03D0531CDB0A07D002
:103AE000121B00206400611C89078912803A1203AE
:103AF000014BD21A70470000FF030000023225D4A8
:103B00000C2A1CDA1125AD1A0B002B41083207359F
:103B10000600EE40904091403143F0CC63431A15CB
:103B200000235A41554356435743BF02F4127605CA
:103B300076196741ED177F19801BB94170470C2238
:103B40000020C917490001310905DBE70902030E0E
:103B5000194300025342203208D40C00194194400A
:103B6000D840204300225041514170470800C917F6
:103B7000203B2032F1D500200021002270470000B8
:103B8000F0B5FFF79DFF54A4FFF7B8FF002904DA52
:103B9000204C214D00196941013A04B4012752A675
:103BA000002201239B0730CEB446001BA9410BD451
:103BB0007E4220361D003D411C00B4401600FE40F0
:103BC000344362416B4101E00019694166460137A7
:103BD000212FE8D185B29EB2754307147E43190C9C
:103BE0004F4384B24C43F117361900246141090454
:103BF0007F183404310C64197941A40F88002043E4
:103C000089178018594104BC52423E32FFF71DFF0C
:103C1000F0BD00006BDE73F4FD855C2CF0B54F0049
:103C200050D27F154ED001374FD0FFF749FF04B473
:103C30004902C20D1143400201272BA6B4460022BF
:103C400000237E4220360D003D410C00B4400600AA
:103C5000FE40344344414D41AE0F05D120002900C0
:103C6000664630CE121BAB410824A4440137212FF5
:103C7000E7D18900891012184B4180BC17A413CCDE
:103C80000137784379437C434F05C912CD17C019DA
:103C90006941A702A415CD17C9196C41DD17801819
:103CA00059416C413E22CD17AC4208D000090E07A5
:103CB00030430909260731432411043AF3E7FFF79B
:103CC000C4FEF0BD02490020F0BD02490020F0BD55
:103CD0000000F0FF0000F07FAAB800006BDE1300C8
:103CE000A3EF0F0021170B00F34B98BFEC23F31940
:103CF000D6104DCDE3FB470E7AB9BC8ADBC18907EC
:103D0000CC542C021846E103053083E7B029F801B2
:103D10001E1FE0874505FE00249E41ACA9807F0060
:103D20008117624515E03F00E610ABA902F81F00BD
:103D30008858455500FE0F00C4AAA90A80FF070055
:103D400056455501E0FF0300ABA92A00F8FF01002A
:103D500045550500FEFF0000AAAA0080FF7F000075
:103D6000551500E0FF3F0000AB0200F8FF1F000008
:103D7000550000FEFF0F00000B0080FFFF07000052
:103D80000100E0FFFF0300000000F8FFFF0100005A
:103D90000000FEFFFF0000000080FFFF7F0000002A
:103DA00000E0FFFF3F00000000F8FFFF1F000000E1
:103DB00000FEFFFF0F00000080FFFFFF0700000074
:103DC000E0FFFFFF03000000F8FFFFFF010000001D
:103DD000FEFFFFFF00000000000000800000000068
:103DE000000000400000000051434343C9188C46C6
:103DF000110C83B24B4310B4040C614392B280B2F5
:103E0000504362431C041B0C001910BC594113049D
:103E1000120CC018514161447047000048404140B5
:103E200048400E4B5B6818470C4B1B6818470C4A00
:103E3000936F9B0802D2094BDB681847F0B5146EEC
:103E4000556E576F166FFFF7F6FF054A14665566F5
:103E500057671667F0BD014B9B681847000D00209F
:103E6000000000D007B548404140484001E0C0464E
:103E700007B54200120E03D0FF2A03D1420218D820
:103E8000C00DC0054A00120E03D0FF2A03D14A021A
:103E90000FD8C90DC9050122414005D4414001D5C3
:103EA000814207BD884207BD0143491801D0C04384
:103EB000001807BD00B5FFF7DBFF01D0002000BDF3
:103EC000012000BD491A002808D1084670470000AB
:103ED000C10FC90700D54042002817D0F44603B4EB
:103EE0000B4B1B68984706BC81409E38404280318E
:103EF00007D20B0607D04900490AC0051043084302
:103F000060470130F8E7490A8902F5E77047000089
:103F10001484002041000A0E80231B067E2A0BDD3C
:103F20009E3A0BDAC1174002400818435242D04073
:103F3000490001314843704700207047C00FC01846
:103F400001387047C0420DD300B540004008002141
:103F500000F012F8002801D4404200BD8020000685
:103F600000BD0000034BDB69FC4618471CDF2945F8
:103F700000100000000D0020014B5B6A1847000094
:103F8000000D0020014B1B6B18470000000D0020A6
:103F9000034BDB6FFC4618477CDF414500100000F7
:103FA000000D00204100090E862902DA044B1B6C2B
:103FB0001847044900B500F09BFA02BC8E46F5E7AD
:103FC000000D0020DB0FC940132310B512481C78E8
:103FD000FEF796FF0100012C0AD003DD80220F4876
:103FE00000F0E0FA0E48FEF783FF0E4B186010BD9C
:103FF0000A4C5422200000F0D5FA0B4B6365A365F0
:10400000E36523666366A366E36623676367A36766
:10401000E3672362E361E5E753460000000D0020FB
:104020004C33000014840020FD440010F0B5D64647
:104030004F4646460C00C0B5051C012953D0CE0F93
:1040400076187610012E46D00327CA1717407F181E
:10405000BF10012F37D0072313405B18DB109846A1
:10406000012B2BD00F2313405B181B119946012BFA
:104070001BD01F2313405B185B119A46012B0BD0FA
:104080003F210A4012199111FFF7D0FF011CFFF7E1
:10409000E2FE5346DB072FD4011CFFF7DCFE4B4644
:1040A000DB0702D5291CFFF7D6FE011CFFF7D3FE64
:1040B0004346DB0702D5291CFFF7CDFE011CFFF7A5
:1040C000CAFEFB0714D4011CFFF7C5FEF30702D597
:1040D000291CFFF7C0FE011CFFF7BDFEE30702D558
:1040E000291CFFF7B8FEE0BCBA46B146A846F0BDB1
:1040F000291CFFF7B0FEE6E7291CFFF7ACFECBE773
:10410000F8B50400061C0D1C002817DA4B001B0E26
:104110007F3B0ED41722D31A0BD401210A009A40F8
:10412000013A2A4205D1172B28D02A00DA40114241
:1041300024D180231B069C466444261C281CFFF7C0
:10414000E9FEE20D07000100002A22D0FF2A20D05C
:1041500064021ED12748874202DB3800FF2F41DC72
:104160007F3A504303007F33002B3DDDFE2B3DDCC7
:10417000FE239B059C46C005604409E080231B0686
:10418000E018291CFFF7BCFF80231B069C466044F7
:10419000F8BD002F10D03B002033402B0FD8002F4C
:1041A00006DAFE20311C8005FFF741FE7942061C2D
:1041B000301CFFF73BFFEBE7FE208005E8E7301CF3
:1041C000FFF7E6FEFFF75EF906000F00281CFFF779
:1041D000DFFE32003B00FFF730F9FFF747F9FFF74A
:1041E00039F9D5E7FF20BBE70020D1E7FF20C00564
:1041F000CEE7C04600FFFFFFF8B5CE4647460D1C90
:10420000FE2180B58905041CFFF754FE261C0028FA
:104210002CD1EB0DFF2798463B40994643461F4261
:1042200029D05D49201CFFF745FE002826D04B46CB
:10423000FF2B20D04346FF2B41D0584B984538D018
:104240007F224B4652429B1839D4534A1721CB1A2E
:10425000002B06DD163999400B00013B2B4200D0A4
:104260007CE0291C201CFFF74BFF061C301CC0BC47
:10427000B946B046F8BDFE26B605F7E73900E30DAE
:10428000220019401F4216D17F224B465242002D78
:1042900018DB9A180DD417239B1A0AD401200200A8
:1042A0009A40013A2A4204D1172BDFD0DD40284240
:1042B000DCD10026DAE7FF2B1AD1002DF9DBFF262F
:1042C000F605D3E79A18FAD417239B1AF7D40120DE
:1042D00002009A40013A2A42F1D1172B02D0DD4068
:1042E0002842ECD0FF26E00FC007F6050643BDE7E5
:1042F0002A48834227D17F224B465242002D10DBB1
:104300009A18DCD417239B1AD9D401229A40013A77
:104310002A42D4D1172B02D0DD40EB07CFD5204E57
:10432000A4E79A18C5D417239B1AC2D401229A4035
:10433000013A2A42BDD1172B02D0DD40EB07B8D598
:104340008026360692E74346FF2B1DD080451FD0BE
:104350007F214B4649425B1800D477E7002AAEDB49
:10436000201CFFF715FEFFF78DF806000F00281C34
:10437000FFF70EFE32003B00FFF75FF8FFF776F81D
:10438000FFF768F8061C71E77E2998DC00266DE7C8
:104390007E2994DD8DE7C046000080BFFF0100004C
:1043A000000080FFF8B5454657464E46DE46E0B56C
:1043B000FF268846C50DC90D35401700041C0E4068
:1043C000002A01D000231360FF2D60D0002E5ED0A4
:1043D000002D5FD0201CFF2E53D0731EAB4250DC4B
:1043E000E20F94468022120491466402640A144348
:1043F000424649465202520A11438946AB4251D0C5
:104400006346002B58D000216442AD1B002D5CDDBB
:104410004B460120D9114042FEF79CFD1D238346E7
:1044200000219C462A000C2D00DD0C225846631208
:10443000944043436046A246801A03414C4650468E
:10444000914001335B105C435918041BAD1A002DD9
:10445000E8DCA14537DC4B46E41AA14546DCE41A0A
:10446000023163004B4519DC16D04346002B00DABD
:104470004942002F00D0396096212000891BFFF7A8
:1044800081FDF0BCBB46B246A946A046F8BDFF2060
:10449000C005F6E70020F4E7CB07E6D54B4601312F
:1044A000E41AE2E78C42ECDD6346002B13D14B00AB
:1044B0002E000121E41AD8E7AD1B002DA8DC8C42A8
:1044C00011DA0021CDE7002CCBDA4B46E41808D5F1
:1044D0004C440239C5E74B0001212E001C1B494208
:1044E000C3E70139BDE74B460021E41A0131B8E7C3
:1044F00010B50022FFF756FF10BDC04607B5604655
:1045000001880A0A0230DF2AFAD1C9B2820804D32C
:10451000028840880004104300E00068014A5050BF
:10452000039007BD000D00200021C21580328032AB
:1045300001D0024A1047002070470000CD2A000039
:10454000C30FDB0741000A0E07D0FF2A08D0090974
:10455000054A891819434007704719000020704721
:104560000249C918FAE70000000000380000F07F97
:1045700010B5040000F098FB002804D0034B041988
:104580009C4200D810BD0248FEF7F6F90000042056
:104590005C0B011001480421014B184770020020F8
:1045A000112F0010014B5B681847000070020020BB
:1045B00010B5FFF7DDFF10BD10B5FFF7D9FF10BD37
:1045C000030010B5080011001B68984710BDC046D5
:1045D000F0B546464F46D646C0B5437C80460E00F1
:1045E0001700002B46D0002A3FDD4B1E9946244B76
:1045F0000125002400209A460DE04B461B5D0D3B33
:104600005A425341325DDBB20A2A0BD02B000134EF
:1046100001359F421ADD002CEFD14346325D1B7CF1
:104620000A2AF3D1002BF1D1A04204DA4346211A21
:104630001B6830189847434650461B68022198472C
:10464000013428002B0001359F42E4DC874204DD61
:104650004346391A1B6830189847F619013E3378DB
:104660000D3B5A42534142461374E0BCBA46B14630
:10467000A846F0BD0368110030009847F5E7C04632
:10468000D00B0110F0B557464E464546DE461C009D
:10469000D023E0B51B061F68344B83B006000D0025
:1046A000180001A991469A4600F07EFF8046002836
:1046B00008D1019B7FB29F4204D0504600F084FF96
:1046C000012398466B1C03D1300000F0F5FD050076
:1046D000002C27D1264F274B1C68002C18D04B46A6
:1046E000002B21D1244B994602E0E468002C0FD026
:1046F0002368002BF9D04B461B68002B01D0A34246
:10470000F3D120002A003100B847E468002CEFD133
:104710004346002B25D103B0F0BCBB46B246A946A8
:10472000A046F0BD154FD6E7134B99460A239B468A
:1047300002E0E468002CEBD02368002BF9D04B4654
:104740001B68002B01D0A342F3D12A0031002000C6
:10475000B8475A466B4620001A7101A90122B84792
:10476000E7E7504600F008FFD5E7C046C00A002042
:10477000D1450010F0830020F8830020C1450010CF
:10478000F0B5CE46474680B583B06B46DE1CD023DD
:1047900030701B061C681F4B804601A91800994603
:1047A00000F002FF071E20D01B4B1C68002C28D0F5
:1047B0001A4D02E0E468002C0FD02368002BF9D0DA
:1047C0002B68002B01D0A342F4D12000012231003C
:1047D000FFF7FEFEE468002CEFD1002F11D1404618
:1047E00003B0C0BCB946B046F0BD019B64B29C4268
:1047F0000BD0484600F0E8FE074B01271C68002C50
:10480000D6D1484600F0B8FEE9E7034B1C68002CFF
:10481000CED1E4E7C00A0020F0830020F883002016
:1048200070B5040000F048FD0023010005000122DE
:104830002000FFF727FF084B1C68002C06D0636898
:10484000002B05D09847E468002CF8D1280070BDF3
:10485000E468002CF3D1F9E7F0830020F0B5D646E8
:104860004F4646468846C0B505240600FCF7D0FEF4
:1048700043461F791C57284B8146F0184342584144
:10488000264B9A4683009C4653466246985801221E
:104890002023BA40DB1B013A002C32DB9C422DDC8A
:1048A000A2401500104229D1002F1AD043465A7851
:1048B00019781202114342469B78D2781B040B43AD
:1048C00012061A439046002241465300C95A4B0B28
:1048D00000D10919131912339B00013299519742E3
:1048E000F2D85346624605439D504846FCF79CFE6D
:1048F0002000E0BCBA46B146A846F0BD0848FEF725
:104900003BF8002B02DAF9E7013BF7D315009D4095
:104910001C000542F8D1C7E70000D0AF708300202B
:10492000D40B0110F0B5DE4657464E4645461C00F6
:104930004B00E0B58B461D0084465D44ED006544A8
:104940002F0085B0DC3703933B681600029001937B
:10495000002C19D08023DB049A4601239946E023DA
:104960001B029846D8352000FEF7BCFA5246430198
:1049700013433B6033004A46C3401340424613434F
:104980002B60631E1C40EED1029B03989C4658444A
:10499000C000019B6044DC30036005B0F0BCBB4646
:1049A000B246A946A046F0BDF0B5DE4657464E4693
:1049B00045461C004B00E0B58B461D0084465D4417
:1049C000ED0065442F0085B0DC3703933B6816008B
:1049D00002900193002C18D08023DB049A46012317
:1049E0009946124BD83598462000FEF77BFA52467E
:1049F000430113433B6033004A46C34013404246E1
:104A000013432B60631E1C40EED1029B03989C460F
:104A10005844C000019B6044DC30036005B0F0BC2A
:104A2000BB46B246A946A046F0BDC04680E00000A5
:104A3000F0B54E464546DE4657468A464900E0B543
:104A40000D0080465544ED0045448946290009ACD7
:104A50002678DC31741EA6410868744284461448E6
:104A60001F26834626405E44052B0CD9A0201F2715
:104A70004005D835540104430532053B0C603A40EB
:104A80002E60052BF6D849465144C90041445201D5
:104A90009B0613430A000800DC3213606346D830DB
:104AA00006601360F0BCBB46B246A946A046F0BD06
:104AB00080E00000F0B501258D400468AC434D0056
:104AC00004606C18E40004192600C836002B2AD0B4
:104AD0001F68DC3437605F6877609F68DB68B760A9
:104AE00023606D18EB001D008024D035451964014A
:104AF0002C4380252D0625602560114C0D1D8C4012
:104B0000846001242700AF403D0008318C401F2104
:104B100006680A403543056005682C430460C018E8
:104B2000D8300260F0BD80277F023760F8277F020F
:104B30007760C027DC343F03B7602360D1E7C0460D
:104B400001010101F8B557468246384B45465344AA
:104B50005A425341802292029446DE464E465B42C0
:104B60001B0C334A1B046344E0B51360314A0D004B
:104B70003149136018008A6890438146FAD10620B3
:104B8000FEF700F9804680200221EF0D6E02AB0D8A
:104B9000AA02400005E0904507D392197B4181426B
:104BA0003FD00C000231002BF5D0802627023F1B9E
:104BB000760002E03F1B012E35D039004046B34657
:104BC000013EFEF7C7F98542F4D2594633029946B1
:104BD000614353464A461C611B6850465340FF22BE
:104BE000120213408022520102431360036807201F
:104BF0005840CF23034013605246802303209B017B
:104C000024321A4310605246101D184302230360D9
:104C10004046FEF79FF9F0BCBB46B246A946A04607
:104C2000F8BD0C00C1E72100D3E7C0460040FCBF3F
:104C300000E0004000F0004000C0004001230121DE
:104C4000084A1360084A1360084A080093689843AA
:104C5000FBD1074A11608021490013680B42FCD048
:104C60007047C04600E0004000F0004000C0004037
:104C700000C0044070B59E25084C2D012800E56059
:104C8000FFF776FCA060002804D000236060056078
:104C9000436070BDE0606060FBE7C0462883002091
:104CA0007047C0467047C04610B5034B01001868F6
:104CB00000F004F810BDC04680020020F0B54E465A
:104CC0004546DE465746E0B50D000B35060083B07D
:104CD000162D22D8102900D9B2E000F0B1FA102523
:104CE00018230220CC4FFB181A005C68083A944243
:104CF00000D1B5E0032362689A431300E268A1681B
:104D0000CA6091600122E318596830000A435A6072
:104D100000F09EFA2000083095E007239D4300D55F
:104D20008EE0A94200D98BE000F08AFAFC235B00F8
:104D30009D4200D2A7E1680A00D18BE0042800D987
:104D40007AE138239846A80980443930C100B24F2F
:104D500079184C680839A1420ED003239C4604E020
:104D6000002ACBDAE468A14206D062466368934326
:104D70005A1B0F2AF4DD40463A003C69083294423F
:104D800000D178E003236168994389460B00491BF1
:104D90000F2900DD7BE17A613A610029B2DA8022D5
:104DA0009200914500D30FE15909DA0801238B40A5
:104DB000D2007968D2190B4391687B60E260A160F0
:104DC0009460CC60012182109140994259D80B42E5
:104DD00005D103229043490004300B42FBD003234A
:104DE0009846C3009946B944CC4682466346DC687F
:104DF000A44507D12CE1002A00DB35E1E468A44595
:104E000000D125E14246636893435A1B0F2AF2DD25
:104E100001208046611905436560A068E568083790
:104E2000C560A86040461043F960B9604860CF6033
:104E300030008F60E25000F00BFA2000083002E0F2
:104E40000C230020336003B0F0BCBB46B246A94639
:104E5000A046F0BD80213F2340209846890076E798
:104E6000DC680230A34200D044E73A003C690832D3
:104E7000944200D086E701217B68821091409942DC
:104E8000A5D90323BC6862689A439146954203D82A
:104E9000531B0F2B00DD89E023004B445F4A019335
:104EA0005F4B93461B681268EB18013200D13DE15D
:104EB0005C4A944663441B0B1B030093300000992B
:104EC00000F0E8F903008046013300D1FAE0019BCD
:104ED000834200D9F4E0544B00981A009A461268B5
:104EE00003009446514663440B6001991A00414502
:104EF00000D151E15B461B68013300D156E14346C6
:104F000001995B1A9A1853461A6007234246414694
:104F10001A400192194200D112E108239846881ADA
:104F2000424B0099804441449B1A5B1A1B051B0DA0
:104F30000091300019009B4600F0ACF9431C00D1F1
:104F400050E14346C01A03005B4400935346524667
:104F50001B6801215B44136042464046BA60009AD8
:104F60000A434260BC4200D124E14A460F2A00D8DD
:104F700022E107200C3A824360680140052011437A
:104F80006160A118486088600F2A00D935E1424667
:104F90004446526826490868984200D20B60254969
:104FA0000868984200D38FE00B608DE00122290051
:104FB00013431143651961603000BD606B6000F000
:104FC00047F9200008303EE75A0A042A72D9142A09
:104FD00000D9C5E011005C325B31D20008235B428E
:104FE0009C46BA18944463469A68032398469445AD
:104FF00000D19EE0434651689943494502D99268E1
:105000009445F7D1D3689C467B686146A260E16015
:105010008C60D460D6E6C046B0060020B80A0020F6
:105020006C8300200F1000003C830020081000005B
:105030006483002068830020142852D9542800D9A2
:1050400096E06E239846280B80446F30C1007EE6C0
:1050500008239B46073BDC449B46DA4443465246C2
:10506000134200D0C2E64CE00122E3185968300038
:105070000A435A60E368A268D3609A6000F0E8F8D7
:1050800020000830DFE62B00E80808332AE6012379
:1050900060191D43656078613861C26082601A00E2
:1050A0004B460A4342603000E15000F0D1F8200046
:1050B0000830C8E69A09110039323831D2008DE73C
:1050C000BC4260D0BC68626803239A43531B95427C
:1050D00002D80F2B00DD69E7300000F0B9F800209E
:1050E000B1E65B23984680445C30C1002FE608237C
:1050F0005B429C46E1444B469B6801384B4500D0DF
:1051000098E043460342F2D17B688B437B604900C1
:10511000994200D9B5E6002904D1B2E604229446AA
:105120004900E2440B42F9D050465AE6103300934E
:10513000C4E68910023B8B4079680B437B6064E7CF
:10514000009B300043445B421B051B0D19009B462E
:1051500000F0A0F8431C00D0F3E600239B46F5E6E0
:10516000542A2BD81A0B11006F326E31D20035E75A
:10517000AA235B0098422BD8DD3B9846E80B80447D
:105180007830C100E3E52C4B009A9A461B689C4698
:10519000534662441A60ADE6090500D0AAE6020053
:1051A000BC684A4401310A436260F3E65B4642460A
:1051B0001A60AAE64446EDE641608DE7AA2149005F
:1051C0008A4224D8DA0B110078327731D20005E711
:1051D0001A4B984224D87C239846A80C80447D30F2
:1051E000C100B4E5009A019B94464246083B6344E3
:1051F0009B1A009300239B46A8E62100300008314B
:1052000000F0D6F85346BC681B686268C2E60B49DA
:105210008A420BD89A0C11007D327C31D200DDE637
:10522000FE217E237F209846890090E5FE227E2184
:105230009200D3E67B686AE73C83002054050000B7
:1052400010B50248FFF72CFD10BDC0463883002082
:1052500010B50248FFF726FD10BDC0463883002078
:10526000094B10B51C68094AA83420686168084BCE
:10527000FEF7BAFD012200238018594120606160C9
:105280004800400810BDC046800200202D7F954C8C
:105290002DF45158002370B5064D040008002B6012
:1052A000FDF74EFB431C00D070BD2B68002BFBD0DC
:1052B0002360F9E7F483002010B583070AD00300C8
:1052C000032102E001330B4205D01A78002AF9D1FC
:1052D000181A10BD030019680C4A0D4C8A188A432D
:1052E00022420FD15968094A04338A188A4322425C
:1052F00008D15968054A04338A188A432242F1D0FA
:1053000000E001331A78002AFBD1E1E7FFFEFEFE40
:1053100080808080F8B50C000500FFF791FF204FDA
:10532000BB685E6803239E431E4B341B9C4664444B
:10533000240B013C113324039C4207DB002128008D
:10534000FFF7A8FFBB689B19984204D02800FFF71D
:105350007FFF0020F8BD28006142FFF79BFF431C40
:105360000DD00122BB68361B16435E600E4B280031
:105370001A68141B1C60FFF76BFF0120EAE700218D
:105380002800FFF787FFBA68831A0F2BDEDD074975
:105390000968401A0449086001210B435360D5E7AE
:1053A000B0060020EF0F00003C830020B80A002068
:1053B000F0B5C64605000C0000B500294FD0FFF738
:1053C0003FFF210008394C68012622000320B24328
:1053D0008F187B688343624898468368BB426AD0D3
:1053E00043467B6026421ED108239C460C688444B9
:1053F000091B12198C6864454FD0CB68E3609C6030
:105400004346FC186468344211D1BB68554C424491
:10541000A34200D17EE0FC68DC60A360012313435B
:105420004B608A5006E0FC1864683442EDD01643A5
:105430004E603A6080239B009A4213D25409D308ED
:105440000122A2404468DB002243426018188368AE
:10545000C8608B608160D9602800FFF7F9FE80BCCE
:10546000B846F0BD530A042B3ED8940926003934BF
:105470003836E40004192368083C03279C4242D0D4
:105480005868B843904202D99B689C42F8D1DC68C6
:10549000CC608B60A160D960DEE74346F8184068B5
:1054A000304257D1FB68B86842441643C3609860E5
:1054B0004E608A50D0E713004344264206D10A6862
:1054C000891A8C689B18CA68E260946001221A43AA
:1054D0004A60254A816012689A42BDD8234B280051
:1054E0001968FFF717FFB7E7142B07D9542B1AD801
:1054F000140B26006F346E36E400BBE71E005C33ED
:105500005B36DC00B6E70122B610B2404668324393
:105510004260BDE7D9609960CB608B600123134383
:105520004B608A5098E7AA246400A34205D8D40BA4
:10553000260078347736E4009CE70D4CA34205D86A
:10554000940C26007D347C36E40093E7FE247E260E
:10555000A4008FE7330013434B603A607CE7C046FA
:10556000B0060020B8060020BC0A00206C83002092
:1055700054050000F8B5C04601B40248844601BC99
:10558000604700BF4D01002001B40248844601BCC1
:10559000604700BFC101002001B40248844601BC3D
:1055A000604700BFC101002001B40248844601BC2D
:1055B000604700BF0901002001B40248844601BCD5
:1055C000604700BF7501002001B40248844601BC59
:0855D000604700BFC10000208C
:1055D8000000F000F000F000F000F000F000F00033
:1055E800F000F000F000F000F000F000F000F00033
:1055F800F000F000F000F000F000F000F000000013
:10560800000000000000F000F000F000F000F000E2
:10561800F000F000F000F000F000F0000000F000F2
:10562800F000F000F000F000F000F000F000F000F2
:10563800F00000000000000000000000F000F00092
:10564800F000F000F000F000F000F000F000F000D2
:105658000000000000000000F000F000F000F00082
:10566800F000F000F000F000F000F000F000F000B2
:10567800F000F000F000F000F000F000F000000092
:10568800000000000000F000F000F000F000F00062
:10569800F000F000F000F000F00000000000000052
:1056A800F000F000F000F000F000F000F000F00072
:1056B800F000F000F0000000000000000000000012
:1056C800F000F000F357F357F357F357F357F35736
:1056D800F357F357F357F357F357F357F357F35772
:1056E800F357F357F357F357F357F357F000F00016
:1056F80000000000F000F000F357F357F357F3579A
:10570800F357F357F357F357F357F000F000F0004F
:10571800F357F357F357F357F357F357F357F35731
:10572800F000F000000000000000F000F000F35767
:10573800F357F357F357F357F357F357F357F0006B
:10574800F00000000000F000F000F357F357F357A3
:10575800F357F357F357F357F357F357F357F357F1
:10576800F357F357F357F357F357F357F000F00095
:1057780000000000F000F000F357F357F357F35719
:10578800F357F357F357F357F000F0000000F00019
:10579800F357F357F357F357F357F357F357F357B1
:1057A800F357F357F000F00000000000000000007D
:1057B800F000F357F357FFFFFFFFFFFFFFFFFFFF67
:1057C800FFFFFFFFFFFFFFFFFFFFFFFFFFFFFFFFE1
:1057D800FFFFFFFFFFFFFFFFFFFFFFFFF357F00093
:1057E800F0000000F000F357F357FFFFFFFFFFFF43
:1057F800FFFFFFFFFFFFFFFFF357F357F000F357DB
:10580800F357FFFFFFFFFFFFFFFFFFFFFFFFFFFF54
:10581800F357F000F0000000F000F000F357FFFF2E
:10582800FFFFFFFFFFFFFFFFFFFFFFFFF357F357E8
:10583800F0000000F000F000F357FFFFFFFFFFFF4C
:10584800FFFFFFFFFFFFFFFFFFFFFFFFFFFFFFFF60
:10585800FFFFFFFFFFFFFFFFFFFFFFFFF357F00012
:10586800F0000000F000F357F357FFFFFFFFFFFFC2
:10587800FFFFFFFFFFFFFFFFF357F000F000F0000E
:10588800F357F357FFFFFFFFFFFFFFFFFFFFFFFF88
:10589800FFFFF357F357F00000000000000000007E
:1058A800F000F357FFFFF357F357F357F357F35746
:1058B800F357F357F357F357F357F357F357F35790
:1058C800F357F357F357F357F357F357FFFFF357CC
:1058D800F000F000F000F357FFFFF357F357F357CA
:1058E800F357F357F357F357FFFFF357F000F35706
:1058F800FFFFF357F357F357F357F357F357F3579C
:10590800FFFFF357F000F000F000F357FFFFF357E5
:10591800F357F357F357F357F357F357FFFFF3577B
:10592800F000F000F000F357FFFFF357F357F35779
:10593800F357F357F357F357F357F357F357F3570F
:10594800F357F357F357F357F357F357FFFFF3574B
:10595800F000F000F000F357FFFFF357F357F35749
:10596800F357F357F357F357FFFFF357F000F000DF
:10597800F357FFFFF357F357F357F357F357F3571B
:10598800F357FFFFF357F00000000000000000008D
:10599800F000F357FFFFF357FFF0FFF0FFF0FFF0C1
:1059A800FFF0FFF0FFF0FFF0FFF0FFF0FFF0FFF077
:1059B800FFF0FFF0FFF0FFF0FFF0FFF0F357FFFFFD
:1059C800F357F000F000F357FFFFF357FFF0FFF035
:1059D800FFF0FFF0FFF0F357FFFFF357F000F35726
:1059E800FFFFF357FFF0FFF0FFF0FFF0FFF0F35772
:1059F800F357FFFFF357F000F357FFFFF357F35741
:105A0800FFF0FFF0FFF0FFF0FFF0F357FFFFF35751
:105A1800F000F000F357FFFFF357FFF0FFF0FFF03F
:105A2800FFF0FFF0FFF0FFF0FFF0FFF0FFF0FFF0F6
:105A3800FFF0FFF0FFF0FFF0FFF0FFF0F357FFFF7C
:105A4800F357F000F000F357FFFFF357FFF0FFF0B4
:105A5800FFF0FFF0FFF0F357F357FFFFF357F000A5
:105A6800F357FFFFF357FFF0FFF0FFF0FFF0FFF0F1
:105A7800F357FFFFF357F00000000000000000009C
:105A8800F000F357FFFFF357FFF0FFF0FFF0FFF0D0
:105A9800FFF0FFF0FFF0FFF0FFF0FFF0FFF0FFF086
:105AA800FFF0FFF0FFF0FFF0FFF0FFF0FFF0F3571B
:105AB800FFFFF357F000F357FFFFF357FFF0FFF036
:105AC800FFF0FFF0FFF0F357FFFFF357F000F35735
