:020000041000EA
:1000000000B5324B212058609868022188439860DF
:10001000D860186158612E4B002199600221596106
:100020000121F02299502B49196001219960352056
:1000300000F044F80222904214D00621196600F024
:1000400034F8196E01211966002018661A6600F04E
:100050002CF8196E196E196E052000F02FF8012189
:100060000842F9D1002199601B49196000215960AB
:100070001A491B48016001219960EB211966A021F2
:10008000196600F012F800219960164914480160C1
:100090000121996001BC002800D000471248134993
:1000A000086003C880F30888084703B5996A0420EC
:1000B0000142FBD001200142F8D103BD02B5186610
:1000C0001866FFF7F2FF186E186E02BD00000240BE
:1000D000000000180000070000035F00212200005C
:1000E000F4000018222000A00001001008ED00E03C
:1000F00000000000000000000000000074B24E7A12
:1001000000200420F7010010C3010010C5010010F9
:10011000C1010010C1010010C1010010C101001097
:10012000C1010010C1010010C1010010C701001081
:10013000C1010010C1010010C9010010CB01001065
:10014000CD010010CD010010CD010010CD01001037
:10015000CD010010CD010010CD010010CD01001027
:10016000CD010010CD010010CD010010CD01001017
:10017000CD010010CD010010CD010010CD01001007
:10018000CD010010CD010010CD010010CD010010F7
:10019000CD010010CD010010CD010010CD010010E7
:1001A000CD010010CD010010CD010010CD010010D7
:1001B000CD010010CD010010CD010010CD010010C7
:1001C00000BE00BE00BE00BE00BE00BE00F04BF888
:1001D000103800BEF2EB8871342115105021151033
:1001E0003402001090A31AE700202149086006C8D5
:1001F00081F3088810471F48006800282FD10DA4FC
:100200000ECC002902D000F012F8F9E71A491B4A77
:10021000002000E001C19142FCD1194988471949E9
:1002200088471949884700BEFDE701C901C29A42C3
:10023000FBD3704750211510C0000020B8200020CB
:10024000484115100000042000000420484115100A
:1002500000100420001004200000000070470B482C
:1002600023F030F90047EFF30580C0B2704700007B
:1002700008ED00E0000000D0B8200020E0BA002027
:10028000D9170210C5E501100119021057560000D8
:1002900006005250ABB36053506214100600525027
:1002A000861C0302AC680610060052505422A29D20
:1002B0006062141005005250DE65F4684841151064
:1002C000F8B5C04610B5064C2378002B07D1054B76
:1002D000002B02D0044800E000BF0123237010BDB2
:1002E000502A002000000000584C0610044B10B5A6
:1002F000002B03D00349044800E000BF10BDC046F6
:1003000000000000542A0020584C06107047C046D8
:10031000084B70B550CBB4420BD0606825681DF017
:1003200067FD010028001DF097FFA0601034A64271
:10033000F3D170BD402800207047C0467047C046CA
:100340007047C0467047C0467047C0467047C046B9
:100350007047C0467047C0467047C0467047C046A9
:100360007047C0467047C0467047C0467047C04699
:10037000F0B5DE4657464E464546E0B58DB06A4676
:10038000436808AF0833DB08DB00D31A9D4608AC8E
:100390000168200057F080FF23783A2B03D0637860
:1003A00001343A2BFBD16578642D00D19CE0042305
:1003B0007B6006230134BB606F2D00D1AEE0622D5F
:1003C00000D1B8E0EE231B019B46002D73D0674B94
:1003D0001B78002B00D083E0654B1B78002B00D0EE
:1003E0007EE025782A00303A092A6CD800218B005B
:1003F00059186578490051182A00303A0134092A01
:10040000F5D900295FD0584623F08EF80023613DCE
:10041000EDB29846F860062D02D8564B5B5D9846C3
:100420006578232D55D001342E2D09D1FA686578D1
:100430009446D30F63445B109C4463460134FB60D5
:100440002B00BA68303B9146092B03D8DBB29946A2
:10045000657801342C2D01D1657801344346002B99
:1004600033D0454B9A46454B1B785BB20793F868EF
:1004700023F06EFB424A434B23F0F1FA23F0A4FB36
:100480004A46043A53009B189B003F4A4344069057
:100490005B009B5E6A4605935346103343CB43C2D1
:1004A00003CB03C253460FCB1EF0FCF9F8681FF0D4
:1004B00099FA002D8BD1BD4605B0F0BCBB46B246C3
:1004C000A946A046F0BD79689DE7F8681FF08AFA52
:1004D0007BE743460133DBB2A57898460234A3E7B5
:1004E0000023224A1370E6E7E178E01C303909293D
:1004F00038D800239A00D3185B000130CB1801785C
:1005000030390929F6D9002B2CDDDBB27B600623BC
:100510004578441CBB606F2D00D050E7A3781A00CB
:10052000333A042A02D8303BDBB2BB60257904346D
:10053000622D00D046E7A2780021303AA01C092A9B
:1005400008D88B0059184900013051180278303A08
:10055000092AF6D94578441C0C4822F0E5FF8300AF
:100560009B4632E704237B60D1E7C046D5BA002022
:10057000DBBA0020C45C06108C9D0020F51400201E
:10058000CDCCCCCCCCCCEC3F7C12002060EA00007F
:10059000F0B54546DE4657464E469E4BE0B598467A
:1005A0009D4BADB09B4604AF0AAE10AD9B4C0022F4
:1005B00026A902A82694029742F09EFB220000245E
:1005C000269B41460493029024F098FC269B029AB5
:1005D0000393D454924B01929946002226A908A86D
:1005E0002693089642F088FB269B4A468D490A933B
:1005F000089024F083FC269B089A0993D4548A4BD4
:1006000001929946002226A90EA826930E9542F043
:1006100073FB269B4A46854910930E9024F06EFC8E
:10062000269B0E9A0F93D45416AB1493F423019285
:1006300026A9002214A8269342F05EFB269BF422F2
:1006400059461693149024F059FC269B149A15933E
:10065000D45401921FF0B2F9754B984229D9754BC9
:100660001B78032B6CD047D8022B22D01CAB9946A9
:100670001A930E9B0F9C9A46002B00D1AEE0269455
:100680000F2C00D99BE0012C00D0B3E068211B782F
:1006900002AA521813704A4600231B941AA8135535
:1006A000FFF766FE1A98484503D01C99013124F0E3
:1006B0003BFC149816AB984204D0169B591C01932E
:1006C00024F032FC0E98A84204D0109B591C0193D0
:1006D00024F02AFC0898B04204D00A9B591C0193CC
:1006E00024F022FC0298B84200D15FE7049B591C19
:1006F000019324F019FC59E7042BDAD128AB994671
:100700002693089B099C9A46002B70D020940F2CAE
:1007100046D8012C79D198211B7802AA521813705F
:100720004A460023279426A81355FFF721FE269852
:100730004845BED0289B591C019324F0F5FBB8E72F
:1007400022AB2093149B159C9946002B4AD02694EB
:100750000F2C16D8012C53D180211B7802AA5218D5
:10076000137022AA0023219420A81355FFF700FE3E
:10077000209822AB98429CD02299013124F0D4FBDE
:1007800097E7002226A920A842F0B6FA269B2090DF
:1007900022932200494624F0B1FB269C209AE1E7EF
:1007A000002220A926A842F0A7FA209B2690289391
:1007B0002200514624F0A2FB209C269AB1E7002299
:1007C00026A91AA842F098FA269B1A901C93220098
:1007D000514624F093FB269C1A9A5DE7002C03D126
:1007E0004A4659E7002CBCD0134837F057FB002C81
:1007F00096D0F9E74A46002C00D14DE74846E6E797
:1008000022AA002CAED01000C3E74A46002C88D0A4
:100810004846CDE7584C0610FC5806105D03000012
:10082000D6040000B84F06106A0400009054061069
:10083000DC050000CEBA0020F4590610F0B5DE4603
:1008400057464E464546E0B5584B83B01B680120DD
:100850000193002B06D003B0F0BCBB46B246A946BC
:10086000A046F0BD00220F33002100201EF0D6F973
:100870004F4B4F4A1B6800270193013313600F222F
:10088000904600229346FAB20F2591469F4200DB24
:1008900085E05B46DB009A461E005C46FF000134A3
:1008A000310008230822380064B21EF00FFB08361E
:1008B000A542F4DC4F4601377FB2474547DA6B1E4D
:1008C0005BB20193DB00994643463C00A846FE001C
:1008D0004D46B9461F000134300008230822290084
:1008E00064B21EF0F3FA0836A742F4DC4546012351
:1008F000B846023D5B4243446DB24F4699465D4562
:1009000011DBB8465F465CB2E400EE00013D310009
:100910000823082220006DB21EF0D8FA083EAF422C
:10092000F4DDBB4647464B465BB29846019B9B4570
:100930003ADB78237822002100201EF0C7FA9620A7
:100940001FF050F80123194A0120136083E7013D8D
:100950006DB25D45EDDD01235B4243445CB2E600D0
:10096000A7420DDCA9465546013C30000823082269
:10097000290064B21EF0AAFA083EA742F4DD4D46F3
:100980005B4601335BB29B464745D2DAAB45D0DAD2
:10099000074BFAB21B6891469F4200DA79E7322092
:1009A0001FF020F8002056E71D00D4E7C0BA002051
:1009B000BCBA0020F0B5DE4657464E4645460022FA
:1009C000584BE0B51A70584B04001B7889B0042BC3
:1009D00013D8564A9B00D3589F46554A554B10682A
:1009E000554A564D12681B68009221002A6810F083
:1009F00057FA2100286804F0FBF809B0F0BCBB46A8
:100A0000B246A946A046F0BD4D4B1B78002B26D020
:100A10004A4B9846474B2100186843461A6818F01D
:100A2000A9FD43462100186804F0E2F8E5E7454BCC
:100A30002100186816F002FDDFE7404D424B21000F
:100A400018682A6817F05CFA2100286804F0D0F8CA
:100A5000D3E73E4B2100186816F0D0F9CDE7364AAF
:100A60003B4F1268002003923A6806939246394A37
:100A7000914649460E680021526804900591951BE5
:100A8000B24242D0344BA8469D4249D8280024F0B7
:100A90003BFA4B461E685A680500931B9B4643462B
:100AA000EB18049505950693964204D05A463100FA
:100AB000280064F0C1F8214B039898461B68524601
:100AC000009321005D4404AB059502F08FFD04986E
:100AD000002803D00699091A24F026FA1F4B21009A
:100AE000186801F0D7FE4B4660CBB54203D111E048
:100AF0000435AE420ED028683A68436B9342F7D172
:100B00000122210002F04AFFF2E7002300259B4664
:100B10009846C4E7124B2100186816F05DFA79E791
:100B200037F09CF9D8BA0020CEBA0020205A06101F
:100B3000F0B2002044B9002078BA002048B9002063
:100B4000DBBA002038B900204CB90020ACBA002034
:100B50005CB30020A8B90020FCFFFF7F40B9002053
:100B6000A8BA0020F0B5C64600B5564B04001B7865
:100B700088B0042B08D8544A9B00D3589F46534B47
:100B80002100186816F05EF90F230F220F210F20A5
:100B90001EF044F809237822702100201EF096F9F7
:100BA0000F230022002100201EF038F8484D02A833
:100BB00029681EF08BFD012302A8702200215B42F0
:100BC0001EF06AFD029804ACA04204D0049B591C9C
:100BD000019324F0A9F9696802A81EF077FD0123AA
:100BE00002A870223C215B421EF056FD0298A042F2
:100BF00003D00499013124F097F908B080BCB846BD
:100C0000F0BD344B1B78002B03D0334B1B78002BEB
:100C10004CD0324D324E28683268210001F05AFE25
:100C2000304B21001868984602F070FC28682100BB
:100C3000326801F075FE2C4BA0CBBD4203D12EE0F3
:100C40000435AF422BD028683268436B9342F7D10A
:100C5000210002F007FFF3E7FFF7F0FD002800D1C5
:100C600092E7224B21001A68214B18680FF0E0FF31
:100C7000204B2100186804F029F885E71E4B21005D
:100C8000186816F00BFC7FE71C4B2100186818F061
:100C900009FA184B2100186804F018F874E7434665
:100CA0001A68174B2100186816F08EFB0F4B2100B5
:100CB000186818F067FD0F4B2100186804F006F85B
:100CC00062E7C046CEBA0020345A0610ACBA002003
:100CD000C4BA0020DBBA0020D8BA002040B90020F6
:100CE0005CB3002078BA0020A8B9002044B90020E5
:100CF000F0B2002048B9002038B900204CB90020DB
:100D0000A8BA0020F8B503684E4645465746DE4669
:100D10009A46E0B5150052464368060098469B1A6D
:100D2000344A89461B11934260D00127002B02D020
:100D30005F00BB4254D84B4652469C1A002F1CD130
:100D400000239B465B461B1907CD07C32A681A6020
:100D5000002C24DC43464A4610345C449D1A002D86
:100D600031DC53466419002B36D15B4698C6F0BC83
:100D7000BB46B246A946A046F8BD80231B059F424C
:100D800032D23F01380024F0BFF883465B461B197E
:100D900007CD07C32A685F441A60002CDADD220001
:100DA0005146584663F048FF43464A4610345C4477
:100DB0009D1A002D07DC5246B3686419991A5046F3
:100DC00024F0B2F8D1E720002A00494624F096F832
:100DD00053466419002BC8D05246B368991AEEE7FF
:100DE0005246054F8C1ACDE7024FCAE7034837F049
:100DF00085F8C046FFFFFF07F0FFFF7F485A061047
:100E0000012270B5002496201A4B84B01A701A4B38
:100E100003321A70194B40001C60194B1C601EF005
:100E2000E1FD184B1C70184C23686268934200D097
:100E30006360092214231420009201931CF0D8FF50
:100E4000010009201DF008FA6A4600236168D3609A
:100E5000A3689060994208D00B0061CA61C3126810
:100E600010311A60616004B070BD2000FFF74AFFC6
:100E7000F9E7C046D5BA0020CEBA0020BCBA00209F
:100E8000C0BA0020DABA0020D02100200122F0B53B
:100E9000002496202C4B85B01A702C4B03321A700C
:100EA0002B4B40001C602B4B1C601EF09BFD2A4B03
:100EB0002A4D1C706A682B68934200D06B609623A1
:100EC000962005225B004000009201931CF090FFE9
:100ED000010005201DF0C0F96C4600236968E3603D
:100EE000AB68A060994224D00B002200C1CAC1C3E4
:100EF000126810311A606960C823C82007225B009D
:100F00004000009201931CF073FF010007201DF0C8
:100F1000A3F900236968E360AB68A06099420DD033
:100F20000B0045CC45C3226810311A60696005B0DA
:100F3000F0BD22002800FFF7E5FEDDE722002800D3
:100F4000FFF7E0FEF3E7C046D5BA0020CEBA002096
:100F5000BCBA0020C0BA0020DABA0020D02100209C
:100F60000122F0B5002496202A4B85B01A702A4B36
:100F700003321A70294B40001C60294B1C601EF084
:100F800031FD284B284D1C706A682B68934200D0B5
:100F90006B600D22254B2548009201931CF028FF21
:100FA00001000D201DF058F96C4600236968E360CC
:100FB000AB68A060994222D00B002200C1CAC1C315
:100FC000126810311A6069600F22184B174800929E
:100FD00001931CF00DFF01000F201DF03DF90023CF
:100FE0006968E360AB68A06099420DD00B0045CC06
:100FF00045C3226810311A60696005B0F0BD220057
:101000002800FFF77FFEDFE722002800FFF77AFEC7
:10101000F3E7C046D5BA0020CEBA0020BCBA002003
:10102000C0BA0020DABA0020D0210020102700002A
:101030000122F0B5002496202C4B85B01A702C4B61
:1010400003321A702B4B40001C602B4B1C601EF0AF
:10105000C9FC2A4B2A4D1C706A682B68934200D049
:101060006B60FA23FA200922DB00C0000092019392
:101070001CF0BEFE010009201DF0EEF86C460023B6
:101080006968E360AB68A060994224D00B0022003D
:10109000C1CAC1C3126810311A606960FA23FA200C
:1010A0000B22DB00C000009201931CF0A1FE0100A6
:1010B0000B201DF0D1F800236968E360AB68A060E5
:1010C00099420DD00B0045CC45C3226810311A60FF
:1010D000696005B0F0BD22002800FFF713FEDDE7D0
:1010E00022002800FFF70EFEF3E7C046D5BA002025
:1010F000CEBA0020BCBA0020C0BA0020DABA002064
:10110000D02100200122F0B500249620394B85B073
:101110001A70394B03321A70384B40001C60384B40
:101120001C601EF05FFC374B374D1C706A682B68E3
:10113000934200D06B601722344B354800920193E4
:101140001CF056FE010017201DF086F86C460023A7
:101150006968E360AB68A06099423CD00B00220054
:10116000C1CAC1C3126810311A6069600322274BDB
:101170002748009201931CF03BFE010003201DF064
:101180006BF800236968E360AB68A060994227D0E0
:101190000B002200C1CAC1C3126810311A60696015
:1011A0000D221A4B1A48009201931CF021FE0100F7
:1011B0000D201DF051F800236968E360AB68A06062
:1011C000994212D00B0045CC45C3226810311A60F9
:1011D000696005B0F0BD22002800FFF793FDC5E768
:1011E00022002800FFF78EFDDAE722002800FFF733
:1011F00089FDEEE7D5BA0020CEBA0020BCBA0020A7
:10120000C0BA0020DABA0020D02100201027000048
:10121000983A00000122F0B500249620394B85B0A1
:101220001A70394B03321A70384B40001C60384B2F
:101230001C601EF0D7FB374B374D1C706A682B685B
:10124000934200D06B601122344B344800920193DA
:101250001CF0CEFD010011201CF0FEFF6C460023A7
:101260006968E360AB68A06099423CD00B00220043
:10127000C1CAC1C3126810311A6069601322274BBA
:101280002648009201931CF0B3FD010013201CF0CE
:10129000E3FF00236968E360AB68A060994227D050
:1012A0000B002200C1CAC1C3126810311A60696004
:1012B00015221A4B1948009201931CF099FD010068
:1012C00015201CF0C9FF00236968E360AB68A060CB
:1012D000994212D00B0045CC45C3226810311A60E8
:1012E000696005B0F0BD22002800FFF70BFDC5E7DF
:1012F00022002800FFF706FDDAE722002800FFF7AA
:1013000001FDEEE7D5BA0020CEBA0020BCBA00201D
:10131000C0BA0020DABA0020D02100201027000037
:10132000F8B5574645464E46DE460368E0B5476881
:101330009246344A9946FB1A050088469B10934210
:101340005CD00126002B02D05E00B34250D8434649
:101350004A469C1A002E1BD100239B4652465B46F0
:1013600012681A51002C23DC434604345C44FF1AF3
:10137000002F30DC4B46E719002B35D15B466F6000
:10138000AE602B60F0BCBB46B246A946A046F8BD95
:1013900080239B059E422FD2B600300023F0B4FD7F
:1013A000834652465B4612685E441A51002CDBDDD0
:1013B00022004946584663F03FFC434604345C44EF
:1013C000FF1A002F07DC4A46AB68E719991A48460E
:1013D00023F0AAFDD2E73A004146200023F08EFD1B
:1013E0004B46E719002BC9D04A46AB68991AEEE77D
:1013F0004A46054E8C1AD0E7024ECDE7034836F038
:101400007DFDC046FFFFFF1FFCFFFF7F485A06100F
:10141000F0B5DE46454657464E46E0B5F7488FB034
:101420001DF02AFCF64B002518781EF0ADFBF022CB
:10143000F44B52421A6020325A60F34B24201D6054
:1014400023F062FD04003421342201F09FFBEF4BB6
:1014500010201C6023F058FD040001F0EDF8EC4B67
:101460002C201C6023F050FD040003F0B3FBE94B7B
:1014700034201C6023F048FD04000EF08FFBE64B87
:1014800001201C6023F040FD040015F0F5FAE34B49
:1014900004201C6023F038FD040015F0CBFFC220AF
:1014A000DF4BC0001C6023F02FFD040016F074F821
:1014B000DC4B20201C6023F027FD040017F054FEB5
:1014C000D94B18201C6023F01FFD040015F078FD97
:1014D000D64B09221C600A230A20069207931CF0AF
:1014E00087FC010009201CF0B7FE0890D04806AC2C
:1014F00041688368E560994201D100F035FF0B0037
:101500002200E0CAE0C3126810311A60416038203E
:1015100023F0FAFCC74B0022984601230393019362
:10152000C54B02921B6805000093434654211B687B
:10153000743202F015FAC14E06957168B36899428B
:1015400001D100F016FF20C1716033688B4201D1D8
:1015500000F0F2FF08AD2A001B6806959C46B84BC8
:1015600083CB83C21B88604613800E2363600023F5
:10157000A375A361B34B2100E36102F081FB0698E0
:10158000A84203D0A368591C23F0CEFC382023F0D6
:10159000BBFC0123002203930193A74B02921B681B
:1015A000814600934346D4211B68743202F0D8F977
:1015B0004B4671680693B368994201D100F0E0FE92
:1015C0004B4608C171603368C91A042901D800F07C
:1015D000B8FF2A005B6806959C469B4B83CB83C271
:1015E0001B78604613700D23636000236375A3614D
:1015F000964B2100E36102F043FB0698A84203D01A
:10160000A368591C23F090FC382023F07DFC0123B3
:10161000002203930193884B02921B68814600933A
:10162000434674211B68A43202F09AF94B46716854
:101630000693B368994201D100F0A9FE4B4608C158
:1016400071603368C91A082901D800F0C5FF2A0063
:1016500098687F4B069582CB82C208236360002383
:101660002374A3617B4B2100E36102F009FB069820
:10167000A84203D0A368591C23F056FC382023F05D
:1016800043FC01230022039301936B4B02921B68DE
:10169000814600934346C4211B68D43202F060F9AE
:1016A0004B4671680693B368994201D100F076FE0B
:1016B0004B4608C171603368C91A0C2901D800F083
:1016C000E8FEDB68002299461B2305A9200005934C
:1016D000069541F011FB059B1B225F490690A36014
:1016E00023F00CFC00230699059A484662608B544F
:1016F000A3615A4B2100E36102F0C2FA0698A842A6
:1017000003D0A368591C23F00FFC382023F0FCFB06
:101710000123002203930193474B02921B68F52299
:1017200000934346814634211B68920002F018F969
:101730004B4671680693B368994201D100F035FEBB
:101740004B4608C171603368C91A102901D800F0EE
:101750000CFF2A001B6906959C46414B83CB83C234
:101760001B88604613800E2363600023A375A3616A
:101770003C4B2100E36102F083FA0698A84203D0B3
:10178000A368591C23F0D0FB382023F0BDFB0123B4
:10179000002203930193284B02921B688146009319
:1017A000434634211B68304A02F0DAF84B46716830
:1017B0000693B368994201D100F0FEFD4B4608C183
:1017C00071603368C91A142901D800F0C9FE2A00D3
:1017D0005B6906959C46254B83CB83C21B7860468C
:1017E00013700D23636000236375A361204B2100F8
:1017F000E36102F045FA06983CE0C0465DE801105E
:10180000E0140020C4BA00205CB3002078BA0020A5
:1018100040B9002048B90020F0B20020ACBA002046
:1018200038B900204CB9002044B90020A8BA0020E3
:101830004028002064B9002060B90020A8B9002029
:10184000B05A06100D030010C05A06103D030010D8
:10185000D05A061041030010DC5A06104503001050
:10186000F85A06104903001034040000085B061003
:101870004D030010A84203D0A368591C23F054FB69
:10188000382023F041FB0123002203930193F44B02
:1018900002921B68F52200938221434681461B6811
:1018A0004900920002F05CF84B4671680693B368F9
:1018B000994201D100F087FD4B4608C17160336841
:1018C000C91A182901D800F0E9FD9869E54B069579
:1018D0001A68210008929B88AB800623636000236E
:1018E000A373A361E04BE36102F0CAF90698A84232
:1018F00003D0A368591C23F017FB382023F004FB06
:101900000123002203930193D54B02921B6882218D
:101910000093434681461B684900D44A02F020F8F0
:101920004B4671680693B368994201D100F052FDAD
:101930004B4608C171603368C91A1C2901D800F0F0
:10194000B2FDD869CA4B069508930423636000234F
:101950002373A361C74B2100E36102F091F906985C
:10196000A84203D0A368591C23F0DEFA382023F0E4
:10197000CBFAC14B81219B46012303930293019330
:10198000BE4B81469A461B68890000935B466422E1
:101990001B6801F0E5FF4B4671680693B3689942F6
:1019A00001D100F01EFD4B4608C171603368C91AB1
:1019B000202901D800F0FCFD1B6A002108220CA898
:1019C000994623F095FA2A00AD4B069503CB03C246
:1019D0001B88484613800A23636000232100A374F8
:1019E00002F04EF90698A84203D0A368591C23F0D0
:1019F0009BFA33687268D21A202A01D800F0DDFD04
:101A00001B6A00229946142305A920000593069518
:101A100041F072F9059B14229A490690A36023F0C5
:101A20006DFA00230699059A484662608B54A361BB
:101A3000954B2100E36102F023F90698A84203D0F8
:101A4000A368591C23F070FA382023F05DFA0122B4
:101A50008E4B85211B6803920292013201928C4ABF
:101A60008146126889000092A222520001F078FF9C
:101A70004B4671680693B368994201D100F0B8FCF7
:101A80004B4608C171603368C91A242901D800F097
:101A90001EFD5B6A002108220CA8994623F028FA53
:101AA0002B007C4A069503CA03C311884846198057
:101AB000927821009A700B2363600023E37402F094
:101AC000DFF80698A84203D0A368591C23F02CFA2B
:101AD00033687268D21A242A01D800F0F3FC2A0075
:101AE0005B6A06959C466C4B83CB83C21B78604631
:101AF00013700D23636000236375A361674B21009E
:101B0000E36102F0BDF80698A84203D0A368591C0F
:101B100023F00AFA382023F0F7F90122604B8A21DA
:101B20001B680392029201925E4A81461268490044
:101B30000092BA22520001F013FF4B4671680693DF
:101B4000B368994201D100F05AFC4B4608C171605C
:101B50003368C91A282901D800F0DAFC9B6A0021F1
:101B600008220CA8994623F0C3F92A004E4B06958B
:101B700003CB03C21B88484613800A2363600023FB
:101B80002100A37402F07CF80698A84203D0A36851
:101B9000591C23F0C9F933687268D21A282A01D86F
:101BA00000F0BBFC9B6A00229946122305A9200085
:101BB0000593069541F0A0F8059B12223B4906903B
:101BC000A36023F09BF900230699059A48466260BA
:101BD0008B54A361364B2100E36102F051F8069863
:101BE000A84203D0A368591C23F09EF9382023F0A3
:101BF0008BF901222F4B81461B680392029201321E
:101C000001922D4A8421126800928522920001F0EF
:101C1000A7FE4B4671680693B368994201D100F064
:101C2000F5FB4B4608C171603368C91A2C2901D8ED
:101C300000F07DFCDB6A002108220CA8994623F005
:101C400057F92A001D4B069503CB03C21988484655
:101C500011809B78210093700B23636030E0C046B5
:101C600060B90020185B0610510300103404000016
:101C7000446F6A6F550300107CB9002078B90020CA
:101C8000205B06102C5B0610010E00105CB90020D2
:101C900058B90020445B0610505B06108D0E0010F2
:101CA0008CB9002088B90020605B06106C5B0610C0
:101CB0003110001094B9002090B90020805B06100C
:101CC0000023E37401F0DCFF0698A84203D0A36868
:101CD000591C23F029F933687268D21A2C2A01D8CA
:101CE00000F020FC2A00D86AEE4B069582CB82C217
:101CF000198811809B78210093700B236360002367
:101D0000E374A361E84BE36101F0BAFF0698A842CF
:101D100003D0A368591C23F007F9382023F0F4F806
:101D20000122E24B81461B68039202920192E04A33
:101D3000342112680092A922920001F011FE4B4654
:101D400071680693B368994200D166E34B4608C1B7
:101D500071603368C91A302900D8A9E31B6B0021D0
:101D600008220CA8994623F0C3F82B00D14A069507
:101D700003CA03C3118848461980927821009A70DB
:101D80000B2363600023E37401F07AFF0698A842F6
:101D900003D0A368591C23F0C7F833687268D21ABD
:101DA000302A00D889E32A001B6B06959C46C24B5B
:101DB00083CB83C21B88604613800E23636000239D
:101DC000A375A361BD4B2100E36101F059FF0698A3
:101DD000A84203D0A368591C23F0A6F8382023F0AA
:101DE00093F801225B461B680392029201925246CD
:101DF000AA218146126849000092842201F0B0FDB8
:101E00004B4671680693B368994200D10BE34B4689
:101E100008C171603368C91A342900D8BEE35B6B0E
:101E200000229946282305A920000593069540F035
:101E300063FF059B2822A2490690A36023F05EF869
:101E400000230699059A484662608B54A3619D4B16
:101E50002100E36101F014FF0698A84203D0A368B3
:101E6000591C23F061F8382023F04EF8964B0122DC
:101E70009B46002303930193944B02929A461B685E
:101E8000814600935B4654211B68733201F068FD64
:101E90004B4671680693B368994200D1C9E24B463C
:101EA00008C171603368C91A382900D87BE39B6B7D
:101EB000002299462C2305A920000593069540F0A1
:101EC0001BFF059B2C2282490690A36023F016F885
:101ED00000230699059A484662608B54A3617D4BA6
:101EE0002100E36101F0CCFE0698A84203D0A3686C
:101EF000591C23F019F8382023F006F800225B461D
:101F000001211B6803920192524602911268814698
:101F1000009292225331520001F022FD4B4671682B
:101F20000693B368994200D189E24B4608C17160BB
:101F30003368C91A3C2900D82BE3DB6B0022994691
:101F4000282305A920000593069540F0D5FE059BA2
:101F5000282261490690A36022F0D0FF0023069951
:101F6000059A484662608B54A3615C4B2100E36193
:101F700001F086FE0698A84203D0A368591C22F0FF
:101F8000D3FF382022F0C0FF00228A218146544B23
:101F900049001B680392013202920192514A126871
:101FA0000092542201F0DCFC4B4671680693B36842
:101FB000994200D149E24B4608C171603368C91AA1
:101FC000402900D8E0E22A00186C474B069582CBE6
:101FD00082C21B782100137009236360002363749D
:101FE000A361424BE36101F04BFE0698A84203D087
:101FF000A368591C22F098FF382022F085FF0022A8
:10200000434601211B6803920192394A02911268EA
:1020100081460092DA22B331520001F0A1FC4B4616
:1020200071680693B368994200D114E24B4608C127
:1020300071603368C91A442900D89BE25F6C24237D
:10204000002205A920000593069540F055FE059B4A
:10205000242228490690A36022F050FF002306990D
:10206000059A380062608B54A361234B2100E36121
:1020700001F006FE0698A84203D0A368591C22F07E
:1020800053FF382022F040FF002201211B4B0700A4
:102090001B68039201921A4A0291126873310092EE
:1020A00030E0C0468C5B0610610F00109CB9002028
:1020B00098B90020445B0610985B061015120010BA
:1020C000A85B06105903001074B9002070B90020F5
:1020D000D45B06105D030010045C06106103001061
:1020E0006CB9002068B90020305C06106503001050
:1020F00060B900203C5C061069030010A4B9002000
:10210000A0B90020A122920001F02AFC7168B368F6
:102110000697994200D1A4E180C171603368C91A61
:10212000482900D82BE29F6C1723002205A9200024
:102130000593069540F0E0FD059B0690A360E64BF5
:10214000172219009A4622F0D9FE00230699059A13
:10215000380062608B54A361E04B2100E36101F021
:102160008FFD0698A84203D0A368591C22F0DCFE1C
:10217000382022F0C9FEDA4B01229946002303934E
:102180000193D84B029298461B68CD2200934B4690
:10219000070074211B68920001F0E2FB7168B368CC
:1021A0000697994200D162E180C171603368C91A13
:1021B0004C2900D806E2DF6C1723002205A9200075
:1021C0000593069540F098FD059B17225146069011
:1021D000A36022F093FE00230699059A38006260FE
:1021E0008B54A361C04B2100E36101F049FD0698C7
:1021F000A84203D0A368591C22F096FE382022F092
:1022000083FE0022B94BBA211B680392013202926D
:102210000192B74A0700126849000092A522920075
:1022200001F09EFB7168B3680697994200D124E1E2
:1022300080C171603368C91A502900D8C7E11F6D89
:102240002323002205A920000593069540F054FDA4
:10225000059B2322A7490690A36022F04FFE00238E
:102260000699059A380062608B54A361A24B210045
:10227000E36101F005FD0698A84203D0A368591C4C
:1022800022F052FE382022F03FFE00224B461B680F
:10229000039201320292019242461268C2210092D8
:1022A000D12207004900920001F05AFB7168B3681F
:1022B0000697994200D1E6E080C171603368C91A7F
:1022C000542900D847E1002108220CA85F6D22F0B4
:1022D0000FFE2A00894B069503CB03C219883800EC
:1022E00011809B78210093700B2363600023E374BB
:1022F00001F0C6FC0698A84203D0A368591C22F03E
:1023000013FE33687268D21A542A00D81EE15E6D3B
:102310002123002205A920000593069540F0ECFC3E
:10232000059B212276490690A36022F0E7FD002359
:102330000699059A300062608B54A361714B2100AD
:10234000E36101F09DFC0698A84203D0A168013129
:1023500022F0EAFD6C4823F031FA0FB0F0BCBB4626
:10236000B246A946A046F0BD2200FEF7CBFCFFF71F
:10237000CEF822003000FEF7D3FF7168FFF7E5F8D2
:1023800022003000FEF7CCFF7168FFF71CF9220035
:102390003000FEF7C5FF7168FFF753F922003000E7
:1023A000FEF7BEFF7168FFF786F922003000FEF7E6
:1023B000B7FF7168FFF7C7F922003000FEF7B0FFE2
:1023C0007168FFF7FEF922003000FEF7A9FF71687F
:1023D000FFF775FA22003000FEF7A2FF7168FFF7E1
:1023E000AAFA22003000FEF79BFF7168FFF7DEFAC1
:1023F00022003000FEF794FF7168FFF744FB2200D3
:102400003000FEF78DFF7168FFF7A2FB220030005D
:10241000FEF786FF7168FFF707FC22003000FEF729
:102420007FFF716895E422003000FEF779FF716844
:10243000F0E422003000FEF773FF716832E52200FD
:102440003000FEF76DFF716872E522003000FEF784
:1024500067FF7168B2E522003000FEF761FF716826
:10246000E7E522003000FEF75BFF716856E62200C8
:102470003000FEF755FF716898E622003000FEF745
:102480004FFF7168D6E622003000FEF749FF716801
:1024900014E78A101D48032135F060FD8A101B489F
:1024A000062135F05BFD8A101848072135F056FDEE
:1024B0008A1016480C2135F051FD0C21134892105A
:1024C00035F04CFD09211148921035F047FD8A1076
:1024D0000E48092135F042FD645C06106D030010C2
:1024E00054B9002050B900203903001084B90020ED
:1024F00080B900207C5C061011030010445B0610BC
:10250000A05C06100511001091050010645A061019
:102510008A1034480A2135F021FD0A2131489210F1
:1025200035F01CFD0B212F48921035F017FD8A1055
:102530002C480B2135F012FD00222A48110035F0FD
:102540000DFD8A102748012135F008FD1521254889
:10255000921035F003FD8A102248152135F0FEFC5B
:102560008A102048052135F0F9FC8A101D48042105
:1025700035F0F4FC8A101B48112135F0EFFC8A106D
:102580001848122135F0EAFC8A101648102135F05F
:10259000E5FC8A1013480F2135F0E0FC8A10114841
:1025A0000D2135F0DBFC8A100E480E2135F0D6FCEB
:1025B0008A100C48082135F0D1FC082109489210F6
:1025C00035F0CCFC8A100748132135F0C7FC8A107F
:1025D0000448142135F0C2FC8A100248022135F06B
:1025E000BDFCC046645A061010B53223002486B0E4
:1025F0000093C82214210D48059404940394029476
:1026000001941CF03DF93C23002205936421084805
:10261000049403940294019400941CF031F9054B46
:102620001C605C609C6006B010BDC0468C9D0020A4
:10263000B42C0020A8B9002000230360436083600D
:10264000C3607047F8B506001D0014004368326887
:10265000E8188300A2181B1852009B018918CF5E4E
:102660007B1C0FD01E4B1B68012B0CD03800F3686D
:10267000E1009C46B468EA00624409190C3A0C393E
:102680001CF070FDF8BD1DF099F9FA21C90020F089
:1026900073FFFA235B00994205D2122F1CD0132F2F
:1026A000E4D11520E3E71DF089F9FA21C90020F0F3
:1026B00063FFFA239B009942D8D31DF07FF9FA21DA
:1026C000C90020F059FF074B9942CFD8122F05D0EF
:1026D000132FCBD11720CAE71420C8E71620C6E76E
:1026E0005CB30020DB050000F0B54E464546DE46F3
:1026F0005746654BE0B59846644B05008A469146BF
:1027000000269B4683B00024F300019343461B78C8
:10271000002B00D16EE00B2E04DC092C02D03CDD36
:10272000092E3ADD51466B68F3189A00D2182B68CF
:102730009201E3185B00C9188F5E791C18D05B46C4
:102740001B68012B36D03800EB68019A9C46AB68B9
:1027500062449C46E10061440C3A0C391CF002FDD5
:102760006B68F3189A00D2182B689201E3185B008B
:102770004B449F5E7B1C10D05B461B68012B29D00D
:102780003800EB68019A9C46AB6862449C46E100C5
:1027900061440C3A0C391CF0E5FC0134122CB5D123
:1027A0000136122EAFD103B0F0BCBB46B246A946EB
:1027B000A046F0BD1DF002F9FA21C90020F0DCFEB0
:1027C000FA235B0099423BD2122F57D0132FBAD174
:1027D0001520B9E71DF0F2F8FA21C90020F0CCFE6F
:1027E000FA235B00994212D2122F45D0132FC7D182
:1027F0001520C6E73300220051462800FFF722FFCC
:102800003300220049462800FFF71CFFC5E71DF0F2
:10281000D5F8FA21C90020F0AFFEFA239B009942B7
:10282000AED31DF0CBF8FA21C90020F0A5FE184B5D
:102830009942A5D8122F25D0132FA1D11720A0E798
:102840001DF0BCF8FA21C90020F096FEFA239B0087
:10285000994200D277E71DF0B1F8FA21C90020F0C3
:102860008BFE0B4B994200D96DE7122F08D0132F26
:1028700000D068E7172067E7142082E7142063E799
:10288000162061E716207CE7DBBA00205CB300204D
:10289000DB0500000722110070B50D4C2368656848
:1028A000DE173140C918C910494201601100EC1708
:1028B000760F2140640F9B1949192D191340C91037
:1028C0002A409B1B4942121B41608360C26070BD5D
:1028D000C4BA002010B50400002A0BD0012A08D188
:1028E000094B18681CF00EFA2000084A0849FFF747
:1028F000FBFE10BD074B18681CF004FA2000064AC6
:102900000649FFF7F1FEF4E7B4BA0020DC0212102A
:10291000DCCA1210B0BA0020DCAA0F10DC72101052
:10292000F8B50400002A00D195E0012A00D091E01A
:102930000525924B18681CF0E5F9914E63686F1FEE
:10294000FA1893009B18C822D200944622689B0173
:102950006344511DF3184900C95E013110D02B00AA
:10296000052231002000FFF76DFE6368FA1893001E
:102970009B18C822D20094469B0163442268F31836
:10298000911D4900C95E013110D02B000622310093
:102990002000FFF757FE6368FA1893009B18C822BF
:1029A000D20094469B0163442268F318D11D49006C
:1029B000C95E013110D02B00072231002000FFF743
:1029C00041FE6368FA1893009B18C822D20094460F
:1029D0009B0163442268F318110008314900C95E65
:1029E000013110D02B00082231002000FFF72AFE11
:1029F0006368FA1893009B18C822D20094469B0182
:102A000063442268F318110009314900C95E01319D
:102A100011D02B00092231002000FFF713FE63685C
:102A2000C8229C46D20067449446BB00DB199B0138
:102A300063442268F3180A325200D35E013305D092
:102A40002B000A2231002000FFF7FCFD01350B2D81
:102A500000D073E7F8BD05254A4B18681CF052F901
:102A6000494E63686F1FFA1893009B18C822D20062
:102A7000944622689B016344511DF3184900C95EC6
:102A8000013110D02B00052231002000FFF7DAFDC4
:102A90006368FA1893009B18C822D20094469B01E1
:102AA00063442268F318911D4900C95E013110D0BA
:102AB0002B00062231002000FFF7C4FD6368FA18DE
:102AC00093009B18C822D20094469B01634422685D
:102AD000F318D11D4900C95E013110D02B00072227
:102AE00031002000FFF7AEFD6368FA1893009B18D1
:102AF000C822D20094469B0163442268F318110057
:102B000008314900C95E013110D02B000822310084
:102B10002000FFF797FD6368FA1893009B18C822FE
:102B2000D20094469B0163442268F31811000931D6
:102B30004900C95E013111D02B000922310020006B
:102B4000FFF780FD6368C8229C46D2006744944624
:102B5000BB00DB199B0163442268F3180A32520060
:102B6000D35E013305D02B000A2231002000FFF78D
:102B700069FD01350B2D00D073E76BE7B4BA002077
:102B8000DC021210B0BA0020DCAA0F100023C261D0
:102B9000212281618354036043608360C360034BDF
:102BA00003610223FF3383827047C04601000101A5
:102BB000F0B545464E46DE4657465368E0B5984662
:102BC000146805008946634B85B0A04500D1BEE07E
:102BD0009B461A6800230F279A465F4E02E0043492
:102BE000A04567D02368596B9142F8D103970297AB
:102BF00070689A6984466244019232685B699446BF
:102C0000E969634400930F220F23A86910311CF077
:102C1000FBFD002801D05346AB742268039702974E
:102C20007068936984466344019353693268E96923
:102C30009446634400930F220F23A86910391CF0B7
:102C4000E3FD002801D05346EB74226803970297F6
:102C5000716893698C466344019353693268A8692B
:102C60009446634400930F220F23E96910381CF047
:102C7000CBFD002801D053462B752268039702979D
:102C8000716893698C466344019353693268A869FB
:102C90009446634400930F220F23E96910301CF01F
:102CA000B3FD002801D053466B755B4604341A68A7
:102CB000A04597D1531E59424B41A421C8276868AB
:102CC000FF315B420B408100091828683F01460034
:102CD0004846BC4689014018841964441027E45FC3
:102CE0009C4201D10024AC74F024E400A446801975
:102CF00060441024005F984201D10020E874A020B5
:102D0000000184466144891949440C24085F9842B3
:102D100001D1002028751420095E994201D10023B9
:102D20006B750E4B59681B68994206D005B0F0BC14
:102D3000BB46B246A946A046F0BD012AF6D1064AD6
:102D4000074B12689A42F1DA00236B75EEE71A68B6
:102D5000B0E7C0465CB30020C4BA00204028002081
:102D6000E1FEFFFFF0B557464E46DE464546E0B56C
:102D70004B680C6899B006009A4605929C4200D1B7
:102D8000DEE0D04BD04D9B4603E00434A24500D199
:102D9000D6E023682A685B6B9342F6D112201CF0C0
:102DA000EFFD0028F1D0337C002BEED00F235846E6
:102DB0002268F169039302934068936984466344EF
:102DC000019353695A461268103194466344009344
:102DD0000F220F23B0691CF017FD002800D013E16B
:102DE00022680F235846F169039302934068936960
:102DF00084466344019353695A46126810399446D5
:102E0000634400930F220F23B0691CF0FDFC0028DF
:102E100000D09CE022680F235946B06903930293C7
:102E2000496893698C466344019353695A46126812
:102E300010389446634400930F220F23F1691CF06D
:102E4000E3FC002804D02023F35C022B00D13FE1F7
:102E500022680F235946B069039302934968936926
:102E60008C466344019353695A4612681030944665
:102E7000634400930F220F23F1691CF0C5FC002866
:102E800083D02023F35C032B00D07EE700220021B7
:102E90002368586A98461B6A14911592002206907E
:102EA000C71A1692984200D150E2884BB9469F4209
:102EB00000D953E2380022F027F842464346070083
:102EC000526A1B6A06924A46BA181692069A1497D4
:102ED0001597934200D1C7E198465346A146B246A2
:102EE0004446079311E0012E00D01FE21B783B728D
:102EF00000237E608355A369BB61E3692034FB61D5
:102F0000069B2037A34200D1AAE138000830386080
:102F1000236866689846002B00D13CE110960F2E7E
:102F2000E1D90022380010A93FF0E6FE109B38607E
:102F3000BB603200414621F0E1FF109E3868D7E7C0
:102F400019B0F0BCBB46B246A946A046F0BD20234E
:102F5000F35C2268002B00D05DE7576A9046126A46
:102F60000020B91A8C46002106970C900D910E9303
:102F7000974200D1D6E1554BE1469C4500D9EDE1A1
:102F8000604621F0C1FF434607001A6A5B6A069358
:102F90004B46FB180E93069B0C970D979A4200D157
:102FA00004E15346A146B2461400079311E0012EF6
:102FB00000D0B3E11B783B7200237E608355A36988
:102FC000BB61E3692034FB61069B2037A34200D13B
:102FD000E8E0380008303860236866689846002BBF
:102FE00000D1CEE014960F2EE1D90022380014A9AA
:102FF0003FF082FE149B3860BB603200414621F0F6
:103000007DFF149E3868D7E72023F35C012B00D0A6
:10301000E6E6002200212368089109920022586AFE
:1030200098461B6A0690C71A0A92984200D181E11D
:10303000264BB9469F4200D990E1380021F064FF49
:10304000424643460700526A1B6A06924A46BA182D
:103050000A92069A08970997934200D1D5E09846BC
:103060005346A146B2464446079311E0012E00D0D4
:1030700064E11B783B7200237E608355A369BB61CA
:10308000E3692034FB61069B2037A34200D1B8E0FE
:10309000380008303860236866689846002B76D080
:1030A00014960F2EE2D90022380014A93FF024FE16
:1030B000149B3860BB603200414621F01FFF149E14
:1030C0003868D8E7C4BA00205CB30020E0FFFF7F77
:1030D000002200212368586A98461B6A10911192B9
:1030E00000220690C71A1292984200D132E19C4BFE
:1030F000B9469F4200D931E1380021F005FF424630
:1031000043460700526A1B6A06924A46BA18129250
:10311000069A109711979A4200D1D4E098465346E8
:10312000A146B2464446079311E0012E00D009E1C2
:103130001B783B7200237E608355A369BB61E36902
:103140002034FB61069B2037A34200D1B7E0380052
:1031500008303860236866689846002B1FD01496A4
:103160000F2EE2D90022380014A93FF0C5FD149BB0
:103170003860BB603200414621F0C0FE149E3868C2
:10318000D8E7002E00D117E7764834F087FE002EEE
:1031900000D170E7F8E7002E00D1A9E6F4E7002E91
:1031A000C8D0F1E7079B56464C469A4605980CA9AD
:1031B0000D970BF057FF0D9B0C9F98469F420DD02B
:1031C0003B0038680833984217D0BB682037591C39
:1031D00021F0AAFEB845F3D10C9B98464346002B3C
:1031E00004D00E994046C91A21F09EFE22685E4B1B
:1031F000116B1960012313770DE62037B845DFD135
:10320000EAE7079B56464C469A46059808A909974F
:103210000BF028FF099B089F98469F420DD03B006A
:1032200038680833984217D0BB682037591C21F002
:103230007BFEB845F3D1089B98464346002B04D04B
:103240000A994046C91A21F06FFE2268464B116B5D
:10325000196000231377C4E52037B845DFD1EAE7CA
:10326000079B56464C469A46059814A915970BF0AD
:10327000F9FE159B149F98469F420DD03B0038687D
:103280000833984217D0BB682037591C21F04CFEF8
:103290004745F3D1149B98464346002B04D016991A
:1032A0004046C91A21F040FE23682F4A196B11606D
:1032B00002221A7769E52037B845DFD1EAE7079B94
:1032C00056464C469A46059810A911970BF0CAFE2F
:1032D000119B109F98469F420DD03B0038680833E1
:1032E000984217D0BB682037591C21F01DFE474576
:1032F000F3D1109B98464346002B04D012994046C8
:10330000C91A21F011FE2268174B116B19600323B3
:1033100013779EE52037B845DFD1EAE7002E00D1CC
:103320004AE66AE600230027994631E6002E00D1DE
:10333000DEE5FEE500220027914687E6002E00D15B
:1033400099E6B8E6002E00D1F4E613E70022002744
:103350009146B8E5002200279146D6E634F07EFD7E
:10336000E0FFFF7FF4590610A4B3002070B50400FD
:1033700014201CF017FB00281DD0237C002B1AD032
:10338000A37C002B00D078E001232022A354637497
:1033900013201CF007FB00280CD05B4A1168CB0FF0
:1033A0005B185B1051685B001360CB0F5B185B1000
:1033B0005B00536070BD17201CF0F4FA00280BD09E
:1033C000237C002B08D0E37C002B4AD12023002251
:1033D000E2541F3B6374DBE716201CF0E3FA00287D
:1033E0000BD0237C002B08D0237D002B5BD1202326
:1033F0000222E2541F3B6374CAE715201CF0D2FA84
:1034000000280BD0237C002B08D0637D002B3FD1FC
:1034100020230322E2541F3B6374B9E73A4D6B68E3
:103420001B070BD12B681B0705D02023E35C022B65
:1034300050D0032B5BD000236374A9E72023E65C04
:10344000012E3CD0002EEDD113201CF0ABFA431E10
:1034500098416B6801309C46012360446860637446
:1034600096E713201CF09EFA431E9841264B01302C
:103470005A68944660445860A8E713201CF092FAFA
:10348000431E9841204B01305A68101A58607BE760
:1034900013201CF087FA431E98411B4B01301A6819
:1034A000101A1860B4E713201CF07CFA431E9841F0
:1034B000154B01301A6894466044186097E7132052
:1034C0001CF070FA431E98416B680130181A68604E
:1034D00066745DE713201CF065FA431E98412B6863
:1034E00001309C46012360442860637450E7132038
:1034F0001CF058FA431E98412B680130181A01231A
:103500002860637444E7C046C4BA0020F8B5314B64
:1035100004001B680E00022B32D0032B3AD0012B83
:1035200033D02023E35C0025032B02D82A4A9B00DA
:103530009D58637C002B03D0284B1B78002B2ED08A
:103540002800E269A1691BF00DFEA169E26908315A
:10355000681C1BF007FE2123E35C002B00D0F8BDA4
:103560002800E269A169083218301BF0FBFD280031
:10357000E269A1690832083119301BF0F3FDEEE76A
:10358000174B18681BF0BEFBCBE7164B18681BF0F7
:10359000B9FBC6E7144B18681BF0B4FBC1E7132056
:1035A0001CF000FA00280FD10A27282130001FF054
:1035B000E3FF080039001FF0DFFF40000428BFD000
:1035C000062804D02D18BBE706271821EEE704359E
:1035D000B6E7C046E8140020CC5C0610DDBA002037
:1035E00024B3002018B3002030B30020F0B54746C4
:1035F000CE46CD4E80B57768040038001D000F23FD
:1036000031688DB00843034058424341072023747A
:10361000CB17984603405B18DB105B422360FB1717
:103620009C460340DB19DB105B42636043465B0F43
:10363000C9180140C91A63465B0FFF183840C01A09
:103640000223FF336382A382B84BA1601B78E06042
:10365000002B00D0B7E0B64B1B78002B00D0B2E0B7
:10366000002A00D1B4E0012A61D129686A688C4639
:103670000020571A0021029300900191624500D169
:103680003BE1AC4BB8469F4200D945E1380021F000
:103690003BFC2B686A689C46D31A07009946434650
:1036A000FB18009701970293944504D04A4661465F
:1036B000380061F0C1FA4F4401979F4F20006A46DD
:1036C0003900FFF775FA0098002803D00299091A0B
:1036D00021F02AFC21230022E254626893009B1807
:1036E0009B019946D12322685B005100B422984681
:1036F00012014A445218BA181023D05E404500D136
:10370000A2E01223D25E424500D19DE0A0231B011E
:103710009C464B4663445B18FB1810215A5E424599
:1037200000D191E012229B5E434500D18CE0200045
:10373000FFF71CFE002200230892099308AB99466C
:1037400000234A46686829689360471A884200D176
:1037500075E0784BB8469F4200D9DDE0380021F093
:10376000D3FB296807006868451A4B4608975F60D5
:1037700043464A46FB189360814203D02A00380032
:1037800061F05AFA4B467F1920004946149A5F604F
:10379000FFF7E8FA0898002804D04B469B68191AEE
:1037A00021F0C2FB1CF00AF933689C46604454F0D7
:1037B0001DFA2123E35C002B05D0637C002B02D093
:1037C000237C002B44D10DB0C0BCB946B046F0BD3F
:1037D00029686B688C4600205F1A002106920490CD
:1037E0000591634500D18DE0524BB8469F4200D908
:1037F00092E0380021F088FB2B6807009C46624667
:103800006B689A1A91464246BA1804970597069231
:103810009C4504D04A466146380061F00DFA20000C
:1038200046494F4404AA0597FFF7C2F904980028B7
:1038300000D17CE70699091A21F076FB77E700238F
:1038400000259846002790E721230122E2546EE7E5
:1038500054F0D6F90A211FF067FE0529B3D10127DC
:103860000422374B1F70374B1A700023364A1360FF
:10387000364A136054F0C4F90C211FF055FE344B46
:103880004D001F70334F01353B687A68934200D07A
:103890007B60314A0895136852689A423ED04A4686
:1038A0005968516058681AF0A3FA010028001AF00C
:1038B000D3FC4B464A4698600023D3607B689C4605
:1038C000BB689C4523D0634623CA23C36146126864
:1038D00010311A6079600F233168CA171A405218E4
:1038E0001211120132607268D1170B409B181B1124
:1038F0001B0173600023637465E70023002799466A
:103900009846CCE600220027914690467BE7614628
:103910003800FDF7F7F9DEE734F0A0FA00220F488F
:10392000110034F01BFBC046C4BA0020DDBA0020F1
:10393000DBBA0020FCFFFF7FDC921310DC3A111091
:10394000D5BA0020CEBA0020BCBA0020C0BA0020F0
:10395000DABA0020D021002040280020645A061046
:10396000F0B5C6469846012300B506AC80CCC360CE
:103970004346267808AC25780024C362099B076378
:103980000677057404624462846241618261046066
:1039900044600472436380BCB846F0BD094910B569
:1039A0000C680722A4460B68DB1713406344DB1046
:1039B0005B4203604B68D9170A40D218D2105242BA
:1039C000426010BDC4BA0020F0B557464E46DE46F0
:1039D0004546E0B51E0087B0103382460592882B1D
:1039E00039D813001033882B35D80B0198460023A3
:1039F000994601339B4633004E46994605E0012324
:103A00009C460136E144102E25D04B46002BF6DBB8
:103A10003300002446469846059D002D13DB53468F
:103A2000DF6A300039681FF07FFD002303934B46A7
:103A300002935B46020100933800012342440919B6
:103A400001951BF0ABFA01340135102CE5D143464A
:103A5000B0461E00D3E707B0F0BCBB46B246A9464D
:103A6000A046F0BD037C10B5002B0ED0037F0021D3
:103A7000032B0BD98469074AA446536844696344FD
:103A8000A44612686244FFF79FFF10BD024A9B00E4
:103A90009958EFE7C4BA0020DC5C0610F0B5454643
:103AA0005746DE464E46E0B543689246026889B006
:103AB000904601939B1A6E4A0D000C0005905B1115
:103AC000934200D1D1E0002B50D05A000392934290
:103AD00000D9A6E04346EB1A0493039B002B4DD17B
:103AE0001E000293049B9C4653461B6866449946FD
:103AF000534630005F684B4608303060002B00D1E1
:103B0000A5E007970F2F00D992E0012F00D0A8E081
:103B10001B78337200237760C35553469B69B361AA
:103B20005346DB69F361A84500D198E0082343447C
:103B3000A14646461C00029F0DE03B60B368BB6097
:103B4000736820347B60B369BB61F3692036FB6125
:103B50002037AE421ED03800083038603368A342A8
:103B6000EBD11022210021F0C9F9E9E701330393D9
:103B70004346EB1A0493039B002BB1D08022D2045E
:103B800093426AD25B011800039321F0BDF906004D
:103B90000290A7E7029A4C469446049B6344202275
:103BA00092469A44019BAB4220D02E005B1B9B4661
:103BB000554608360EE02B60A368AB60636820367C
:103BC0006B60A369AB61E3692034EB61019B203535
:103BD0009C420AD02800236808302860B342EAD10A
:103BE0001022310021F08AF9E8E7DA444346002B3D
:103BF00007D04246059B40469B68991A019321F0E5
:103C000093F9029A514694460398059B60441A60C2
:103C10005960986009B0F0BCBB46B246A946A046C0
:103C2000F0BD4346CB1A0493124B18000393ACE744
:103C30000022300007A93FF05FF8079B3060B360B7
:103C40003A00494621F05AF9079F306862E7002F91
:103C500000D15FE7084834F021F9054B92E7029B59
:103C60009DE7002F00D155E7EAE7044834F046F914
:103C7000FFFFFF03E0FFFF7FF4590610485A0610CC
:103C8000F0B5C64600B5456A836A04000E0082B0EE
:103C90009D4221D02800083028600B684F68984664
:103CA000002B14D001970F2F1CD8012F29D11B787E
:103CB0002B7200236F60C355B369AB61F369EB618D
:103CC000636A2033636202B080BCB846F0BD002F47
:103CD000EFD00D4834F0E2F80A0020302900FFF759
:103CE000DDFEF0E70022280001A93FF005F8019B66
:103CF0002860AB603A00414621F000F9019F286836
:103D0000D7E7002FD5D0F5E7F45906100800704723
:103D1000080070477047C046012A00D101600020AA
:103D20007047C04608780A2804D00D38431E9841D1
:103D3000C0B270470020FCE7012A00D101600020DA
:103D40007047C04608780A2804D00D38431E9841B1
:103D5000C0B270470020FCE70B784078C01A43429D
:103D60005841C0B27047C0460B780079C01A434230
:103D70005841C0B27047C0461F230268012010B5E9
:103D80000C78234098400300610989005218D06BD9
:103D90001840431E9841C0B210BDC0461F230268A0
:103DA000012010B50C782340984003006109890078
:103DB0005218106C1840431E9841C0B210BDC04646
:103DC0001F230268012010B50C782340984003009F
:103DD000610989005218106C1840431E9841C0B206
:103DE00010BDC0461F230268012010B50C78234087
:103DF00098400300610989005218106C1840431E56
:103E00009841C0B210BDC0467047C046074B0C3049
:103E100010B50400994206D008003EF0E7F9431EB1
:103E2000984140420440200010BDC0465462061034
:103E300010B50400382121F077F8200010BDC046ED
:103E400010B5382121F070F810BDC046012A03D00A
:103E5000022A03D0002070470160FBE70B68036073
:103E6000F8E7C046012A03D0022A03D00020704799
:103E70000160FBE70B680360F8E7C046012A03D046
:103E8000022A03D0002070470160FBE70B68036043
:103E9000F8E7C046012A03D0022A03D00020704769
:103EA0000160FBE70B680360F8E7C046012A03D016
:103EB000022A03D0002070470160FBE70B68036013
:103EC000F8E7C046012A03D0022A03D00020704739
:103ED0000160FBE70B680360F8E7C04610B5012AF4
:103EE00003D0022A03D0002010BD0160FBE721F0BF
:103EF00005F8F8E7012A03D0022A03D00020704712
:103F00000160FBE70CC90CC0F8E7C046012A03D0EA
:103F1000022A03D0002070470160FBE70CC90CC0E7
:103F2000F8E7C046012A03D0022A03D000207047D8
:103F30000160FBE70CC90CC0F8E7C046F0B54F467E
:103F40004646D646541E9146E20F1219521090462C
:103F5000C0B5914231DA0F007C1C6400651E421925
:103F60009246025D06199446425D624537D8624624
:103F7000C255A04503DD2700EEE756462C004A4611
:103F8000D2071FD5621ED50FAD186D108C4209DC0B
:103F90000DE002556C1EE20F121952102C00A942BE
:103FA00005DA1500425D46199A42F2D306193370BC
:103FB000E0BCBA46B146A846F0BD4A464618D2070C
:103FC000F5D40C004D46023DEA0F521952109442AE
:103FD000D8D164000134025D32700619D2E7C255AF
:103FE000A845CADD2C002700B6E7C0460122F8B577
:103FF00017000D4C0E782378BFF35B8F1F401A42D9
:1040000006D00A4D2878801B431E9841C0B2F8BDE7
:10401000200021F0F9FB054D0028F3D020002F707F
:1040200021F00EFCEEE7C046982C0020D2BA00200A
:104030000122F8B517000D4C0E782378BFF35B8F83
:104040001F401A4206D00A4D2878801B431E984113
:10405000C0B2F8BD200021F0D7FB054D0028F3D0F9
:1040600020002F7021F0ECFBEEE7C046942C0020DE
:10407000D1BA0020F8B5CE4647460B1A80B50600E7
:1040800017008C469946102B66DD431C9846002A83
:1040900047D0634661469A1BD30F9B185B10F218FA
:1040A0007078F35C01390C78013F98421DD2A3422D
:1040B00031D3A0421DD33378307073700A786346D1
:1040C0004446013B21782500814203D20134F9E7BF
:1040D000013B1A788242FBD8A3420FD92270013BE0
:1040E000597030781A780134ECE7A042E3D3A34248
:1040F00011D2327834700A703078E0E73A006146C5
:104100002000FFF7B7FFA31B9946102B24DD002FDB
:1041100008D0A446BDE730783370107030780A7844
:10412000CDE70D004B469C1E641000E0013C4A4662
:1041300021003000335DFFF701FF002CF6D1013D77
:104140003278AC1B2B7800212A7030002200FFF758
:10415000F5FE013D012CF3DCC0BCB946B046F8BD0C
:1041600070B588420BD002004E1E03E01C785D78CB
:10417000A54206D01300013210009E42F6D108007D
:104180000FE08B42FBD09A1C8A4201D109E01C78D7
:104190001578A54201D05D70013301328A42F6D113
:1041A000581C70BDF8B5CE464746050080B5814223
:1041B00029D050C90368371B99464A4683689B1A21
:1041C0009C469F4223D84B464268D11A8F4241D821
:1041D000002F16DDB9108B005B181A019B181A020C
:1041E0009B181A049A184B46520052182168013A3B
:1041F000196061685960217A0C3419720C33002AF5
:10420000F4D14F446F60C0BCB946B046F8BD002F32
:104210004AD0284B9F424AD8380020F075FE2B68C0
:10422000804699464A46AB689B1A9C464346A6423E
:1042300003D007CC07C3A642FBD14B46002B03D0CB
:104240006146484620F070FE434647442B60AF600D
:104250006F60D8E76318002922DD89108C46890039
:1042600061440801804641440802804641440804F4
:104270008046414449008C44494620680860606893
:104280004860207A0C340872012040428046C444C1
:1042900060460C310028F0D19E42B2D013CB13C23D
:1042A0009E42FBD14F44ADE700239846BEE733F072
:1042B000D5FDC046F8FFFF7F70B50C0022000968ED
:1042C000083205000368914218D0083083420DD0AF
:1042D00029606168A8686960A168A960002B0AD09C
:1042E0002360A060002262601A7070BD636829605C
:1042F0006B60A368AB6013002260F3E76268002A7A
:1043000006D0012A09D0180020F0F8FD62682B6859
:1043100000216A6099542368E4E7227A1A7062687F
:104320000368F5E7F0B5D6464F46464694229821F5
:10433000C0B583584158040082B08B4200D1EBE0F5
:10434000591C81501D789C23C058461933001E33D8
:10435000FF33197800290BD10368704A1B6A2900C2
:10436000934200D086E0002902D01E36FF3631701D
:104370008823E2581378002B04D12AE09378023284
:10438000002B26D09942F9D1622D15D17C23E35C14
:10439000022B11D0842318222000E250143B0093FA
:1043A000A030002142686F3B3EF002FE02B0E0BC4C
:1043B000BA46B146A846F0BD842301212000E15051
:1043C0005378A03000930021012342683EF0F0FDB5
:1043D000ECE7622DDED0422D50D020232A009A43F4
:1043E000442A3BD024232A009A43532A36D0632DF3
:1043F00051D0782D5ED0752D5CD09C23E3589B69FD
:104400005B5D5B0700D484E026000095A0360123A5
:104410007268002130003EF0CBFD94239822E358CF
:10442000A2589A4216D09C220427904694250AE06E
:104430005A1C6251197830003EF098FD9822635959
:10444000A258934206D04246A1581A7889698A5CDC
:104450001742EDD184230422E250A7E784230E22E1
:1044600020000095A030E25000214268833B3EF0DE
:104470009FFD9BE700229847010074E784231822E0
:104480002000E250163B0093A030002142686D3BB3
:104490003EF08EFD8AE794229821A35861588B4202
:1044A0003AD08421012060502000591CA1501B7873
:1044B000A03087E7A0239846A044002342465360DB
:1044C000A022783D2E00A25800251370731E9E4135
:1044D00098239A460433942799467600023652462A
:1044E000E359A258934217D04A46A1581A788969CD
:1044F0008A5C442111420FD05A1CE251404619787F
:1045000001353EF033FDAE42E9D184230322E2506F
:104510004CE784230122A3E752F00CFC113D00106C
:1045200070B505000E0082B000291DD0541A019408
:104530000F2C0BD80068012C1BD10B780370019C49
:10454000286800236C60035502B070BD002201A9E9
:104550003EF0D2FB019B2860AB602200310020F0CE
:10456000CDFC019C2868ECE7002A05D100240068F6
:10457000E7E7002CE5D0F0E7014833F08FFCC046B8
:10458000F459061070B50600343021F0D5FAB46A3B
:10459000F56AAC4203D111E01834A5420DD023686E
:1045A0000B2BF9D12369002BF6D020000830032211
:1045B000010018349847A542F1D1B56A002D04D006
:1045C000336B2800591B20F0AFFCF068002803D0A3
:1045D0007169091A20F0A8FC70BDC04670B5047955
:1045E00000680D7834F0ECFB036829001B699847DC
:1045F000201A43425841C0B270BDC04670B504791C
:1046000000680D7834F0DCFB036829001B699847CB
:10461000201A43425841C0B270BDC046F0B5DE46D4
:1046200057464E464546E0B583B00190002876D007
:10463000019BDB689946002B68D04B46DB689A46A5
:10464000002B59D05346DB689B46002B4AD05B4673
:10465000DC68002C32D0E568002D1DD0EB68984650
:10466000002B22D04346DE68002E31D0F768002FA1
:1046700009D0F868FFF7D2FF3800BF68182120F092
:1046800053FC002FF5D1B7681821300020F04CFC06
:10469000002F1DD03E00E9E7A5681821200020F07A
:1046A00043FC002D0AD02C00D5E7AE681821280065
:1046B00020F03AFC002EEFD03500CFE75B469C6837
:1046C0001821584620F030FC002C0BD0A346BEE742
:1046D00043469E681821404620F026FC002EE4D078
:1046E000B046BFE753469C681821504620F01CFC9A
:1046F000002C01D0A246A5E74B469C6818214846ED
:1047000020F012FC002C01D0A14696E70198182158
:10471000846820F009FC002C01D0019488E703B0E4
:10472000F0BCBB46B246A946A046F0BD70B5040039
:1047300000680D7834F044FB036829001B69984732
:104740000500206834F03CFB03680A211B69984788
:104750000600206834F034FB03680D211B6998477C
:10476000AE4204D0401B431E9841C0B270BD002031
:10477000FCE7C04670B5040000680D7834F020FBFB
:10478000036829001B6998470500206834F018FB6E
:1047900003680A211B6998470600206834F010FB63
:1047A00003680D211B699847AE4204D0401B431E8D
:1047B0009841C0B270BD0020FCE7C046F0B5DE46AF
:1047C00057464E464546E0B5BFB007AB02000191E3
:1047D00005A801219A4605933EF0ACFA1CA833F0D7
:1047E000B3FC1C220025B42304A98918CD5004A9C8
:1047F00089180433CD5204A989180433CD5004A973
:1048000089180433CD5004A989180433CD5004A964
:1048100089180433CD50654B654F59689B680B91DF
:1048200002910C390E00009304AB09689B18009AA2
:104830001C975A500C9533680BA89C460021604485
:1048400033F06EFC5B4C14A8230014331C935A4BBA
:104850000E959B460D930F951095119512951395F6
:104860000B9421F07FFF554B18AA99460D93059B99
:1048700015959046069D03931692002B6AD00495D9
:104880000F2D58D8012D00D086E01C201A78342333
:1048900004A90918CA544346002217955A550823FB
:1048A0001593169B0DA80393039900233DF0EEFF8B
:1048B0001CA80DA933F034FC0598504504D0079B83
:1048C000591C039320F030FB019B082B48D0102B80
:1048D00054D005A90BA833F053FD0523219A01926A
:1048E0001A425FD1059D4B4616980B9414341C94C4
:1048F0000D93404504D0189B591C019320F014FBE4
:104900005B4614A80D9321F017F91C21029B04AA01
:104910000B935218336800991CA8D15000231C97A0
:104920000C9333F04FFC28003FB0F0BCBB46B246BE
:10493000A946A046F0BD002204A916A83EF0DCF965
:10494000049B169018932A00039920F0D7FA049D2F
:10495000169BA1E71300002D9ED0194833F09EFA54
:104960000B9B0C3B1A680BAB9C464A236244D168F4
:1049700099430B0040210B43D360AAE70B9B0C3BF0
:104980001A680BAB9C464A236244D16899430B00DA
:1049900008210B43D3609CE71300002D00D17BE777
:1049A0001000D0E701256D429DE7C046308E1410FF
:1049B000B48514104C8E1410FC8E1410D08D14106D
:1049C000F4590610F8B5144D0F782B780400BFF396
:1049D0005B8FDB070DD5114E206834F0F1F90368C9
:1049E00039001B6998473378181A421E9041C0B2AB
:1049F000F8BD280020F008FF0028ECD0206834F033
:104A0000DFF9036800211B699847044E30702800C5
:104A100020F016FFE0E7C0469C2C0020D3BA00200F
:104A2000F8B5144D0F782B780400BFF35B8FDB07CC
:104A30000DD5114E206834F0C3F9036839001B69A5
:104A400098473378181A421E9041C0B2F8BD28002A
:104A500020F0DAFE0028ECD0206834F0B1F90368C9
:104A600000211B699847044E3070280020F0E8FEB2
:104A7000E0E7C046A02C0020D4BA0020F8B5CE460E
:104A800047461400060080B51820884620F03CFAFE
:104A9000236805001F6800234361331D444699467F
:104AA000076143453CD023699F4217DAF368984673
:104AB000A34208D0200022F0FDFD03699F4250DD93
:104AC000C368002B42D001204B462200290022F06F
:104AD0000DFE73692800013373611DE09F4216DDEE
:104AE0003369434536D0404622F0CEFD03699F42EC
:104AF0005ADAE368002B2DD004000120E4E72300FC
:104B000000293ED1974202DD0024002B4AD1280023
:104B1000182120F009FA2000C0BCB946B046F8BD03
:104B20007369002B03D0346923699F420FDCB4689A
:104B3000002C05D124E00121A368002BDFD01C004C
:104B400022699742F7DB0021E368F6E704000120C1
:104B5000A145B9D0236901209F4200DB0020C0B2EB
:104B6000B2E7B468002C05D12FE00121A368002B27
:104B700011D01C0022699742F7DB0021E368F6E7B9
:104B80004446F368A3421ED0200022F093FD230088
:104B900002690400B6E723000029B3D04346A045CC
:104BA000F2D1B1E71C00D2E7B468002C05D10EE0C9
:104BB0000121A368002BA2D01C0022699742F7DBD9
:104BC0000021E368F6E723009EE74C46E6E74C4603
:104BD000D7E7C046002301228360C36003614361BD
:104BE0000370426003858361C3610362436270475F
:104BF000334B70B51A780400002A13D02822825C47
:104C0000002A10D12925425D002A23D001212D4AF6
:104C10001170E269772A14DC2B490978042910D035
:104C20000432E26170BD2922825C002AEED1E36980
:104C3000582B2BDD244A1278042A27D0043BE36149
:104C4000F0E700221A7063692285203B6361DB690B
:104C50009847E7E712201AF093FE00281AD16269FC
:104C600063685268934201D20133636012201AF0E4
:104C700087FE00281ED02378002B1BD163695B6858
:104C80006360012BCED900232370CBE728230022B9
:104C9000E254C7E7616963684A689342E2D10A0057
:104CA000E06820326261824206D001234A6A636072
:104CB0002370D7E76368E4E7012262554A6AD1E7C7
:104CC000DDBA0020D8BA0020CEBA0020F0B5C64622
:104CD00000B54C4B04001B7888B0002B65D029230D
:104CE000C35C002B65D12833C35C002B61D1C36842
:104CF0004269934259D0202378225821002018F08D
:104D0000D7FF414B04AF1A78404B1978404B1878C5
:104D10000F2319F083FF63690297196862685D6861
:104D2000884695424AD84346002B59D001950F2D0D
:104D300046D8012D60D13A001B7802AE33720023B1
:104D400030007560042153555C226C331AF0A4FCCA
:104D50000298B84203D0B168013120F0E5F86369E8
:104D600062685B689A4220D11AF028FE9621890079
:104D70001EF002FC96235B00994238D37124702503
:104D80006F266E2108226A2019F0FEFF06223100EC
:104D90006B2019F0F9FF042229006C2019F0F4FFB0
:104DA000022221006D2019F0EFFF08B080BCB84648
:104DB000F0BD18340FCC18F07BFFF6E71500B2E712
:104DC00002AE0022300001A93DF096FF019B029047
:104DD000B3602A00414620F091F8019D029AAEE7A7
:104DE0003A0002AE002DAAD00A4833F057F87224D8
:104DF000712570266F21C5E73A0002AE002D9ED0C6
:104E00003800E6E7DDBA0020F2140020F314002099
:104E1000F4140020F45906100368F0B54E464546D8
:104E200057469946DE46E0B517004A46436885B0C6
:104E300003939B1A5B4A80460E000D005B11934260
:104E400000D1ACE00124002B03D05C00A34200D9C8
:104E500099E04B46F31A0093002C48D100239B465F
:104E60002034029308229446009BBC445B44180003
:104E7000624608309A4618603B680192634500D14B
:104E800088E0524613605346BA689A6053467A687F
:104E90005A60019BBA693B6000237B603B725346BA
:104EA0009A61FA69DA61B14534D008234B449A46D5
:104EB0002B005C4655464F469A460DE02360BB6882
:104EC000A3607B6820356360BB69A361FB69203701
:104ED000E3612034B74219D02000083020603B68DD
:104EE000AB42EBD11022290020F008F8E9E780233B
:104EF000DB049C424CD26401200020F005F8230022
:104F0000834604005B4402932034ABE75546009C83
:104F100020345C44039BB3421DD037009E1B0837EE
:104F2000A6190DE02360AB68A3606B68203763604F
:104F3000AB69A361EB692035E3612034B4420BD047
:104F400020002B6808302060BB42EBD110223900D2
:104F50001FF0D4FFE9E726004B46002B06D043465E
:104F60004A469B684846991A1FF0DEFF43465A4658
:104F70001A60029A5E609A6005B0F0BCBB46B24609
:104F8000A946A046F0BD4B46CB1A074C0093B3E7A9
:104F9000044CB0E7102261461FF0B0FF76E70348EB
:104FA00032F0ACFFFFFFFF03E0FFFF7F485A06101F
:104FB000F8B5FC230E00CB58FC369C467368050000
:104FC0000C009C4509D060460C382B000200E434EC
:104FD000C2CAC2C3A0612800F8BD0200F368E4346D
:104FE000043B1B68ED33FF3383CB83C2FC21604657
:104FF00049001FF099FF636A043BF3601B681A00C5
:105000007360F932ED33FF32FF33B260A361E2E740
:10501000036810B504000B2B01D0200010BD0369FC
:10502000002BFAD00830032201009847F5E7C0466C
:10503000F0B5CE464746942280B583580400591CEB
:1050400081501D789C23C05883B0461933001E330D
:10505000FF33197800290BD10368574A1B6A2900CE
:10506000934200D09DE0002902D01E36FF363170F9
:105070008823E3581A78002A04D116E09A7802337C
:10508000002A12D08A42F9D1842201212000A150A5
:105090005B78A03000930021012342683DF088FF37
:1050A00003B0C0BCB946B046F0BD9C230427984667
:1050B000E3589B695B5D1F427BD02B00383B012B83
:1050C00077D926000095A0360123002172683000B0
:1050D0003DF06EFF942198226358A2589A4246D020
:1050E000404620581A788069805C07423FD0383AA1
:1050F000012A3CD95A1C62501B78270099467368D4
:10510000A83798465D1CA023E358BB424DD0B26837
:10511000954230D8424649469954A0210023942014
:1051200062587560535598332258E3589A421ED0FE
:105130009C2565591378AD69ED5C6D0717D5383B33
:10514000012B14D9531C2350137899467368984641
:105150005D1C6358BB422AD0B268954216D84246BD
:1051600049469954A0230022E35875605A55842378
:105170000222E25094E701230022009341460023DB
:1051800030003DF035FEA023E358C3E701230022A1
:1051900000934146002330003DF02AFEA023E3584F
:1051A000DDE70022984701005DE70F22B0E70F22FC
:1051B000D3E751F0BFFDC046113D0010F0B5C64623
:1051C0009423982200B5C3588258040082B09342B9
:1051D00058D01D788C23C7581033C0584619330057
:1051E0001E33FF33197800290CD10368264A1B6A45
:1051F000290098462B0090453FD1002B02D01E3647
:10520000FF363370380052F09FFF002802D0037839
:10521000002B10D18023E25813422AD190235B0047
:105220001A4208D0843BE3589A690423525D134222
:1052300001D0302D12D1200084230122A03000950E
:10524000E25000214268833B3DF0B2FE9422A35815
:105250000133A35002B080BCB846F0BD20008422C8
:105260000095A030A35000214268033B3DF0A0FE12
:10527000ECE72000FFF7DCFEECE70022C04703006C
:105280000100BAE751F056FD113D0010F0B5C646D9
:10529000942200B583580400591C81501D788C233A
:1052A000C7581033C05882B0461933001E33FF333D
:1052B000197800290DD103687A4A1B6A290098469B
:1052C0002B00904500D08EE0202B02D01E36FF36FA
:1052D0003370380052F038FF00286CD05C2D43D07A
:1052E000282D2FD0292D62D05B2D00D180E07B2D81
:1052F00056D0DF232B405D2B5DD09C23E758260042
:105300007B191E33FF331B78A846002B00D0A4E086
:105310003B68644A1B6A934200D0ACE0002D03D086
:1053200047441E37FF373D702378002B04D117E028
:10533000337A0836002B13D09D42F9D1842372684A
:10534000E2500DE08023E358DA0604D59421625838
:1053500010783F2865D09B071ED484230522E25095
:1053600002B080BCB846F0BD94239822E358A258FE
:10537000934200D194E08022A158A032114226D05D
:105380001A7811002839012901D97B2A1FD19422CA
:10539000591CA1501D78A3E784230622E250DFE7C1
:1053A0007C230122E25408330B32E250D8E78423F5
:1053B0000822E250D4E72000842301220095A03087
:1053C000E25000214268833B3DF0F2FDC8E7BC2378
:1053D000E058C3071FD5B82340102018E3580268CF
:1053E000D3589847BCE72022C047030001006BE771
:1053F0007C2302229821E2541433013AE25493327E
:10540000A35861588B4202D019785E2927D0842393
:105410000922E250A4E7B8234010E3582018984727
:105420009EE79820531C63502058834238D053780D
:105430003A2B1AD03D2B24D0212B31D1023262508D
:10544000072220006333E250163B0093A030002176
:1054500042686D3B3DF0ACFD82E71D0064E70A2029
:10546000263101336050A3507AE70232625006229F
:105470004A33E25074E729000022380098470500BB
:105480004CE702326250072220004733E250143BBF
:105490000093A030002142686F3B3DF089FD5FE73B
:1054A00051F048FC113D0010F0B54E464546DE4631
:1054B00057469822E0B594259146435982580400F6
:1054C000944683B0934200D184E09C215E1C4651F7
:1054D0004158042007001A788969895C0F40B84652
:1054E000084222D12C2A1CD080216058A03107000C
:1054F0000F40084266D05C2A6CD1B4456AD05A7815
:105500007D2A67D14146013AA1540D210832023368
:10551000A150635103B0F0BCBB46B246A946A046B9
:10552000F0BD8423133AE250F4E7260084231A21C5
:10553000A0360092E1507268833B002130003DF0BC
:1055400037FD4A466359A2589342E3D09C229246C3
:10555000983A9146903290460CE05A46DA55A0238C
:1055600075600022E3585A5543469832E358A258D2
:105570009342CFD05246A1581A7889698A5C49462D
:105580001142C7D041465A1C62501B7822009B46EC
:10559000A0237768E358A8327D1C934210D0B268EC
:1055A0009542DAD90123002239000093300000230C
:1055B0003DF01EFCA0235946E258D1557560D0E756
:1055C0000F22EDE77D2A05D17C23703AE75408339A
:1055D000E2509FE751F0AEFBF8B5574645464E46C0
:1055E000DE460368E0B547689246344A9946FB1A9E
:1055F000050088469B1093425CD00126002B02D008
:105600005E00B34250D843464A469C1A002E1BD136
:1056100000239B4652465B4612681A51002C23DC3D
:10562000434604345C44FF1A002F30DC4B46E71934
:10563000002B35D15B466F60AE602B60F0BCBB4683
:10564000B246A946A046F8BD80239B059E422FD2B4
:10565000B60030001FF058FC834652465B46126885
:105660005E441A51002CDBDD2200494658465FF0AB
:10567000E3FA434604345C44FF1A002F07DC4A4631
:10568000AB68E719991A48461FF04EFCD2E73A007A
:10569000414620001FF032FC4B46E719002BC9D0D1
:1056A0004A46AB68991AEEE74A46054E8C1AD0E78F
:1056B000024ECDE7034832F021FCC046FFFFFF1F3A
:1056C000FCFFFF7F485A0610F0B5DE464E465746AF
:1056D0004546A022E0B5060000238258A03673603C
:1056E000137098229433C358825804008B4685B0B7
:1056F0009A4249D0942189460C31884608318C461B
:105700008444614603910CE05246DA554246002338
:10571000A258756053554B469822E358A2589342BD
:1057200032D0197859451BD049465A1C62501B7813
:1057300077689A464346039AE3587D1C93420DD0FE
:10574000B2689542E0D9012300220093390000237A
:1057500030003DF04DFB4346E358D5E70F22F0E71C
:105760009421581C60501D785D450DD182420BD0AC
:105770009A1C62505B785D2B06D105B0F0BCBB462D
:10578000B246A946A046F0BD51F0D4FA9421982221
:1057900030B543588558040083B0AB425DD0581CE7
:1057A00060501A782D2A2FD05B2A14D05D2A2FD072
:1057B0005C2A19D1802190236158194214D02C33CE
:1057C000E058C30733D5B82340102018E3580268C7
:1057D000D358984713E085423FD058782E2836D0CA
:1057E0003A2837D03D2828D0200084230121A0303A
:1057F0000092E15042680021833B3DF0D9FB9023A9
:105800000022E25403B030BD8423113AE250F6E79F
:105810008023E358DB0603D49023E35C002BE3D121
:1058200084230B22E2500022083BE254E7E7B8232E
:105830004010E35820189847E1E784222C38A05004
:105840009A1C625020005978FFF73EFFD7E72932B3
:105850001E38F4E784222B38F1E751F06BFAC0468A
:105860009423C2580433C35810B59A420ED07C23F7
:10587000C35C002B04D0022B05D0012B0AD010BD35
:10588000FFF704FDFBE7FFF781FFF8E784231B2206
:10589000C250F4E7FFF708FEF1E7C046F8B5040090
:1058A0002A2558204746CE46A561163DE5611735A5
:1058B0002562163D65622A35A5622D3DE5620135FA
:1058C0006563E5636564434D8046A564424D0630DB
:1058D000E564424D20602565414D48386565414D80
:1058E0006060A565404D0E30E565404DA0602566C1
:1058F0003F4D0D3865663F4DE06017307C262061D6
:10590000A56600206C2580B50A272663A763606121
:1059100020646053384DA04425673848384F60678D
:10592000A767B9460027A7550436A351DF0636D529
:10593000230088204833235028008C230025E05082
:105940000433E5540433E1500433E2502D4820F091
:1059500011FB089B1B685A689B68984237D28000ED
:105960008358002B33D09C22A35023000432A83349
:10597000A350083B5D60A823E554283BE358DB06B1
:105980001FD421490022BC23E250043B2000E150F7
:10599000FFF766FF2000C0BCB946B046F8BD8825B9
:1059A000474667519D06C8D448465D06C5D4DD0507
:1059B00009D49D0509D433405D1EAB415B421840BC
:1059C000BBE71249DEE71248B7E71248B5E732F005
:1059D00055FAC04630006208660C6E0A720D7409F2
:1059E000760B000022222F2F5C5C61076208660C98
:1059F0006E0A720D7409760BEC5C06100C5D0610D5
:105A0000FC5C061074B10020BD510010254300104D
:105A1000245D0610145D0610F0B5C6460368140038
:105A200082680500D61AB010820012181701D21928
:105A30001702D2191704D2195200121800B58A425F
:105A40004ED36A68D61AB6109446B200921917015E
:105A5000D2191702D2191704D21952009219914281
:105A60001DD9634508D026681E6066685E60267A88
:105A70001E720C339C45F6D18B1A984663464246FB
:105A80002600013A83CE83C3002AF9D143465A0047
:105A9000424491006144696080BCB846F0BD002971
:105AA0001AD04A00511889005F18BB4214D01A005E
:105AB0002668166066685660267A16720C3297421F
:105AC000F6D11B4A0C3989085143890089080131F4
:105AD0004A00511889005B189C45DDD06B60DBE7FC
