:020000041000EA
:1000000000B5324B212058609868022188439860DF
:10001000D860186158612E4B002199600221596106
:100020000121F02299502B49196001219960352056
:1000300000F044F80222904214D00621196600F024
:1000400034F8196E01211966002018661A6600F04E
:100050002CF8196E196E196E052000F02FF8012189
:100060000842F9D1002199601B49196000215960AB
:100070001A491B48016001219960EB211966A021F2
:10008000196600F012F800219960164914480160C1
:100090000121996001BC002800D000471248134993
:1000A000086003C880F30888084703B5996A0420EC
:1000B0000142FBD001200142F8D103BD02B5186610
:1000C0001866FFF7F2FF186E186E02BD00000240BE
:1000D000000000180000070000035F00212200005C
:1000E000F4000018222000A00001001008ED00E03C
:1000F00000000000000000000000000074B24E7A12
:1001000000200420F7010010C3010010C5010010F9
:10011000C1010010C1010010C1010010C101001097
:10012000C1010010C1010010C1010010C701001081
:10013000C1010010C1010010C9010010CB01001065
:10014000CD010010CD010010CD010010CD01001037
:10015000CD010010CD010010CD010010CD01001027
:10016000CD010010CD010010CD010010CD01001017
:10017000CD010010CD010010CD010010CD01001007
:10018000CD010010CD010010CD010010CD010010F7
:10019000CD010010CD010010CD010010CD010010E7
:1001A000CD010010CD010010CD010010CD010010D7
:1001B000CD010010CD010010CD010010CD010010C7
:1001C00000BE00BE00BE00BE00BE00BE00F04BF888
:1001D000103800BEF2EB8871D4320F10F0320F10DD
:1001E0003402001090A31AE700202149086006C8D5
:1001F00081F3088810471F48006800282FD10DA4FC
:100200000ECC002902D000F012F8F9E71A491B4A77
:10021000002000E001C19142FCD1194988471949E9
:1002200088471949884700BEFDE701C901C29A42C3
:10023000FBD37047F0320F10C0000020B820002020
:10024000E8520F100000042000000420E8520F10B4
:1002500000100420001004200000000070470B482C
:100260001AF064FF0047EFF30580C0B2704700004A
:1002700008ED00E0000000D0B8200020A0BC002065
:10028000419401102D62011069950110575600002C
:1002900006005250ABB36053F0730E10060052507C
:1002A000861C030228DE0510060052505422A29D2F
:1002B00000740E1005005250DE65F468E8520F100D
:1002C000F8B5C04610B5064C2378002B07D1054B76
:1002D000002B02D0044800E000BF0123237010BDB2
:1002E000502A00200000000078C80510044B10B50B
:1002F000002B03D00349044800E000BF10BDC046F6
:1003000000000000542A002078C805107047C0463D
:10031000F0B5DE4657464E464546E0B58DB06A46D6
:10032000436808AF0833DB08DB00D31A9D4608ACEE
:10033000016820004FF0C2FD23783A2B03D0637888
:1003400001343A2BFBD16578642D00D19CE0042365
:100350007B6006230134BB606F2D00D1AEE0622DBF
:1003600000D1B8E0EE231B019B46002D73D0674BF4
:100370001B78002B00D083E0654B1B78002B00D04E
:100380007EE025782A00303A092A6CD800218B00BB
:1003900059186578490051182A00303A0134092A61
:1003A000F5D900295FD058461AF0F2FE0023613DCE
:1003B000EDB29846F860062D02D8564B5B5D984624
:1003C0006578232D55D001342E2D09D1FA68657832
:1003D0009446D30F63445B109C4463460134FB6036
:1003E0002B00BA68303B9146092B03D8DBB2994603
:1003F000657801342C2D01D1657801344346002BFA
:1004000033D0454B9A46454B1B785BB20793F8684F
:100410001BF0D2F9424A434B1BF055F91BF008FA86
:100420004A46043A53009B189B003F4A43440690B7
:100430005B009B5E6A4605935346103343CB43C231
:1004400003CB03C253460FCB16F060F8F86817F0E1
:10045000FDF8002D8BD1BD4605B0F0BCBB46B246C1
:10046000A946A046F0BD79689DE7F86817F0EEF858
:100470007BE743460133DBB2A57898460234A3E715
:100480000023224A1370E6E7E178E01C303909299D
:1004900038D800239A00D3185B000130CB180178BC
:1004A00030390929F6D9002B2CDDDBB27B6006231D
:1004B0004578441CBB606F2D00D050E7A3781A002C
:1004C000333A042A02D8303BDBB2BB6025790434CE
:1004D000622D00D046E7A2780021303AA01C092AFC
:1004E00008D88B0059184900013051180278303A69
:1004F000092AF6D94578441C0C481AF049FE8300B5
:100500009B4632E704237B60D1E7C04695BC0020C0
:100510009BBC0020E0D60510689D0020F51400204B
:10052000CDCCCCCCCCCCEC3F7C12002060EA0000DF
:10053000F0B54546DE4657464E469E4BE0B59846DA
:100540009D4BADB09B4604AF0AAE10AD9B4C002254
:1005500026A902A8269402973AF002FA2200002463
:10056000269B4146049302901CF0FCFA269B029ABB
:100570000393D454924B01929946002226A908A8CD
:10058000269308963AF0ECF9269B4A468D490A9341
:1005900008901CF0E7FA269B089A0993D4548A4BDA
:1005A00001929946002226A90EA826930E953AF0AC
:1005B000D7F9269B4A46854910930E901CF0D2FA33
:1005C000269B0E9A0F93D45416AB1493F4230192E6
:1005D00026A9002214A826933AF0C2F9269BF422F9
:1005E0005946169314901CF0BDFA269B149A159345
:1005F000D454019217F016F8754B984207D9754BF1
:100600001B78022B6AD0032B46D0002B21D01498E4
:1006100016AB984204D0169B591C01931CF0B8FAF3
:100620000E98A84204D0109B591C01931CF0B0FAFC
:100630000898B04204D00A9B591C01931CF0A8FAF8
:100640000298B84282D0049B591C01931CF0A0FA76
:100650007CE71CAB99461A930E9B0F9C9A46002B85
:1006600000D18AE026940F2C78D8012C00D090E09D
:1006700068211B7802AA521813704A4600231B9463
:100680001AA81355FFF744FE1A984845BFD01C9985
:1006900001311CF07DFABAE728AB99462693089BF6
:1006A000099C9A46002B71D020940F2C47D8012C1E
:1006B0007AD198211B7802AA521813704A46002357
:1006C000279426A81355FFF723FE269848459ED069
:1006D000289B591C01931CF05BFA98E722AB2093EE
:1006E000149B159C9946002B4BD026940F2C17D8A1
:1006F000012C54D180211B7802AA5218137022AA0F
:100700000023219420A81355FFF702FE209822AB66
:10071000984200D17BE7229901311CF039FA76E743
:10072000002226A920A83AF01BF9269B20902293AC
:10073000220049461CF016FA269C209AE0E7002287
:1007400020A926A83AF00CF9209B26902893220095
:1007500051461CF007FA209C269AB0E7002226A9F1
:100760001AA83AF0FDF8269B1A901C9322005146D5
:100770001CF0F8F9269C1A9A80E7002C03D14A460F
:100780007CE7002CBBD014482FF0BCF9002C95D08E
:10079000F9E74A46002C00D170E74846E6E722AA6E
:1007A000002CADD01000C3E74A46002C87D0484645
:1007B000CDE7C04678C805101CD505105D030000C4
:1007C000D6040000D8CB05106A040000B0D0051094
:1007D000DC0500008EBC002014D60510F0B5DE4606
:1007E00057464E464546E0B5584B83B01B6801203E
:1007F0000193002B06D003B0F0BCBB46B246A9461D
:10080000A046F0BD00220F330021002016F03AF878
:100810004F4B4F4A1B6800270193013313600F228F
:10082000904600229346FAB20F2591469F4200DB84
:1008300085E05B46DB009A461E005C46FF00013403
:10084000310008230822380064B216F073F9083624
:10085000A542F4DC4F4601377FB2474547DA6B1EAD
:100860005BB20193DB00994643463C00A846FE007C
:100870004D46B9461F0001343000082308222900E4
:1008800064B216F057F90836A742F4DC4546012356
:10089000B846023D5B4243446DB24F4699465D45C2
:1008A00011DBB8465F465CB2E400EE00013D31006A
:1008B0000823082220006DB216F03CF9083EAF4232
:1008C000F4DDBB4647464B465BB29846019B9B45D1
:1008D0003ADB782378220021002016F02BF99620AD
:1008E00016F0B4FE0123194A0120136083E7013D8D
:1008F0006DB25D45EDDD01235B4243445CB2E60031
:10090000A7420DDCA9465546013C300008230822C9
:10091000290064B216F00EF9083EA742F4DD4D46F8
:100920005B4601335BB29B464745D2DAAB45D0DA32
:10093000074BFAB21B6891469F4200DA79E73220F2
:1009400016F084FE002056E71D00D4E780BC00208E
:100950007CBC0020F0B5CE4647460022414B80B516
:100960001A70414B04001B7887B0022B08D0032B70
:100970001CD0002B14D007B0C0BCB946B046F0BDA7
:100980003A4B1B78002B1DD0394E3A4B210018688A
:10099000326810F04BFD2100306802F0D3FCEAE72A
:1009A000354B2100186810F077FAE4E7304D334BEF
:1009B000210018682A680DF093FD2100286802F0D4
:1009C000C1FCD8E72E4A2F4F1268396890467A68E2
:1009D0008C460020561A0021049302900391624530
:1009E00038D0294B9E423AD830001CF0C1F83B6801
:1009F0007A689C46D31A05009946AE19029503956C
:100A00000496944504D04A46614628005BF024FFD2
:100A1000174E404633680122009321004D4402AB3B
:100A2000039501F009FA0298002803D00499091AE5
:100A30001CF0AEF8154B2100186800F0EDFCA0CFBB
:100A4000BD42A2D001CD0122210001F055FBAF42F1
:100A5000F8D19AE70023002699460025CDE72FF02C
:100A600031F8C04698BC00208EBC00209BBC002002
:100A700034BB002030BB002070BC0020CCB2002072
:100A800040BC002070BB0020FCFFFF7F2CBB00207F
:100A9000264B70B51B780400022B04D0032B35D0F5
:100AA000002B2DD070BD224B1B78002B03D0214B87
:100AB0001B78002B19D0204D01222868210000F05E
:100AC000CBFC1E4B2100186801F094FA2868012223
:100AD000210000F0D7FC1A4B60CBB54205D001CD08
:100AE000210001F06DFBAE42F9D1164B21001868D0
:100AF00010F0A2FD144B2100186802F091FCD1E720
:100B0000124B2100186810F0F1F9CBE7FFF766FEF1
:100B10000028C7D00E4B210018680FF09FFF0A4B2A
:100B20002100186802F07CFCBCE7C0468EBC0020A7
:100B30009BBC002098BC00202CBB002040BC0020A7
:100B400070BB002030BB002034BB002070BC0020F4
:100B5000CCB20020F8B503684E4645465746DE46FF
:100B60009A46E0B5150052464368060098469B1A1F
:100B7000344A89461B11934260D00127002B02D0D2
:100B80005F00BB4254D84B4652469C1A002F1CD1E2
:100B900000239B465B461B1907CD07C32A681A60D2
:100BA000002C24DC43464A4610345C449D1A002D38
:100BB00031DC53466419002B36D15B4698C6F0BC35
:100BC000BB46B246A946A046F8BD80231B059F42FE
:100BD00032D23F0138001BF0CBFF83465B461B1926
:100BE00007CD07C32A685F441A60002CDADD2200B3
:100BF000514658465BF030FE43464A4610345C444A
:100C00009D1A002D07DC5246B3686419991A5046A4
:100C10001BF0BEFFD1E720002A0049461BF0A2FFCF
:100C200053466419002BC8D05246B368991AEEE7B0
:100C30005246054F8C1ACDE7024FCAE703482EF003
:100C400091FFC046FFFFFF07F0FFFF7F40D6051072
:100C500001222B4BF0B51A702A4B02321A70002376
:100C60009620294A85B01360284A4000136016F088
:100C7000EDFC274D2B686A68934200D06B6014230B
:100C8000112214200092019314F0E6FE01001120BD
:100C900015F016F96C4600236968E360AB68A06044
:100CA000994222D00B002200C1CAC1C31268103180
:100CB0001A60696028230F2228200092019314F003
:100CC000CBFE01000F2015F0FBF800236968E360FC
:100CD000AB68A06099420DD00B0045CC45C322689B
:100CE00010311A60696005B0F0BD22002800FFF7DE
:100CF00031FFDFE722002800FFF72CFFF3E7C046B3
:100D000095BC00208EBC00207CBC002080BC002054
:100D1000D0210020F8B5574645464E46DE460368CA
:100D2000E0B547689246344A9946FB1A0500884662
:100D30009B1093425CD00126002B02D05E00B34290
:100D400050D843464A469C1A002E1BD100239B468E
:100D500052465B4612681A51002C23DC4346043489
:100D60005C44FF1A002F30DC4B46E719002B35D1CD
:100D70005B466F60AE602B60F0BCBB46B246A946D6
:100D8000A046F8BD80239B059E422FD2B6003000BE
:100D90001BF0EEFE834652465B4612685E441A51D3
:100DA000002CDBDD2200494658465BF055FD4346EA
:100DB00004345C44FF1A002F07DC4A46AB68E7198D
:100DC000991A48461BF0E4FED2E73A00414620005B
:100DD0001BF0C8FE4B46E719002BC9D04A46AB684A
:100DE000991AEEE74A46054E8C1AD0E7024ECDE737
:100DF00003482EF0B7FEC046FFFFFF1FFCFFFF7F3A
:100E000040D60510F0B5C64600B5C4488CB015F004
:100E100067FDC34B187816F0EBFC24201BF0A8FEEE
:100E200004003421342200F0A7FBBE4B10201C60CC
:100E30001BF09EFE040000F0C5F9BB4B2C201C608B
:100E40001BF096FE040002F06FFAB84B2C201C60D9
:100E50001BF08EFE04000DF0E3F9B54B01201C6081
:100E60001BF086FE04000FF055FEB24B20201C60E4
:100E70001BF07EFE040010F0F7F8AF4B01221C605F
:100E800014231E200492059314F0E6FD01000120B6
:100E900015F016F80023A94D07936968AB6804ACF8
:100EA000A060994200D10EE10B002200C1CAC1C36B
:100EB000126810311A6069605A2303225A20049282
:100EC000059314F0C9FD0100032014F0F9FF00237D
:100ED0006968E360AB68A060994200D1F8E00B005C
:100EE0002200C1CAC1C3126810311A606960FA20B9
:100EF0001522934B40000492059314F0ADFD0100C0
:100F0000152014F0DDFF00236968E360AB68A06082
:100F1000994200D1E1E00B002200C1CAC1C31268AE
:100F200010311A60696030201BF022FE012205009A
:100F3000844B54211B680192834A12680092342228
:100F400001F0C6F8814E04957168B368994200D1EA
:100F5000C8E020C1716033688B4200D1CEE01B68CD
:100F6000002108220AA898461BF0F6FD784F06AD2E
:100F70002B003A00049503CA03C311884046198028
:100F8000927821009A700B2363600023E37401F0D0
:100F900021FA0498A84203D0A368591C1BF0F8FD5D
:100FA000336872689A4200D1A8E01B680022984614
:100FB000142303A920000393049539F0D1FC039B6B
:100FC000142264490490A3601BF0CCFD0023049913
:100FD000039A404662608B54A3615F4B2100E3613A
:100FE00001F0F8F90498A84203D0A368591C1BF03B
:100FF000CFFD30201BF0BCFD01228046574B7421F1
:101000001B680192564A12680092342201F060F87F
:10101000434671680493B368994269D0434608C156
:1010200071603368C91A042900D86CE05B68082233
:1010300000210AA898461BF08FFD2B00049506CFCF
:1010400006C33A8840461A80BA7821009A700B236A
:1010500063600023E37401F0BDF90498A84203D053
:10106000A368591C1BF094FD33687268D21A042AD5
:101070004ED95E681123002203A920000393049532
:1010800039F06EFC039B112236490490A3601BF0DB
:1010900069FD00230499039A300062608B54A361B8
:1010A000314B2100E36101F095F90498A84203D087
:1010B000A16801311BF06CFD2C481CF0B3F90CB099
:1010C00080BCB846F0BD22002800FFF743FDF3E6E0
:1010D00022002800FFF73EFD09E722002800FFF765
:1010E00039FD20E722003000FFF714FE716832E777
:1010F00022003000FFF70EFE716892E700221C48C4
:1011000011002EF05FFD8A10194801212EF05AFDC2
:101110000121174892102EF055FDC046C5640110FC
:10112000E014002040BC00202CBB002034BB002079
:10113000CCB2002070BC002030BB00204028002032
:1011400050C300003CBB002038BB002070BB002017
:10115000A8D60510B4D60510510C001044BB0020D1
:1011600040BB0020CCD605100D0300103105001047
:101170005CD6051010B53223002486B00093C82237
:1011800014210D480594049403940294019415F0DD
:10119000ABF93C230022059364210848049403948E
:1011A00002940194009415F09FF9054B1C605C605B
:1011B0009C6006B010BDC046689D0020902C0020A9
:1011C00070BB00200023036043608360C3607047EE
:1011D000F8B506001D00140043683268E818830063
:1011E000A2181B1852005B018918CF5E7B1C00D12E
:1011F000F8BD16F017FAFA21C90019F0F1FFFA2329
:101200005B00994212D2122F29D0132F0CD0380034
:10121000F368E1009C46B468EA00624409190C3A9C
:101220000C3915F0D3FDE3E71520F1E716F0FAF9D4
:10123000FA21C90019F0D4FFFA239B009942E6D3A2
:1012400016F0F0F9FA21C90019F0CAFF064B9942CD
:10125000DDD8122F05D0132FD9D11720D8E71420AD
:10126000D6E71620D4E7C046DB0500000A23F0B518
:101270004546DE4657464E465B429B46644BE0B5CC
:10128000894605009246984683B05B465F46DB0080
:10129000503300240A37019315E0082C10DD5B461B
:1012A000022B01D9092C0BD13B0022004946280012
:1012B000FFF78EFF3B00220051462800FFF788FF12
:1012C0000134122C56D043461B78002BE5D14946F9
:1012D0006B68FB189A00D2182B685201E3185B0068
:1012E000C9188E5E711C23D016F09CF9FA21C90032
:1012F00019F076FFFA235B00994265D2122E00D1D5
:101300007DE0132E45D03000EB68019A9C46AB6817
:1013100062449C46E10061440C3A0C3915F056FDDC
:101320006B68FB189A00D2182B685201E3185B0017
:1013300053449E5E731CC3D016F074F9FA21C900A1
:1013400019F04EFFFA235B00994224D2122E58D096
:10135000132E1CD03000EB68019A9C46AB686244A7
:101360009C46E10061440C3A0C39013415F02EFD25
:10137000122CA8D101239C46E3445B46082B84D160
:1013800003B0F0BCBB46B246A946A046F0BD15204E
:10139000E1E71520B8E716F045F9FA21C90019F080
:1013A0001FFFFA239B009942D4D316F03BF9FA2190
:1013B000C90019F015FF174B9942CBD8122E24D033
:1013C000132EC7D11720C6E716F02CF9FA21C90051
:1013D00019F006FFFA239B00994294D316F022F9E4
:1013E000FA21C90019F0FCFE0A4B994200D98AE79C
:1013F000122E08D0132E00D085E7172084E7142082
:1014000082E71420A7E716207EE71620A3E7C04650
:101410009BBC0020DB0500000722110070B50D4CBD
:1014200023686568DE173140C918C9104942016058
:101430001100EC17760F2140640F9B1949192D19E3
:101440001340C9102A409B1B4942121B4160836014
:10145000C26070BD84BC002010B50400012A00D019
:1014600010BD054B186815F081FA2000034A0449A5
:10147000FFF7FCFEF4E7C04674BC00207CD60D10DC
:101480007C080E10F8B54546DE4657464E46E0B598
:101490000500012A05D0F0BCBB46B246A946A046CD
:1014A000F8BD314B0527186815F060FA2F4B9946A7
:1014B0002F4B4B449A467B1F9846FB009B460524C6
:1014C00043466A68D1188B005B1829685B010919CB
:1014D0004B444900CB5E013320D0D21993009A18B7
:1014E000520152448E5E731C18D016F09BF8FA21FC
:1014F000C90019F075FEFA235B00994217D2122E2B
:101500002ED0132E11D03000AB68EA689C46E10063
:101510005A4461440C3A0C3915F058FC01340B2C38
:10152000CED101370B2FC6D1B5E71520ECE716F069
:1015300079F8FA21C90019F053FEFA239B00994269
:10154000E1D316F06FF8FA21C90019F049FE094BF2
:101550009942D8D8122E05D0132ED4D11720D3E714
:101560001420D1E71620CFE774BC00209CD90D10C1
:10157000E0FCFFFFDB0500000023036043608360A5
:10158000C360054B816103610223FF338382013B0A
:10159000FF3BC2618375704701000001F0B54F4603
:1015A000D6464646C0B55368176804008A46994631
:1015B00084B09F4266D000230F259846504E3A686B
:1015C00003950295706853698446634401931369D7
:1015D0003268E1699446634400930F220F23A069A7
:1015E000103115F045FF002801D04346E3743A68F6
:1015F00003950295706853698446634401931369A7
:101600003268E1699446634400930F220F23A06976
:10161000103915F02DFF002801D0434623753A6894
:1016200003950295716853698C466344019313696D
:101630003268A0699446634400930F220F23E16946
:10164000103815F015FF002801D0434663753A683D
:1016500003950295716853698C466344019313693D
:101660003268A0699446634400930F220F23E16916
:10167000103015F0FDFE002801D04346A375043755
:10168000B9459CD1C8256268ED0093009B1822687B
:10169000AC4651005246A4255B01D2185018604454
:1016A0001026805FFF35A84201D10020E074F020B1
:1016B00080008446A420521862441025525FFF30F7
:1016C000824201D100222275A022D2009446A42297
:1016D00063445B1853440C20195EFF32914201D1E0
:1016E00000226275A42214215B5EFF32934201D175
:1016F0000023A37504B0E0BCBA46B146A846F0BDCD
:1017000084BC0020F0B5DE46454657464E46E0B55F
:101710004B680C6897B005009B4605929C4200D12F
:10172000D4E0D64B984603E00434A34500D1CDE085
:10173000122015F059FF0028F6D02B7C002BF3D097
:101740000F2340462268E969039302934068536976
:1017500084466344019313694246126810319446EB
:10176000634400930F220F23A86915F081FE00281F
:1017700004D02023EB5C012B00D105E122680F236C
:101780004046E96903930293406853698446634481
:1017900001931369424612681039944663440093DA
:1017A0000F220F23A86915F063FE002800D094E0F3
:1017B00022680F234146A86903930293496853693D
:1017C0008C4663440193136942461268103894466C
:1017D000634400930F220F23E96915F049FE0028A6
:1017E00004D02023EB5C022B00D11FE122680F23E1
:1017F0004146A86903930293496853698C46634440
:101800000193136942461268103094466344009372
:101810000F220F23E96915F02BFE002884D0202326
:10182000EB5C032B80D1002200212368186A9946C3
:10183000DB691291139200220490C71A1492984205
:1018400000D116E28E4B9F4200D91EE238001BF0F9
:101850008FF94A464B460600126ADB690492F71973
:10186000129613961497934200D176E11F00A14679
:10187000AA4611E0012C00D0F7E12B783372002347
:1018800074600355BB69B361FB692037F361049B46
:101890002036BB4200D15EE13000083030603D6848
:1018A0007C68002D00D128E10E940F2CE2D9002293
:1018B00030000EA939F054F80E9B3060B36022005E
:1018C00029001BF04FF90E9C3068D8E717B0F0BC28
:1018D000BB46B246A946A046F0BD2023EB5C226879
:1018E000002B00D065E700200021166A9146D269DE
:1018F0000A900B910496B71A0C93964200D1ECE033
:101900005F4B9F4200D9C0E138001BF031F94B46D4
:101910000600DA691B6A0493049BF7190A960B9672
:101920000C979A4200D1EEE01700A146AA4611E0BA
:10193000012C00D08DE12B783372002374600355A5
:10194000BB69B361FB692037F361049B2036BB425E
:1019500000D1D6E03000083030603D687C68002D52
:1019600000D1BDE012940F2CE2D90022300012A960
:1019700038F0F6FF129B3060B360220029001BF0A4
:10198000F1F8129C3068D8E7002200212368069104
:1019900007920022186A9946DB690490C71A0892D8
:1019A000984200D169E1364B9F4200D96DE1380081
:1019B0001BF0DEF84A464B460600126ADB690492C9
:1019C000F719069607960897934200D1EFE01F009B
:1019D000A146AA4611E0012C00D03EE12B783372DB
:1019E000002374600355BB69B361FB692037F36161
:1019F000049B2036BB4200D1D7E030000830306075
:101A00003D687C68002D71D012940F2CE3D9002220
:101A1000300012A938F0A4FF129B3060B36022009E
:101A200029001BF09FF8129C3068D9E700220021A2
:101A30002368186A9946DB690E910F920022049080
:101A4000C71A1092984200D11BE10D4B9F4200D95A
:101A50001BE138001BF08CF84A464B460600126A20
:101A6000DB690492F7190E960F961097934200D1F6
:101A7000C7E01F00A146AA4616E0C04684BC00206D
:101A8000E0FFFF7F012C00D0EBE02B7833720023C6
:101A900074600355BB69B361FB692037F361049B34
:101AA0002036BB4200D1AAE03000083030603D68EB
:101AB0007C68002D1ED012940F2CE3D90022300038
:101AC00012A938F04DFF129B3060B360220029004C
:101AD0001BF048F8129C3068D9E7002700261BE766
:101AE000002C00D129E76A482EF00CF8002C00D118
:101AF00076E7F8E7002CCAD0F5E7002C00D1BEE667
:101B0000F1E74C46554605980AA90B960BF054FE92
:101B10000A9E0B9FBE420CD03300306808339842B7
:101B200015D0B3682036591C1BF032F8B742F3D1F8
:101B30000A9F002F04D00C993800C91B1BF028F80D
:101B40002268544BD16A19600123137631E620369E
:101B5000B742E1D1ECE74C465546059812A91396D9
:101B60000BF02AFE129E139FBE420CD03300306849
:101B70000833984215D0B3682036591C1BF008F87A
:101B8000BE42F3D1129F002F04D014993800C91B14
:101B90001AF0FEFF23683F4AD96A116002221A76C2
:101BA000C2E52036B742E1D1ECE74C4655460598F0
:101BB00006A907960BF000FE069E079FBE420CD0BA
:101BC000330030680833984215D0B3682036591C6A
:101BD0001AF0DEFFB742F3D1069F002F04D0089918
:101BE0003800C91B1AF0D4FF22682A4BD16A196049
:101BF00000231376C3E52036B742E1D1ECE74C462B
:101C0000554605980EA90F960BF0D6FD0E9E0F9F18
:101C1000BE420CD0330030680833984215D0B36808
:101C20002036591C1AF0B4FFBE42F3D10E9F002F8C
:101C300004D010993800C91B1AF0AAFF2268154B6E
:101C4000D16A196003231376D1E52036B742E1D17A
:101C5000ECE7002C00D170E68FE6002C00D1BFE647
:101C6000DDE6002C00D112E730E7002C00D106E6BB
:101C700025E6002700260200F1E5002700260200E5
:101C80009EE6002700260200ECE62DF01BFFC04672
:101C900014D6051064B3002070B50400142015F0AC
:101CA000B5FC00281DD0237C002B1AD0E37C002B30
:101CB00000D078E001232022A354A374132015F050
:101CC000A5FC00280CD05B4A1168CB0F5B185B1099
:101CD00051685B001360CB0F5B185B105B005360B7
:101CE00070BD172015F092FC00280BD0237C002B30
:101CF00008D0237D002B4AD120230022E2541F3B31
:101D0000A374DBE7162015F081FC00280BD0237CA0
:101D1000002B08D0637D002B5BD120230222E254EC
:101D20001F3BA374CAE7152015F070FC00280BD0E8
:101D3000237C002B08D0A37D002B3FD1202303223E
:101D4000E2541F3BA374B9E73A4D6B681B070BD1F4
:101D50002B681B0705D02023E35C022B50D0032BFC
:101D60005BD00023A374A9E72023E65C012E3CD0BE
:101D7000002EEDD1132015F049FC431E98416B68ED
:101D800001309C46012360446860A37496E71320E9
:101D900015F03CFC431E9841264B01305A6894468E
:101DA00060445860A8E7132015F030FC431E9841AA
:101DB000204B01305A68101A58607BE7132015F049
:101DC00025FC431E98411B4B01301A68101A1860FD
:101DD000B4E7132015F01AFC431E9841154B01304F
:101DE0001A6894466044186097E7132015F00EFCBB
:101DF000431E98416B680130181A6860A6745DE74D
:101E0000132015F003FC431E98412B6801309C46BB
:101E1000012360442860A37450E7132015F0F6FBFB
:101E2000431E98412B680130181A01232860A374BF
:101E300044E7C04684BC0020F0B51D00684B040098
:101E400042CB30000F230843034058424341072050
:101E50002374CB179C4603405B18DB105B42236066
:101E60000300F7173B409B19DB105B42636063463E
:101E70005B0FC9180140C646C91A0123A16002219F
:101E800000B57F0FE374A375564BF61930401B78ED
:101E9000C01BFF3188B0E060A182002B36D1524BCD
:101EA0001B78002B32D1012A38D02000FFF7F4FE36
:101EB0000023002204920593002368682968069392
:101EC000471A884226D0494B9F4200D986E0380005
:101ED0001AF04EFE296806006868451AF71904963C
:101EE00005960697814203D02A0030005AF0B4FCD0
:101EF00020000E9A761904A90596FFF703FC0498B2
:101F0000002803D00699091A1AF042FE08B080BCD6
:101F1000B846F0BD002500270026DFE729686A687B
:101F20008C460020571A00210293009001916245CF
:101F30004FD02E4B9F4251D838001AF019FE2B6813
:101F40006A689C46D31A06009846F71900960196CF
:101F50000297944504D04246614630005AF07CFC1A
:101F600046440196224E20006A463100FFF716FBD8
:101F70000098002803D00299091A1AF009FE0023DC
:101F8000D1206268637493009B182268400051005E
:101F9000B42280465B01D2009A185218B218102061
:101FA000175E474512D01220125E42450ED0A02285
:101FB000D200944663445B18F31810215A5E4245E0
:101FC00004D012229B5E434500D06EE70123637468
:101FD0006BE70023002798460026B6E72DF072FD38
:101FE00084BC00209DBC00209BBC0020FCFFFF7F28
:101FF0007C3A0E10F8B5304B04001B680E00022B23
:1020000031D0032B39D0012B32D02023E35C0025C3
:10201000032B02D8294A9B009D58A37C002B03D098
:10202000274B1B78002B2DD02800E269A16914F002
:10203000CDFEA169E2690831681C14F0C7FE637C1B
:10204000002B00D0F8BD2800E269A16908321830E1
:1020500014F0BCFE2800E269A16908320831193089
:1020600014F0B4FEEEE7174B186814F07FFCCCE7D1
:10207000154B186814F07AFCC7E7144B186814F075
:1020800075FCC2E7132015F0C1FA00280FD10A270A
:102090002821300019F0A4F80800390019F0A0F840
:1020A00040000428C0D0062804D02D18BCE706271D
:1020B0001821EEE70435B7E7E8140020E8D605104C
:1020C0009DBC0020E8B20020DCB20020F4B2002069
:1020D000F0B505AC40CC012725780024C760C66266
:1020E0000576C46104624462016142610460446037
:1020F00004728362F0BDC046094910B50C6807221E
:10210000A4460B68DB1713406344DB105B4203609B
:102110004B68D9170A40D218D2105242426010BD03
:1021200084BC0020F0B557464E46DE464546E0B535
:102130001E0087B0103382460592882B39D81300D1
:102140001033882B35D80B0198460023994601336C
:102150009B4633004E46994605E001239C460136D6
:10216000E144102E25D04B46002BF6DB3300002433
:1021700046469846059D002D13DB53469F6A300066
:10218000396819F005F8002303934B4602935B4628
:10219000020100933800012342440919019514F00B
:1021A00031FD01340135102CE5D14346B0461E0007
:1021B000D3E707B0F0BCBB46B246A946A046F0BD87
:1021C000037E002110B5032B02D8074A9B009958C3
:1021D0004469064AA446536804696344A4461268E5
:1021E0006244FFF79FFF10BDF8D6051084BC0020A5
:1021F000F0B545465746DE464E46E0B54368924642
:10220000026889B0904601939B1A6E4A0D000C003B
:1022100005905B11934200D1D1E0002B50D05A00C1
:102220000392934200D9A6E04346EB1A0493039B22
:10223000002B4DD11E000293049B9C4653461B6805
:1022400066449946534630005F684B46083030601C
:10225000002B00D1A5E007970F2F00D992E0012FA6
:1022600000D0A8E01B78337200237760C355534633
:102270009B69B3615346DB69F361A84500D198E0DF
:1022800008234344A14646461C00029F0DE03B60E4
:10229000B368BB60736820347B60B369BB61F3696A
:1022A0002036FB612037AE421ED03800083038603F
:1022B0003368A342EBD1102221001AF053FCE9E766
:1022C000013303934346EB1A0493039B002BB1D0D5
:1022D0008022D20493426AD25B01180003931AF061
:1022E00047FC06000290A7E7029A4C469446049BDE
:1022F0006344202292469A44019BAB4220D02E0098
:102300005B1B9B46554608360EE02B60A368AB600E
:10231000636820366B60A369AB61E3692034EB61CD
:10232000019B20359C420AD0280023680830286091
:10233000B342EAD1102231001AF014FCE8E7DA4483
:102340004346002B07D04246059B40469B68991A9E
:1023500001931AF01DFC029A514694460398059B7E
:1023600060441A605960986009B0F0BCBB46B24640
:10237000A946A046F0BD4346CB1A0493124B180061
:102380000393ACE70022300007A938F0E9FA079B75
:102390003060B3603A0049461AF0E4FB079F3068AA
:1023A00062E7002F00D15FE708482DF0ABFB054B3B
:1023B00092E7029B9DE7002F00D155E7EAE704482A
:1023C0002DF0D0FBFFFFFF03E0FFFF7F14D60510C9
:1023D00040D60510F0B5C64600B5056A436A04004C
:1023E0000E0082B09D4221D02800083028600B6882
:1023F0004F689846002B14D001970F2F1CD8012F3F
:1024000029D11B782B7200236F60C355B369AB6170
:10241000F369EB61236A2033236202B080BCB846C3
:10242000F0BD002FEFD00D482DF06CFB0A001C30E2
:102430002900FFF7DDFEF0E70022280001A938F0AF
:102440008FFA019B2860AB603A0041461AF08AFB84
:10245000019F2868D7E7002FD5D0F5E714D60510DF
:1024600008007047080070477047C046012A00D135
:10247000016000207047C04608780A2804D00D3853
:10248000431E9841C0B270470020FCE7012A00D1EA
:10249000016000207047C04608780A2804D00D3833
:1024A000431E9841C0B270470020FCE70B7840788B
:1024B000C01A43425841C0B27047C0460B780079F9
:1024C000C01A43425841C0B27047C0461F23026839
:1024D000012010B50C782340984003006109890061
:1024E0005218D06B1840431E9841C0B210BDC04670
:1024F0001F230268012010B50C7823409840030088
:10250000610989005218106C1840431E9841C0B2EE
:1025100010BDC0461F230268012010B50C7823406F
:1025200098400300610989005218106C1840431E3E
:102530009841C0B210BDC0461F230268012010B5EB
:102540000C78234098400300610989005218106CF0
:102550001840431E9841C0B210BDC0467047C046E7
:10256000074B0C3010B50400994206D0080037F034
:1025700071FC431E984140420440200010BDC046FB
:1025800074DC051010B5040038211AF001FB20009E
:1025900010BDC04610B538211AF0FAFA10BDC04679
:1025A000012A03D0022A03D0002070470160FBE714
:1025B0000B680360F8E7C046012A03D0022A03D063
:1025C000002070470160FBE70B680360F8E7C04636
:1025D000012A03D0022A03D0002070470160FBE7E4
:1025E0000B680360F8E7C046012A03D0022A03D033
:1025F000002070470160FBE70B680360F8E7C04606
:10260000012A03D0022A03D0002070470160FBE7B3
:102610000B680360F8E7C046012A03D0022A03D002
:10262000002070470160FBE70B680360F8E7C046D5
:1026300010B5012A03D0022A03D0002010BD01608A
:10264000FBE71AF08FFAF8E7012A03D0022A03D039
:10265000002070470160FBE70CC90CC0F8E7C046DA
:10266000012A03D0022A03D0002070470160FBE753
:102670000CC90CC0F8E7C046012A03D0022A03D0D7
:10268000002070470160FBE70CC90CC0F8E7C046AA
:10269000F0B54F464646D646541E9146E20F1219F3
:1026A00052109046C0B5914231DA0F007C1C640094
:1026B000651E42199246025D06199446425D6245C6
:1026C00037D86246C255A04503DD2700EEE75646DF
:1026D0002C004A46D2071FD5621ED50FAD186D10CB
:1026E0008C4209DC0DE002556C1EE20F12195210EB
:1026F0002C00A94205DA1500425D46199A42F2D330
:1027000006193370E0BCBA46B146A846F0BD4A4649
:102710004618D207F5D40C004D46023DEA0F521977
:1027200052109442D8D164000134025D327006190F
:10273000D2E7C255A845CADD2C002700B6E7C0463F
:102740000122F8B517000D4C0E782378BFF35B8F8C
:102750001F401A4206D00A4D2878801B431E98411C
:10276000C0B2F8BD20001AF083FE054D0028F3D05A
:1027700020002F701AF098FEEEE7C046742C00205F
:1027800092BC00200122F8B517000D4C0E7823787A
:10279000BFF35B8F1F401A4206D00A4D2878801B7A
:1027A000431E9841C0B2F8BD20001AF061FE054DED
:1027B0000028F3D020002F701AF076FEEEE7C04616
:1027C000702C002091BC0020F8B5CE4647460B1A6D
:1027D00080B5060017008C469946102B66DD431C19
:1027E0009846002A47D0634661469A1BD30F9B1830
:1027F0005B10F2187078F35C01390C78013F984255
:102800001DD2A34231D3A0421DD3337830707370F0
:102810000A7863464446013B21782500814203D271
:102820000134F9E7013B1A788242FBD8A3420FD961
:102830002270013B597030781A780134ECE7A042DD
:10284000E3D3A34211D2327834700A703078E0E7D3
:102850003A0061462000FFF7B7FFA31B9946102BF3
:1028600024DD002F08D0A446BDE730783370107007
:1028700030780A78CDE70D004B469C1E641000E0CE
:10288000013C4A4621003000335DFFF701FF002C78
:10289000F6D1013D3278AC1B2B7800212A70300034
:1028A0002200FFF7F5FE013D012CF3DCC0BCB94668
:1028B000B046F8BD70B588420BD002004E1E03E052
:1028C0001C785D78A54206D01300013210009E42AC
:1028D000F6D108000FE08B42FBD09A1C8A4201D14E
:1028E00009E01C781578A54201D05D7001330132F2
:1028F0008A42F6D1581C70BDF8B5CE464746050051
:1029000080B5814229D050C90368371B99464A4691
:1029100083689B1A9C469F4223D84B464268D11A33
:102920008F4241D8002F16DDB9108B005B181A01B9
:102930009B181A029B181A049A184B4652005218F8
:102940002168013A196061685960217A0C34197262
:102950000C33002AF4D14F446F60C0BCB946B04676
:10296000F8BD002F4AD0284B9F424AD838001AF0B1
:10297000FFF82B68804699464A46AB689B1A9C46EE
:102980004346A64203D007CC07C3A642FBD14B4621
:10299000002B03D0614648461AF0FAF843464744F4
:1029A0002B60AF606F60D8E76318002922DD8910C3
:1029B0008C468900614408018046414408028046F3
:1029C000414408048046414449008C4449462068FB
:1029D000086060684860207A0C3408720120404228
:1029E0008046C44460460C310028F0D19E42B2D0EB
:1029F00013CB13C29E42FBD14F44ADE70023984650
:102A0000BEE72DF05FF8C046F8FFFF7F70B50C0001
:102A100022000968083205000368914218D0083086
:102A200083420DD029606168A8686960A168A960C7
:102A3000002B0AD02360A060002262601A7070BD73
:102A4000636829606B60A368AB6013002260F3E7E2
:102A50006268002A06D0012A09D018001AF082F80C
:102A600062682B6800216A6099542368E4E7227A3F
:102A70001A7062680368F5E7F0B5D6464F464646D9
:102A800094229821C0B583584158040082B08B42EB
:102A900000D1EBE0591C81501D789C23C058461989
:102AA00033001E33FF33197800290BD10368704AB5
:102AB0001B6A2900934200D086E0002902D01E360E
:102AC000FF3631708823E2581378002B04D12AE0B6
:102AD00093780232002B26D09942F9D1622D15D17C
:102AE0007C23E35C022B11D0842318222000E250C7
:102AF000143B0093A030002142686F3B38F08CF803
:102B000002B0E0BCBA46B146A846F0BD842301211C
:102B10002000E1505378A030009300210123426847
:102B200038F07AF8ECE7622DDED0422D50D0202329
:102B30002A009A43442A3BD024232A009A43532A4A
:102B400036D0632D51D0782D5ED0752D5CD09C236E
:102B5000E3589B695B5D5B0700D484E02600009529
:102B6000A036012372680021300038F055F8942314
:102B70009822E358A2589A4216D09C2204279046E5
:102B800094250AE05A1C62511978300038F022F876
:102B900098226359A258934206D04246A1581A7807
:102BA00089698A5C1742EDD184230422E250A7E7A9
:102BB00084230E2220000095A030E25000214268BC
:102BC000833B38F029F89BE700229847010074E71F
:102BD000842318222000E250163B0093A0300021ED
:102BE00042686D3B38F018F88AE794229821A35880
:102BF00061588B423AD08421012060502000591C3A
:102C0000A1501B78A03087E7A0239846A04400235A
:102C100042465360A022783D2E00A2580025137032
:102C2000731E9E4198239A46043394279946760052
:102C300002365246E359A258934217D04A46A15849
:102C40001A7889698A5C442111420FD05A1CE251DA
:102C500040461978013537F0BDFFAE42E9D18423F3
:102C60000322E2504CE784230122A3E74BF07EFECF
:102C70006524001070B505000E0082B000291DD03B
:102C8000541A01940F2C0BD80068012C1BD10B781F
:102C90000370019C286800236C60035502B070BD6E
:102CA000002201A937F05CFE019B2860AB60220086
:102CB000310019F057FF019C2868ECE7002A05D184
:102CC00000240068E7E7002CE5D0F0E701482CF08D
:102CD00019FFC04614D6051070B5060034301AF03E
:102CE0005FFDB46AF56AAC4203D111E01834A54225
:102CF0000DD023680B2BF9D12369002BF6D02000CF
:102D000008300322010018349847A542F1D1B56A72
:102D1000002D04D0336B2800591B19F039FFF068DF
:102D2000002803D07169091A19F032FF70BDC0463E
:102D300070B5047900680D782DF076FE03682900DF
:102D40001B699847201A43425841C0B270BDC04623
:102D500070B5047900680D782DF066FE03682900CF
:102D60001B699847201A43425841C0B270BDC04603
:102D7000F0B5DE4657464E464546E0B583B0019075
:102D8000002876D0019BDB689946002B68D04B4623
:102D9000DB689A46002B59D05346DB689B46002BD4
:102DA0004AD05B46DC68002C32D0E568002D1DD08F
:102DB000EB689846002B22D04346DE68002E31D0C7
:102DC000F768002F09D0F868FFF7D2FF3800BF6816
:102DD000182119F0DDFE002FF5D1B7681821300059
:102DE00019F0D6FE002F1DD03E00E9E7A568182196
:102DF000200019F0CDFE002D0AD02C00D5E7AE68DA
:102E00001821280019F0C4FE002EEFD03500CFE7BE
:102E10005B469C681821584619F0BAFE002C0BD06E
:102E2000A346BEE743469E681821404619F0B0FE0F
:102E3000002EE4D0B046BFE753469C6818215046A8
:102E400019F0A6FE002C01D0A246A5E74B469C68CF
:102E50001821484619F09CFE002C01D0A14696E7A7
:102E600001981821846819F093FE002C01D0019478
:102E700088E703B0F0BCBB46B246A946A046F0BD09
:102E800070B5040000680D782DF0CEFD03682900B0
:102E90001B699847050020682DF0C6FD03680A21CC
:102EA0001B699847060020682DF0BEFD03680D21C0
:102EB0001B699847AE4204D0401B431E9841C0B2E4
:102EC00070BD0020FCE7C04670B5040000680D78B6
:102ED0002DF0AAFD036829001B69984705002068AA
:102EE0002DF0A2FD03680A211B699847060020689F
:102EF0002DF09AFD03680D211B699847AE4204D05E
:102F0000401B431E9841C0B270BD0020FCE7C04684
:102F1000F0B5DE4657464E464546E0B5BFB007AB76
:102F20000200019105A801219A46059337F036FD6C
:102F30001CA82CF03DFF1C220025B42304A98918ED
:102F4000CD5004A989180433CD5204A9891804333B
:102F5000CD5004A989180433CD5004A9891804332D
:102F6000CD5004A989180433CD50654B654F59687D
:102F70009B680B9102910C390E00009304AB096819
:102F80009B18009A1C975A500C9533680BA89C46C6
:102F9000002160442CF0F8FE5B4C14A8230014338D
:102FA0001C935A4B0E959B460D930F9510951195BA
:102FB000129513950B941BF009FA554B18AA9946D4
:102FC0000D93059B15959046069D03931692002B35
:102FD0006AD004950F2D58D8012D00D086E01C2012
:102FE0001A78342304A90918CA54434600221795B5
:102FF0005A5508231593169B0DA803930399002394
:1030000037F078FA1CA80DA92CF0BEFE05985045A3
:1030100004D0079B591C039319F0BAFD019B082BA0
:1030200048D0102B54D005A90BA82CF0DDFF0523A8
:10303000219A01921A425FD1059D4B4616980B9436
:1030400014341C940D93404504D0189B591C0193D3
:1030500019F09EFD5B4614A80D931AF0A1FB1C21EC
:10306000029B04AA0B935218336800991CA8D150F4
:1030700000231C970C932CF0D9FE28003FB0F0BC25
:10308000BB46B246A946A046F0BD002204A916A838
:1030900037F066FC049B169018932A00039919F0E8
:1030A00061FD049D169BA1E71300002D9ED01948D9
:1030B0002CF028FD0B9B0C3B1A680BAB9C464A235B
:1030C0006244D16899430B0040210B43D360AAE7C7
:1030D0000B9B0C3B1A680BAB9C464A236244D1689D
:1030E00099430B0008210B43D3609CE71300002D8C
:1030F00000D17BE71000D0E701256D429DE7C04677
:10310000D09F0E1054970E10EC9F0E109CA00E1026
:10311000709F0E1014D60510F8B5144D0F782B784B
:103120000400BFF35B8FDB070DD5114E20682DF037
:103130007BFC036839001B6998473378181A421ED4
:103140009041C0B2F8BD28001AF092F90028ECD0E6
:1031500020682DF069FC036800211B699847044E24
:10316000307028001AF0A0F9E0E7C046782C002063
:1031700093BC0020F8B5144D0F782B780400BFF3F2
:103180005B8FDB070DD5114E20682DF04DFC0368D9
:1031900039001B6998473378181A421E9041C0B213
:1031A000F8BD28001AF064F90028ECD020682DF052
:1031B0003BFC036800211B699847044E30702800CF
:1031C0001AF072F9E0E7C0467C2C002094BC002085
:1031D000F8B5CE4647461400060080B5182088464C
:1031E00019F0C6FC236805001F6800234361331DE6
:1031F00044469946076143453CD023699F4217DA0C
:10320000F3689846A34208D020001CF087F80369B1
:103210009F4250DDC368002B42D001204B46220064
:1032200029001CF097F873692800013373611DE0D1
:103230009F4216DD3369434536D040461CF058F8AE
:1032400003699F425ADAE368002B2DD00400012065
:10325000E4E7230000293ED1974202DD0024002B41
:103260004AD12800182119F093FC2000C0BCB946AF
:10327000B046F8BD7369002B03D0346923699F42BF
:103280000FDCB468002C05D124E00121A368002BD9
:10329000DFD01C0022699742F7DB0021E368F6E7E4
:1032A00004000120A145B9D0236901209F4200DB21
:1032B0000020C0B2B2E7B468002C05D12FE0012194
:1032C000A368002B11D01C0022699742F7DB002174
:1032D000E368F6E74446F368A3421ED020001CF0E2
:1032E0001DF8230002690400B6E723000029B3D0CB
:1032F0004346A045F2D1B1E71C00D2E7B468002CE8
:1033000005D10EE00121A368002BA2D01C00226988
:103310009742F7DB0021E368F6E723009EE74C467F
:10332000E6E74C46D7E7C046002301228360C3602E
:10333000036143610370426003858361C36103627B
:1033400043627047334B70B51A780400002A13D0DB
:103350002822825C002A10D12925425D002A23D030
:1033600001212D4A1170E269772A14DC2B49097872
:10337000032910D00432E26170BD2922825C002A48
:10338000EED1E369582B2BDD244A1278032A27D08B
:10339000043BE361F0E700221A7063692285203B59
:1033A0006361DB699847E7E7122014F01DF90028F4
:1033B0001AD1626963685268934201D20133636033
:1033C000122014F011F900281ED02378002B1BD1F5
:1033D00063695B686360012BCED900232370CBE760
:1033E00028230022E254C7E7616963684A68934270
:1033F000E2D10A00E06820326261824206D00123F5
:103400004A6A63602370D7E76368E4E70122625584
:103410004A6AD1E79DBC002098BC00208EBC0020E9
:10342000F0B5C64600B54C4B04001B7888B0002BA5
:1034300065D02923C35C002B65D12833C35C002BE6
:1034400061D1C3684269934259D020237822582120
:10345000002012F061FA414B04AF1A78404B197802
:10346000404B18780F2313F00DFA6369029719681F
:1034700062685D68884695424AD84346002B59D019
:1034800001950F2D46D8012D60D13A001B7802AE70
:103490003372002330007560042153555C226C3375
:1034A00013F02EFF0298B84203D0B168013119F031
:1034B0006FFB636962685B689A4220D114F0B2F8CE
:1034C0009621890017F08CFE96235B00994238D331
:1034D000712470256F266E2108226A2013F088FA65
:1034E000062231006B2013F083FA042229006C209D
:1034F00013F07EFA022221006D2013F079FA08B051
:1035000080BCB846F0BD18340FCC12F005FAF6E7CF
:103510001500B2E702AE0022300001A937F020FA10
:10352000019B0290B3602A00414619F01BFB019DEC
:10353000029AAEE73A0002AE002DAAD00A482CF05B
:10354000E1FA7224712570266F21C5E73A0002AEB8
:10355000002D9ED03800E6E79DBC0020F21400202C
:10356000F3140020F414002014D605100368F0B5FD
:103570004E46454657469946DE46E0B517004A4650
:10358000436885B003939B1A5B4A80460E000D008A
:103590005B11934200D1ACE00124002B03D05C000E
:1035A000A34200D999E04B46F31A0093002C48D16E
:1035B00000239B462034029308229446009BBC447F
:1035C0005B441800624608309A4618603B680192D6
:1035D000634500D188E0524613605346BA689A604A
:1035E00053467A685A60019BBA693B6000237B604E
:1035F0003B7253469A61FA69DA61B14534D00823C7
:103600004B449A462B005C4655464F469A460DE081
:103610002360BB68A3607B6820356360BB69A361DE
:10362000FB692037E3612034B74219D0200008300D
:1036300020603B68AB42EBD11022290019F092FACE
:10364000E9E78023DB049C424CD26401200019F09E
:103650008FFA2300834604005B4402932034ABE7D7
:103660005546009C20345C44039BB3421DD0370078
:103670009E1B0837A6190DE02360AB68A3606B683A
:1036800020376360AB69A361EB692035E3612034C7
:10369000B4420BD020002B6808302060BB42EBD135
:1036A0001022390019F05EFAE9E726004B46002B9C
:1036B00006D043464A469B684846991A19F068FA6C
:1036C00043465A461A60029A5E609A6005B0F0BCA2
:1036D000BB46B246A946A046F0BD4B46CB1A074CA6
:1036E0000093B3E7044CB0E71022614619F03AFAB0
:1036F00076E703482CF036FAFFFFFF03E0FFFF7F79
:1037000040D60510F8B5FC230E00CB58FC369C467D
:10371000736805000C009C4509D060460C382B00EE
:103720000200E434C2CAC2C3A0612800F8BD02008E
:10373000F368E434043B1B68ED33FF3383CB83C26F
:10374000FC216046490019F023FA636A043BF360E8
:103750001B681A007360F932ED33FF32FF33B26039
:10376000A361E2E7036810B504000B2B01D0200031
:1037700010BD0369002BFAD00830032201009847DE
:10378000F5E7C046F0B5CE464746942280B583584B
:103790000400591C81501D789C23C05883B04619E1
:1037A00033001E33FF33197800290BD10368574AC1
:1037B0001B6A2900934200D09DE0002902D01E36EA
:1037C000FF3631708823E3581A78002A04D116E0B6
:1037D0009A780233002A12D08A42F9D18422012138
:1037E0002000A1505B78A0300093002101234268A3
:1037F00037F012FA03B0C0BCB946B046F0BD9C2306
:1038000004279846E3589B695B5D1F427BD02B00E1
:10381000383B012B77D926000095A03601230021E3
:103820007268300037F0F8F9942198226358A25852
:103830009A4246D0404620581A788069805C0742F8
:103840003FD0383A012A3CD95A1C62501B782700D5
:1038500099467368A83798465D1CA023E358BB427D
:103860004DD0B268954230D8424649469954A0217D
:103870000023942062587560535598332258E358BA
:103880009A421ED09C2565591378AD69ED5C6D0791
:1038900017D5383B012B14D9531C23501378994664
:1038A000736898465D1C6358BB422AD0B268954243
:1038B00016D8424649469954A0230022E358756021
:1038C0005A5584230222E25094E7012300220093F8
:1038D00041460023300037F0BFF8A023E358C3E788
:1038E00001230022009341460023300037F0B4F852
:1038F000A023E358DDE70022984701005DE70F228F
:10390000B0E70F22D3E74BF031F8C0466524001032
:10391000F0B5C6469423982200B5C35882580400D7
:1039200082B0934258D01D788C23C7581033C058AA
:10393000461933001E33FF33197800290CD1036870
:10394000264A1B6A290098462B0090453FD1002B40
:1039500002D01E36FF36337038004CF007FA0028CC
:1039600002D00378002B10D18023E25813422AD1D1
:1039700090235B001A4208D0843BE3589A690423E1
:10398000525D134201D0302D12D120008423012238
:10399000A0300095E25000214268833B37F03CF9AB
:1039A0009422A3580133A35002B080BCB846F0BDA6
:1039B000200084220095A030A35000214268033BE0
:1039C00037F02AF9ECE72000FFF7DCFEECE70022F5
:1039D000C04703000100BAE74AF0C8FF65240010A1
:1039E000F0B5C646942200B583580400591C815096
:1039F0001D788C23C7581033C05882B04619330045
:103A00001E33FF33197800290DD103687A4A1B6AE7
:103A1000290098462B00904500D08EE0202B02D044
:103A20001E36FF36337038004CF0A0F900286CD0F9
:103A30005C2D43D0282D2FD0292D62D05B2D00D1B5
:103A400080E07B2D56D0DF232B405D2B5DD09C2367
:103A5000E75826007B191E33FF331B78A846002B3E
:103A600000D0A4E03B68644A1B6A934200D0ACE0FB
:103A7000002D03D047441E37FF373D702378002BBD
:103A800004D117E0337A0836002B13D09D42F9D1C8
:103A900084237268E2500DE08023E358DA0604D5EF
:103AA0009421625810783F2865D09B071ED4842348
:103AB0000522E25002B080BCB846F0BD94239822A3
:103AC000E358A258934200D194E08022A158A0323A
:103AD000114226D01A7811002839012901D97B2AF0
:103AE0001FD19422591CA1501D78A3E784230622DC
:103AF000E250DFE77C230122E25408330B32E2502C
:103B0000D8E784230822E250D4E72000842301224E
:103B10000095A030E25000214268833B37F07CF8EA
:103B2000C8E7BC23E058C3071FD5B82340102018AE
:103B3000E3580268D3589847BCE72022C0470300E7
:103B400001006BE77C2302229821E2541433013AEE
:103B5000E2549332A35861588B4202D019785E29FF
:103B600027D084230922E250A4E7B8234010E35869
:103B7000201898479EE79820531C63502058834292
:103B800038D053783A2B1AD03D2B24D0212B31D169
:103B900002326250072220006333E250163B00934A
:103BA000A030002142686D3B37F036F882E71D00F7
:103BB00064E70A20263101336050A3507AE70232CD
:103BC000625006224A33E25074E72900002238008E
:103BD000984705004CE70232625007222000473325
:103BE000E250143B0093A030002142686F3B37F055
:103BF00013F85FE74AF0BAFE65240010F0B54E46B0
:103C00004546DE4657469822E0B5942591464359ED
:103C100082580400944683B0934200D184E09C21F2
:103C20005E1C46514158042007001A788969895C56
:103C30000F40B846084222D12C2A1CD0802160585F
:103C4000A03107000F40084266D05C2A6CD1B44511
:103C50006AD05A787D2A67D14146013AA1540D2194
:103C600008320233A150635103B0F0BCBB46B246E8
:103C7000A946A046F0BD8423133AE250F4E726009B
:103C800084231A21A0360092E1507268833B002100
:103C9000300036F0C1FF4A466359A2589342E3D040
:103CA0009C229246983A9146903290460CE05A46B1
:103CB000DA55A02375600022E3585A5543469832DE
:103CC000E358A2589342CFD05246A1581A78896936
:103CD0008A5C49461142C7D041465A1C62501B7843
:103CE00022009B46A0237768E358A8327D1C9342AC
:103CF00010D0B2689542DAD901230022390000932E
:103D00003000002336F0A8FEA0235946E258D155D2
:103D10007560D0E70F22EDE77D2A05D17C23703A4C
:103D2000E7540833E2509FE74AF020FEF8B55746C3
:103D300045464E46DE460368E0B547689246344A3B
:103D40009946FB1A050088469B1093425CD00126D9
:103D5000002B02D05E00B34250D843464A469C1A1C
:103D6000002E1BD100239B4652465B4612681A5117
:103D7000002C23DC434604345C44FF1A002F30DC63
:103D80004B46E719002B35D15B466F60AE602B6068
:103D9000F0BCBB46B246A946A046F8BD80239B05B1
:103DA0009E422FD2B600300018F0E2FE8346524603
:103DB0005B4612685E441A51002CDBDD2200494646
:103DC000584658F049FD434604345C44FF1A002F1E
:103DD00007DC4A46AB68E719991A484618F0D8FE3E
:103DE000D2E73A004146200018F0BCFE4B46E719E6
:103DF000002BC9D04A46AB68991AEEE74A46054EF1
:103E00008C1AD0E7024ECDE703482BF0ABFEC0463C
:103E1000FFFFFF1FFCFFFF7F40D60510F0B5DE4619
:103E20004E4657464546A022E0B50600002382587C
:103E3000A0367360137098229433C35882580400DC
:103E40008B4685B09A4249D0942189460C318846E8
:103E500008318C468444614603910CE05246DA55A1
:103E600042460023A258756053554B469822E358AA
:103E7000A258934232D0197859451BD049465A1C52
:103E800062501B7877689A464346039AE3587D1C34
:103E900093420DD0B2689542E0D9012300220093ED
:103EA00039000023300036F0D7FD4346E358D5E70C
:103EB0000F22F0E79421581C60501D785D450DD10C
:103EC00082420BD09A1C62505B785D2B06D105B004
:103ED000F0BCBB46B246A946A046F0BD4AF046FD3E
:103EE0009421982230B543588558040083B0AB42E2
:103EF0005DD0581C60501A782D2A2FD05B2A14D020
:103F00005D2A2FD05C2A19D1802190236158194253
:103F100014D02C33E058C30733D5B82340102018F1
:103F2000E3580268D358984713E085423FD0587849
:103F30002E2836D03A2837D03D2828D02000842398
:103F40000121A0300092E15042680021833B36F00D
:103F500063FE90230022E25403B030BD8423113A63
:103F6000E250F6E78023E358DB0603D49023E35CBA
:103F7000002BE3D184230B22E2500022083BE254C1
:103F8000E7E7B8234010E35820189847E1E7842278
:103F90002C38A0509A1C625020005978FFF73EFF41
:103FA000D7E729321E38F4E784222B38F1E74AF0AC
:103FB000DDFCC0469423C2580433C35810B59A425E
:103FC0000ED07C23C35C002B04D0022B05D0012B28
:103FD0000AD010BDFFF704FDFBE7FFF781FFF8E70C
:103FE00084231B22C250F4E7FFF708FEF1E7C04626
:103FF000F8B504002A2558204746CE46A561163D4F
:10400000E56117352562163D65622A35A5622D3DAD
:10401000E56201356563E5636564434D8046A564EB
:10402000424D0630E564424D20602565414D4838DB
:104030006565414D6060A565404D0E30E565404DBC
:10404000A06025663F4D0D3865663F4DE060173036
:104050007C262061A56600206C2580B50A27266392
:10406000A763606120646053384DA04425673848D9
:10407000384F6067A767B9460027A7550436A35194
:10408000DF0636D5230088204833235028008C23B0
:104090000025E0500433E5540433E1500433E2508A
:1040A0002D4819F09BFD089B1B685A689B68984235
:1040B00037D280008358002B33D09C22A35023009A
:1040C0000432A833A350083B5D60A823E554283B85
:1040D000E358DB061FD421490022BC23E250043BF5
:1040E0002000E150FFF766FF2000C0BCB946B04693
:1040F000F8BD8825474667519D06C8D448465D06E9
:10410000C5D4DD0509D49D0509D433405D1EAB41FE
:104110005B421840BBE71249DEE71248B7E7124896
:10412000B5E72BF0DFFCC04630006208660C6E0A73
:10413000720D7409760B000022222F2F5C5C610740
:104140006208660C6E0A720D7409760B08D70510AA
:1041500028D7051018D7051050B1002011390010CC
:10416000792A001040D7051030D70510F0B5C646A3
:104170000368140082680500D61AB0108200121875
:104180001701D2191702D2191704D21952001218A6
:1041900000B58A424ED36A68D61AB6109446B20069
:1041A00092191701D2191702D2191704D219520005
:1041B000921991421DD9634508D026681E60666831
:1041C0005E60267A1E720C339C45F6D18B1A984697
:1041D000634642462600013A83CE83C3002AF9D1C2
:1041E00043465A00424491006144696080BCB8462D
:1041F000F0BD00291AD04A00511889005F18BB424F
:1042000014D01A002668166066685660267A167200
:104210000C329742F6D11B4A0C3989085143890068
:10422000890801314A00511889005B189C45DDD08E
:104230006B60DBE7144A914221D800291CD04E0064
:104240007618B600300018F093FC32008446030064
:1042500062442100C1C9C1C39342FAD12B68A96845
:10426000CE1A61466A602960AA60002BBED0310078
:10427000180018F08DFCB9E700229446F1E70348D6
:104280002BF070FCABAAAA2AAAAAAA0A48D7051042
:10429000F0B54E46DE4645465746E0B503684668EB
:1042A00089B002910391F11AC91090468A00521800
:1042B00099461301D2181302D2181304D3185B00C5
:1042C0006F4A5B188346934200D1D5E00124002B4E
:1042D00003D05C00A34200D9C6E04A46029B9B1A69
:1042E0009A46002C00D0AEE00023183404930193CA
:1042F000019B414653441A00A1C9A1C2A1C9A1C250
:10430000424612680B2A17D106AA10001039A0C91C
:10431000A0C0180008390830A0C8A0C11900083191
:1043200021CA21C14246126941461A6100225869D8
:104330000A614A6948615A61029B994530D000225E
:104340009246039A4C4690461D00019F059605E053
:104350003B0018341833AC421DD01F003B00220034
:1043600043CA43C343CA43C323680B2BF0D153460C
:104370003B612369002BEBD0210038000222083179
:1043800008309847636922697B613B0018343A61C1
:104390001833AC42E1D143463C00059E03933034D0
:1043A00000239846029B9E4221D0039D03E01835CE
:1043B0001834B5421BD023002A0083CA83C383CAA2
:1043C00083C32B680B2BF2D1434623612B69002B4F
:1043D000EDD02900200002220831083098472B69CF
:1043E00023616B69183563611834B542E3D14D46DA
:1043F000B14503D110E01835B5420DD02B680B2B19
:10440000F9D12B69002BF6D02800083003220100D7
:1044100018359847B542F1D14B46002B06D05B4684
:104420004A469B684846991A18F0B2FB5B46019AC7
:104430005C601A60049A9A6009B0F0BCBB46B24650
:10444000A946A046F0BD0E4B9C4213D863001C1930
:10445000E400200018F08CFB030084461833644409
:10446000049401901C0043E74A46029B054C9B1AAA
:104470009A46EEE71C00E9E703482BF073FBC046C1
:1044800055555505F8FFFF7F40D60510F0B50A00D9
:10449000436A016A050083B0994239D00B001400C9
:1044A000C1CCC1C3C1CCC1C313680B2B15D02B6ABF
:1044B00018332B62EA699B1ADA1090008018010108
:1044C0004018010240180104401840008018144AA6
:1044D000934222D8013803B0F0BD00230B619C4603
:1044E0006B4610001C000830C0C8C0C40C0008385F
:1044F0000834C0CCC0C00800083050CB50C013698D
:1045000048690B6163461361536950614B61CEE7A3
:104510001C30FFF7BDFE2B6ACCE74AF027FAC046F5
:10452000009F2400F0B5CE46474601230A2280B5FD
:104530005B4289B002920393066A436A040002ADAB
:104540009E4249D033002A0083CA83C383CA83C3EF
:10455000029B0B2B1CD0226A18322262E369D21A0A
:10456000D1108B005B1818011B1818021B181C04B3
:104570001C191E4B640064189A4234D8029B013CFB
:104580000B2B21D0200009B0C0BCB946B046F0BD0D
:1045900000236F469946336104AB98461900082200
:1045A000380018F0DFFA33004246083303CB03C269
:1045B000083B06CF06C34A46069B069272693361E2
:1045C000079B07927361C6E72B69002BDAD004A919
:1045D000032208009847D5E72A0031001C30FFF776
:1045E00057FE226ABAE74AF0C1F9C046009F24008C
:1045F000F0B5CE46474680B5436941685A1C4261D2
:10460000826891B004000193914200D16FE008C12B
:104610004160012308225B42049205930AAD019B8D
:104620002800103204A9069318F09CFA266A636ADF
:104630009E4254D033002A0083CA83C383CA83C3F3
:104640000A9B0B2B1FD0226A18322262E369D21A0E
:10465000D1108B005B1818011B1818021B181C04C2
:104660001C19264B640064189A4244D80A9B013CEA
:104670000B2B2CD0049B0B2B21D0200011B0C0BCE5
:10468000B946B046F0BD0023994633610CAB98465D
:1046900002AF19000822380018F064FA33004246CD
:1046A000083303CB03C2083B06CF06C34A460E9B22
:1046B0000E92726933610F9B0F927361C3E7089B7F
:1046C000002BDAD006A9032208009847D5E72B690A
:1046D000002BCFD00CA9032208009847CAE720007E
:1046E0002A0031001C30FFF7D3FD226AAEE701AA91
:1046F000FFF71CFB8DE74AF039F9C046009F240004
:10470000F0B5C646882300B5C358040082B0022B1A
:1047100008D0032B2DD00020012B49D002B080BC43
:10472000B846F0BD07000100CC37051DA4313800A4
:1047300036F058F92800FFF73DFC7A68002A43D08C
:10474000CC230025002698464346E3580821985D6F
:10475000FEF7DEFB7A68ED0001362D18B242F3D881
:10476000E8B2009001230021380036F055FA01200C
:10477000D4E707000100CC37051DA431380036F01E
:1047800031F92800FFF716FC7A68002A1CD0CC23E8
:104790000025002698464346E3581021985DFEF711
:1047A000B7FB7A682D0101362D18B242F3D8D7E74E
:1047B00021002000A431CC30251D36F013F928004B
:1047C000FFF7F8FB0120A9E70020CAE7F8B5CC23E2
:1047D0004746984680444346CE465B6880B50E0007
:1047E0000700002B15D0CC230025002499464B460A
:1047F000FB583100585DFEF78BFB434674435B6802
:1048000001352418AB42F2D82000C0BCB946B046EE
:10481000F8BD0024F8E7C04670B50600406A0028DD
:1048200003D0F36A191A18F0B3F9B069002803D05D
:10483000336A191A18F0ACF9F4683569AC420CD037
:10484000230020680833984217D0A3681834591CF5
:1048500018F09EF9A542F3D1F568002D04D07369D4
:104860002800591B18F094F93068002803D0B36869
:10487000191A18F08DF9300070BD1834A542DFD137
:10488000EAE7C046F0B55746DE464E464546E0B537
:10489000070083B0012A09D10B680360002003B030
:1048A000F0BCBB46B246A946A046F0BD022A0CD0D9
:1048B000032AF3D10468002CF0D02000FFF7ACFFEE
:1048C0005C21200018F064F9E8E70B685C20994649
:1048D00018F04EF94B4659681A68002380468D1A25
:1048E000036043608360914200D1ECE0002D00DA68
:1048F000F1E0280018F03CF90400434665191C60FB
:104900005C609D604B4600250ACB5A1A8B4200D052
:10491000CDE0434664195C604B4640461969DA684D
:1049200000238D1AC36003614361914200D1C7E047
:104930006A4B9D4200D9CEE0280018F019F9040016
:1049400043466519DC601C615D614B46DE681B698E
:104950009B469E420CD12CE0012D00D0ACE01B7890
:10496000237200231836656043551834B34520D0B0
:10497000200008302060336875689A46002B00D10B
:104980008FE001950F2DE7D90022200001A935F015
:10499000E7FF019B2060A3602A00514618F0E2F86F
:1049A0000023019D20681836656043551834B345CF
:1049B000DED143461C614B464046D9699A690023C3
:1049C0008C1A8361C3610362914200D180E0444B41
:1049D0009C4200D97FE0200018F0CAF80500434649
:1049E0002C199D61DD611C624B469B699A464B46C2
:1049F000DE69B2450CD053460024F61A53462819F6
:104A000019190222023418F0ADF8A642F6D1AD19F8
:104A10004346DD614B464046996A5A6A00238C1A28
:104A200043628362C36291424FD02D4B9C4252D865
:104A3000200018F09DF8050043462C195D629D6228
:104A4000DC624B465B6A9A464B469E6AB2450CD086
:104A500053460024F61A5346281919190222023423
:104A600018F080F8A642F6D1AD1943469D624B4638
:104A700042461B8E414613864A464346526B5A6352
:104A800038234A46D25CCA5442464B463C323C33F9
:104A900013CB13C213CB13C203CB03C243463B60F9
:104AA000FCE6002D00D15CE70E482BF02BF820002F
:104AB000150057F0D1FE2CE7002D00D151E76BE730
:104AC000002500243CE7002417E700240025B3E775
:104AD0000024002583E72AF0F5FFC046F8FFFF7F9A
:104AE000FEFFFF7F14D6051070B50500406A002850
:104AF00003D0EB6A191A18F04BF8AC69EE69B442AE
:104B000015D02300A0692033984203D0236A591C92
:104B100018F03EF823002068083398422FD0A3688D
:104B20003034591C18F034F8A642EAD1AE69002E90
:104B300004D02B6A3000991B18F02AF8EC682E6913
:104B4000B4420CD023002068083398421BD0A368DD
:104B50001834591C18F01CF8A642F3D1EE68002E48
:104B600004D06B693000991B18F012F828680028EF
:104B700003D0AB68191A18F00BF8280070BD303458
:104B8000A642BED1D2E71834A642DBD1E6E7C04642
:104B900070B50600406A002803D0F36A191A17F0AE
:104BA000F7FFB069002803D0336A191A17F0F0FF35
:104BB000F4683569AC420CD0230020680833984271
:104BC00017D0A3681834591C17F0E2FFA542F3D19F
:104BD000F568002D04D073692800591B17F0D8FF21
:104BE0003068002803D0B368191A17F0D1FF3000DD
:104BF00070BD1834A542DFD1EAE7C046F0B557468C
:104C0000DE464E464546E0B5070083B0012A09D18D
:104C10000B680360002003B0F0BCBB46B246A94657
:104C2000A046F0BD022A0CD0032AF3D10468002C60
:104C3000F0D02000FFF7ACFF6021200017F0A8FFA4
:104C4000E8E70B686020994617F092FF4B465968D9
:104C50001A68002380468D1A036043608360914286
:104C600000D1EFE0002D00DAF4E0280017F080FF1B
:104C70000400434665191C605C609D604B4600253E
:104C80000ACB5A1A8B4200D0D0E0434664195C60CC
:104C90004B4640461969DA6800238D1AC3600361E8
:104CA0004361914200D1CAE06B4B9D4200D9D1E0F3
:104CB000280017F05DFF040043466519DC601C61A5
:104CC0005D614B46DE681B699B469E420CD12CE021
:104CD000012D00D0AFE01B782372002318366560E9
:104CE00043551834B34520D0200008302060336885
:104CF00075689A46002B00D192E001950F2DE7D9F7
:104D00000022200001A935F02BFE019B2060A3604A
:104D10002A00514617F026FF0023019D206818360F
:104D2000656043551834B345DED143461C614B469C
:104D30004046D9699A6900238C1A8361C361036272
:104D4000914200D183E0454B9C4200D982E0200093
:104D500017F00EFF050043462C199D61DD611C62B2
:104D60004B469B699A464B46DE69B2450CD053468A
:104D70000024F61A5346281919190222023417F092
:104D8000F1FEA642F6D1AD194346DD614B464046E1
:104D9000996A5A6A00238C1A43628362C362914201
:104DA00052D02E4B9C4255D8200017F0E1FE050052
:104DB00043462C195D629D62DC624B465B6A9A46F3
:104DC0004B469E6AB2450CD053460024F61A534611
:104DD000281919190222023417F0C4FEA642F6D18E
:104DE000AD1943469D624B4642461B8E4146138693
:104DF0004A464346526B5A634A46926B9A633C2337
:104E00004A46D25CCA5442464B464032403313CBEA
:104E100013C213CB13C203CB03C243463B60F9E674
:104E2000002D00D159E70E482AF06CFE2000150035
:104E300057F012FD29E7002D00D14EE768E7002565
:104E4000002439E7002414E700240025B0E70024FB
:104E5000002580E72AF036FEF8FFFF7FFEFFFF7F88
:104E600014D6051070B50500406A002803D0EB6A1F
:104E7000191A17F08DFEAC69EE69B44215D0230003
:104E8000A0692033984203D0236A591C17F080FE92
:104E900023002068083398422FD0A3683034591C6F
:104EA00017F076FEA642EAD1AE69002E04D02B6A36
:104EB0003000991B17F06CFEEC682E69B4420CD0E0
:104EC00023002068083398421BD0A3681834591C6B
:104ED00017F05EFEA642F3D1EE68002E04D06B6997
:104EE0003000991B17F054FE2868002803D0AB68E7
:104EF000191A17F04DFE280070BD3034A642BED1FD
:104F0000D2E71834A642DBD1E6E7C046F0B54E46FC
:104F1000DE465746454604000220E0B58FB002AE9B
:104F2000337308AB029071601800B2603100182230
:104F30009B4617F017FE276A636A9F4258D03B00D2
:104F40005A4623CA23C323CA23C3089B0B2B21D051
:104F5000226A18322262E369D21AD1108B005B18E0
:104F600018011B1818021B181C041C19254B64007F
:104F700064189A4244D8089B013C0B2B2FD0029B0B
:104F80000B2B24D020000FB0F0BCBB46B246A94684
:104F9000A046F0BD0023E8469A463B610AAB99461D
:104FA00019000822404617F0DDFD3B004A46083351
:104FB00003CB03C24246083B03CA03C352460C9BC1
:104FC0000C927A693B610D9B0D927B61C0E733695E
:104FD000002BD7D004A9032208009847D2E75B46EC
:104FE0001B69002BCBD00AA9032208009847C6E70B
:104FF00020005A4639001C30FFF74AF9226AAAE716
:1050000049F0B4FC009F2400F0B5DE4657464E46FA
:105010004546E0B501238FB06E460B225B420C0083
:10502000029203930A00330008AD070003CA03C3CA
:1050300022002B0003CB03C208223100280098462F
:1050400017F090FDA36808229B4600239946A360B1
:10505000E36829009A4600233000E36017F082FDE0
:105060000822310004A817F07DFD5B4606935346E5
:10507000182202A92800079317F074FD082204A93A
:10508000300017F06FFD0822414604A817F06AFDB2
:1050900008223100404617F065FD4B4606935B46FB
:1050A0000C930D9B079353460D933B6A9A467B6A7C
:1050B0009A4555D053462A0013CA13C313CA13C3C3
:1050C000089B0B2B21D03A6A18323A62FB69D21A3C
:1050D000D1108B005B1818011B1818021B181C0438
:1050E0001C19244B640064189A4241D8089B013C67
:1050F0000B2B2DD0029B0B2B22D020000FB0F0BC2D
:10510000BB46B246A946A046F0BD4B465246414674
:1051100013613000082217F025FD5346424608333C
:1051200003CB03C2083B06CE06C34A460C9B0C9237
:105130005246136152690D9B0D9252465361C2E76C
:10514000069B002BD9D004A9032208009847D4E776
:105150002B69002BCED00AA9032208009847C9E783
:1051600038002A0051461C30FFF792F83A6AADE742
:1051700049F0FCFB009F2400F0B545465746DE464B
:105180004E460300E0B5A0CB804697B02800AF4262
:105190003BD07C1B200015F0BDFF1F231B1A3900DC
:1051A00028005A00FDF710FB102C00DC69E21023E8
:1051B0009946013B9B460E3B2C009A46A944AB44C2
:1051C000220028785678013421001300B04200D81C
:1051D0009CE2621BA54200D084E22E705C45EFD1B8
:1051E0007D1E4F450FD0230059781A7801342000D6
:1051F000914205D25A701800013B1A789142F9D3B6
:105200000170A542EFD1434621CB2900FDF752FBA7
:1052100043465B68984201D04346586000234446A9
:105220001D002168EBB20093431A002B0DDD5A10CC
:105230008E18B446009F8E5CBE4200D39AE1614650
:105240009B1A013B0131002BF1DC884205D00B7821
:10525000009A0126934200D811E10CAB0121009A7B
:105260000AA80A9335F09AFB0A9B606B98460B9E3E
:1052700023F0A6FC12AB07009A46109304960F2E5B
:1052800000D966E1012E00D05CE1434638211B784D
:1052900004AA5218137004AA53469346002211968A
:1052A0009A55109B58460193019A119B94463A686F
:1052B0000293D668390062466344B047109850455F
:1052C00004D0129B591C019317F062FC0A980CAB96
:1052D000984204D00C9B591C019317F059FCE369C8
:1052E000A66901939E421AD0049BA14698463400B9
:1052F000059F66683200BE4200D93A00002A00D1FC
:10530000D3E04146206857F027FA002800D1CCE0CE
:1053100000DCCEE0019B3034A342EAD14C4630237E
:10532000E75C0133E35CA06B98462BF07DFB83695F
:1053300006005B5D3B4200D094E04346DB0709D5A5
:10534000037F002B00D14EE17C23C05C009B984280
:1053500000D187E02369E6680293A36B18000193EC
:105360002BF062FB8046012017F002FC421C9146A4
:10537000009A010002704246136807004A465B69C2
:1053800040469847019823F01BFC534680464A4606
:10539000390010A81093FDF76DFC109B0AA801932B
:1053A000019A119B9446424612680393D268414683
:1053B000914663446246C8471098504503D01299FD
:1053C000013117F0E5FB0121380017F0E1FB029BEA
:1053D000991BC9108A0052181301D2181302D2184F
:1053E0001304D3185B005B189A10032B00DC98E1C0
:1053F0000A9B0B9F9A4653009B185B019846B0444A
:1054000018E018239946F369B1449F4200D175E032
:1054100030239946736BB1449F4200D17AE0482310
:105420009946F36CB1449F4200D17FE06036B045AD
:1054300000D1E5E07368BB42E3D1002F06D03A000B
:105440005146306857F088F90028DAD10CAB27694B
:105450009A4504D00C995046013117F099FBB74298
:1054600000D189E05B461B680126984606AB98454B
:1054700005D05B4699684046013117F089FB3C2115
:105480001F226B09615C9B002A40E318B14224D0C3
:10549000012191400A00196C01350A431A648023E6
:1054A0005B009D4223D06068BBE6F01B002800DD56
:1054B00030E7E6693A00B74200D93200002A05D049
:1054C0004046A16957F048F9002800D1B81B0028D0
:1054D00000DD1FE74C460126C8E7012191401A6C08
:1054E00001358A431A6480235B009D42DBD117B0EB
:1054F000F0BCBB46B246A946A046F0BD002F07D07F
:105500003A005146B06957F027F9002800D07FE7EC
:105510004E469BE7002FFBD03A005146306B57F0C8
:105520001BF9002800D07AE74E468FE7002FEFD016
:105530003A005146B06C57F00FF9002800D075E7DB
:105540004E4683E704AA9346002E00D1A6E6180033
:1055500009E004AB1900002210A89B4635F000FAC0
:10556000049B109012933200414617F0FBFA049E00
:10557000109B93E6130058E6A36A666A9A46A8460B
:10558000A146B3421ED04B46986B347875782BF009
:105590004BFA4246836907009B5C23420DD10123ED
:1055A0002B4207D0037F002B11D07C23C05C009BD3
:1055B000984202D045464C4654E70236B245E2D105
:1055C00045464C465B461B68002698464EE71EF053
:1055D00061FA3B68544A9B695F209342E7D05F21A0
:1055E00038009847E3E71EF055FA33684E4A9B6946
:1055F0005F20934200D1A9E65F2130009847A5E6DD
:10560000029B991BC9108A0052181301D218130269
:10561000D2181304D3185B005B18022B20D0032B85
:1056200014D0012B01D0029E10E70B9F7368BB4280
:10563000F9D1002F00D109E73A005146306857F000
:105640008BF8002800D101E7029EFFE60B9F7368EC
:10565000BB424ED0183673689F4205D01836E5E736
:105660000B9F73689F42F9D1002F00D1EEE63A00FC
:105670005146306857F070F8002800D1E6E6183639
:10568000D4E701226B1C2C0091467E1E9F4200D164
:10569000B9E5220028785778013421001300B84278
:1056A0000ED9621BA54216D12F70B44200D1AAE5D3
:1056B000220028785778013421001300B842F0D82E
:1056C0001278BA4205D95A701900013B1A789742EC
:1056D000F9D30F70E9E74B46981A2900201857F0C4
:1056E000BBF8E1E75346981A2900201857F0B4F8A0
:1056F00073E5002F00D1A9E63A005146306857F013
:105700002BF8002800D1A1E61836A4E712789642BB
:1057100005D25A701900013B1A789642F9D30E70DF
:105720005CE50A9A924678E761240010F0B5DE46FF
:10573000574645464E46E0B50368476805009B4618
:1057400018008FB09F422BD0FC1A200015F0E2FC0D
:105750001F231B1A390058465A00FDF735F8102C44
:1057600000DDE6E15B46012201335C4690467E1E89
:105770009F4212D0A9465D4622002878577801340E
:1057800021001300B84200D821E2621BA54200D0DC
:1057900016E22F70A642EFD14D466B6828689B46F3
:1057A0005946FDF787F86B680600984200D068609C
:1057B00000231C00E3B2686B9B462F682BF034F982
:1057C000036859461B699847F31B002B0CDD5A10E0
:1057D000B9188C46B95C814200D34EE167469B1AEA
:1057E000013B0137002BF2DCB74202D03B78834209
:1057F00026D9EB69AF6908AA9046B94601939F4242
:1058000041D04B461F785B78696B40469A4617F04B
:105810002DFF40462BF008F90600404617F0C0FF68
:10582000336859461B6930009847336800909B687D
:10583000594630009847009B9F421AD89A4518D382
:1058400001203C211F226309695C9B002240EB1868
:10585000814200D1F3E0012191400A00196C01342A
:105860000A431A6480235B009C4200D1F2E06E6818
:10587000A0E7874201D88245E2D202239C46019BE1
:10588000E1444B45BDD13023EF5C0133EB5CA86BA9
:1058900098462BF0C9F8836906001B5D3B42CFD1C7
:1058A0004346DB0707D5037F002B00D1F3E07C23C1
:1058B000C05C5845C4D02B69EE680093AB6B1800F0
:1058C00099462BF0B1F88046012017F051F9431C9E
:1058D0009A465B46037043461B68524601005B696B
:1058E000070040469847484623F06AF908AB9846B7
:1058F000814652460AAB390040460893FDF7BAF993
:1059000042465268089B94464A4612686344D268ED
:1059100002A892464946089AD04708980AAB98428E
:1059200004D043469968013117F032F9012138005B
:1059300017F02EF9009B991BC9108A005218130109
:10594000D2181302D2181304D3185B005B189A10F4
:10595000032B00DC51E1029B039F984653009B18E8
:105960005B019946B14415E018239A46F369B244A5
:105970009F424ED030239A46736BB2449F4253D01D
:1059800048239A46F36CB2449F426AD06036B145D0
:1059900000D18DE07368BB42E6D1002F06D03A00FB
:1059A0004146306856F0D8FE0028DDD104AB2F699F
:1059B000984504D004994046013117F0E9F8B74200
:1059C00000D03DE7AB6A6E6A9A46A046A9469E4261
:1059D0001DD04B46986B347875782BF025F84246ED
:1059E000836907009B5C23420CD101232B4206D024
:1059F000037F002B43D07C23C05C834502D0444608
:105A00004D461DE70236B245E3D144464D460020DF
:105A100017E7002F06D03A004146B06956F09CFEC9
:105A20000028A7D15646C1E7002FFBD03A004146D7
:105A3000306B56F091FE0028A2D15646B6E7012100
:105A400091401A6C01348A431A6480235B009C42A3
:105A500000D00CE70FB0F0BCBB46B246A946A0464A
:105A6000F0BD002FDED03A004146B06C56F074FE17
:105A7000002800D08AE7564698E71300A5E61EF0F6
:105A800009F83B685E4A9B695F209342B5D05F216D
:105A900038009847B1E71DF0FDFF3368584A9B690D
:105AA0005F20934200D104E75F213000984700E770
:105AB000009B991BC9108A0052181301D2181302B7
:105AC000D2181304D3185B005B18022B20D0032BD1
:105AD00014D0012B01D0009E68E7039F73689F429A
