:020000041000EA
:1000000000B5324B212058609868022188439860DF
:10001000D860186158612E4B002199600221596106
:100020000121F02299502B49196001219960352056
:1000300000F044F80222904214D00621196600F024
:1000400034F8196E01211966002018661A6600F04E
:100050002CF8196E196E196E052000F02FF8012189
:100060000842F9D1002199601B49196000215960AB
:100070001A491B48016001219960EB211966A021F2
:10008000196600F012F800219960164914480160C1
:100090000121996001BC002800D000471248134993
:1000A000086003C880F30888084703B5996A0420EC
:1000B0000142FBD001200142F8D103BD02B5186610
:1000C0001866FFF7F2FF186E186E02BD00000240BE
:1000D000000000180000070000035F00212200005C
:1000E000F4000018222000A00001001008ED00E03C
:1000F00000000000000000000000000074B24E7A12
:1001000000200420F7010010C3010010C5010010F9
:10011000C1010010C1010010C1010010C101001097
:10012000C1010010C1010010C1010010C701001081
:10013000C1010010C1010010C9010010CB01001065
:10014000CD010010CD010010CD010010CD01001037
:10015000CD010010CD010010CD010010CD01001027
:10016000CD010010CD010010CD010010CD01001017
:10017000CD010010CD010010CD010010CD01001007
:10018000CD010010CD010010CD010010CD010010F7
:10019000CD010010CD010010CD010010CD010010E7
:1001A000CD010010CD010010CD010010CD010010D7
:1001B000CD010010CD010010CD010010CD010010C7
:1001C00000BE00BE00BE00BE00BE00BE00F04BF888
:1001D000103800BEF2EB8871B4241510D02415102D
:1001E0003402001090A31AE700202149086006C8D5
:1001F00081F3088810471F48006800282FD10DA4FC
:100200000ECC002902D000F012F8F9E71A491B4A77
:10021000002000E001C19142FCD1194988471949E9
:1002200088471949884700BEFDE701C901C29A42C3
:10023000FBD37047D0241510C0000020B820002048
:10024000C84415100000042000000420C844151004
:1002500000100420001004200000000070470B482C
:1002600023F0E8FA0047EFF30580C0B270470000C2
:1002700008ED00E0000000D0B8200020E4BA002023
:10028000491B021035E90110711C0210575600007D
:1002900006005250ABB36053D065141006005250A4
:1002A000861C0302386C0610060052505422A29D90
:1002B000E065141005005250DE65F468C84415105E
:1002C000F8B5C04610B5064C2378002B07D1054B76
:1002D000002B02D0044800E000BF0123237010BDB2
:1002E000502A002000000000C84F0610044B10B533
:1002F000002B03D00349044800E000BF10BDC046F6
:1003000000000000542A0020C84F06107047C04665
:100310000122044B1A70044B1B689A7177321A72CF
:100320007047C046E0BA002098BA0020084B70B56C
:1003300050CBB4420BD0606825681DF011FF01005E
:1003400028001EF041F9A0601034A642F3D170BD20
:10035000402800207047C0467047C0467047C046DE
:100360007047C0467047C0467047C0467047C04699
:100370007047C0467047C0467047C0467047C04689
:100380007047C0467047C046F0B5DE4657464E46F9
:100390004546E0B58DB06A46436808AF0833DB08D0
:1003A000DB00D31A9D4608AC0168200058F02CF9F8
:1003B00023783A2B03D0637801343A2BFBD165784C
:1003C000642D00D19CE004237B6006230134BB60D4
:1003D0006F2D00D1AEE0622D00D1B8E0EE231B01FD
:1003E0009B46002D73D0674B1B78002B00D083E019
:1003F000654B1B78002B00D07EE025782A00303A30
:10040000092A6CD800218B005918657849005118C9
:100410002A00303A0134092AF5D900295FD058461C
:1004200023F03AFA0023613DEDB29846F860062DBC
:1004300002D8564B5B5D98466578232D55D0013424
:100440002E2D09D1FA6865789446D30F63445B106A
:100450009C4463460134FB602B00BA68303B9146F4
:10046000092B03D8DBB29946657801342C2D01D1D4
:10047000657801344346002B33D0454B9A46454BB3
:100480001B785BB20793F86823F01AFD424A434B8E
:1004900023F09DFC23F050FD4A46043A53009B187C
:1004A0009B003F4A434406905B009B5E6A4605936F
:1004B0005346103343CB43C203CB03C253460FCB47
:1004C0001EF0A8FBF8681FF045FC002D8BD1BD463F
:1004D00005B0F0BCBB46B246A946A046F0BD79685F
:1004E0009DE7F8681FF036FC7BE743460133DBB23B
:1004F000A57898460234A3E70023224A1370E6E762
:10050000E178E01C3039092938D800239A00D31843
:100510005B000130CB18017830390929F6D9002B5E
:100520002CDDDBB27B6006234578441CBB606F2D5D
:1005300000D050E7A3781A00333A042A02D8303B9F
:10054000DBB2BB6025790434622D00D046E7A27887
:100550000021303AA01C092A08D88B0059184900FC
:10056000013051180278303A092AF6D94578441CEE
:100570000C4823F091F983009B4632E704237B600B
:10058000D1E7C046D9BA0020DFBA00203460061097
:100590008C9D0020F5140020CDCCCCCCCCCCEC3FF5
:1005A0007C12002060EA0000F0B54546DE46574662
:1005B0004E469E4BE0B598469D4BADB09B4604AF72
:1005C0000AAE10AD9B4C002226A902A826940297E1
:1005D00042F04AFD22000024269B414604930290EB
:1005E00024F044FE269B029A0393D454924B01922A
:1005F0009946002226A908A82693089642F034FDC1
:10060000269B4A468D490A93089024F02FFE269B8C
:10061000089A0993D4548A4B01929946002226A93C
:100620000EA826930E9542F01FFD269B4A4685494B
:1006300010930E9024F01AFE269B0E9A0F93D4541A
:1006400016AB1493F423019226A9002214A8269332
:1006500042F00AFD269BF42259461693149024F08A
:1006600005FE269B149A1593D45401921FF05EFB4D
:10067000754B984229D9754B1B78032B6CD047D802
:10068000022B22D01CAB99461A930E9B0F9C9A46C4
:10069000002B00D1AEE026940F2C00D99BE0012C5A
:1006A00000D0B3E068211B7802AA521813704A46A2
:1006B00000231B941AA81355FFF766FE1A984845A5
:1006C00003D01C99013124F0E7FD149816AB984231
:1006D00004D0169B591C019324F0DEFD0E98A8420D
:1006E00004D0109B591C019324F0D6FD0898B04209
:1006F00004D00A9B591C019324F0CEFD0298B84205
:1007000000D15FE7049B591C019324F0C5FD59E714
:10071000042BDAD128AB99462693089B099C9A466C
:10072000002B70D020940F2C46D8012C79D1982121
:100730001B7802AA521813704A460023279426A851
:100740001355FFF721FE26984845BED0289B591C1B
:10075000019324F0A1FDB8E722AB2093149B159CD4
:100760009946002B4AD026940F2C16D8012C53D131
:1007700080211B7802AA5218137022AA0023219408
:1007800020A81355FFF700FE209822AB98429CD07A
:100790002299013124F080FD97E7002226A920A8A4
:1007A00042F062FC269B209022932200494624F0CE
:1007B0005DFD269C209AE1E7002220A926A842F0B0
:1007C00053FC209B269028932200514624F04EFD96
:1007D000209C269AB1E7002226A91AA842F044FCE0
:1007E000269B1A901C932200514624F03FFD269C24
:1007F0001A9A5DE7002C03D14A4659E7002CBCD079
:10080000134837F003FD002C96D0F9E74A46002C38
:1008100000D14DE74846E6E722AA002CAED01000F2
:10082000C3E74A46002C88D04846CDE7C84F06109B
:100830006C5C06105D030000D6040000285306100F
:100840006A04000000580610DC050000D2BA00203F
:10085000645D0610F0B5DE4657464E464546E0B5A7
:10086000584B83B01B6801200193002B06D003B0C6
:10087000F0BCBB46B246A946A046F0BD00220F33ED
:10088000002100201EF082FB4F4B4F4A1B680027BF
:100890000193013313600F22904600229346FAB26F
:1008A0000F2591469F4200DB85E05B46DB009A46C0
:1008B0001E005C46FF000134310008230822380086
:1008C00064B21EF0BBFC0836A542F4DC4F4601378B
:1008D0007FB2474547DA6B1E5BB20193DB00994656
:1008E00043463C00A846FE004D46B9461F00013471
:1008F000300008230822290064B21EF09FFC08364D
:10090000A742F4DC45460123B846023D5B4243441E
:100910006DB24F4699465D4511DBB8465F465CB205
:10092000E400EE00013D31000823082220006DB2F2
:100930001EF084FC083EAF42F4DDBB4647464B4602
:100940005BB29846019B9B453ADB782378220021D5
:1009500000201EF073FC96201FF0FCF90123194AB9
:100960000120136083E7013D6DB25D45EDDD01239C
:100970005B4243445CB2E600A7420DDCA946554603
:10098000013C300008230822290064B21EF056FC06
:10099000083EA742F4DD4D465B4601335BB29B4601
:1009A0004745D2DAAB45D0DA074BFAB21B6891461D
:1009B0009F4200DA79E732201FF0CCF9002056E799
:1009C0001D00D4E7C4BA0020C0BA0020F0B5DE464E
:1009D00057464E46454600227F4BE0B51A707F4B86
:1009E00004001B788DB0042B13D87D4A9B00D3588C
:1009F0009F467C4A7C4B10687C4A7D4D12681B6880
:100A0000009221002A6810F0A7FA2100286804F05B
:100A10004BF90DB0F0BCBB46B246A946A046F0BDAE
:100A2000744B754D1B78002B61D12B78002B70D047
:100A3000724B1B689846724F00203A687B68944658
:100A400000219E1A0022089009910A9263455CD009
:100A50006C4B9E4200D9BDE0300024F00DFC3B6899
:100A600005009C4662467B689F1AAE190895099559
:100A70000A969C4504D03A006146280064F094FA36
:100A800040462100ED1908AA099518F0F7FB0898CF
:100A9000002803D00A99091A24F0FEFB544D524B4A
:100AA000210018682A6818F01DFF2100286804F04A
:100AB000FBF8AEE7544B2100186816F0FBF9A8E7E5
:100AC000524B2100186816F015FDA2E7484D504B17
:100AD000210018682A6817F031FA2100286804F00C
:100AE000E3F896E74B4B2100186816F0D1FA2B7803
:100AF000002B9DD1414B1B689846DB79002B9AD186
:100B000043469B79002BC9D095E700270026002596
:100B1000ABE7364A404E12680020039232680693D3
:100B20009346374A91464946526809688C46571A97
:100B3000002104900591624547D0324BB8469F4250
:100B400048D8380024F098FB4B461B6807009C46A9
:100B50004B465A686346D31A9A464346FB18049795
:100B600005970693944504D052466146380064F0D8
:100B70001BFA1F4B03981B685A46009321005744E9
:100B800004AB059702F08EFD0498002803D0069967
:100B9000091A24F081FB214B2100186801F0D6FED0
:100BA0004B465B6898464B461F68474503D199E71B
:100BB0000437B84596D038683268436B9342F7D112
:100BC0000122210002F046FFF2E7002300279A46A7
:100BD0009846C2E737F0FAFADCBA0020D2BA002011
:100BE000905D0610F0B2002044B9002078BA0020D1
:100BF00048B90020DFBA0020E0BA002098BA0020EF
:100C0000A8B90020FCFFFF7FB0BA002038B900204F
:100C10004CB90020ACBA00205CB3002040B90020E1
:100C2000F8B5CE4647464A4B04001B7880B5042BE6
:100C30001FD8484A9B00D3589F46474B1B78002B30
:100C400043D1464B98461B78002B44D0444B1B782D
:100C5000002B40D1434B1868210018F0ADFA424BED
:100C60002100186818F046FF404B2100186804F076
:100C700089F8C0BCB946B046F8BDFFF7EBFD0028C7
:100C8000F7D0394B21001A68394B186810F02CF84E
:100C9000364B2100186804F075F8EAE7354B21005F
:100CA000186816F02BF9E4E7334B2100186816F0AA
:100CB0002DFCDEE7314B2100186818F011FA2B4BA0
:100CC0002100186804F05EF8D3E7254B1B78002B51
:100CD0003BD0224B98462A4D2A4E28683268210084
:100CE00001F054FE284B21001868994602F06AFC76
:100CF00028682100326801F06FFE244BA0CBBD4272
:100D000003D10BE00435AF4208D028683268436B4A
:100D10009342F7D1210002F001FFF3E74B461A6836
:100D20001B4B2100186816F0ABFB43461B78002BC9
:100D300000D08FE70B4B1868C379002B00D08BE7EE
:100D40008379002B00D18AE786E7044B9846ECE7CD
:100D5000D2BA0020A45D0610DFBA0020E0BA00205D
:100D6000DCBA002098BA002044B9002048B900201D
:100D7000F0B20020B0BA002038B900204CB90020F1
:100D800040B900205CB3002078BA0020A8B9002048
:100D9000ACBA0020F8B5574645464E46DE460368D5
:100DA000E0B547689246344A9946FB1A05008846E2
:100DB0009B1093425CD00126002B02D05E00B34210
:100DC00050D843464A469C1A002E1BD100239B460E
:100DD00052465B4612681A51002C23DC4346043409
:100DE0005C44FF1A002F30DC4B46E719002B35D14D
:100DF0005B466F60AE602B60F0BCBB46B246A94656
:100E0000A046F8BD80239B059E422FD2B60030003D
:100E100024F032FA834652465B4612685E441A5109
:100E2000002CDBDD22004946584664F0BDF84346FD
:100E300004345C44FF1A002F07DC4A46AB68E7190C
:100E4000991A484624F028FAD2E73A004146200091
:100E500024F00CFA4B46E719002BC9D04A46AB6880
:100E6000991AEEE74A46054E8C1AD0E7024ECDE7B6
:100E7000034837F0FBF9C046FFFFFF1FFCFFFF7F71
:100E8000B85D0610F0B5DE46454657464E46E0B51D
:100E9000F14891B01EF0A8F8F04B002518781FF02B
:100EA0002BF8F022EE4B52421A6020325A60ED4B82
:100EB00024201D6024F0E0F904003422342101F0E4
:100EC000C1FEE94B10201C6024F0D6F9040001F0AB
:100ED0000FFCE64B2C201C6024F0CEF9040003F03C
:100EE000D5FEE34B34201C6024F0C6F904000EF05C
:100EF000B1FEE04B01201C6024F0BEF9040015F0A7
:100F000017FEDD4B04201C6024F0B6F9040016F037
:100F1000EDFAC220D94BC0001C6024F0ADF90400EA
:100F200016F058FBD64B20201C6024F0A5F90400D5
:100F300018F0D2FAD34B18201C6024F09DF904005D
:100F400016F09AF8D04B0A201C6024F095F90400A2
:100F500018F02AF9CD4B38201C6024F08DF9CC4BC9
:100F6000CC4F984601230295039301933B680400FC
:100F70000093434654211B68742202F04DFDC64D78
:100F800008946968AB68994201D100F03EFF10C136
:100F900069602B688B4201D101F036F80AAC22005F
:100FA0001B6808949C46BD4B43CB43C21B882E2133
:100FB00013800E230993002302AA521813700E9374
:100FC000B74B604608A90F9302F0B6FE0898A042FE
:100FD00004D00A9B591C059324F05EF9382024F0B4
:100FE0004BF9012300220393029201933B68060010
:100FF00000934346D4211B68743202F00DFD6968EA
:10100000AB680896994201D100F006FF40C16960C3
:101010002B68C91A042901D800F0F1FF22005B688F
:1010200008949C469F4B43CB43C21B782D211370E1
:101030000D230993002302AA521813700E939A4BA2
:10104000604608A90F9302F077FE0898A04204D0EA
:101050000A9B591C059324F01FF9382024F00CF941
:10106000012300220393029201933B680600009340
:10107000434674211B68A43202F0CEFC6968AB6859
:101080000896994201D100F0CEFE40C169602B68FC
:10109000C91A082901D800F067FF22009868834B1D
:1010A000089442CB42C2082328210993002302AAB4
:1010B000521813700E937E4B08A90F9302F03CFE5A
:1010C0000898A04204D00A9B591C059324F0E4F828
:1010D000382024F0D1F801230022039302920193D7
:1010E0003B68060000934346C4211B68D43202F0DB
:1010F00093FC6968AB680896994201D100F09AFEAA
:1011000040C169602B68C91A0C2901D800F05EFF44
:10111000DE681B23002207A908A80793089441F062
:10112000A3FF079B1B2263490A93089024F09EF8B3
:101130000023079A089909928B540E935E4B300056
:1011400008A90F9302F0F8FD0898A04204D00A9B6A
:10115000591C059324F0A0F8382024F08DF80123C1
:1011600000220393029201933B68F52200934346C9
:10117000060034211B68920002F04EFC6968AB68DF
:101180000896994201D100F05CFE40C169602B686D
:10119000C91A102901D800F01EFF22001B6908940B
:1011A0009C46464B43CB43C21B882E2113800E2303
:1011B0000993002302AA521813700E93404B604605
:1011C00008A90F9302F0B8FD0898A04204D00A9B2A
:1011D000591C059324F060F8382024F04DF80123C1
:1011E00000220393029201933B680600009343465A
:1011F00034211B68334A02F00FFC6968AB6808961B
:10120000994201D100F024FE40C169602B68C91ADF
:10121000142901D800F0E4FE22005B6908949C4682
:10122000294B43CB43C21B782D2113700D23099307
:10123000002302AA521813700E93244B604608A98B
:101240000F9302F079FD0898A04241D00A9B591CE7
:10125000059324F021F83BE0CDEB0110E0140020D1
:10126000C8BA00205CB3002078BA002040B9002042
:1012700048B90020F0B20020B0BA002038B90020F0
:101280004CB9002044B90020ACBA002098BA002024
:1012900064B9002060B90020A8B90020205E0610C3
:1012A0000D030010305E061059030010405E06105A
:1012B0005D0300104C5E061061030010685E0610AE
:1012C0006503001034040000785E06106903001006
:1012D000382023F0D1FF01230022039302920193CF
:1012E0003B68F52200938221434606001B684900B3
:1012F000920002F091FB6968AB680896994201D1AF
:1013000000F0ADFD40C169602B68C91A182901D8E9
:1013100000F06BFE9869F24B08941A6826210A9235
:101320009B8802AAA38006230993002352181370F6
:101330000E93EC4B08A90F9302F0FEFC0898A04214
:1013400004D00A9B591C059323F0A6FF382023F0F4
:1013500093FF012300220393029201933B688221B1
:101360000093434606001B684900DF4A02F054FB25
:101370006968AB680896994201D100F077FD40C1D9
:1013800069602B68C91A1C2901D800F05BFED86976
:10139000D64B24210A9304230993002302AA52184E
:1013A000089413700E93D24B08A90F9302F0C4FC5B
:1013B0000898A04204D00A9B591C059323F06CFFA7
:1013C000382023F059FFCB4B81219A460123039308
:1013D00002930193C84B060099461B68890000934D
:1013E000534664221B6802F017FB6968AB680896D5
:1013F000994201D100F041FD40C169602B68C91AD2
:10140000202901D800F0B5FD002108220EA81E6A8F
:1014100023F026FF2200B94B089403CB03C21B889C
:101420002A2113800A230993002302AA52183000AC
:10143000137008A902F080FC0898A04204D00A9B0F
:10144000591C059323F028FF2B686A68D21A202ABA
:1014500001D800F001FE1E6A1423002207A908A883
:101460000793089441F000FE079B1422A4490A93B5
:10147000089023F0FBFE0023079A089909928B54E9
:101480000E93A04B300008A90F9302F055FC08986A
:10149000A04204D00A9B591C059323F0FDFE38207E
:1014A00023F0EAFE0122984B85211B6803920292E9
:1014B00001320192954A0600126889000092A22228
:1014C000520002F0A9FA6968AB680896994201D106
:1014D00000F0DAFC40C169602B68C91A242901D8E0
:1014E00000F0B5FD5B6A002108220EA89B4623F0A0
:1014F000B7FE2300864A089403CA03C311885846DE
:10150000198092782B219A700B230993002302AA49
:101510005218137008A902F00FFC0898A04204D0DA
:101520000A9B591C059323F0B7FE2B686A68D21AF0
:10153000242A01D800F040FD22005B6A08949C46F2
:10154000744B43CB43C21B782D2113700D23099399
:10155000002302AA521813700E936F4B604608A91D
:101560000F9302F0E9FB0898A04204D00A9B591C93
:10157000059323F091FE382023F07EFE0122674B75
:101580008A211B68039202920192654A834612687F
:1015900049000092BA22520002F03EFA5B466968A6
:1015A0000893AB68994201D100F075FC5B4608C115
:1015B00069602B68C91A282901D800F0F8FC9B6AD9
:1015C000002108220EA89B4623F04AFE2200554B1C
:1015D000089403CB03C21B882A2113800A23099392
:1015E000002302AA52185846137008A902F0A4FB5F
:1015F0000898A04204D00A9B591C059323F04CFE86
:101600002B686A68D21A282A01D800F0CBFC9B6AA2
:1016100000229B46122307A908A80793089441F0CB
:1016200023FD079B122240490A93089023F01EFED7
:101630000023079A089909928B540E933B4B584606
:1016400008A90F9302F078FB0898A04204D00A9BE7
:10165000591C059323F020FE382023F00DFE0122B3
:10166000334B83461B680392029201320192314A46
:101670008421126800928522920002F0CDF95B4627
:1016800069680893AB68994201D100F00BFC5B4696
:1016900008C169602B68C91A2C2901D800F091FC97
:1016A000DB6A002108220EA89B4623F0D9FD220008
:1016B000214B089403CB03C21988584611809B78AC
:1016C0002B2193700B230993002302AA5218137045
:1016D00008A902F031FB0898A04234D02EE0C046A1
:1016E000885E06106D03001034040000446F6A6FBA
:1016F000710300107CB9002078B90020905E0610BC
:101700009C5E0610812100105CB9002058B90020B1
:10171000B45E0610C05E06100D2200108CB90020C9
:1017200088B90020D05E0610DC5E0610B1230010E0
:1017300094B9002090B90020F05E06100A9B591C55
:10174000059323F0A9FD2B686A68D21A2C2A01D8C8
:1017500000F014FC2200D86AED4B089442CB42C240
:10176000198811809B782B2193700B2309930023F8
:1017700002AA521813700E93E64B08A90F9302F0B9
:10178000DBFA0898A04204D00A9B591C059323F069
:1017900083FD382023F070FD0122DF4B83461B6858
:1017A000039202920192DD4A342112680092A9222A
:1017B000920002F031F95B4669680893AB68994280
:1017C00000D176E35B4608C169602B68C91A3029ED
:1017D00000D8E2E31B6B002108220EA89B4623F0F1
:1017E0003FFD2300CE4A089403CA03C3118858461C
:1017F000198092782B219A700B230993002302AA57
:101800005218137008A902F097FA0898A04204D061
:101810000A9B591C059323F03FFD2B686A68D21A76
:10182000302A00D8B4E322001B6B08949C46BD4BC1
:1018300043CB43C21B882E2113800E230993002320
:1018400002AA521813700E93B74B604608A90F9363
:1018500002F072FA0898A04204D00A9B591C059322
:1018600023F01AFD382023F007FD012253461B68A0
:101870000392029201924A46AA21834612684900C5
:101880000092842202F0C8F85B4669680893AB684E
:10189000994200D119E35B4608C169602B68C91AF7
:1018A000342900D86FE35B6B00229946282307A9EF
:1018B00008A80793089441F0D7FB079B28229B496F
:1018C0000A93089023F0D2FC0023079A0899099202
:1018D0008B540E93964B484608A90F9302F02CFAAE
:1018E0000898A04204D00A9B591C059323F0D4FC0D
:1018F000382023F0C1FC8F4B01229B460023039329
:1019000001938D4B02929A461B68814600935B4679
:1019100054211B68733202F07FF84B4669680893C4
:10192000AB68994200D1CAE24B4608C169602B6896
:10193000C91A382900D87BE39B6B002299462C23D7
:1019400007A908A80793089441F08EFB079B2C2257
:101950007A490A93089023F089FC0023079A089992
:1019600009928B540E93764B484608A90F9302F0C8
:10197000E3F90898A04204D00A9B591C059323F070
:101980008BFC382023F078FC00225B4601211B6889
:10199000039201925246029112688146009292226D
:1019A0005331520002F038F84B4669680893AB682F
:1019B000994200D18FE24B4608C169602B68C91A71
:1019C0003C2900D839E3DB6B00229946282307A97C
:1019D00008A80793089441F047FB079B2822594920
:1019E0000A93089023F042FC0023079A0899099271
:1019F0008B540E93544B484608A90F9302F09CF960
:101A00000898A04204D00A9B591C059323F044FC7B
:101A1000382023F031FC00228A2181464B4B4900BB
:101A20001B680392013202920192494A12680092A5
:101A3000542201F0F1FF4B4669680893AB68994264
:101A400000D154E24B4608C169602B68C91A40298D
:101A500000D8E8E22200186C3E4B089442CB42C208
:101A60001B782921137009230993002302AA521815
:101A700013700E93384B08A90F9302F05DF9089884
:101A8000A04204D00A9B591C059323F005FC382082
:101A900023F0F2FB0022012143461B6802910392CE
:101AA00001923A6881460092DA22B331520001F085
:101AB000B3FF4B4669680893AB68994200D110E2C6
:101AC0004B4608C169602B68C91A442900D8A5E2B1
:101AD0005F6C2423002207A908A80793089441F00B
:101AE000C3FA079B24221D490A93089023F0BEFBEA
:101AF0000023079A089909928B540E93184B3800CB
:101B000008A90F9302F018F90898A0422FD029E0F5
:101B1000FC5E0610E12200109CB9002098B900205C
:101B2000B45E0610085F061095250010185F0610B9
:101B30007503001074B9002070B90020445F0610CE
:101B400079030010745F06107D0300106CB900204B
:101B500068B90020A05F061081030010AC5F06107A
:101B6000110300100A9B591C059323F095FB3820A4
:101B700023F082FB00220121E64B07001B68039241
:101B80000192E54A0291126873310092A1229200FB
:101B900001F042FF6968AB680897994200D1ACE157
:101BA00080C169602B68C91A482900D85EE29F6C21
:101BB0001723002207A908A80793089441F054FAB4
:101BC000079B17220A93D54B089019009A4623F0D9
:101BD0004DFB0023079A089909928B540E93D04B22
:101BE000380008A90F9302F0A7F80898A04204D083
:101BF0000A9B591C059323F04FFB382023F03CFB34
:101C0000C84B012298460023C74F029203930193C9
:101C10003B68CD2200934346814674211B689200A5
:101C200001F0FAFE4B4669680893AB68994200D10F
:101C30008EE14B4608C169602B68C91A4C2900D84F
:101C4000E7E1DB6C00229946172307A908A8079350
:101C5000089441F009FA079B172251460A9308900D
:101C600023F004FB0023079A089909928B540E93E2
:101C7000AE4B484608A90F9302F05EF80898A042C0
:101C800004D00A9B591C059323F006FB382023F04F
:101C9000F3FA0022A64BBA211B680392013202928A
:101CA0000192A44A8146126849000092A52292003E
:101CB00001F0B2FE4B4669680893AB68994200D1C7
:101CC00021E14B4608C169602B68C91A502900D828
:101CD000D1E11B6D00229946232307A908A8079389
:101CE000089441F0C1F9079B232293490A93089075
:101CF00023F0BCFA0023079A089909928B540E939B
:101D00008E4B484608A90F9302F016F80898A04297
:101D100004D00A9B591C059323F0BEFA382023F007
:101D2000ABFA002243461B680392013202920192F1
:101D30003A68C2210092D12281464900920001F006
:101D40006BFE4B4669680893AB68994200D105E188
:101D50004B4608C169602B68C91A542900D880E134
:101D6000082200210EA85F6D23F07AFA2300744E3A
:101D7000089406CE06C332882B211A80B278380028
:101D80009A700B230993002302AA5218137008A912
:101D900001F0D2FF0898A04204D00A9B591C059379
:101DA00023F07AFA2B686A68D21A542A00D821E103
:101DB0005D6D2123002207A908A80793089441F02C
:101DC00053F9079B21225F490A93089023F04EFAAA
:101DD0000023079A089909928B540E935A4B2800B6
:101DE00008A90F9301F0A8FF0898A04203D00A9910
:101DF000013123F051FA554823F098FE11B0F0BCA0
:101E0000BB46B246A946A046F0BD280008AAFEF788
:101E1000C1FF6968FFF7BDF8280008AAFEF7BAFFFE
:101E20006968FFF7F5F8280008AAFEF7B3FF6968AC
:101E3000FFF72DF9280008AAFEF7ACFF6968FFF745
:101E400061F9280008AAFEF7A5FF6968FFF79FF966
:101E5000280008AAFEF79EFF6968FFF7D7F9280057
:101E600008AAFEF797FF6968FFF74EFA280008AA4C
:101E7000FEF790FF6968FFF784FA280008AAFEF7CA
:101E800089FF6968FFF7BAFA280008AAFEF782FFFF
:101E90006968FFF721FB280008AAFEF77BFF696845
:101EA000FFF787FB280008AAFEF774FF6968FFF7B1
:101EB000F1FB280008AAFEF76DFF696885E4280099
:101EC00008AAFEF767FF696831E5280008AAFEF74F
:101ED00061FF6968E2E4280008AAFEF75BFF696811
:101EE0006CE5280008AAFEF755FF6968EBE52800B5
:101EF00008AAFEF74FFF6968A7E5280008AAFEF7C1
:101F000049FF69684EE6280008AAFEF743FF6968A2
:101F1000DAE6C046A4B90020A0B90020D45F0610BC
:101F20008503001054B9002050B90020550300105B
:101F300084B9002080B90020EC5F06102D0300104A
:101F4000B45E06101060061085240010A90500106C
:101F5000280008AAFEF71EFF69686DE6280008AA97
:101F6000FEF718FF6968F6E68A104548022136F048
:101F7000ADF98A104248082136F0A8F90B214048F3
:101F8000921036F0A3F98A103D480D2136F09EF9E3
:101F90000C213B48921036F099F98A1038480C21F0
:101FA00036F094F90A213648921036F08FF98A10EB
:101FB00033480A2136F08AF909213148921036F067
:101FC00085F98A102E480B2136F080F98A102C48AA
:101FD000032136F07BF98A102948042136F076F97E
:101FE0008A102748052136F071F98A102448062105
:101FF00036F06CF915212248921036F067F98A10F4
:102000001F48012136F062F900221D48110036F008
:102010005DF98A101A48132136F058F98A101848C9
:10202000112136F053F98A101548102136F04EF977
:102030008A1013480E2136F049F98A1010480F21F2
:1020400036F044F98A100E48072136F03FF98A101D
:102050000B48092136F03AF908210948921036F068
:1020600035F98A100648152136F030F98A100448EF
:10207000122136F02BF98A100148142136F026F986
:10208000D45D0610F8B503684E4645465746DE4611
:102090009A46E0B5150052464368060098469B1ADA
:1020A000344A89461B11934260D00127002B02D08D
:1020B0005F00BB4254D84B4652469C1A002F1CD19D
:1020C00000239B465B461B1907CD07C32A681A608D
:1020D000002C24DC43464A4610345C449D1A002DF3
:1020E00031DC53466419002B36D15B4698C6F0BCF0
:1020F000BB46B246A946A046F8BD80231B059F42B9
:1021000032D23F01380023F0B7F883465B461B19F3
:1021100007CD07C32A685F441A60002CDADD22006D
:102120005146584662F040FF43464A4610345C44EC
:102130009D1A002D07DC5246B3686419991A50465F
:1021400023F0AAF8D1E720002A00494623F08EF8B0
:1021500053466419002BC8D05246B368991AEEE76B
:102160005246054F8C1ACDE7024FCAE7034836F0B6
:102170007DF8C046FFFFFF07F0FFFF7FB85D061048
:10218000012270B5002496201A4B84B01A701A4BA5
:1021900003321A70194B40001C60194B1C601DF073
:1021A000D9FD184B1C70184C23686268934200D00C
:1021B0006360092214231420009201931BF0D0FFC6
:1021C000010009201CF000FA6A4600236168D36010
:1021D000A3689060994208D00B0061CA61C312687D
:1021E00010311A60616004B070BD2000FFF74AFF33
:1021F000F9E7C046D9BA0020D2BA0020C0BA002000
:10220000C4BA0020DEBA0020D02100200122F0B59F
:10221000002496202C4B85B01A702C4B03321A7078
:102220002B4B40001C602B4B1C601DF093FD2A4B78
:102230002A4D1C706A682B68934200D06B6096230D
:10224000962005225B004000009201931BF088FF5E
:10225000010005201CF0B8F96C4600236968E360B2
:10226000AB68A060994224D00B002200C1CAC1C350
:10227000126810311A606960C823C82007225B0009
:102280004000009201931BF06BFF010007201CF03F
:102290009BF900236968E360AB68A06099420DD0A8
:1022A0000B0045CC45C3226810311A60696005B047
:1022B000F0BD22002800FFF7E5FEDDE72200280040
:1022C000FFF7E0FEF3E7C046D9BA0020D2BA0020FB
:1022D000C0BA0020C4BA0020DEBA0020D0210020FD
:1022E0000122F0B5002496202A4B85B01A702A4BA3
:1022F00003321A70294B40001C60294B1C601DF0F2
:1023000029FD284B284D1C706A682B68934200D029
:102310006B600D22254B2548009201931BF020FF96
:1023200001000D201CF050F96C4600236968E36041
:10233000AB68A060994222D00B002200C1CAC1C381
:10234000126810311A6069600F22184B174800920A
:1023500001931BF005FF01000F201CF035F900234D
:102360006968E360AB68A06099420DD00B0045CC72
:1023700045C3226810311A60696005B0F0BD2200C3
:102380002800FFF77FFEDFE722002800FFF77AFE34
:10239000F3E7C046D9BA0020D2BA0020C0BA002064
:1023A000C4BA0020DEBA0020D0210020102700008F
:1023B0000122F0B5002496202C4B85B01A702C4BCE
:1023C00003321A702B4B40001C602B4B1C601DF01D
:1023D000C1FC2A4B2A4D1C706A682B68934200D0BE
:1023E0006B60FA23FA200922DB00C00000920193FF
:1023F0001BF0B6FE010009201CF0E6F86C46002335
:102400006968E360AB68A060994224D00B002200A9
:10241000C1CAC1C3126810311A606960FA23FA2078
:102420000B22DB00C000009201931BF099FE01001B
:102430000B201CF0C9F800236968E360AB68A0605A
:1024400099420DD00B0045CC45C3226810311A606B
:10245000696005B0F0BD22002800FFF713FEDDE73C
:1024600022002800FFF70EFEF3E7C046D9BA00208D
:10247000D2BA0020C0BA0020C4BA0020DEBA0020C0
:10248000D02100200122F0B500249620394B85B0E0
:102490001A70394B03321A70384B40001C60384BAD
:1024A0001C601DF057FC374B374D1C706A682B6859
:1024B000934200D06B601722344B35480092019351
:1024C0001BF04EFE010017201CF07EF86C46002326
:1024D0006968E360AB68A06099423CD00B002200C1
:1024E000C1CAC1C3126810311A6069600322274B48
:1024F0002748009201931BF033FE010003201CF0DB
:1025000063F800236968E360AB68A060994227D054
:102510000B002200C1CAC1C3126810311A60696081
:102520000D221A4B1A48009201931BF019FE01006C
:102530000D201CF049F800236968E360AB68A060D7
:10254000994212D00B0045CC45C3226810311A6065
:10255000696005B0F0BD22002800FFF793FDC5E7D4
:1025600022002800FFF78EFDDAE722002800FFF79F
:1025700089FDEEE7D9BA0020D2BA0020C0BA002007
:10258000C4BA0020DEBA0020D021002010270000AD
:10259000983A00000122F0B500249620394B85B00E
:1025A0001A70394B03321A70384B40001C60384B9C
:1025B0001C601DF0CFFB374B374D1C706A682B68D1
:1025C000934200D06B601122344B34480092019347
:1025D0001BF0C6FD010011201BF0F6FF6C46002326
:1025E0006968E360AB68A06099423CD00B002200B0
:1025F000C1CAC1C3126810311A6069601322274B27
:102600002648009201931BF0ABFD010013201BF044
:10261000DBFF00236968E360AB68A060994227D0C4
:102620000B002200C1CAC1C3126810311A60696070
:1026300015221A4B1948009201931BF091FD0100DD
:1026400015201BF0C1FF00236968E360AB68A06040
:10265000994212D00B0045CC45C3226810311A6054
:10266000696005B0F0BD22002800FFF70BFDC5E74B
:1026700022002800FFF706FDDAE722002800FFF716
:1026800001FDEEE7D9BA0020D2BA0020C0BA00207E
:10269000C4BA0020DEBA0020D0210020102700009C
:1026A00010B53223002486B00093C82214210D48AF
:1026B000059404940394029401941CF099FA3C2329
:1026C0000022059364210848049403940294019421
:1026D00000941CF08DFA054B1C605C609C6006B099
:1026E00010BDC0468C9D0020B42C0020A8B900204D
:1026F0000023036043608360C3607047F8B5060041
:102700001D00140043683268E8188300A2181B18E3
:1027100052009B018918CF5E7B1C0FD01E4B1B689B
:10272000012B0CD03800F368E1009C46B468EA0045
:10273000624409190C3A0C391CF0CCFEF8BD1DF0AE
:10274000F5FAFA21C90021F0CFF8FA235B0099428B
:1027500005D2122F1CD0132FE4D11520E3E71DF072
:10276000E5FAFA21C90021F0BFF8FA239B0099424B
:10277000D8D31DF0DBFAFA21C90021F0B5F8074BD8
:102780009942CFD8122F05D0132FCBD11720CAE7EB
:102790001420C8E71620C6E75CB30020DB05000064
:1027A000F0B54E464546DE465746654BE0B5984681
:1027B000644B05008A46914600269B4683B0002460
:1027C000F300019343461B78002B00D16EE00B2EE3
:1027D00004DC092C02D03CDD092E3ADD51466B6841
:1027E000F3189A00D2182B689201E3185B00C918FD
:1027F0008F5E791C18D05B461B68012B36D03800E1
:10280000EB68019A9C46AB6862449C46E1006144D7
:102810000C3A0C391CF05EFE6B68F3189A00D21863
:102820002B689201E3185B004B449F5E7B1C10D029
:102830005B461B68012B29D03800EB68019A9C4647
:10284000AB6862449C46E10061440C3A0C391CF0D0
:1028500041FE0134122CB5D10136122EAFD103B096
:10286000F0BCBB46B246A946A046F0BD1DF05EFADC
:10287000FA21C90021F038F8FA235B0099423BD2D3
:10288000122F57D0132FBAD11520B9E71DF04EFAE9
:10289000FA21C90021F028F8FA235B00994212D2EC
:1028A000122F45D0132FC7D11520C6E733002200C1
:1028B00051462800FFF722FF330022004946280036
:1028C000FFF71CFFC5E71DF031FAFA21C90021F01E
:1028D0000BF8FA239B009942AED31DF027FAFA2198
:1028E000C90021F001F8184B9942A5D8122F25D024
:1028F000132FA1D11720A0E71DF018FAFA21C90063
:1029000020F0F2FFFA239B00994200D277E71DF0F6
:102910000DFAFA21C90020F0E7FF0B4B994200D9CC
:102920006DE7122F08D0132F00D068E7172067E754
:10293000142082E7142063E7162061E716207CE765
:10294000DFBA00205CB30020DB0500000722110085
:1029500070B50D4C23686568DE173140C918C91081
:10296000494201601100EC17760F2140640F9B195A
:1029700049192D191340C9102A409B1B4942121BAB
:1029800041608360C26070BDC8BA002010B5040009
:10299000002A0BD0012A08D1094B18681CF06AFBE9
:1029A0002000084A0849FFF7FBFE10BD074B1868D6
:1029B0001CF060FB2000064A0649FFF7F1FEF4E731
:1029C000B8BA00205C0612105CCE1210B4BA002017
:1029D0005CAE0F105C761010F8B50400002A00D130
:1029E00095E0012A00D091E00525924B18681CF073
:1029F00041FB914E63686F1FFA1893009B18C82221
:102A0000D200944622689B016344511DF31849008B
:102A1000C95E013110D02B00052231002000FFF7E4
:102A20006DFE6368FA1893009B18C822D200944682
:102A30009B0163442268F318911D4900C95E01316E
:102A400010D02B00062231002000FFF757FE6368EC
:102A5000FA1893009B18C822D20094469B01634445
:102A60002268F318D11D4900C95E013110D02B0036
:102A7000072231002000FFF741FE6368FA18930037
:102A80009B18C822D20094469B0163442268F31825
:102A9000110008314900C95E013110D02B00082215
:102AA00031002000FFF72AFE6368FA1893009B1894
:102AB000C822D20094469B0163442268F318110097
:102AC00009314900C95E013111D02B0009223100C2
:102AD0002000FFF713FE6368C8229C46D2006744BB
:102AE0009446BB00DB199B0163442268F3180A3249
:102AF0005200D35E013305D02B000A2231002000A2
:102B0000FFF7FCFD01350B2D00D073E7F8BD05255F
:102B10004A4B18681CF0AEFA494E63686F1FFA18EA
:102B200093009B18C822D200944622689B016344FC
:102B3000511DF3184900C95E013110D02B00052248
:102B400031002000FFF7DAFD6368FA1893009B1844
:102B5000C822D20094469B0163442268F318911D59
:102B60004900C95E013110D02B000622310020003F
:102B7000FFF7C4FD6368FA1893009B18C822D200BF
:102B800094469B0163442268F318D11D4900C95E35
:102B9000013110D02B00072231002000FFF7AEFDDD
:102BA0006368FA1893009B18C822D20094469B01D0
:102BB00063442268F318110008314900C95E0131ED
:102BC00010D02B00082231002000FFF797FD63682A
:102BD000FA1893009B18C822D20094469B016344C4
:102BE0002268F318110009314900C95E013111D082
:102BF0002B00092231002000FFF780FD6368C82206
:102C00009C46D20067449446BB00DB199B01634499
:102C10002268F3180A325200D35E013305D02B002C
:102C20000A2231002000FFF769FD01350B2D00D08D
:102C300073E76BE7B8BA00205C061210B4BA002044
:102C40005CAE0F100023C2612122816183540360B6
:102C500043608360C360034B03610223FF338382BD
:102C60007047C04601000101F0B545464E46DE46BC
:102C700057465368E0B59846146805008946634B8B
:102C800085B0A04500D1BEE09B461A6800230F27FF
:102C90009A465F4E02E00434A04567D02368596B22
:102CA0009142F8D10397029770689A69844662440A
:102CB000019232685B699446E969634400930F228C
:102CC0000F23A86910311CF057FF002801D053468C
:102CD000AB742268039702977068936984466344D3
:102CE000019353693268E9699446634400930F2263
:102CF0000F23A86910391CF03FFF002801D053466C
:102D0000EB74226803970297716893698C46634459
:102D1000019353693268A8699446634400930F2273
:102D20000F23E96910381CF027FF002801D0534613
:102D30002B75226803970297716893698C466344E8
:102D4000019353693268A8699446634400930F2243
:102D50000F23E96910301CF00FFF002801D0534603
:102D60006B755B4604341A68A04597D1531E5942CF
:102D70004B41A421C8276868FF315B420B408100AA
:102D8000091828683F0146004846BC46890140189A
:102D9000841964441027E45F9C4201D10024AC7480
:102DA000F024E400A446801960441024005F984297
:102DB00001D10020E874A0200001844661448919F3
:102DC00049440C24085F984201D100202875142042
:102DD000095E994201D100236B750E4B59681B683F
:102DE000994206D005B0F0BCBB46B246A946A04603
:102DF000F0BD012AF6D1064A074B12689A42F1DA71
:102E000000236B75EEE71A68B0E7C0465CB300209C
:102E1000C8BA002040280020E1FEFFFFF0B5574669
:102E20004E46DE464546E0B54B680C6899B0060054
:102E30009A4605929C4200D1DEE0D04BD04D9B4695
:102E400003E00434A24500D1D6E023682A685B6B16
:102E50009342F6D112201CF04BFF0028F1D0337CB6
:102E6000002BEED00F2358462268F169039302939A
:102E70004068936984466344019353695A461268D3
:102E800010319446634400930F220F23B0691CF065
:102E900073FE002800D013E122680F235846F16921
:102EA0000393029340689369844663440193536992
:102EB0005A46126810399446634400930F220F2338
:102EC000B0691CF059FE002800D09CE022680F2356
:102ED0005946B06903930293496893698C466344E9
:102EE000019353695A46126810389446634400931C
:102EF0000F220F23F1691CF03FFE002804D020238D
:102F0000F35C022B00D13FE122680F235946B069E0
:102F100003930293496893698C4663440193536910
:102F20005A46126810309446634400930F220F23D0
:102F3000F1691CF021FE002883D02023F35C032BD1
:102F400000D07EE7002200212368586A98461B6A59
:102F50001491159200220690C71A1692984200D139
:102F600050E2884BB9469F4200D953E2380022F024
:102F700083F9424643460700526A1B6A06924A4654
:102F8000BA181692069A14971597934200D1C7E182
:102F900098465346A146B2464446079311E0012E97
:102FA00000D01FE21B783B7200237E608355A3692B
:102FB000BB61E3692034FB61069B2037A34200D14B
:102FC000AAE1380008303860236866689846002B0C
:102FD00000D13CE110960F2EE1D90022380010A953
:102FE00040F042F8109B3860BB603200414622F04E
:102FF0003DF9109E3868D7E719B0F0BCBB46B24621
:10300000A946A046F0BD2023F35C2268002B00D027
:103010005DE7576A9046126A0020B91A8C46002173
:1030200006970C900D910E93974200D1D6E1554B27
:10303000E1469C4500D9EDE1604622F01DF943468A
:1030400007001A6A5B6A06934B46FB180E93069BB1
:103050000C970D979A4200D104E15346A146B2461F
:103060001400079311E0012E00D0B3E11B783B72EE
:1030700000237E608355A369BB61E3692034FB6153
:10308000069B2037A34200D1E8E0380008303860C2
:10309000236866689846002B00D1CEE014960F2E68
:1030A000E1D90022380014A93FF0DEFF149B3860FC
:1030B000BB603200414622F0D9F8149E3868D7E749
:1030C0002023F35C012B00D0E6E6002200212368D8
:1030D000089109920022586A98461B6A0690C71AFE
:1030E0000A92984200D181E1264BB9469F4200D90D
:1030F00090E1380022F0C0F8424643460700526A89
:103100001B6A06924A46BA180A92069A08970997C5
:10311000934200D1D5E098465346A146B246444674
:10312000079311E0012E00D064E11B783B7200236D
:103130007E608355A369BB61E3692034FB61069B14
:103140002037A34200D1B8E0380008303860236847
:1031500066689846002B76D014960F2EE2D900228E
:10316000380014A93FF080FF149B3860BB60320028
:10317000414622F07BF8149E3868D8E7C8BA002090
:103180005CB30020E0FFFF7F002200212368586A23
:1031900098461B6A1091119200220690C71A12924B
:1031A000984200D132E19C4BB9469F4200D931E1AF
:1031B000380022F061F8424643460700526A1B6A13
:1031C00006924A46BA181292069A109711979A4296
:1031D00000D1D4E098465346A146B24644460793F0
:1031E00011E0012E00D009E11B783B7200237E60C4
:1031F0008355A369BB61E3692034FB61069B2037DB
:10320000A34200D1B7E03800083038602368666810
:103210009846002B1FD014960F2EE2D900223800BA
:1032200014A93FF021FF149B3860BB603200414677
:1032300022F01CF8149E3868D8E7002E00D117E75A
:10324000764834F0E3FF002E00D170E7F8E7002E57
:1032500000D1A9E6F4E7002EC8D0F1E7079B564657
:103260004C469A4605980CA90D970BF057FF0D9BFD
:103270000C9F98469F420DD03B0038680833984217
:1032800017D0BB682037591C22F006F8B845F3D197
:103290000C9B98464346002B04D00E994046C91A11
:1032A00021F0FAFF22685E4B116B1960012313773E
:1032B0000DE62037B845DFD1EAE7079B56464C4676
:1032C0009A46059808A909970BF028FF099B089FC3
:1032D00098469F420DD03B0038680833984217D07B
:1032E000BB682037591C21F0D7FFB845F3D1089BA4
:1032F00098464346002B04D00A994046C91A21F04B
:10330000CBFF2268464B116B196000231377C4E58D
:103310002037B845DFD1EAE7079B56464C469A4628
:10332000059814A915970BF0F9FE159B149F984664
:103330009F420DD03B0038680833984217D0BB68D5
:103340002037591C21F0A8FF4745F3D1149B98461C
:103350004346002B04D016994046C91A21F09CFF21
:1033600023682F4A196B116002221A7769E520370A
:10337000B845DFD1EAE7079B56464C469A46059882
:1033800010A911970BF0CAFE119B109F98469F42FF
:103390000DD03B0038680833984217D0BB682037FF
:1033A000591C21F079FF4745F3D1109B98464346BD
:1033B000002B04D012994046C91A21F06DFF2268F3
:1033C000174B116B1960032313779EE52037B8451F
:1033D000DFD1EAE7002E00D14AE66AE600230027A3
:1033E000994631E6002E00D1DEE5FEE500220027F9
:1033F000914687E6002E00D199E6B8E6002E00D16E
:10340000F4E613E7002200279146B8E500220027E2
:103410009146D6E634F0DAFEE0FFFF7F645D0610E9
:10342000A4B3002070B5040014201CF073FC002825
:103430001DD0237C002B1AD0A37C002B00D078E079
:1034400001232022A354637413201CF063FC002882
:103450000CD05B4A1168CB0F5B185B1051685B00A6
:103460001360CB0F5B185B105B00536070BD1720BF
:103470001CF050FC00280BD0237C002B08D0E37CF0
:10348000002B4AD120230022E2541F3B6374DBE768
:1034900016201CF03FFC00280BD0237C002B08D00A
:1034A000237D002B5BD120230222E2541F3B637457
:1034B000CAE715201CF02EFC00280BD0237C002B23
:1034C00008D0637D002B3FD120230322E2541F3B11
:1034D0006374B9E73A4D6B681B070BD12B681B0768
:1034E00005D02023E35C022B50D0032B5BD00023BC
:1034F0006374A9E72023E65C012E3CD0002EEDD1B9
:1035000013201CF007FC431E98416B6801309C4659
:10351000012360446860637496E713201CF0FAFB93
:10352000431E9841264B01305A68944660445860C7
:10353000A8E713201CF0EEFB431E9841204B0130FE
:103540005A68101A58607BE713201CF0E3FB431EF7
:1035500098411B4B01301A68101A1860B4E7132009
:103560001CF0D8FB431E9841154B01301A68944655
:103570006044186097E713201CF0CCFB431E984171
:103580006B680130181A686066745DE713201CF0E0
:10359000C1FB431E98412B6801309C4601236044C7
:1035A0002860637450E713201CF0B4FB431E98415D
:1035B0002B680130181A01232860637444E7C04661
:1035C000C8BA0020F8B5314B04001B680E00022B6E
:1035D00032D0032B3AD0012B33D02023E35C0025DB
:1035E000032B02D82A4A9B009D58637C002B03D0F2
:1035F000284B1B78002B2ED02800E269A1691BF014
:1036000069FFA169E2690831681C1BF063FF21238F
:10361000E35C002B00D0F8BD2800E269A169083204
:1036200018301BF057FF2800E269A1690832083101
:1036300019301BF04FFFEEE7174B18681BF01AFD0F
:10364000CBE7164B18681BF015FDC6E7144B18683E
:103650001BF010FDC1E713201CF05CFB00280FD10C
:103660000A272821300020F03FF90800390020F017
:103670003BF940000428BFD0062804D02D18BBE732
:1036800006271821EEE70435B6E7C046E814002007
:103690003C600610E2BA002024B3002018B30020DA
:1036A00030B30020F0B54746CE46CD4E80B57768A2
:1036B000040038001D000F2331688DB0084303401B
:1036C0005842434107202374CB17984603405B18A8
:1036D000DB105B422360FB179C460340DB19DB10C9
:1036E0005B42636043465B0FC9180140C91A6346D9
:1036F0005B0FFF183840C01A0223FF336382A38296
:10370000B84BA1601B78E060002B00D0B7E0B64B4F
:103710001B78002B00D0B2E0002A00D1B4E0012ACF
:1037200061D129686A688C460020571A00210293EB
:1037300000900191624500D13BE1AC4BB8469F42FD
:1037400000D945E1380021F097FD2B686A689C4656
:10375000D31A070099464346FB1800970197029336
:10376000944504D04A466146380061F01DFC4F4440
:1037700001979F4F20006A463900FFF775FA0098BD
:10378000002803D00299091A21F086FD2123002286
:10379000E254626893009B189B019946D1232268EA
:1037A0005B005100B422984612014A445218BA18DC
:1037B0001023D05E404500D1A2E01223D25E4245E4
:1037C00000D19DE0A0231B019C464B4663445B183F
:1037D000FB1810215A5E424500D191E012229B5EF7
:1037E000434500D18CE02000FFF71CFE002200239F
:1037F0000892099308AB994600234A4668682968ED
:103800009360471A884200D175E0784BB8469F42D2
:1038100000D9DDE0380021F02FFD29680700686835
:10382000451A4B4608975F6043464A46FB1893602B
:10383000814203D02A00380061F0B6FB4B467F1965
:1038400020004946149A5F60FFF7E8FA08980028BC
:1038500004D04B469B68191A21F01EFD1CF066FA35
:1038600033689C46604454F079FB2123E35C002BD1
:1038700005D0637C002B02D0237C002B44D10DB0FB
:10388000C0BCB946B046F0BD29686B688C460020C4
:103890005F1A0021069204900591634500D18DE0E6
:1038A000524BB8469F4200D992E0380021F0E4FC28
:1038B0002B6807009C4662466B689A1A91464246FE
:1038C000BA180497059706929C4504D04A4661466B
:1038D000380061F069FB200046494F4404AA05976F
:1038E000FFF7C2F90498002800D17CE70699091A6D
:1038F00021F0D2FC77E7002300259846002790E7C7
:1039000021230122E2546EE754F032FB0A211FF01A
:10391000C3FF0529B3D101270422374B1F70374B52
:103920001A700023364A1360364A136054F020FBA5
:103930000C211FF0B1FF344B4D001F70334F013588
:103940003B687A68934200D07B60314A08951368DF
:1039500052689A423ED04A465968516058681AF0F7
:10396000FFFB010028001AF02FFE4B464A469860E4
:103970000023D3607B689C46BB689C4523D063468C
:1039800023CA23C36146126810311A6079600F237D
:103990003168CA171A405218121112013260726847
:1039A000D1170B409B181B111B017360002363741C
:1039B00065E70023002799469846CCE600220027B9
:1039C000914690467BE761463800FEF75BFBDEE7F9
:1039D00034F0FCFB00220F48110034F077FCC046A5
:1039E000C8BA0020E2BA0020DFBA0020FCFFFF7F47
:1039F0005C9613105C3E1110D9BA0020D2BA002098
:103A0000C0BA0020C4BA0020DEBA0020D0210020B5
:103A100040280020D45D0610F0B5C6469846012324
:103A200000B506AC80CCC3604346267808AC257848
:103A30000024C362099B076306770574046244622D
:103A4000846241618261046044600472436380BCAB
:103A5000B846F0BD094910B50C680722A4460B68AA
:103A6000DB1713406344DB105B4203604B68D917DC
:103A70000A40D218D2105242426010BDC8BA00208B
:103A8000F0B557464E46DE464546E0B51E0087B0C7
:103A9000103382460592882B39D813001033882BB7
:103AA00035D80B0198460023994601339B463300D5
:103AB0004E46994605E001239C460136E144102E0E
:103AC00025D04B46002BF6DB3300002446469846B3
:103AD000059D002D13DB5346DF6A300039681FF067
:103AE000DBFE002303934B4602935B4602010093E7
:103AF000380001234244091901951BF007FC0134E9
:103B00000135102CE5D14346B0461E00D3E707B07F
:103B1000F0BCBB46B246A946A046F0BD037C10B53A
:103B2000002B0ED0037F0021032B0BD98469074A99
:103B3000A446536844696344A44612686244FFF78C
:103B40009FFF10BD024A9B009958EFE7C8BA0020BA
:103B50004C600610F0B545465746DE464E46E0B589
:103B600043689246026889B0904601939B1A6E4A58
:103B70000D000C0005905B11934200D1D1E0002BA9
:103B800050D05A000392934200D9A6E04346EB1A64
:103B90000493039B002B4DD11E000293049B9C4673
:103BA00053461B6866449946534630005F684B464F
:103BB00008303060002B00D1A5E007970F2F00D907
:103BC00092E0012F00D0A8E01B78337200237760C9
:103BD000C35553469B69B3615346DB69F361A845FE
:103BE00000D198E008234344A14646461C00029FAA
:103BF0000DE03B60B368BB60736820347B60B369E1
:103C0000BB61F3692036FB612037AE421ED038001D
:103C1000083038603368A342EBD11022210021F034
:103C200025FBE9E7013303934346EB1A0493039B17
:103C3000002BB1D08022D20493426AD25B011800DB
:103C4000039321F019FB06000290A7E7029A4C4665
:103C50009446049B6344202292469A44019BAB42C3
:103C600020D02E005B1B9B46554608360EE02B608D
:103C7000A368AB60636820366B60A369AB61E369DE
:103C80002034EB61019B20359C420AD02800236838
:103C900008302860B342EAD11022310021F0E6FA60
:103CA000E8E7DA444346002B07D04246059B4046EE
:103CB0009B68991A019321F0EFFA029A51469446B3
:103CC0000398059B60441A605960986009B0F0BC85
:103CD000BB46B246A946A046F0BD4346CB1A049364
:103CE000124B18000393ACE70022300007A93FF005
:103CF000BBF9079B3060B3603A00494621F0B6FA41
:103D0000079F306862E7002F00D15FE7084834F072
:103D10007DFA054B92E7029B9DE7002F00D155E706
:103D2000EAE7044834F0A2FAFFFFFF03E0FFFF7F59
:103D3000645D0610B85D0610F0B5C64600B5456A6C
:103D4000836A04000E0082B09D4221D02800083012
:103D500028600B684F689846002B14D001970F2FEE
:103D60001CD8012F29D11B782B7200236F60C355FB
:103D7000B369AB61F369EB61636A2033636202B0DC
:103D800080BCB846F0BD002FEFD00D4834F03EFAAD
:103D90000A0020302900FFF7DDFEF0E700222800AE
:103DA00001A93FF061F9019B2860AB603A004146F0
:103DB00021F05CFA019F2868D7E7002FD5D0F5E7FE
:103DC000645D061008007047080070477047C046E1
:103DD000012A00D1016000207047C04608780A28F7
:103DE00004D00D38431E9841C0B270470020FCE754
:103DF000012A00D1016000207047C04608780A28D7
:103E000004D00D38431E9841C0B270470020FCE733
:103E10000B784078C01A43425841C0B27047C04640
:103E20000B780079C01A43425841C0B27047C0466F
:103E30001F230268012010B50C782340984003002E
:103E4000610989005218D06B1840431E9841C0B2D6
:103E500010BDC0461F230268012010B50C78234016
:103E600098400300610989005218106C1840431EE5
:103E70009841C0B210BDC0461F230268012010B592
:103E80000C78234098400300610989005218106C97
:103E90001840431E9841C0B210BDC0461F2302689F
:103EA000012010B50C782340984003006109890077
:103EB0005218106C1840431E9841C0B210BDC04645
:103EC0007047C046074B0C3010B50400994206D02D
:103ED00008003EF043FB431E98414042044020004E
:103EE00010BDC046C465061010B50400382121F08D
:103EF000D3F9200010BDC04610B5382121F0CCF90F
:103F000010BDC046012A03D0022A03D0002070470A
:103F10000160FBE70B680360F8E7C046012A03D0A5
:103F2000022A03D0002070470160FBE70B680360A2
:103F3000F8E7C046012A03D0022A03D000207047C8
:103F40000160FBE70B680360F8E7C046012A03D075
:103F5000022A03D0002070470160FBE70B68036072
:103F6000F8E7C046012A03D0022A03D00020704798
:103F70000160FBE70B680360F8E7C046012A03D045
:103F8000022A03D0002070470160FBE70B68036042
:103F9000F8E7C04610B5012A03D0022A03D000205A
:103FA00010BD0160FBE721F061F9F8E7012A03D0B9
:103FB000022A03D0002070470160FBE70CC90CC047
:103FC000F8E7C046012A03D0022A03D00020704738
:103FD0000160FBE70CC90CC0F8E7C046012A03D01A
:103FE000022A03D0002070470160FBE70CC90CC017
:103FF000F8E7C046F0B54F464646D646541E9146B1
:10400000E20F121952109046C0B5914231DA0F00FA
:104010007C1C6400651E42199246025D0619944696
:10402000425D624537D86246C255A04503DD270090
:10403000EEE756462C004A46D2071FD5621ED50F22
:10404000AD186D108C4209DC0DE002556C1EE20FBC
:10405000121952102C00A94205DA1500425D4619CA
:104060009A42F2D306193370E0BCBA46B146A8466C
:10407000F0BD4A464618D207F5D40C004D46023D25
:10408000EA0F521952109442D8D164000134025DF3
:1040900032700619D2E7C255A845CADD2C002700A8
:1040A000B6E7C0460122F8B517000D4C0E7823780C
:1040B000BFF35B8F1F401A4206D00A4D2878801B41
:1040C000431E9841C0B2F8BD200021F055FD054DBA
:1040D0000028F3D020002F7021F06AFDEEE7C046E3
:1040E000982C0020D6BA00200122F8B517000D4CFC
:1040F0000E782378BFF35B8F1F401A4206D00A4D1B
:104100002878801B431E9841C0B2F8BD200021F0E2
:1041100033FD054D0028F3D020002F7021F048FD1D
:10412000EEE7C046942C0020D5BA0020F8B5CE4664
:1041300047460B1A80B5060017008C469946102B8F
:1041400066DD431C9846002A47D0634661469A1BA9
:10415000D30F9B185B10F2187078F35C01390C7860
:10416000013F98421DD2A34231D3A0421DD33378E0
:10417000307073700A7863464446013B217825000D
:10418000814203D20134F9E7013B1A788242FBD81D
:10419000A3420FD92270013B597030781A7801344C
:1041A000ECE7A042E3D3A34211D2327834700A7014
:1041B0003078E0E73A0061462000FFF7B7FFA31B25
:1041C0009946102B24DD002F08D0A446BDE7307897
:1041D0003370107030780A78CDE70D004B469C1E86
:1041E000641000E0013C4A4621003000335DFFF7D7
:1041F00001FF002CF6D1013D3278AC1B2B78002159
:104200002A7030002200FFF7F5FE013D012CF3DC9F
:10421000C0BCB946B046F8BD70B588420BD00200AC
:104220004E1E03E01C785D78A54206D013000132D3
:1042300010009E42F6D108000FE08B42FBD09A1C82
:104240008A4201D109E01C781578A54201D05D7041
:10425000013301328A42F6D1581C70BDF8B5CE4602
:104260004746050080B5814229D050C90368371BF5
:1042700099464A4683689B1A9C469F4223D84B46E0
:104280004268D11A8F4241D8002F16DDB9108B0039
:104290005B181A019B181A029B181A049A184B46AD
:1042A000520052182168013A196061685960217AF8
:1042B0000C3419720C33002AF4D14F446F60C0BC27
:1042C000B946B046F8BD002F4AD0284B9F424AD885
:1042D000380020F0D1FF2B68804699464A46AB68EB
:1042E0009B1A9C464346A64203D007CC07C3A6426E
:1042F000FBD14B46002B03D06146484620F0CCFF53
:10430000434647442B60AF606F60D8E763180029CD
:1043100022DD89108C4689006144080180464144B1
:1043200008028046414408048046414449008C44C8
:1043300049462068086060684860207A0C3408723A
:10434000012040428046C44460460C310028F0D130
:104350009E42B2D013CB13C29E42FBD14F44ADE775
:1043600000239846BEE733F031FFC046F8FFFF7FD9
:1043700070B50C00220009680832050003689142FC
:1043800018D0083083420DD029606168A868696040
:10439000A168A960002B0AD02360A060002262609F
:1043A0001A7070BD636829606B60A368AB6013000E
:1043B0002260F3E76268002A06D0012A09D01800BB
:1043C00020F054FF62682B6800216A6099542368CA
:1043D000E4E7227A1A7062680368F5E7F0B5D6461A
:1043E0004F46464694229821C0B583584158040050
:1043F00082B08B4200D1EBE0591C81501D789C2388
:10440000C058461933001E33FF33197800290BD1E9
:104410000368704A1B6A2900934200D086E0002995
:1044200002D01E36FF3631708823E2581378002BF5
:1044300004D12AE093780232002B26D09942F9D198
:10444000622D15D17C23E35C022B11D0842318222A
:104450002000E250143B0093A030002142686F3BE3
:104460003EF05EFF02B0E0BCBA46B146A846F0BDE1
:10447000842301212000E1505378A03000930021D3
:10448000012342683EF04CFFECE7622DDED0422D66
:1044900050D020232A009A43442A3BD024232A00C8
:1044A0009A43532A36D0632D51D0782D5ED0752D86
:1044B0005CD09C23E3589B695B5D5B0700D484E080
:1044C00026000095A03601237268002130003EF0DE
:1044D00027FF94239822E358A2589A4216D09C2290
:1044E0000427904694250AE05A1C6251197830003E
:1044F0003EF0F4FE98226359A258934206D04246F9
:10450000A1581A7889698A5C1742EDD18423042264
:10451000E250A7E784230E2220000095A030E2504D
:1045200000214268833B3EF0FBFE9BE70022984758
:10453000010074E7842318222000E250163B009308
:10454000A030002142686D3B3EF0EAFE8AE79422EB
:104550009821A35861588B423AD0842101206050A1
:104560002000591CA1501B78A03087E7A023984653
:10457000A044002342465360A022783D2E00A2585A
:1045800000251370731E9E4198239A460433942786
:104590009946760002365246E359A258934217D004
:1045A0004A46A1581A7889698A5C442111420FD081
:1045B0005A1CE2514046197801353EF08FFEAE425A
:1045C000E9D184230322E2504CE784230122A3E7AC
:1045D00052F068FDC93D001070B505000E0082B0B4
:1045E00000291DD0541A01940F2C0BD80068012CFF
:1045F0001BD10B780370019C286800236C60035565
:1046000002B070BD002201A93EF02EFD019B286082
:10461000AB602200310020F029FE019C2868ECE705
:10462000002A05D100240068E7E7002CE5D0F0E778
:10463000014833F0EBFDC046645D061070B506001E
:10464000343021F031FCB46AF56AAC4203D111E098
:104650001834A5420DD023680B2BF9D12369002B08
:10466000F6D0200008300322010018349847A542F4
:10467000F1D1B56A002D04D0336B2800591B20F00E
:104680000BFEF068002803D07169091A20F004FEBF
:1046900070BDC04670B5047900680D7834F048FDEF
:1046A000036829001B699847201A43425841C0B249
:1046B00070BDC04670B5047900680D7834F038FDDF
:1046C000036829001B699847201A43425841C0B229
:1046D00070BDC046F0B5DE4657464E464546E0B58D
:1046E00083B00190002876D0019BDB689946002BAF
:1046F00068D04B46DB689A46002B59D05346DB689E
:104700009B46002B4AD05B46DC68002C32D0E56823
:10471000002D1DD0EB689846002B22D04346DE6862
:10472000002E31D0F768002F09D0F868FFF7D2FFCC
:104730003800BF68182120F0AFFD002FF5D1B76811
:104740001821300020F0A8FD002F1DD03E00E9E721
:10475000A5681821200020F09FFD002D0AD02C0014
:10476000D5E7AE681821280020F096FD002EEFD086
:104770003500CFE75B469C681821584620F08CFD39
:10478000002C0BD0A346BEE743469E681821404646
:1047900020F082FD002EE4D0B046BFE753469C686F
:1047A0001821504620F078FD002C01D0A246A5E744
:1047B0004B469C681821484620F06EFD002C01D025
:1047C000A14696E701981821846820F065FD002C29
:1047D00001D0019488E703B0F0BCBB46B246A946BD
:1047E000A046F0BD70B5040000680D7834F0A0FC60
:1047F000036829001B6998470500206834F098FC7D
:1048000003680A211B6998470600206834F090FC71
:1048100003680D211B699847AE4204D0401B431E1C
:104820009841C0B270BD0020FCE7C04670B50400DE
:1048300000680D7834F07CFC036829001B699847F8
:104840000500206834F074FC03680A211B6998474E
:104850000600206834F06CFC03680D211B69984742
:10486000AE4204D0401B431E9841C0B270BD002030
:10487000FCE7C046F0B5DE4657464E464546E0B535
:10488000BFB007AB0200019105A801219A4605932C
:104890003EF008FC1CA833F00FFE1C220025B423B8
:1048A00004A98918CD5004A989180433CD5204A94C
:1048B00089180433CD5004A989180433CD5004A9B4
:1048C00089180433CD5004A989180433CD50654BA1
:1048D000654F59689B680B9102910C390E0000934B
:1048E00004AB09689B18009A1C975A500C953368C2
:1048F0000BA89C460021604433F0CAFD5B4C14A811
:10490000230014331C935A4B0E959B460D930F9521
:1049100010951195129513950B9422F0DBF8554BD9
:1049200018AA99460D93059B15959046069D0393ED
:104930001692002B6AD004950F2D58D8012D00D067
:1049400086E01C201A78342304A90918CA54434667
:10495000002217955A5508231593169B0DA803930B
:10496000039900233EF04AF91CA80DA933F090FDED
:104970000598504504D0079B591C039320F08CFCEC
:10498000019B082B48D0102B54D005A90BA833F05D
:10499000AFFE0523219A01921A425FD1059D4B4635
:1049A00016980B9414341C940D93404504D0189B16
:1049B000591C019320F070FC5B4614A80D9321F064
:1049C00073FA1C21029B04AA0B93521833680099B6
:1049D0001CA8D15000231C970C9333F0ABFD28008A
:1049E0003FB0F0BCBB46B246A946A046F0BD00228F
:1049F00004A916A83EF038FB049B169018932A00D1
:104A0000039920F033FC049D169BA1E71300002DB1
:104A10009ED0194833F0FAFB0B9B0C3B1A680BAB8A
:104A20009C464A236244D16899430B0040210B43C2
:104A3000D360AAE70B9B0C3B1A680BAB9C464A233E
:104A40006244D16899430B0008210B43D3609CE773
:104A50001300002D00D17BE71000D0E701256D4247
:104A60009DE7C046B091141034891410CC911410F5
:104A70007C92141050911410645D0610F8B5144D1A
:104A80000F782B780400BFF35B8FDB070DD5114E39
:104A9000206834F04DFB036839001B699847337870
:104AA000181A421E9041C0B2F8BD280021F064F8E7
:104AB0000028ECD0206834F03BFB036800211B6920
:104AC0009847044E3070280021F072F8E0E7C046A5
:104AD0009C2C0020D7BA0020F8B5144D0F782B7805
:104AE0000400BFF35B8FDB070DD5114E206834F057
:104AF0001FFB036839001B6998473378181A421E58
:104B00009041C0B2F8BD280021F036F80028ECD062
:104B1000206834F00DFB036800211B699847044EA0
:104B20003070280021F044F8E0E7C046A02C0020B7
:104B3000D8BA0020F8B5CE4647461400060080B526
:104B40001820884620F098FB236805001F68002382
:104B50004361331D44469946076143453CD0236970
:104B60009F4217DAF3689846A34208D0200022F04B
:104B700059FF03699F4250DDC368002B42D00120DA
:104B80004B462200290022F069FF73692800013397
:104B900073611DE09F4216DD3369434536D04046C0
:104BA00022F02AFF03699F425ADAE368002B2DD0D6
:104BB00004000120E4E7230000293ED1974202DDF2
:104BC0000024002B4AD12800182120F065FB20008A
:104BD000C0BCB946B046F8BD7369002B03D0346938
:104BE00023699F420FDCB468002C05D124E0012129
:104BF000A368002BDFD01C0022699742F7DB00215D
:104C0000E368F6E704000120A145B9D0236901203B
:104C10009F4200DB0020C0B2B2E7B468002C05D18F
:104C20002FE00121A368002B11D01C0022699742BC
:104C3000F7DB0021E368F6E74446F368A3421ED0A1
:104C4000200022F0EFFE230002690400B6E72300F3
:104C50000029B3D04346A045F2D1B1E71C00D2E70A
:104C6000B468002C05D10EE00121A368002BA2D06E
:104C70001C0022699742F7DB0021E368F6E7230076
:104C80009EE74C46E6E74C46D7E7C04600230122A4
:104C90008360C36003614361037042600385836185
:104CA000C361036243627047334B70B51A780400E6
:104CB000002A13D02822825C002A10D12925425DC7
:104CC000002A23D001212D4A1170E269772A14DCD1
:104CD0002B490978042910D00432E26170BD2922E1
:104CE000825C002AEED1E369582B2BDD244A12782E
:104CF000042A27D0043BE361F0E700221A706369BD
:104D00002285203B6361DB699847E7E712201AF0B0
:104D1000EFFF00281AD1626963685268934201D29A
:104D20000133636012201AF0E3FF00281ED02378BD
:104D3000002B1BD163695B686360012BCED9002314
:104D40002370CBE728230022E254C7E76169636838
:104D50004A689342E2D10A00E068203262618242EE
:104D600006D001234A6A63602370D7E76368E4E7EB
:104D7000012262554A6AD1E7E2BA0020DCBA00207B
:104D8000D2BA0020F0B5C64600B54C4B04001B78E3
:104D900088B0002B65D02923C35C002B65D1283354
:104DA000C35C002B61D1C3684269934259D0202370
:104DB00078225821002019F033F9414B04AF1A78BA
:104DC000404B1978404B18780F231AF0DFF86369CD
:104DD0000297196862685D68884695424AD84346DA
:104DE000002B59D001950F2D46D8012D60D13A00E6
:104DF0001B7802AE337200233000756004215355D6
:104E00005C226C331AF000FE0298B84203D0B168FD
:104E1000013120F041FA636962685B689A4220D1EF
:104E20001AF084FF962189001EF05EFD96235B0038
:104E3000994238D3712470256F266E2108226A208A
:104E40001AF05AF9062231006B201AF055F90422A3
:104E500029006C201AF050F9022221006D201AF06E
:104E60004BF908B080BCB846F0BD18340FCC19F02F
:104E7000D7F8F6E71500B2E702AE0022300001A92C
:104E80003EF0F2F8019B0290B3602A00414620F008
:104E9000EDF9019D029AAEE73A0002AE002DAAD0CC
:104EA0000A4833F0B3F97224712570266F21C5E7E3
:104EB0003A0002AE002D9ED03800E6E7E2BA0020AC
:104EC000F2140020F3140020F4140020645D061096
:104ED0000368F0B54E46454657469946DE46E0B56E
:104EE00017004A46436885B003939B1A5B4A804685
:104EF0000E000D005B11934200D1ACE00124002BA9
:104F000003D05C00A34200D999E04B46F31A00930A
:104F1000002C48D100239B4620340293082294465B
:104F2000009BBC445B441800624608309A461860F7
:104F30003B680192634500D188E0524613605346B6
:104F4000BA689A6053467A685A60019BBA693B60B6
:104F500000237B603B7253469A61FA69DA61B1457E
:104F600034D008234B449A462B005C4655464F46A6
:104F70009A460DE02360BB68A3607B6820356360C0
:104F8000BB69A361FB692037E3612034B74219D0C4
:104F90002000083020603B68AB42EBD11022290092
:104FA00020F064F9E9E78023DB049C424CD26401E1
:104FB000200020F061F92300834604005B44029343
:104FC0002034ABE75546009C20345C44039BB3423D
:104FD0001DD037009E1B0837A6190DE02360AB6873
:104FE000A3606B6820376360AB69A361EB69203510
:104FF000E3612034B4420BD020002B6808302060DD
:10500000BB42EBD11022390020F030F9E9E726004D
:105010004B46002B06D043464A469B684846991AA1
:1050200020F03AF943465A461A60029A5E609A6046
:1050300005B0F0BCBB46B246A946A046F0BD4B4603
:10504000CB1A074C0093B3E7044CB0E7102261463B
:1050500020F00CF976E7034833F008F9FFFFFF036F
:10506000E0FFFF7FB85D0610F8B5FC230E00CB58BB
:10507000FC369C46736805000C009C4509D06046D0
:105080000C382B000200E434C2CAC2C3A06128005D
:10509000F8BD0200F368E434043B1B68ED33FF33D2
:1050A00083CB83C2FC216046490020F0F5F8636A97
:1050B000043BF3601B681A007360F932ED33FF3272
:1050C000FF33B260A361E2E7036810B504000B2B65
:1050D00001D0200010BD0369002BFAD00830032254
:1050E00001009847F5E7C046F0B5CE464746942202
:1050F00080B583580400591C81501D789C23C058EA
:1051000083B0461933001E33FF33197800290BD1C1
:105110000368574A1B6A2900934200D09DE000298A
:1051200002D01E36FF3631708823E3581A78002AE1
:1051300004D116E09A780233002A12D08A42F9D1BB
:10514000842201212000A1505B78A030009300212F
:10515000012342683EF0E4F803B0C0BCB946B04653
:10516000F0BD9C2304279846E3589B695B5D1F4272
:105170007BD02B00383B012B77D926000095A03639
:1051800001230021726830003EF0CAF89421982271
:105190006358A2589A4246D0404620581A788069EF
:1051A000805C07423FD0383A012A3CD95A1C6250F1
:1051B0001B78270099467368A83798465D1CA02382
:1051C000E358BB424DD0B268954230D8424649467A
:1051D0009954A02100239420625875605355983348
:1051E0002258E3589A421ED09C2565591378AD6920
:1051F000ED5C6D0717D5383B012B14D9531C235098
:1052000013789946736898465D1C6358BB422AD050
:10521000B268954216D8424649469954A0230022C6
:10522000E35875605A5584230222E25094E7012323
:10523000002200934146002330003DF091FFA0235F
:10524000E358C3E7012300220093414600233000C6
:105250003DF086FFA023E358DDE7002298470100D8
:105260005DE70F22B0E70F22D3E751F01BFFC046E6
:10527000C93D0010F0B5C6469423982200B5C35826
:105280008258040082B0934258D01D788C23C758AE
:105290001033C058461933001E33FF3319780029E4
:1052A0000CD10368264A1B6A290098462B009045BA
:1052B0003FD1002B02D01E36FF363370380053F03A
:1052C000FBF8002802D00378002B10D18023E2588D
:1052D00013422AD190235B001A4208D0843BE35842
:1052E0009A690423525D134201D0302D12D120005F
:1052F00084230122A0300095E25000214268833BC4
:105300003EF00EF89422A3580133A35002B080BCA3
:10531000B846F0BD200084220095A030A3500021A3
:105320004268033B3DF0FCFFECE72000FFF7DCFEAA
:10533000ECE70022C04703000100BAE751F0B2FEDB
:10534000C93D0010F0B5C646942200B5835804004C
:10535000591C81501D788C23C7581033C05882B017
:10536000461933001E33FF33197800290DD1036825
:105370007A4A1B6A290098462B00904500D08EE09F
:10538000202B02D01E36FF363370380053F094F8CD
:1053900000286CD05C2D43D0282D2FD0292D62D031
:1053A0005B2D00D180E07B2D56D0DF232B405D2B81
:1053B0005DD09C23E75826007B191E33FF331B78F2
:1053C000A846002B00D0A4E03B68644A1B6A9342C5
:1053D00000D0ACE0002D03D047441E37FF373D70AE
:1053E0002378002B04D117E0337A0836002B13D032
:1053F0009D42F9D184237268E2500DE08023E35886
:10540000DA0604D59421625810783F2865D09B07AE
:105410001ED484230522E25002B080BCB846F0BD01
:1054200094239822E358A258934200D194E080221A
:10543000A158A032114226D01A781100283901292A
:1054400001D97B2A1FD19422591CA1501D78A3E7B2
:1054500084230622E250DFE77C230122E254083352
:105460000B32E250D8E784230822E250D4E7200030
:10547000842301220095A030E25000214268833B42
:105480003DF04EFFC8E7BC23E058C3071FD5B82343
:1054900040102018E3580268D3589847BCE72022F0
:1054A000C047030001006BE77C2302229821E254ED
:1054B0001433013AE2549332A35861588B4202D01C
:1054C00019785E2927D084230922E250A4E7B82363
:1054D0004010E358201898479EE79820531C6350CB
:1054E0002058834238D053783A2B1AD03D2B24D001
:1054F000212B31D102326250072220006333E25067
:10550000163B0093A030002142686D3B3DF008FF40
:1055100082E71D0064E70A20263101336050A35062
:105520007AE70232625006224A33E25074E72900D9
:1055300000223800984705004CE7023262500722EB
:1055400020004733E250143B0093A0300021426812
:105550006F3B3DF0E5FE5FE751F0A4FDC93D001053
:10556000F0B54E464546DE4657469822E0B59425AE
:105570009146435982580400944683B0934200D127
:1055800084E09C215E1C46514158042007001A7893
:105590008969895C0F40B846084222D12C2A1CD068
:1055A00080216058A03107000F40084266D05C2A75
:1055B0006CD1B4456AD05A787D2A67D14146013A08
:1055C000A1540D2108320233A150635103B0F0BC45
:1055D000BB46B246A946A046F0BD8423133AE2502A
:1055E000F4E7260084231A21A0360092E150726865
:1055F000833B002130003DF093FE4A466359A25898
:105600009342E3D09C229246983A9146903290463B
:105610000CE05A46DA55A02375600022E3585A552B
:1056200043469832E358A2589342CFD05246A158ED
:105630001A7889698A5C49461142C7D041465A1C8A
:1056400062501B7822009B46A0237768E358A8325B
:105650007D1C934210D0B2689542DAD90123002212
:1056600039000093300000233DF07AFDA023594615
:10567000E258D1557560D0E70F22EDE77D2A05D1BC
:105680007C23703AE7540833E2509FE751F00AFD5B
:10569000F8B5574645464E46DE460368E0B54768CE
:1056A0009246344A9946FB1A050088469B1093425D
:1056B0005CD00126002B02D05E00B34250D8434696
:1056C0004A469C1A002E1BD100239B4652465B463D
:1056D00012681A51002C23DC434604345C44FF1A40
:1056E000002F30DC4B46E719002B35D15B466F604D
:1056F000AE602B60F0BCBB46B246A946A046F8BDE2
:1057000080239B059E422FD2B60030001FF0B4FDCF
:10571000834652465B4612685E441A51002CDBDD1C
:105720002200494658465FF03FFC434604345C443F
:10573000FF1A002F07DC4A46AB68E719991A48465A
:105740001FF0AAFDD2E73A00414620001FF08EFD6F
:105750004B46E719002BC9D04A46AB68991AEEE7C9
:105760004A46054E8C1AD0E7024ECDE7034832F088
:105770007DFDC046FFFFFF1FFCFFFF7FB85D0610E9
:10578000F0B5DE464E4657464546A022E0B5060037
:1057900000238258A0367360137098229433C35844
:1057A000825804008B4685B09A4249D0942189469C
:1057B0000C31884608318C468444614603910CE0E4
:1057C0005246DA5542460023A258756053554B465F
:1057D0009822E358A258934232D0197859451BD0E9
:1057E00049465A1C62501B7877689A464346039A8A
:1057F000E3587D1C93420DD0B2689542E0D9012355
:10580000002200933900002330003DF0A9FC4346FC
:10581000E358D5E70F22F0E79421581C60501D781B
:105820005D450DD182420BD09A1C62505B785D2B96
:1058300006D105B0F0BCBB46B246A946A046F0BDB5
:1058400051F030FC9421982230B54358855804001B
:1058500083B0AB425DD0581C60501A782D2A2FD0EF
:105860005B2A14D05D2A2FD05C2A19D18021902385
:105870006158194214D02C33E058C30733D5B823EC
:1058800040102018E3580268D358984713E0854227
:105890003FD058782E2836D03A2837D03D2828D007
:1058A000200084230121A0300092E15042680021B1
:1058B000833B3DF035FD90230022E25403B030BD20
:1058C0008423113AE250F6E78023E358DB0603D441
:1058D0009023E35C002BE3D184230B22E2500022CF
:1058E000083BE254E7E7B8234010E35820189847F4
:1058F000E1E784222C38A0509A1C6250200059788D
:10590000FFF73EFFD7E729321E38F4E784222B3811
:10591000F1E751F0C7FBC0469423C2580433C35883
:1059200010B59A420ED07C23C35C002B04D0022B0E
:1059300005D0012B0AD010BDFFF704FDFBE7FFF7F0
:1059400081FFF8E784231B22C250F4E7FFF708FE2B
:10595000F1E7C046F8B504002A2558204746CE4650
:10596000A561163DE56117352562163D65622A354C
:10597000A5622D3DE56201356563E5636564434DD0
:105980008046A564424D0630E564424D20602565A1
:10599000414D48386565414D6060A565404D0E300C
:1059A000E565404DA06025663F4D0D3865663F4D6D
:1059B000E06017307C262061A56600206C2580B54C
:1059C0000A272663A763606120646053384DA044B2
:1059D00025673848384F6067A767B9460027A7553D
:1059E0000436A351DF0636D52300882048332350E0
:1059F00028008C230025E0500433E5540433E150A3
:105A00000433E2502D4820F06DFC089B1B685A6857
:105A10009B68984237D280008358002B33D09C2259
:105A2000A35023000432A833A350083B5D60A82391
:105A3000E554283BE358DB061FD421490022BC2350
:105A4000E250043B2000E150FFF766FF2000C0BC9D
:105A5000B946B046F8BD8825474667519D06C8D46B
:105A600048465D06C5D4DD0509D49D0509D43340FB
:105A70005D1EAB415B421840BBE71249DEE71248AE
:105A8000B7E71248B5E732F0B1FBC0463000620814
:105A9000660C6E0A720D7409760B000022222F2FFD
:105AA0005C5C61076208660C6E0A720D7409760B05
:105AB0005C6006107C6006106C60061074B10020FB
:105AC00075520010DD4300109460061084600610CB
:105AD000F0B5C6460368140082680500D61AB010F7
