:020000041000EA
:1000000000B5324B212058609868022188439860DF
:10001000D860186158612E4B002199600221596106
:100020000121F02299502B49196001219960352056
:1000300000F044F80222904214D00621196600F024
:1000400034F8196E01211966002018661A6600F04E
:100050002CF8196E196E196E052000F02FF8012189
:100060000842F9D1002199601B49196000215960AB
:100070001A491B48016001219960EB211966A021F2
:10008000196600F012F800219960164914480160C1
:100090000121996001BC002800D000471248134993
:1000A000086003C880F30888084703B5996A0420EC
:1000B0000142FBD001200142F8D103BD02B5186610
:1000C0001866FFF7F2FF186E186E02BD00000240BE
:1000D000000000180000070000035F00212200005C
:1000E000F4000018222000A00001001008ED00E03C
:1000F00000000000000000000000000074B24E7A12
:1001000000200420F7010010C3010010C5010010F9
:10011000C1010010C1010010C1010010C101001097
:10012000C1010010C1010010C1010010C701001081
:10013000C1010010C1010010C9010010CB01001065
:10014000CD010010CD010010CD010010CD01001037
:10015000CD010010CD010010CD010010CD01001027
:10016000CD010010CD010010CD010010CD01001017
:10017000CD010010CD010010CD010010CD01001007
:10018000CD010010CD010010CD010010CD010010F7
:10019000CD010010CD010010CD010010CD010010E7
:1001A000CD010010CD010010CD010010CD010010D7
:1001B000CD010010CD010010CD010010CD010010C7
:1001C00000BE00BE00BE00BE00BE00BE00F04BF888
:1001D000103800BEF2EB8871648411108084111015
:1001E0003402001090A31AE700202149086006C8D5
:1001F00081F3088810471F48006800282FD10DA4FC
:100200000ECC002902D000F012F8F9E71A491B4A77
:10021000002000E001C19142FCD1194988471949E9
:1002200088471949884700BEFDE701C901C29A42C3
:10023000FBD3704780841110C0000020B82000203C
:1002400078A41110000004200000042078A41110EC
:1002500000100420001004200000000070470B482C
:1002600021F0B0FD0047EFF30580C0B270470000F9
:1002700008ED00E0000000D0B8200020DCBA00202B
:10028000D9000210C5CE011001020210575600001D
:1002900006005250ABB3605380C510100600525098
:1002A000861C0302DC4F0610060052505422A29D09
:1002B00090C5101005005250DE65F46878A4111046
:1002C000F8B5C04610B5064C2378002B07D1054B76
:1002D000002B02D0044800E000BF0123237010BDB2
:1002E000502A00200000000058350610044B10B5BD
:1002F000002B03D00349044800E000BF10BDC046F6
:1003000000000000542A0020583506107047C046EF
:10031000084B70B550CBB4420BD0606825681CF018
:10032000E7F9010028001CF017FCA0601034A64279
:10033000F3D170BD40280020F0B5DE4657464E464A
:100340004546E0B58DB06A46436808AF0833DB0820
:10035000DB00D31A9D4608AC0168200056F01CFC57
:1003600023783A2B03D0637801343A2BFBD165789C
:10037000642D00D19CE004237B6006230134BB6024
:100380006F2D00D1AEE0622D00D1B8E0EE231B014D
:100390009B46002D73D0674B1B78002B00D083E069
:1003A000654B1B78002B00D07EE025782A00303A80
:1003B000092A6CD800218B0059186578490051181A
:1003C0002A00303A0134092AF5D900295FD058466D
:1003D00021F02AFD0023613DEDB29846F860062D1C
:1003E00002D8564B5B5D98466578232D55D0013475
:1003F0002E2D09D1FA6865789446D30F63445B10BB
:100400009C4463460134FB602B00BA68303B914644
:10041000092B03D8DBB29946657801342C2D01D124
:10042000657801344346002B33D0454B9A46454B03
:100430001B785BB20793F86822F00AF8424A434BF4
:1004400021F08DFF22F040F84A46043A53009B18F1
:100450009B003F4A434406905B009B5E6A460593BF
:100460005346103343CB43C203CB03C253460FCB97
:100470001CF098FEF8681DF035FF002D8BD1BD46AD
:1004800005B0F0BCBB46B246A946A046F0BD7968AF
:100490009DE7F8681DF026FF7BE743460133DBB29A
:1004A000A57898460234A3E70023224A1370E6E7B2
:1004B000E178E01C3039092938D800239A00D31894
:1004C0005B000130CB18017830390929F6D9002BAF
:1004D0002CDDDBB27B6006234578441CBB606F2DAE
:1004E00000D050E7A3781A00333A042A02D8303BF0
:1004F000DBB2BB6025790434622D00D046E7A278D8
:100500000021303AA01C092A08D88B00591849004C
:10051000013051180278303A092AF6D94578441C3E
:100520000C4821F081FC83009B4632E704237B606A
:10053000D1E7C046D1BA0020D8BA00200C4406103A
:100540008C9D0020F9140020CDCCCCCCCCCCEC3F41
:100550007C12002060EA0000F0B54546DE465746B2
:100560004E469E4BE0B598469D4BADB09B4604AFC2
:100570000AAE10AD9B4C002226A902A82694029731
:1005800041F03AF822000024269B41460493029051
:1005900023F034F9269B029A0393D454924B019290
:1005A0009946002226A908A82693089641F024F827
:1005B000269B4A468D490A93089023F01FF9269BF3
:1005C000089A0993D4548A4B01929946002226A98D
:1005D0000EA826930E9541F00FF8269B4A468549B2
:1005E00010930E9023F00AF9269B0E9A0F93D45481
:1005F00016AB1493F423019226A9002214A8269383
:1006000040F0FAFF269BF42259461693149023F0EB
:10061000F5F8269B149A1593D45401921DF04EFEC2
:10062000754B984229D9754B1B78032B6CD047D852
:10063000022B22D01CAB99461A930E9B0F9C9A4614
:10064000002B00D1AEE026940F2C00D99BE0012CAA
:1006500000D0B3E068211B7802AA521813704A46F2
:1006600000231B941AA81355FFF766FE1A984845F5
:1006700003D01C99013123F0D7F8149816AB984297
:1006800004D0169B591C019323F0CEF80E98A84273
:1006900004D0109B591C019323F0C6F80898B0426F
:1006A00004D00A9B591C019323F0BEF80298B8426B
:1006B00000D15FE7049B591C019323F0B5F859E77B
:1006C000042BDAD128AB99462693089B099C9A46BD
:1006D000002B70D020940F2C46D8012C79D1982172
:1006E0001B7802AA521813704A460023279426A8A2
:1006F0001355FFF721FE26984845BED0289B591C6C
:10070000019323F091F8B8E722AB2093149B159C3A
:100710009946002B4AD026940F2C16D8012C53D181
:1007200080211B7802AA5218137022AA0023219458
:1007300020A81355FFF700FE209822AB98429CD0CA
:100740002299013123F070F897E7002226A920A80A
:1007500040F052FF269B209022932200494623F02E
:100760004DF8269C209AE1E7002220A926A840F017
:1007700043FF209B269028932200514623F03EF809
:10078000209C269AB1E7002226A91AA840F034FF3F
:10079000269B1A901C932200514623F02FF8269C8A
:1007A0001A9A5DE7002C03D14A4659E7002CBCD0C9
:1007B000134835F0F3FF002C96D0F9E74A46002C99
:1007C00000D14DE74846E6E722AA002CAED0100043
:1007D000C3E74A46002C88D04846CDE75835061076
:1007E000FC4106105D030000D6040000B838061076
:1007F0006A040000903D0610DC050000CABA002023
:10080000F4420610F0B5DE4657464E464546E0B582
:10081000584B83B01B6801200193002B06D003B016
:10082000F0BCBB46B246A946A046F0BD00220F333D
:10083000002100201CF072FE4F4B4F4A1B6800271E
:100840000193013313600F22904600229346FAB2BF
:100850000F2591469F4200DB85E05B46DB009A4610
:100860001E005C46FF0001343100082308223800D6
:1008700064B21CF0ABFF0836A542F4DC4F460137EA
:100880007FB2474547DA6B1E5BB20193DB009946A6
:1008900043463C00A846FE004D46B9461F000134C1
:1008A000300008230822290064B21CF08FFF0836AC
:1008B000A742F4DC45460123B846023D5B4243446F
:1008C0006DB24F4699465D4511DBB8465F465CB256
:1008D000E400EE00013D31000823082220006DB243
:1008E0001CF074FF083EAF42F4DDBB4647464B4662
:1008F0005BB29846019B9B453ADB78237822002126
:1009000000201CF063FF96201DF0ECFC0123194A27
:100910000120136083E7013D6DB25D45EDDD0123EC
:100920005B4243445CB2E600A7420DDCA946554653
:10093000013C300008230822290064B21CF046FF65
:10094000083EA742F4DD4D465B4601335BB29B4651
:100950004745D2DAAB45D0DA074BFAB21B6891466D
:100960009F4200DA79E732201DF0BCFC002056E7F8
:100970001D00D4E7BCBA0020B8BA0020F0B5DE46AE
:1009800057464E4645460022504BE0B51A70504B34
:1009900004001B7887B0042B10D84E4A9B00D35814
:1009A0009F464D4D4D4A4E4B106821001B682A68EA
:1009B0000FF082F82100286802F026FF07B0F0BC93
:1009C000BB46B246A946A046F0BD464B1B78002B5D
:1009D00023D0414F424B210018683A6817F054FA6F
:1009E0002100386802F010FFE8E73F4B210018684B
:1009F00015F0C6F9E2E7384D3C4B210018682A682B
:100A000015F020FF2100286802F0FEFED6E7384BE3
:100A10002100186814F08CFFD0E7364A00201268D5
:100A200004939146344A12689246344A90464146AD
:100A30000F680021526802900391D61BBA423ED043
:100A40002F4B9E4240D8300022F0DEFE43461F6806
:100A50005A680500D31B9B46AE1902950395049670
:100A6000974204D05A463900280062F065FD1A4FBB
:100A700048463B685246009321005D4402AB039513
:100A800001F0CEFB0298002803D00499091A22F045
:100A9000CBFE1C4B2100186800F078FD434660CB6C
:100AA000B54206D001CD0122210001F087FDAE4202
:100AB000F8D1154B2100186815F028F88AE70023B3
:100AC00000269B460025C7E735F048FED4BA002033
:100AD000CABA00202043061044B90020F0B200201A
:100AE00040B90020D8BA002034B9002048B900200D
:100AF000A8BA002074BA0020E4140020A4B9002091
:100B0000FCFFFF7F3CB90020A4BA0020F8B5324BAF
:100B100004001B78042B36D8304A9B00D3589F46DC
:100B20002F4B1B78002B03D02E4B1B78002B20D093
:100B30002D4E2E4D32682868210000F047FD2C4FC5
:100B40002100386801F0FEFA32682868210000F0C0
:100B500063FD284B60CBB54205D001CD210001F0EB
:100B600091FDAE42F9D1244B21003A68186815F086
:100B7000CDF8224B2100186817F08EFA204B210087
:100B8000186802F0AFFEF8BDFFF73CFE0028FAD06F
:100B90001A4B21001A681B4B18680EF055FE184BB3
:100BA0002100186802F09EFEEDE7174B210018683F
:100BB00015F016F9E7E7154B2100186816F014FF39
:100BC0000F4B2100186802F08DFEDCE7104B21006E
:100BD000186814F0D1FED6E7CABA002034430610D4
:100BE000D8BA0020D4BA0020E41400203CB9002078
:100BF00074BA0020A4B90020A4BA002040B9002093
:100C000044B90020F0B2002034B9002048B90020D7
:100C1000A8BA0020F8B503684E4645465746DE465A
:100C20009A46E0B5150052464368060098469B1A5E
:100C3000344A89461B11934260D00127002B02D011
:100C40005F00BB4254D84B4652469C1A002F1CD121
:100C500000239B465B461B1907CD07C32A681A6011
:100C6000002C24DC43464A4610345C449D1A002D77
:100C700031DC53466419002B36D15B4698C6F0BC74
:100C8000BB46B246A946A046F8BD80231B059F423D
:100C900032D23F01380022F0B7FD83465B461B1974
:100CA00007CD07C32A685F441A60002CDADD2200F2
:100CB0005146584662F040FC43464A4610345C4474
:100CC0009D1A002D07DC5246B3686419991A5046E4
:100CD00022F0AAFDD1E720002A00494622F08EFD2D
:100CE00053466419002BC8D05246B368991AEEE7F0
:100CF0005246054F8C1ACDE7024FCAE7034835F03C
:100D00007DFDC046FFFFFF07F0FFFF7F4843061051
:100D10000122F0B5002496202A4B85B01A702A4B88
:100D200003321A70294B40001C60294B1C601DF0D7
:100D3000D9FA284B284D1C706A682B68934200D062
:100D40006B600922254B2548009201931BF0D0FCD3
:100D5000010009201BF000FF6C4600236968E36076
:100D6000AB68A060994222D00B002200C1CAC1C367
:100D7000126810311A60696028230F22282000921F
:100D800001931BF0B5FC01000F201BF0E5FE0023D2
:100D90006968E360AB68A06099420DD00B0045CC58
:100DA00045C3226810311A60696005B0F0BD2200A9
:100DB0002800FFF72FFFDFE722002800FFF72AFFB8
:100DC000F3E7C046D1BA0020CABA0020B8BA002062
:100DD000BCBA0020D7BA0020D021002001040000B6
:100DE000F8B5574645464E46DE460368E0B54768C7
:100DF0009246344A9946FB1A050088469B10934256
:100E00005CD00126002B02D05E00B34250D843468E
:100E10004A469C1A002E1BD100239B4652465B4635
:100E200012681A51002C23DC434604345C44FF1A38
:100E3000002F30DC4B46E719002B35D15B466F6045
:100E4000AE602B60F0BCBB46B246A946A046F8BDDA
:100E500080239B059E422FD2B600300022F0D4FCA6
:100E6000834652465B4612685E441A51002CDBDD15
:100E700022004946584662F05FFB434604345C4416
:100E8000FF1A002F07DC4A46AB68E719991A484653
:100E900022F0CAFCD2E73A004146200022F0AEFC24
:100EA0004B46E719002BC9D04A46AB68991AEEE7C2
:100EB0004A46054E8C1AD0E7024ECDE7034835F07E
:100EC0009DFCC046FFFFFF1FFCFFFF7F484306104D
:100ED000F0B5C64600B5E5488CB01CF04DFBE44BC0
:100EE00018781DF0D1FA242022F08EFC0400342161
:100EF000342200F0C7FCDF4B10201C6022F084FC81
:100F0000040000F015FADC4B2C201C6022F07CFC65
:100F1000040002F06BFCD94B34201C6022F074FCFE
:100F200004000DF047FCD64B01201C6022F06CFC45
:100F3000040014F03BFBD34B04201C6022F064FC43
:100F4000040014F019FFC220CF4BC0001C6022F037
:100F50005BFC040014F0C2FFCC4B20201C6022F08C
:100F600053FC040016F0A2FDC94B18201C6022F0AF
:100F70004BFC040014F0BEFD0922C64BC6481C60A1
:100F8000C54B04AC049205931BF0B2FB0100092091
:100F90001BF0E2FD0023C14DE3606968AB68A0600F
:100FA000994200D131E10B002200C1CAC1C31268CD
:100FB00010311A6069605A2303225A200492059363
:100FC0001BF096FB010003201BF0C6FD002369689F
:100FD000E360AB68A060994200D11BE10B002200E6
:100FE000C1CAC1C3126810311A606960302022F092
:100FF0000BFC01220600AA4B54211B680192A94A4E
:1010000012680092342201F0C5FAA74D049669686F
:10101000AB68994200D102E140C169602B688B4204
:1010200000D10EE11B68002108220AA8984622F090
:10103000DFFB9E4F06AE33003A00049603CA03C39B
:10104000118840461980927821009A700B236360C2
:101050000023E37401F020FC0498B04203D0A3689D
:10106000591C22F0E1FB2B686A689A4200D1E8E043
:101070001B6800229846142303A9200003930496BA
:1010800040F0BAFA039B142289490490A36022F02D
:10109000B5FB00230499039A404662608B54A36118
:1010A000844B2100E36101F0F7FB0498B04203D0C8
:1010B000A368591C22F0B8FB302022F0A5FB0122C6
:1010C00080467D4B74211B6801927C4A1268009215
:1010D000342201F05FFA434669680493AB68994291
:1010E00000D1A2E0434608C169602B68C91A0429EF
:1010F00000D8B0E05B68082200210AA8984622F0D8
:1011000077FB3300049606CF06C33A8840461A8020
:10111000BA7821009A700B2363600023E37401F016
:10112000BBFB0498B04203D0A368591C22F07CFB9F
:101130002B686A68D21A042A00D887E05F681123F6
:10114000002203A920000393049640F055FA039B64
:1011500011225B490490A36022F050FB0023049904
:10116000039A380062608B54A361564B2100E361FF
:1011700001F092FB0498B04203D0A368591C22F0FE
:1011800053FB302022F040FB012207004E4B9421FC
:101190001B6801924D4A12680092342201F0FAF95C
:1011A0006968AB680497994245D080C169602B6833
:1011B000C91A082954D99D682323002203A92000B5
:1011C0000393049640F018FA039B232240490490AD
:1011D000A36022F013FB00230499039A28006260A5
:1011E0008B54A3613B4B2100E36101F055FB049854
:1011F000B04203D0A168013122F016FB364822F03C
:101200005DFF0CB080BCB846F0BD22002800FFF79F
:1012100001FDD0E622002800FFF7FCFCE6E62200F4
:101220002800FFF7DDFD6968F8E622002800FFF7D7
:10123000D7FD696859E722002800FFF7D1FD6968EA
:10124000B5E700222548110035F008FB01212348AD
:10125000921035F003FB8A102048012135F0FEFA88
:101260008A101E48022135F0F9FAC0465DD10110FE
:10127000E014002074BA00203CB9002044B90020DA
:10128000F0B20020A8BA002034B9002048B90020EC
:1012900040B90020A4BA002001040000402800202A
:1012A00060B900205CB90020A4B90020B04306104A
:1012B000BC430610110D001068B9002064B900206D
:1012C000D44306100D03001080B900207CB9002023
:1012D000E84306101103001059050010644306107E
:1012E00010B53223002486B00093C82214210D4883
:1012F000059404940394029401941BF041FF3C2351
:1013000000220593642108480494039402940194F4
:1013100000941BF035FF054B1C605C609C6006B0C0
:1013200010BDC0468C9D0020B42C0020A4B9002024
:101330000023036043608360C3607047F8B5060014
:101340001D00140043683268E8188300A2181B18B7
:1013500052005B018918CF5E7B1C0FD01E4B1B68AF
:10136000012B0CD03800F368E1009C46B468EA0019
:10137000624409190C3A0C391CF074FBF8BD1CF0DE
:101380009DFFFA21C90020F077FDFA235B00994206
:1013900005D2122F1CD0132FE4D11520E3E71CF047
:1013A0008DFFFA21C90020F067FDFA239B009942C6
:1013B000D8D31CF083FFFA21C90020F05DFD074B54
:1013C0009942CFD8122F05D0132FCBD11720CAE7BF
:1013D0001420C8E71620C6E7E4140020DB0500004F
:1013E000F0B54E464546DE465746654BE0B5984655
:1013F000644B05008A46914600269B4683B0002434
:10140000F300019343461B78002B00D16EE00B2EB6
:1014100004DC092C02D03CDD092E3ADD51466B6814
:10142000F3189A00D2182B685201E3185B00C91810
:101430008F5E791C18D05B461B68012B36D03800B4
:10144000EB68019A9C46AB6862449C46E1006144AB
:101450000C3A0C391CF006FB6B68F3189A00D21892
:101460002B685201E3185B004B449F5E7B1C10D03D
:101470005B461B68012B29D03800EB68019A9C461B
:10148000AB6862449C46E10061440C3A0C391CF0A4
:10149000E9FA0134122CB5D10136122EAFD103B0C6
:1014A000F0BCBB46B246A946A046F0BD1CF006FF04
:1014B000FA21C90020F0E0FCFA235B0099423BD2FC
:1014C000122F57D0132FBAD11520B9E71CF0F6FE12
:1014D000FA21C90020F0D0FCFA235B00994212D215
:1014E000122F45D0132FC7D11520C6E73300220095
:1014F00051462800FFF722FF33002200494628000A
:10150000FFF71CFFC5E71CF0D9FEFA21C90020F047
:10151000B3FCFA239B009942AED31CF0CFFEFA2114
:10152000C90020F0A9FC184B9942A5D8122F25D04C
:10153000132FA1D11720A0E71CF0C0FEFA21C9008B
:1015400020F09AFCFA239B00994200D277E71CF026
:10155000B5FEFA21C90020F08FFC0B4B994200D94F
:101560006DE7122F08D0132F00D068E7172067E728
:10157000142082E7142063E7162061E716207CE739
:10158000D8BA0020E4140020DB0500000722110077
:1015900070B50D4C23686568DE173140C918C91055
:1015A000494201601100EC17760F2140640F9B192E
:1015B00049192D191340C9102A409B1B4942121B7F
:1015C00041608360C26070BDC0BA002010B50400E5
:1015D000002A0BD0012A08D1094B18681CF012F818
:1015E0002000084A0849FFF7FBFE10BD074B1868AA
:1015F0001CF008F82000064A0649FFF7F1FEF4E760
:10160000B0BA00200C2810100C5A1010ACBA0020F0
:101610000C920F100CC40F10F8B50400002A00D172
:1016200095E0012A00D091E00525924B18681BF047
:10163000E9FF914E63686F1FFA1893009B18C82248
:101640009200944622685B016344511DF3184900DF
:10165000C95E013110D02B00052231002000FFF7B8
:101660006DFE6368FA1893009B18C8229200944696
:101670005B0163442268F318911D4900C95E013182
:1016800010D02B00062231002000FFF757FE6368C0
:10169000FA1893009B18C822920094465B01634499
:1016A0002268F318D11D4900C95E013110D02B000A
:1016B000072231002000FFF741FE6368FA1893000B
:1016C0009B18C822920094465B0163442268F31879
:1016D000110008314900C95E013110D02B000822E9
:1016E00031002000FFF72AFE6368FA1893009B1868
:1016F000C822920094465B0163442268F3181100EB
:1017000009314900C95E013111D02B000922310095
:101710002000FFF713FE6368C8229C4692006744CE
:101720009446BB00DB195B0163442268F3180A325C
:101730005200D35E013305D02B000A223100200075
:10174000FFF7FCFD01350B2D00D073E7F8BD052533
:101750004A4B18681BF056FF494E63686F1FFA1812
:1017600093009B18C8229200944622685B01634450
:10177000511DF3184900C95E013110D02B0005221C
:1017800031002000FFF7DAFD6368FA1893009B1818
:10179000C822920094465B0163442268F318911DAD
:1017A0004900C95E013110D02B0006223100200013
:1017B000FFF7C4FD6368FA1893009B18C8229200D3
:1017C00094465B0163442268F318D11D4900C95E49
:1017D000013110D02B00072231002000FFF7AEFDB1
:1017E0006368FA1893009B18C822920094465B0124
:1017F00063442268F318110008314900C95E0131C1
:1018000010D02B00082231002000FFF797FD6368FD
:10181000FA1893009B18C822920094465B01634417
:101820002268F318110009314900C95E013111D055
:101830002B00092231002000FFF780FD6368C822D9
:101840009C46920067449446BB00DB195B016344ED
:101850002268F3180A325200D35E013305D02B0000
:101860000A2231002000FFF769FD01350B2D00D061
:1018700073E76BE7B0BA00200C281010ACBA002058
:101880000C920F100023036043608360C360054B1C
:10189000816103610223FF338382013BFF3BC2610D
:1018A0008375704701000001F0B54F46D6464646A5
:1018B000C0B55368176804008A46994684B09F42B1
:1018C00066D000230F259846504E3A68039502953E
:1018D0007068536984466344019313693268E1690F
:1018E0009446634400930F220F23A06910311CF02B
:1018F0000BFC002801D04346E3743A680395029537
:101900007068536984466344019313693268E169DE
:101910009446634400930F220F23A06910391CF0F2
:10192000F3FB002801D0434623753A6803950295DE
:10193000716853698C466344019313693268A069E6
:101940009446634400930F220F23E16910381CF082
:10195000DBFB002801D0434663753A680395029586
:10196000716853698C466344019313693268A069B6
:101970009446634400930F220F23E16910301CF05A
:10198000C3FB002801D04346A3750437B9459CD159
:10199000C8256268ED0093009B182268AC46510090
:1019A0005246A4255B01D218501860441026805F6F
:1019B000FF35A84201D10020E074F0208000844669
:1019C000A420521862441025525FFF30824201D198
:1019D00000222275A022D2009446A42263445B1800
:1019E00053440C20195EFF32914201D100226275EE
:1019F000A42214215B5EFF32934201D10023A37520
:101A000004B0E0BCBA46B146A846F0BDC0BA00205A
:101A1000F0B5DE46454657464E46E0B54B680C6885
:101A200097B005009B4605929C4200D1D4E0D64B6E
:101A3000984603E00434A34500D1CDE012201CF009
:101A40001FFC0028F6D02B7C002BF3D00F23404640
:101A50002268E969039302934068536984466344AA
:101A6000019313694246126810319446634400930F
:101A70000F220F23A8691CF047FB002804D0202365
:101A8000EB5C012B00D105E122680F234046E96998
:101A90000393029340685369844663440193136936
:101AA0004246126810399446634400930F220F2374
:101AB000A8691CF029FB002800D094E022680F23BD
:101AC0004146A86903930293496853698C4663446D
:101AD0000193136942461268103894466344009398
:101AE0000F220F23E9691CF00FFB002804D02023EC
:101AF000EB5C022B00D11FE122680F234146A8694D
:101B000003930293496853698C46634401931369B4
:101B10004246126810309446634400930F220F230C
:101B2000E9691CF0F1FA002884D02023EB5C032B38
:101B300080D1002200212368186A9946DB6912913E
:101B4000139200220490C71A1492984200D116E210
:101B50008E4B9F4200D91EE2380021F055FE4A46C6
:101B60004B460600126ADB690492F7191296139627
:101B70001497934200D176E11F00A146AA4611E0D6
:101B8000012C00D0F7E12B783372002374600355E9
:101B9000BB69B361FB692037F361049B2036BB420C
:101BA00000D15EE13000083030603D687C68002D77
:101BB00000D128E10E940F2CE2D9002230000EA9AA
:101BC0003FF01AFD0E9B3060B3602200290021F027
:101BD00015FE0E9C3068D8E717B0F0BCBB46B24685
:101BE000A946A046F0BD2023EB5C2268002B00D064
:101BF00065E700200021166A9146D2690A900B9190
:101C00000496B71A0C93964200D1ECE05F4B9F42CA
:101C100000D9C0E1380021F0F7FD4B460600DA6933
:101C20001B6A0493049BF7190A960B960C979A4229
:101C300000D1EEE01700A146AA4611E0012C00D029
:101C40008DE12B783372002374600355BB69B36157
:101C5000FB692037F361049B2036BB4200D1D6E0FC
:101C60003000083030603D687C68002D00D1BDE058
:101C700012940F2CE2D90022300012A93FF0BCFCD4
:101C8000129B3060B3602200290021F0B7FD129C46
:101C90003068D8E7002200212368069107920022CD
:101CA000186A9946DB690490C71A0892984200D1D5
:101CB00069E1364B9F4200D96DE1380021F0A4FD67
:101CC0004A464B460600126ADB690492F7190696EB
:101CD00007960897934200D1EFE01F00A146AA465D
:101CE00011E0012C00D03EE12B78337200237460A8
:101CF0000355BB69B361FB692037F361049B203650
:101D0000BB4200D1D7E03000083030603D687C68CD
:101D1000002D71D012940F2CE3D90022300012A9AB
:101D20003FF06AFC129B3060B3602200290021F072
:101D300065FD129C3068D9E7002200212368186AEB
:101D40009946DB690E910F9200220490C71A1092F7
:101D5000984200D11BE10D4B9F4200D91BE1380096
:101D600021F052FD4A464B460600126ADB69049296
:101D7000F7190E960F961097934200D1C7E01F00F7
:101D8000A146AA4616E0C046C0BA0020E0FFFF7F89
:101D9000012C00D0EBE02B783372002374600355E4
:101DA000BB69B361FB692037F361049B2036BB42FA
:101DB00000D1AAE03000083030603D687C68002D1A
:101DC0001ED012940F2CE3D90022300012A93FF04C
:101DD00013FC129B3060B3602200290021F00EFD3D
:101DE000129C3068D9E7002700261BE7002C00D1A1
:101DF00029E76A4834F0D2FC002C00D176E7F8E7F6
:101E0000002CCAD0F5E7002C00D1BEE6F1E74C4625
:101E1000554605980AA90B960BF030FF0A9E0B9FBA
:101E2000BE420CD0330030680833984215D0B368F6
:101E30002036591C21F0F8FCB742F3D10A9F002F3D
:101E400004D00C993800C91B21F0EEFC2268544BD9
:101E5000D16A19600123137631E62036B742E1D109
:101E6000ECE74C465546059812A913960BF006FF71
:101E7000129E139FBE420CD0330030680833984244
:101E800015D0B3682036591C21F0CEFCBE42F3D1E8
:101E9000129F002F04D014993800C91B21F0C4FCF4
:101EA00023683F4AD96A116002221A76C2E52036B9
:101EB000B742E1D1ECE74C465546059806A907968E
:101EC0000BF0DCFE069E079FBE420CD0330030684C
:101ED0000833984215D0B3682036591C21F0A4FC71
:101EE000B742F3D1069F002F04D008993800C91BD0
:101EF00021F09AFC22682A4BD16A196000231376DC
:101F0000C3E52036B742E1D1ECE74C46554605988B
:101F10000EA90F960BF0B2FE0E9E0F9FBE420CD084
:101F2000330030680833984215D0B3682036591C06
:101F300021F07AFCBE42F3D10E9F002F04D01099FD
:101F40003800C91B21F070FC2268154BD16A19605A
:101F500003231376D1E52036B742E1D1ECE7002C1C
:101F600000D170E68FE6002C00D1BFE6DDE6002C44
:101F700000D112E730E7002C00D106E625E6002765
:101F800000260200F1E50027002602009EE6002759
:101F900000260200ECE634F0E1FBC046F4420610F5
:101FA000A0B3002070B5040014201CF07BF90028B9
:101FB0001DD0237C002B1AD0E37C002B00D078E0CE
:101FC00001232022A354A37413201CF06BF90028D2
:101FD0000CD05B4A1168CB0F5B185B1051685B003B
:101FE0001360CB0F5B185B105B00536070BD172054
:101FF0001CF058F900280BD0237C002B08D0237D3F
:10200000002B4AD120230022E2541F3BA374DBE7BC
:1020100016201CF047F900280BD0237C002B08D099
:10202000637D002B5BD120230222E2541F3BA3746B
:10203000CAE715201CF036F900280BD0237C002BB2
:1020400008D0A37D002B3FD120230322E2541F3B65
:10205000A374B9E73A4D6B681B070BD12B681B07BC
:1020600005D02023E35C022B50D0032B5BD0002350
:10207000A374A9E72023E65C012E3CD0002EEDD10D
:1020800013201CF00FF9431E98416B6801309C46E9
:10209000012360446860A37496E713201CF002F9E2
:1020A000431E9841264B01305A689446604458605C
:1020B000A8E713201CF0F6F8431E9841204B01308E
:1020C0005A68101A58607BE713201CF0EBF8431E87
:1020D00098411B4B01301A68101A1860B4E713209E
:1020E0001CF0E0F8431E9841154B01301A689446E5
:1020F0006044186097E713201CF0D4F8431E984101
:102100006B680130181A6860A6745DE713201CF034
:10211000C9F8431E98412B6801309C460123604456
:102120002860A37450E713201CF0BCF8431E9841AC
:102130002B680130181A01232860A37444E7C046B5
:10214000C0BA0020F8B5304B04001B680E00022B0B
:1021500031D0032B39D0012B32D02023E35C002572
:10216000032B02D8294A9B009D58A37C002B03D047
:10217000274B1B78002B2DD02800E269A1691BF0AA
:1021800071FCA169E2690831681C1BF06BFC637C7F
:10219000002B00D0F8BD2800E269A1690832183090
:1021A0001BF060FC2800E269A1690832083119308F
:1021B0001BF058FCEEE7174B18681BF023FACCE72E
:1021C000154B18681BF01EFAC7E7144B18681BF074
:1021D00019FAC2E713201CF065F800280FD10A276E
:1021E000282130001FF048FE080039001FF044FE8F
:1021F00040000428C0D0062804D02D18BCE70627CC
:102200001821EEE70435B7E7EC140020144406105B
:10221000DABA002024B3002018B3002030B3002025
:10222000F0B54746CE46CD4E80B5776804003800FD
:102230001D000F2331688DB00843034058424341CD
:1022400007202374CB17984603405B18DB105B42D2
:102250002360FB179C460340DB19DB105B42636085
:1022600043465B0FC9180140C91A63465B0FFF184C
:102270003840C01A0123A1600221E374A375B84B52
:10228000FF311B78E060A182002B00D0B5E0B54B98
:102290001B78002B00D0B0E0002A00D1B2E0012A68
:1022A00060D129686A688C460020571A0021029381
:1022B00000900191624500D139E1AB4BB8469F4295
:1022C00000D943E1380021F09FFA2B686A689C46E8
:1022D000D31A070099464346FB18009701970293CB
:1022E000944504D04A466146380061F025F94F44D0
:1022F00001979E4F20006A463900FFF7D5FA0098F3
:10230000002803D00299091A21F08EFA002362688E
:10231000637493009B185B019946D12322685B008C
:102320005100B4229846D2004A445218BA181023D9
:10233000D05E404500D1A2E01223D25E424500D1DA
:102340009DE0A023DB009C464B4663445B18FB18D2
:1023500010215A5E424500D191E012229B5E434516
:1023600000D18CE02000FFF71DFE00220023089220
:10237000099308AB994600234A4668682968936028
:10238000471A884200D175E0774BB8469F4200D982
:10239000DCE0380021F038FA296807006868451A3F
:1023A0004B4608975F6043464A46FB18936081425C
:1023B00003D02A00380061F0BFF84B467F19200097
:1023C0004946149A5F60FFF723FB0898002804D061
:1023D0004B469B68191A21F027FA1BF06FFF3368F0
:1023E0009C46604454F082F8637C002B05D0A37CAB
:1023F000002B02D0237C002B44D10DB0C0BCB946C9
:10240000B046F0BD29686B688C4600205F1A002139
:10241000069204900591634500D18DE0524BB84679
:102420009F4200D992E0380021F0EEF92B680700B6
:102430009C4662466B689A1A91464246BA180497BF
:10244000059706929C4504D04A466146380061F0E3
:1024500073F84F440597464F2000390004AAFFF750
:1024600023FA0498002800D150E70699091A21F0B0
:10247000DBF94BE7002300259846002790E701236E
:1024800063746FE754F03CF80A211FF0CDFC052976
:10249000B3D101270422374B1F70374B1A7000232A
:1024A000364A1360364A136054F02AF80C211FF0A4
:1024B000BBFC344B4D001F70334F01353B687A68CD
:1024C000934200D07B60314A0895136852689A4263
:1024D0003ED04A465968516058681AF009F901001F
:1024E00028001AF039FB4B464A4698600023D36017
:1024F0007B689C46BB689C4523D0634623CA23C3A4
:102500006146126810311A6079600F233168CA176A
:102510001A4052181211120132607268D1170B4022
:102520009B181B111B0173600023A37465E7002334
:10253000002799469846CEE600220027914690460D
:102540007BE761463800FEF765FBDEE734F006F90D
:1025500000220F48110034F081F9C046C0BA0020B3
:10256000DABA0020D8BA0020FCFFFF7F0C8C1010D4
:102570000CF60F10D1BA0020CABA0020B8BA002059
:10258000BCBA0020D7BA0020D0210020402800206B
:1025900064430610F0B505AC40CC01272578002433
:1025A000C760C6620576C46104624462016142612B
:1025B0000460446004728362F0BDC046094910B5EE
:1025C0000C680722A4460B68DB1713406344DB103A
:1025D0005B4203604B68D9170A40D218D2105242AE
:1025E000426010BDC0BA0020F0B557464E46DE46E8
:1025F0004546E0B51E0087B0103382460592882B11
:1026000039D813001033882B35D80B019846002396
:10261000994601339B4633004E46994605E0012317
:102620009C460136E144102E25D04B46002BF6DBAC
:102630003300002446469846059D002D13DB534683
:102640009F6A300039681FF0EFFB002303934B466D
:1026500002935B46020100933800012342440919AA
:1026600001951BF01BF901340135102CE5D14346CF
:10267000B0461E00D3E707B0F0BCBB46B246A94641
:10268000A046F0BD037E002110B5032B02D8074AF7
:102690009B0099584469064AA446536804696344F8
:1026A000A44612686244FFF79FFF10BD2444061041
:1026B000C0BA0020F0B545465746DE464E46E0B566
:1026C00043689246026889B0904601939B1A6E4A0D
:1026D0000D000C0005905B11934200D1D1E0002B5E
:1026E00050D05A000392934200D9A6E04346EB1A19
:1026F0000493039B002B4DD11E000293049B9C4628
:1027000053461B6866449946534630005F684B4603
:1027100008303060002B00D1A5E007970F2F00D9BB
:1027200092E0012F00D0A8E01B783372002377607D
:10273000C35553469B69B3615346DB69F361A845B2
:1027400000D198E008234344A14646461C00029F5E
:102750000DE03B60B368BB60736820347B60B36995
:10276000BB61F3692036FB612037AE421ED03800D2
:10277000083038603368A342EBD11022210021F0E9
:102780003DF8E9E7013303934346EB1A0493039BB7
:10279000002BB1D08022D20493426AD25B01180090
:1027A000039321F031F806000290A7E7029A4C4605
:1027B0009446049B6344202292469A44019BAB4278
:1027C00020D02E005B1B9B46554608360EE02B6042
:1027D000A368AB60636820366B60A369AB61E36993
:1027E0002034EB61019B20359C420AD028002368ED
:1027F00008302860B342EAD11022310020F0FEFFF9
:10280000E8E7DA444346002B07D04246059B4046A2
:102810009B68991A019321F007F8029A5146944651
:102820000398059B60441A605960986009B0F0BC39
:10283000BB46B246A946A046F0BD4346CB1A049318
:10284000124B18000393ACE70022300007A93EF0BA
:10285000D3FE079B3060B3603A00494620F0CEFFBC
:10286000079F306862E7002F00D15FE7084833F028
:1028700095FF054B92E7029B9DE7002F00D155E79E
:10288000EAE7044833F0BAFFFFFFFF03E0FFFF7FF2
:10289000F442061048430610F0B5C64600B5056A76
:1028A000436A04000E0082B09D4221D02800083007
:1028B00028600B684F689846002B14D001970F2FA3
:1028C0001CD8012F29D11B782B7200236F60C355B0
:1028D000B369AB61F369EB61236A2033236202B011
:1028E00080BCB846F0BD002FEFD00D4833F056FF46
:1028F0000A001C302900FFF7DDFEF0E70022280067
:1029000001A93EF079FE019B2860AB603A00414688
:1029100020F074FF019F2868D7E7002FD5D0F5E796
:10292000F442061008007047080070477047C04620
:10293000012A00D1016000207047C04608780A28AB
:1029400004D00D38431E9841C0B270470020FCE708
:10295000012A00D1016000207047C04608780A288B
:1029600004D00D38431E9841C0B270470020FCE7E8
:102970000B784078C01A43425841C0B27047C046F5
:102980000B780079C01A43425841C0B27047C04624
:102990001F230268012010B50C78234098400300E3
:1029A000610989005218D06B1840431E9841C0B28B
:1029B00010BDC0461F230268012010B50C782340CB
:1029C00098400300610989005218106C1840431E9A
:1029D0009841C0B210BDC0461F230268012010B547
:1029E0000C78234098400300610989005218106C4C
:1029F0001840431E9841C0B210BDC0461F23026854
:102A0000012010B50C78234098400300610989002B
:102A10005218106C1840431E9841C0B210BDC046F9
:102A20007047C046074B0C3010B50400994206D0E1
:102A300008003EF05BF8431E9841404204402000ED
:102A400010BDC046A049061010B50400382120F082
:102A5000EBFE200010BDC04610B5382120F0E4FE8A
:102A600010BDC046012A03D0022A03D000207047BF
:102A70000160FBE70B680360F8E7C046012A03D05A
:102A8000022A03D0002070470160FBE70B68036057
:102A9000F8E7C046012A03D0022A03D0002070477D
:102AA0000160FBE70B680360F8E7C046012A03D02A
:102AB000022A03D0002070470160FBE70B68036027
:102AC000F8E7C046012A03D0022A03D0002070474D
:102AD0000160FBE70B680360F8E7C046012A03D0FA
:102AE000022A03D0002070470160FBE70B680360F7
:102AF000F8E7C04610B5012A03D0022A03D000200F
:102B000010BD0160FBE720F079FEF8E7012A03D051
:102B1000022A03D0002070470160FBE70CC90CC0FB
:102B2000F8E7C046012A03D0022A03D000207047EC
:102B30000160FBE70CC90CC0F8E7C046012A03D0CE
:102B4000022A03D0002070470160FBE70CC90CC0CB
:102B5000F8E7C046F0B54F464646D646541E914665
:102B6000E20F121952109046C0B5914231DA0F00AF
:102B70007C1C6400651E42199246025D061994464B
:102B8000425D624537D86246C255A04503DD270045
:102B9000EEE756462C004A46D2071FD5621ED50FD7
:102BA000AD186D108C4209DC0DE002556C1EE20F71
:102BB000121952102C00A94205DA1500425D46197F
:102BC0009A42F2D306193370E0BCBA46B146A84621
:102BD000F0BD4A464618D207F5D40C004D46023DDA
:102BE000EA0F521952109442D8D164000134025DA8
:102BF00032700619D2E7C255A845CADD2C0027005D
:102C0000B6E7C0460122F8B517000D4C0E782378C0
:102C1000BFF35B8F1F401A4206D00A4D2878801BF5
:102C2000431E9841C0B2F8BD200021F06DFA054D59
:102C30000028F3D020002F7021F082FAEEE7C04682
:102C4000982C0020CEBA00200122F8B517000D4CB8
:102C50000E782378BFF35B8F1F401A4206D00A4DCF
:102C60002878801B431E9841C0B2F8BD200021F097
:102C70004BFA054D0028F3D020002F7021F060FAA8
:102C8000EEE7C046942C0020CDBA0020F8B5CE4621
:102C900047460B1A80B5060017008C469946102B44
:102CA00066DD431C9846002A47D0634661469A1B5E
:102CB000D30F9B185B10F2187078F35C01390C7815
:102CC000013F98421DD2A34231D3A0421DD3337895
:102CD000307073700A7863464446013B21782500C2
:102CE000814203D20134F9E7013B1A788242FBD8D2
:102CF000A3420FD92270013B597030781A78013401
:102D0000ECE7A042E3D3A34211D2327834700A70C8
:102D10003078E0E73A0061462000FFF7B7FFA31BD9
:102D20009946102B24DD002F08D0A446BDE730784B
:102D30003370107030780A78CDE70D004B469C1E3A
:102D4000641000E0013C4A4621003000335DFFF78B
:102D500001FF002CF6D1013D3278AC1B2B7800210D
:102D60002A7030002200FFF7F5FE013D012CF3DC54
:102D7000C0BCB946B046F8BD70B588420BD0020061
:102D80004E1E03E01C785D78A54206D01300013288
:102D900010009E42F6D108000FE08B42FBD09A1C37
:102DA0008A4201D109E01C781578A54201D05D70F6
:102DB000013301328A42F6D1581C70BDF8B5CE46B7
:102DC0004746050080B5814229D050C90368371BAA
:102DD00099464A4683689B1A9C469F4223D84B4695
:102DE0004268D11A8F4241D8002F16DDB9108B00EE
:102DF0005B181A019B181A029B181A049A184B4662
:102E0000520052182168013A196061685960217AAC
:102E10000C3419720C33002AF4D14F446F60C0BCDB
:102E2000B946B046F8BD002F4AD0284B9F424AD839
:102E3000380020F0E9FC2B68804699464A46AB688A
:102E40009B1A9C464346A64203D007CC07C3A64222
:102E5000FBD14B46002B03D06146484620F0E4FCF2
:102E6000434647442B60AF606F60D8E76318002982
:102E700022DD89108C468900614408018046414466
:102E800008028046414408048046414449008C447D
:102E900049462068086060684860207A0C340872EF
:102EA000012040428046C44460460C310028F0D1E5
:102EB0009E42B2D013CB13C29E42FBD14F44ADE72A
:102EC00000239846BEE733F049FCC046F8FFFF7F79
:102ED00070B50C00220009680832050003689142B1
:102EE00018D0083083420DD029606168A8686960F5
:102EF000A168A960002B0AD02360A0600022626054
:102F00001A7070BD636829606B60A368AB601300C2
:102F10002260F3E76268002A06D0012A09D018006F
:102F200020F06CFC62682B6800216A609954236869
:102F3000E4E7227A1A7062680368F5E7F0B5D646CE
:102F40004F46464694229821C0B583584158040004
:102F500082B08B4200D1EBE0591C81501D789C233C
:102F6000C058461933001E33FF33197800290BD19E
:102F70000368704A1B6A2900934200D086E000294A
:102F800002D01E36FF3631708823E2581378002BAA
:102F900004D12AE093780232002B26D09942F9D14D
:102FA000622D15D17C23E35C022B11D084231822DF
:102FB0002000E250143B0093A030002142686F3B98
:102FC0003EF076FC02B0E0BCBA46B146A846F0BD81
:102FD000842301212000E1505378A0300093002188
:102FE000012342683EF064FCECE7622DDED0422D06
:102FF00050D020232A009A43442A3BD024232A007D
:103000009A43532A36D0632D51D0782D5ED0752D3A
:103010005CD09C23E3589B695B5D5B0700D484E034
:1030200026000095A03601237268002130003EF092
:103030003FFC94239822E358A2589A4216D09C222F
:103040000427904694250AE05A1C625119783000F2
:103050003EF00CFC98226359A258934206D0424697
:10306000A1581A7889698A5C1742EDD18423042219
:10307000E250A7E784230E2220000095A030E25002
:1030800000214268833B3EF013FC9BE700229847F7
:10309000010074E7842318222000E250163B0093BD
:1030A000A030002142686D3B3EF002FC8AE794228A
:1030B0009821A35861588B423AD084210120605056
:1030C0002000591CA1501B78A03087E7A023984608
:1030D000A044002342465360A022783D2E00A2580F
:1030E00000251370731E9E4198239A46043394273B
:1030F0009946760002365246E359A258934217D0B9
:103100004A46A1581A7889698A5C442111420FD035
:103110005A1CE2514046197801353EF0A7FBAE42F9
:10312000E9D184230322E2504CE784230122A3E760
:1031300052F080FA2929001070B505000E0082B007
:1031400000291DD0541A01940F2C0BD80068012CB3
:103150001BD10B780370019C286800236C60035519
:1031600002B070BD002201A93EF046FA019B286022
:10317000AB602200310020F041FB019C2868ECE7A5
:10318000002A05D100240068E7E7002CE5D0F0E72D
:10319000014833F003FBC046F442061070B5060048
:1031A000343021F049F9B46AF56AAC4203D111E038
:1031B0001834A5420DD023680B2BF9D12369002BBD
:1031C000F6D0200008300322010018349847A542A9
:1031D000F1D1B56A002D04D0336B2800591B20F0C3
:1031E00023FBF068002803D07169091A20F01CFB4A
:1031F00070BDC04670B5047900680D7834F060FA8F
:10320000036829001B699847201A43425841C0B2FD
:1032100070BDC04670B5047900680D7834F050FA7E
:10322000036829001B699847201A43425841C0B2DD
:1032300070BDC046F0B5DE4657464E464546E0B541
:1032400083B00190002876D0019BDB689946002B63
:1032500068D04B46DB689A46002B59D05346DB6852
:103260009B46002B4AD05B46DC68002C32D0E568D8
:10327000002D1DD0EB689846002B22D04346DE6817
:10328000002E31D0F768002F09D0F868FFF7D2FF81
:103290003800BF68182120F0C7FA002FF5D1B768B1
:1032A0001821300020F0C0FA002F1DD03E00E9E7C1
:1032B000A5681821200020F0B7FA002D0AD02C00B4
:1032C000D5E7AE681821280020F0AEFA002EEFD026
:1032D0003500CFE75B469C681821584620F0A4FAD9
:1032E000002C0BD0A346BEE743469E6818214046FB
:1032F00020F09AFA002EE4D0B046BFE753469C680F
:103300001821504620F090FA002C01D0A246A5E7E3
:103310004B469C681821484620F086FA002C01D0C4
:10332000A14696E701981821846820F07DFA002CC8
:1033300001D0019488E703B0F0BCBB46B246A94671
:10334000A046F0BD70B5040000680D7834F0B8F9FF
:10335000036829001B6998470500206834F0B0F91C
:1033600003680A211B6998470600206834F0A8F911
:1033700003680D211B699847AE4204D0401B431ED1
:103380009841C0B270BD0020FCE7C04670B5040093
:1033900000680D7834F094F9036829001B69984798
:1033A0000500206834F08CF903680A211B699847EE
:1033B0000600206834F084F903680D211B699847E2
:1033C000AE4204D0401B431E9841C0B270BD0020E5
:1033D000FCE7C046F0B5DE4657464E464546E0B5EA
:1033E000BFB007AB0200019105A801219A460593E1
:1033F0003EF020F91CA833F027FB1C220025B42343
:1034000004A98918CD5004A989180433CD5204A900
:1034100089180433CD5004A989180433CD5004A968
:1034200089180433CD5004A989180433CD50654B55
:10343000654F59689B680B9102910C390E000093FF
:1034400004AB09689B18009A1C975A500C95336876
:103450000BA89C460021604433F0E2FA5B4C14A8B0
:10346000230014331C935A4B0E959B460D930F95D6
:1034700010951195129513950B9421F0F3FD554B72
:1034800018AA99460D93059B15959046069D0393A2
:103490001692002B6AD004950F2D58D8012D00D01C
:1034A00086E01C201A78342304A90918CA5443461C
:1034B000002217955A5508231593169B0DA80393C0
:1034C000039900233DF062FE1CA80DA933F0A8FA71
:1034D0000598504504D0079B591C039320F0A4F98C
:1034E000019B082B48D0102B54D005A90BA833F012
:1034F000C7FB0523219A01921A425FD1059D4B46D5
:1035000016980B9414341C940D93404504D0189BCA
:10351000591C019320F088F95B4614A80D9320F004
:103520008BFF1C21029B04AA0B935218336800994D
:103530001CA8D15000231C970C9333F0C3FA280029
:103540003FB0F0BCBB46B246A946A046F0BD002243
:1035500004A916A83EF050F8049B169018932A0070
:10356000039920F04BF9049D169BA1E71300002D51
:103570009ED0194833F012F90B9B0C3B1A680BAB29
:103580009C464A236244D16899430B0040210B4377
:10359000D360AAE70B9B0C3B1A680BAB9C464A23F3
:1035A0006244D16899430B0008210B43D3609CE728
:1035B0001300002D00D17BE71000D0E701256D42FC
:1035C0009DE7C04660F11010E4E810107CF1101087
:1035D0002CF2101000F11010F4420610F8B5144D42
:1035E0000F782B780400BFF35B8FDB070DD5114EEE
:1035F000206834F065F8036839001B699847337810
:10360000181A421E9041C0B2F8BD280020F07CFD7F
:103610000028ECD0206834F053F8036800211B69BF
:103620009847044E3070280020F08AFDE0E7C0463D
:103630009C2C0020CFBA0020F8B5144D0F782B78C1
:103640000400BFF35B8FDB070DD5114E206834F00B
:1036500037F8036839001B6998473378181A421EF7
:103660009041C0B2F8BD280020F04EFD0028ECD0FB
:10367000206834F025F8036800211B699847044E40
:103680003070280020F05CFDE0E7C046A02C002050
:10369000D0BA0020F8B5CE4647461400060080B5E3
:1036A0001820884620F0B0F8236805001F68002322
:1036B0004361331D44469946076143453CD0236925
:1036C0009F4217DAF3689846A34208D0200022F000
:1036D00071FC03699F4250DDC368002B42D001207A
:1036E0004B462200290022F081FC73692800013337
:1036F00073611DE09F4216DD3369434536D0404675
:1037000022F042FC03699F425ADAE368002B2DD075
:1037100004000120E4E7230000293ED1974202DDA6
:103720000024002B4AD12800182120F07DF8200029
:10373000C0BCB946B046F8BD7369002B03D03469EC
:1037400023699F420FDCB468002C05D124E00121DD
:10375000A368002BDFD01C0022699742F7DB002111
:10376000E368F6E704000120A145B9D023690120F0
:103770009F4200DB0020C0B2B2E7B468002C05D144
:103780002FE00121A368002B11D01C002269974271
:10379000F7DB0021E368F6E74446F368A3421ED056
:1037A000200022F007FC230002690400B6E7230092
:1037B0000029B3D04346A045F2D1B1E71C00D2E7BF
:1037C000B468002C05D10EE00121A368002BA2D023
:1037D0001C0022699742F7DB0021E368F6E723002B
:1037E0009EE74C46E6E74C46D7E7C0460023012259
:1037F0008360C3600361436103704260038583613A
:10380000C361036243627047334B70B51A7804009A
:10381000002A13D02822825C002A10D12925425D7B
:10382000002A23D001212D4A1170E269772A14DC85
:103830002B490978042910D00432E26170BD292295
:10384000825C002AEED1E369582B2BDD244A1278E2
:10385000042A27D0043BE361F0E700221A70636971
:103860002285203B6361DB699847E7E712201AF065
:1038700007FD00281AD1626963685268934201D239
:103880000133636012201AF0FBFC00281ED023785D
:10389000002B1BD163695B686360012BCED90023C9
:1038A0002370CBE728230022E254C7E761696368ED
:1038B0004A689342E2D10A00E068203262618242A3
:1038C00006D001234A6A63602370D7E76368E4E7A0
:1038D000012262554A6AD1E7DABA0020D4BA002040
:1038E000CABA0020F0B5C64600B54C4B04001B78A0
:1038F00088B0002B65D02923C35C002B65D1283309
:10390000C35C002B61D1C3684269934259D0202324
:1039100078225821002018F04BFE414B04AF1A7852
:10392000404B1978404B18780F2319F0F7FD636965
:103930000297196862685D68884695424AD843468E
:10394000002B59D001950F2D46D8012D60D13A009A
:103950001B7802AE3372002330007560042153558A
:103960005C226C331AF018FB0298B84203D0B1689D
:1039700001311FF059FF636962685B689A4220D188
:103980001AF09CFC962189001EF076FA96235B00C3
:10399000994238D3712470256F266E2108226A203F
:1039A00019F072FE062231006B2019F06DFE042220
:1039B00029006C2019F068FE022221006D2019F008
:1039C00063FE08B080BCB846F0BD18340FCC18F0C8
:1039D000EFFDF6E71500B2E702AE0022300001A9C4
:1039E0003DF00AFE019B0290B3602A0041461FF0A1
:1039F00005FF019D029AAEE73A0002AE002DAAD063
:103A00000A4832F0CBFE7224712570266F21C5E77B
:103A10003A0002AE002D9ED03800E6E7DABA002068
:103A2000F6140020F7140020F8140020F4420610C9
:103A30000368F0B54E46454657469946DE46E0B522
:103A400017004A46436885B003939B1A5B4A804639
:103A50000E000D005B11934200D1ACE00124002B5D
:103A600003D05C00A34200D999E04B46F31A0093BF
:103A7000002C48D100239B46203402930822944610
:103A8000009BBC445B441800624608309A461860AC
:103A90003B680192634500D188E05246136053466B
:103AA000BA689A6053467A685A60019BBA693B606B
:103AB00000237B603B7253469A61FA69DA61B14533
:103AC00034D008234B449A462B005C4655464F465B
:103AD0009A460DE02360BB68A3607B682035636075
:103AE000BB69A361FB692037E3612034B74219D079
:103AF0002000083020603B68AB42EBD11022290047
:103B00001FF07CFEE9E78023DB049C424CD2640179
:103B100020001FF079FE2300834604005B440293DB
:103B20002034ABE75546009C20345C44039BB342F1
:103B30001DD037009E1B0837A6190DE02360AB6827
:103B4000A3606B6820376360AB69A361EB692035C4
:103B5000E3612034B4420BD020002B680830206091
:103B6000BB42EBD1102239001FF048FEE9E72600E6
:103B70004B46002B06D043464A469B684846991A56
:103B80001FF052FE43465A461A60029A5E609A60DF
:103B900005B0F0BCBB46B246A946A046F0BD4B46B8
:103BA000CB1A074C0093B3E7044CB0E710226146F0
:103BB0001FF024FE76E7034832F020FEFFFFFF03EC
:103BC000E0FFFF7F48430610F8B5FC230E00CB58FA
:103BD000FC369C46736805000C009C4509D0604685
:103BE0000C382B000200E434C2CAC2C3A061280012
:103BF000F8BD0200F368E434043B1B68ED33FF3387
:103C000083CB83C2FC21604649001FF00DFE636A2E
:103C1000043BF3601B681A007360F932ED33FF3226
:103C2000FF33B260A361E2E7036810B504000B2B19
:103C300001D0200010BD0369002BFAD00830032208
:103C400001009847F5E7C046F0B5CE4647469422B6
:103C500080B583580400591C81501D789C23C0589E
:103C600083B0461933001E33FF33197800290BD176
:103C70000368574A1B6A2900934200D09DE000293F
:103C800002D01E36FF3631708823E3581A78002A96
:103C900004D116E09A780233002A12D08A42F9D170
:103CA000842201212000A1505B78A03000930021E4
:103CB000012342683DF0FCFD03B0C0BCB946B046EC
:103CC000F0BD9C2304279846E3589B695B5D1F4227
:103CD0007BD02B00383B012B77D926000095A036EE
:103CE00001230021726830003DF0E2FD942198220A
:103CF0006358A2589A4246D0404620581A788069A4
:103D0000805C07423FD0383A012A3CD95A1C6250A5
:103D10001B78270099467368A83798465D1CA02336
:103D2000E358BB424DD0B268954230D8424649462E
:103D30009954A021002394206258756053559833FC
:103D40002258E3589A421ED09C2565591378AD69D4
:103D5000ED5C6D0717D5383B012B14D9531C23504C
:103D600013789946736898465D1C6358BB422AD005
:103D7000B268954216D8424649469954A02300227B
:103D8000E35875605A5584230222E25094E70123D8
:103D9000002200934146002330003DF0A9FCA023FF
:103DA000E358C3E70123002200934146002330007B
:103DB0003DF09EFCA023E358DDE700229847010078
:103DC0005DE70F22B0E70F22D3E751F033FCC04686
:103DD00029290010F0B5C6469423982200B5C3588F
:103DE0008258040082B0934258D01D788C23C75863
:103DF0001033C058461933001E33FF331978002999
:103E00000CD10368264A1B6A290098462B0090456E
:103E10003FD1002B02D01E36FF363370380052F0EF
:103E200013FE002802D00378002B10D18023E25823
:103E300013422AD190235B001A4208D0843BE358F6
:103E40009A690423525D134201D0302D12D1200013
:103E500084230122A0300095E25000214268833B78
:103E60003DF026FD9422A3580133A35002B080BC3C
:103E7000B846F0BD200084220095A030A350002158
:103E80004268033B3DF014FDECE72000FFF7DCFE49
:103E9000ECE70022C04703000100BAE751F0CAFB7B
:103EA00029290010F0B5C646942200B583580400B5
:103EB000591C81501D788C23C7581033C05882B0CC
:103EC000461933001E33FF33197800290DD10368DA
:103ED0007A4A1B6A290098462B00904500D08EE054
:103EE000202B02D01E36FF363370380052F0ACFD66
:103EF00000286CD05C2D43D0282D2FD0292D62D0E6
:103F00005B2D00D180E07B2D56D0DF232B405D2B35
:103F10005DD09C23E75826007B191E33FF331B78A6
:103F2000A846002B00D0A4E03B68644A1B6A934279
:103F300000D0ACE0002D03D047441E37FF373D7062
:103F40002378002B04D117E0337A0836002B13D0E6
:103F50009D42F9D184237268E2500DE08023E3583A
:103F6000DA0604D59421625810783F2865D09B0763
:103F70001ED484230522E25002B080BCB846F0BDB6
:103F800094239822E358A258934200D194E08022CF
:103F9000A158A032114226D01A78110028390129DF
:103FA00001D97B2A1FD19422591CA1501D78A3E767
:103FB00084230622E250DFE77C230122E254083307
:103FC0000B32E250D8E784230822E250D4E72000E5
:103FD000842301220095A030E25000214268833BF7
:103FE0003DF066FCC8E7BC23E058C3071FD5B823E3
:103FF00040102018E3580268D3589847BCE72022A5
:10400000C047030001006BE77C2302229821E254A1
:104010001433013AE2549332A35861588B4202D0D0
:1040200019785E2927D084230922E250A4E7B82317
:104030004010E358201898479EE79820531C63507F
:104040002058834238D053783A2B1AD03D2B24D0B5
:10405000212B31D102326250072220006333E2501B
:10406000163B0093A030002142686D3B3DF020FCE0
:1040700082E71D0064E70A20263101336050A35017
:104080007AE70232625006224A33E25074E729008E
:1040900000223800984705004CE7023262500722A0
:1040A00020004733E250143B0093A03000214268C7
:1040B0006F3B3DF0FDFB5FE751F0BCFA2929001092
:1040C000F0B54E464546DE4657469822E0B5942563
:1040D0009146435982580400944683B0934200D1DC
:1040E00084E09C215E1C46514158042007001A7848
:1040F0008969895C0F40B846084222D12C2A1CD01D
:1041000080216058A03107000F40084266D05C2A29
:104110006CD1B4456AD05A787D2A67D14146013ABC
:10412000A1540D2108320233A150635103B0F0BCF9
:10413000BB46B246A946A046F0BD8423133AE250DE
:10414000F4E7260084231A21A0360092E150726819
:10415000833B002130003DF0ABFB4A466359A25837
:104160009342E3D09C229246983A914690329046F0
:104170000CE05A46DA55A02375600022E3585A55E0
:1041800043469832E358A2589342CFD05246A158A2
:104190001A7889698A5C49461142C7D041465A1C3F
:1041A00062501B7822009B46A0237768E358A83210
:1041B0007D1C934210D0B2689542DAD901230022C7
:1041C00039000093300000233DF092FAA0235946B5
:1041D000E258D1557560D0E70F22EDE77D2A05D171
:1041E0007C23703AE7540833E2509FE751F022FAFB
:1041F000F8B5574645464E46DE460368E0B5476883
:104200009246344A9946FB1A050088469B10934211
:104210005CD00126002B02D05E00B34250D843464A
:104220004A469C1A002E1BD100239B4652465B46F1
:1042300012681A51002C23DC434604345C44FF1AF4
:10424000002F30DC4B46E719002B35D15B466F6001
:10425000AE602B60F0BCBB46B246A946A046F8BD96
:1042600080239B059E422FD2B60030001FF0CCFA6F
:10427000834652465B4612685E441A51002CDBDDD1
:104280002200494658465FF057F9434604345C44DF
:10429000FF1A002F07DC4A46AB68E719991A48460F
:1042A0001FF0C2FAD2E73A00414620001FF0A6FAFA
:1042B0004B46E719002BC9D04A46AB68991AEEE77E
:1042C0004A46054E8C1AD0E7024ECDE7034832F03D
:1042D00095FAC046FFFFFF1FFCFFFF7F4843061013
:1042E000F0B5DE464E4657464546A022E0B50600EC
:1042F00000238258A0367360137098229433C358F9
:10430000825804008B4685B09A4249D09421894650
:104310000C31884608318C468444614603910CE098
:104320005246DA5542460023A258756053554B4613
:104330009822E358A258934232D0197859451BD09D
:1043400049465A1C62501B7877689A464346039A3E
:10435000E3587D1C93420DD0B2689542E0D9012309
:10436000002200933900002330003DF0C1F943469C
:10437000E358D5E70F22F0E79421581C60501D78D0
:104380005D450DD182420BD09A1C62505B785D2B4B
:1043900006D105B0F0BCBB46B246A946A046F0BD6A
:1043A00051F048F99421982230B5435885580400BB
:1043B00083B0AB425DD0581C60501A782D2A2FD0A4
:1043C0005B2A14D05D2A2FD05C2A19D1802190233A
:1043D0006158194214D02C33E058C30733D5B823A1
:1043E00040102018E3580268D358984713E08542DC
:1043F0003FD058782E2836D03A2837D03D2828D0BC
:10440000200084230121A0300092E1504268002165
:10441000833B3DF04DFA90230022E25403B030BDBF
:104420008423113AE250F6E78023E358DB0603D4F5
:104430009023E35C002BE3D184230B22E250002283
:10444000083BE254E7E7B8234010E35820189847A8
:10445000E1E784222C38A0509A1C62502000597841
:10446000FFF73EFFD7E729321E38F4E784222B38C6
:10447000F1E751F0DFF8C0469423C2580433C35823
:1044800010B59A420ED07C23C35C002B04D0022BC3
:1044900005D0012B0AD010BDFFF704FDFBE7FFF7A5
:1044A00081FFF8E784231B22C250F4E7FFF708FEE0
:1044B000F1E7C046F8B504002A2558204746CE4605
:1044C000A561163DE56117352562163D65622A3501
:1044D000A5622D3DE56201356563E5636564434D85
:1044E0008046A564424D0630E564424D2060256556
:1044F000414D48386565414D6060A565404D0E30C1
:10450000E565404DA06025663F4D0D3865663F4D21
:10451000E06017307C262061A56600206C2580B500
:104520000A272663A763606120646053384DA04466
:1045300025673848384F6067A767B9460027A755F1
:104540000436A351DF0636D5230088204833235094
:1045500028008C230025E0500433E5540433E15057
:104560000433E2502D4820F085F9089B1B685A68F7
:104570009B68984237D280008358002B33D09C220E
:10458000A35023000432A833A350083B5D60A82346
:10459000E554283BE358DB061FD421490022BC2305
:1045A000E250043B2000E150FFF766FF2000C0BC52
:1045B000B946B046F8BD8825474667519D06C8D420
:1045C00048465D06C5D4DD0509D49D0509D43340B0
:1045D0005D1EAB415B421840BBE71249DEE7124863
:1045E000B7E71248B5E732F0C9F8C04630006208B4
:1045F000660C6E0A720D7409760B000022222F2FB2
:104600005C5C61076208660C6E0A720D7409760BB9
:1046100034440610544406104444061074B100207B
:10462000D53D00103D2F00106C4406105C44061070
:10463000F0B5C6460368140082680500D61AB010AB
:10464000820012181701D2191702D2191704D219B1
:104650005200121800B58A424ED36A68D61AB610B4
:104660009446B20092191701D2191702D2191704F1
:10467000D2195200921991421DD9634508D026687B
:104680001E6066685E60267A1E720C339C45F6D109
:104690008B1A9846634642462600013A83CE83C36E
:1046A000002AF9D143465A004244910061446960AE
:1046B00080BCB846F0BD00291AD04A0051188900C4
:1046C0005F18BB4214D01A002668166066685660F0
:1046D000267A16720C329742F6D11B4A0C39890899
:1046E00051438900890801314A00511889005B183B
:1046F0009C45DDD06B60DBE7144A914221D800294C
:104700001CD04E007618B60030001FF07DF8320045
:104710008446030062442100C1C9C1C39342FAD157
:104720002B68A968CE1A61466A602960AA60002BCE
:10473000BED0310018001FF077F8B9E70022944688
:10474000F1E7034832F05AF8ABAAAA2AAAAAAA0AA1
:1047500074440610F0B54E46DE4645465746E0B571
:104760000368466889B002910391F11AC910904616
:104770008A00521899461301D2181302D218130452
:10478000D3185B006F4A5B188346934200D1D5E093
:104790000124002B03D05C00A34200D9C6E04A46A6
:1047A000029B9B1A9A46002C00D0AEE000231834DE
:1047B00004930193019B414653441A00A1C9A1C22D
:1047C000A1C9A1C2424612680B2A17D106AA10003D
:1047D0001039A0C9A0C0180008390830A0C8A0C16D
:1047E0001900083121CA21C14246126941461A61A5
:1047F000002258690A614A6948615A61029B9945D9
:1048000030D000229246039A4C4690461D00019FEC
:10481000059605E03B0018341833AC421DD01F004C
:104820003B00220043CA43C343CA43C323680B2B44
:10483000F0D153463B612369002BEBD021003800B7
:104840000222083108309847636922697B613B0086
:1048500018343A611833AC42E1D143463C00059E1E
:104860000393303400239846029B9E4221D0039D3F
:1048700003E018351834B5421BD023002A0083CA40
:1048800083C383CA83C32B680B2BF2D143462361B6
:104890002B69002BEDD029002000022208310830BE
:1048A00098472B6923616B69183563611834B542E9
:1048B000E3D14D46B14503D110E01835B5420DD0D6
:1048C0002B680B2BF9D12B69002BF6D02800083070
:1048D0000322010018359847B542F1D14B46002B11
:1048E00006D05B464A469B684846991A1EF09CFFD4
:1048F0005B46019A5C601A60049A9A6009B0F0BC49
:10490000BB46B246A946A046F0BD0E4B9C4213D80A
:1049100063001C19E40020001EF076FF03008446AB
:1049200018336444049401901C0043E74A46029BF8
:10493000054C9B1A9A46EEE71C00E9E7034831F064
:104940005DFFC04655555505F8FFFF7F48430610EB
:10495000F0B50A00436A016A050083B0994239D074
:104960000B001400C1CCC1C3C1CCC1C313680B2B55
:1049700015D02B6A18332B62EA699B1ADA10900063
:10498000801801014018010240180104401840003D
:104990008018144A934222D8013803B0F0BD002396
:1049A0000B619C466B4610001C000830C0C8C0C498
:1049B0000C0008380834C0CCC0C00800083050CB08
:1049C00050C0136948690B616346136153695061B4
:1049D0004B61CEE71C30FFF7BDFE2B6ACCE750F0F1
:1049E00029FEC046009F2400F0B5CE46474601236D
:1049F0000A2280B55B4289B002920393066A436A39
:104A0000040002AD9E4249D033002A0083CA83C30A
:104A100083CA83C3029B0B2B1CD0226A18322262EA
:104A2000E369D21AD1108B005B1818011B18180209
:104A30001B181C041C191E4B640064189A4234D8BD
:104A4000029B013C0B2B21D0200009B0C0BCB94611
:104A5000B046F0BD00236F469946336104AB9846DB
:104A60001900082238001EF0C9FE33004246083300
:104A700003CB03C2083B06CF06C34A46069B0692F9
:104A800072693361079B07927361C6E72B69002B3C
:104A9000DAD004A9032208009847D5E72A0031009C
:104AA0001C30FFF757FE226ABAE750F0C3FDC0463C
:104AB000009F2400F0B5CE46474680B54369416863
:104AC0005A1C4261826891B004000193914200D166
:104AD0006FE008C14160012308225B420492059304
:104AE0000AAD019B2800103204A906931EF086FE31
:104AF000266A636A9E4254D033002A0083CA83C365
:104B000083CA83C30A9B0B2B1FD0226A18322262EE
:104B1000E369D21AD1108B005B1818011B18180218
:104B20001B181C041C19264B640064189A4244D8B4
:104B30000A9B013C0B2B2CD0049B0B2B21D020007B
:104B400011B0C0BCB946B046F0BD002399463361F0
:104B50000CAB984602AF1900082238001EF04EFE3A
:104B600033004246083303CB03C2083B06CF06C3DB
:104B70004A460E9B0E92726933610F9B0F927361CE
:104B8000C3E7089B002BDAD006A903220800984748
:104B9000D5E72B69002BCFD00CA90322080098473A
:104BA000CAE720002A0031001C30FFF7D3FD226A3B
:104BB000AEE701AAFFF71CFB8DE750F03BFDC046B6
:104BC000009F2400F0B5C646882300B5C3580400F2
:104BD00082B0022B08D0032B2DD00020012B49D00E
:104BE00002B080BCB846F0BD07000100CC37051DFF
:104BF000A43138003CF042FD2800FFF73DFC7A6804
:104C0000002A43D0CC230025002698464346E3588B
:104C10000821985DFEF7DEFB7A68ED0001362D185D
:104C2000B242F3D8E8B200900123002138003CF0F2
:104C30003FFE0120D4E707000100CC37051DA43159
:104C400038003CF01BFD2800FFF716FC7A68002AAC
:104C50001CD0CC230025002698464346E35810215B
:104C6000985DFEF7B7FB7A682D0101362D18B24228
:104C7000F3D8D7E721002000A431CC30251D3CF02B
:104C8000FDFC2800FFF7F8FB0120A9E70020CAE798
:104C9000F8B5CC234746984680444346CE465B68E9
:104CA00080B50E000700002B15D0CC230025002472
:104CB00099464B46FB583100585DFEF78BFB434647
:104CC00074435B6801352418AB42F2D82000C0BCA5
:104CD000B946B046F8BD0024F8E7C04670B50600F6
:104CE000406A002803D0F36A191A1EF09DFDB069CE
:104CF000002803D0336A191A1EF096FDF46835694E
:104D0000AC420CD0230020680833984217D0A36827
:104D10001834591C1EF088FDA542F3D1F568002D0A
:104D200004D073692800591B1EF07EFD30680028EE
:104D300003D0B368191A1EF077FD300070BD183427
:104D4000A542DFD1EAE7C046F0B55746DE464E46FB
:104D50004546E0B5070083B0012A09D10B6803601E
:104D6000002003B0F0BCBB46B246A946A046F0BD49
:104D7000022A0CD0032AF3D10468002CF0D02000C2
:104D8000FFF7ACFF5C2120001EF04EFDE8E70B684A
:104D90005C2099461EF038FD4B4659681A6800237E
:104DA00080468D1A036043608360914200D1ECE03D
:104DB000002D00DAF1E028001EF026FD0400434635
:104DC00065191C605C609D604B4600250ACB5A1A31
:104DD0008B4200D0CDE0434664195C604B464046B0
:104DE0001969DA6800238D1AC36003614361914237
:104DF00000D1C7E06A4B9D4200D9CEE028001EF0EA
:104E000003FD040043466519DC601C615D614B468F
:104E1000DE681B699B469E420CD12CE0012D00D020
:104E2000ACE01B78237200231836656043551834B4
:104E3000B34520D0200008302060336875689A465A
:104E4000002B00D18FE001950F2DE7D90022200023
:104E500001A93CF0D1FB019B2060A3602A005146D0
:104E60001EF0CCFC0023019D206818366560435578
:104E70001834B345DED143461C614B464046D969E0
:104E80009A6900238C1A8361C3610362914200D145
:104E900080E0444B9C4200D97FE020001EF0B4FC2F
:104EA000050043462C199D61DD611C624B469B69E0
:104EB0009A464B46DE69B2450CD053460024F61A9A
:104EC000534628191919022202341EF097FCA642F3
:104ED000F6D1AD194346DD614B464046996A5A6AA0
:104EE00000238C1A43628362C36291424FD02D4BE0
:104EF0009C4252D820001EF087FC050043462C1926
:104F00005D629D62DC624B465B6A9A464B469E6AD6
:104F1000B2450CD053460024F61A534628191919E5
:104F2000022202341EF06AFCA642F6D1AD194346B5
:104F30009D624B4642461B8E414613864A46434677
:104F4000526B5A6338234A46D25CCA5442464B4697
:104F50003C323C3313CB13C213CB13C203CB03C27B
:104F600043463B60FCE6002D00D15CE70E4831F083
:104F700015FC200015005EF0DFFA2CE7002D00D1B3
:104F800051E76BE7002500243CE7002417E70024E5
:104F90000025B3E70024002583E731F0DFFBC0469E
:104FA000F8FFFF7FFEFFFF7FF442061070B505009B
:104FB000406A002803D0EB6A191A1EF035FCAC6970
:104FC000EE69B44215D02300A0692033984203D083
:104FD000236A591C1EF028FC2300206808339842DD
:104FE0002FD0A3683034591C1EF01EFCA642EAD113
:104FF000AE69002E04D02B6A3000991B1EF014FC01
:10500000EC682E69B4420CD0230020680833984223
:105010001BD0A3681834591C1EF006FCA642F3D11D
:10502000EE68002E04D06B693000991B1EF0FCFB6B
:105030002868002803D0AB68191A1EF0F5FB280079
:1050400070BD3034A642BED1D2E71834A642DBD1BF
:10505000E6E7C04670B50600406A002803D0F36A50
:10506000191A1EF0E1FBB069002803D0336A191A3F
:105070001EF0DAFBF4683569AC420CD023002068DE
:105080000833984217D0A3681834591C1EF0CCFB83
:10509000A542F3D1F568002D04D073692800591B8F
:1050A0001EF0C2FB3068002803D0B368191A1EF046
:1050B000BBFB300070BD1834A542DFD1EAE7C04623
:1050C000F0B55746DE464E464546E0B5070083B08C
:1050D000012A09D10B680360002003B0F0BCBB4675
:1050E000B246A946A046F0BD022A0CD0032AF3D14D
:1050F0000468002CF0D02000FFF7ACFF60212000F6
:105100001EF092FBE8E70B68602099461EF07CFBDE
:105110004B4659681A68002380468D1A0360436025
:105120008360914200D1EFE0002D00DAF4E0280026
:105130001EF06AFB0400434665191C605C609D60BC
:105140004B4600250ACB5A1A8B4200D0D0E043468A
:1051500064195C604B4640461969DA6800238D1A71
:10516000C36003614361914200D1CAE06B4B9D4231
:1051700000D9D1E028001EF047FB04004346651922
:10518000DC601C615D614B46DE681B699B469E428C
:105190000CD12CE0012D00D0AFE01B78237200234E
:1051A0001836656043551834B34520D020000830C8
:1051B0002060336875689A46002B00D192E0019513
:1051C0000F2DE7D90022200001A93CF015FA019B20
:1051D0002060A3602A0051461EF010FB0023019DB1
:1051E00020681836656043551834B345DED1434610
:1051F0001C614B464046D9699A6900238C1A836129
:10520000C3610362914200D183E0454B9C4200D9C7
:1052100082E020001EF0F8FA050043462C199D613B
:10522000DD611C624B469B699A464B46DE69B2457E
:105230000CD053460024F61A534628191919022295
:1052400002341EF0DBFAA642F6D1AD194346DD6109
:105250004B464046996A5A6A00238C1A436283621D
:10526000C362914252D02E4B9C4255D820001EF072
:10527000CBFA050043462C195D629D62DC624B4609
:105280005B6A9A464B469E6AB2450CD05346002450
:10529000F61A534628191919022202341EF0AEFAE2
:1052A000A642F6D1AD1943469D624B4642461B8E3F
:1052B000414613864A464346526B5A634A46926BAE
:1052C0009A633C234A46D25CCA5442464B4640321B
:1052D000403313CB13C213CB13C203CB03C24346D9
:1052E0003B60F9E6002D00D159E70E4831F056FA3F
:1052F000200015005EF020F929E7002D00D14EE7CF
:1053000068E70025002439E7002414E7002400257D
:10531000B0E70024002580E731F020FAF8FFFF7F96
:10532000FEFFFF7FF442061070B50500406A0028BA
:1053300003D0EB6A191A1EF077FAAC69EE69B44231
:1053400015D02300A0692033984203D0236A591C4A
:105350001EF06AFA23002068083398422FD0A36811
:105360003034591C1EF060FAA642EAD1AE69002E14
:1053700004D02B6A3000991B1EF056FAEC682E6997
:10538000B4420CD023002068083398421BD0A36895
:105390001834591C1EF048FAA642F3D1EE68002ECC
:1053A00004D06B693000991B1EF03EFA2868002873
:1053B00003D0AB68191A1EF037FA280070BD3034DC
:1053C000A642BED1D2E71834A642DBD1E6E7C046FA
:1053D000F0B54E46DE465746454604000220E0B58D
:1053E0008FB002AE337308AB029071601800B260E8
:1053F000310018229B461EF001FA276A636A9F4219
:1054000058D03B005A4623CA23C323CA23C3089B50
:105410000B2B21D0226A18322262E369D21AD110F2
:105420008B005B1818011B1818021B181C041C1990
:10543000254B640064189A4244D8089B013C0B2B0E
:105440002FD0029B0B2B24D020000FB0F0BCBB460A
:10545000B246A946A046F0BD0023E8469A463B6105
:105460000AAB99461900082240461EF0C7F93B00D6
:105470004A46083303CB03C24246083B03CA03C370
:1054800052460C9B0C927A693B610D9B0D927B619D
:10549000C0E73369002BD7D004A90322080098473E
:1054A000D2E75B461B69002BCBD00AA90322080078
:1054B0009847C6E720005A4639001C30FFF74AF9E2
:1054C000226AAAE750F0B6F8009F2400F0B5DE4645
:1054D00057464E464546E0B501238FB06E460B2237
:1054E0005B420C00029203930A00330008AD0700F0
:1054F00003CA03C322002B0003CB03C208223100DE
:10550000280098461EF07AF9A36808229B460023DB
:105510009946A360E36829009A4600233000E360BF
:105520001EF06CF90822310004A81EF067F95B46F2
:1055300006935346182202A9280007931EF05EF92D
:10554000082204A930001EF059F90822414604A897
:105550001EF054F90822310040461EF04FF94B4628
:1055600006935B460C930D9B079353460D933B6A42
:105570009A467B6A9A4555D053462A0013CA13C3EC
:1055800013CA13C3089B0B2B21D03A6A18323A6214
:10559000FB69D21AD1108B005B1818011B18180276
:1055A0001B181C041C19244B640064189A4241D82F
:1055B000089B013C0B2B2DD0029B0B2B22D02000F3
:1055C0000FB0F0BCBB46B246A946A046F0BD4B4664
:1055D000524641461361300008221EF00FF953462F
:1055E0004246083303CB03C2083B06CE06C34A46F5
:1055F0000C9B0C925246136152690D9B0D925246C0
:105600005361C2E7069B002BD9D004A903220800EE
:105610009847D4E72B69002BCED00AA903220800B3
:105620009847C9E738002A0051461C30FFF792F826
:105630003A6AADE74FF0FEFF009F2400F0B5454603
:105640005746DE464E460300E0B5A0CB804697B0F5
:105650002800AF423BD07C1B20001CF0A7FB1F237F
:105660001B1A390028005A00FDF710FB102C00DC33
:1056700069E210239946013B9B460E3B2C009A465B
:10568000A944AB4422002878567801342100130045
:10569000B04200D89CE2621BA54200D084E22E708A
:1056A0005C45EFD17D1E4F450FD0230059781A7805
:1056B00001342000914205D25A701800013B1A783B
:1056C0009142F9D30170A542EFD1434621CB290085
:1056D000FDF752FB43465B68984201D04346586051
:1056E000002344461D002168EBB20093431A002BAF
:1056F0000DDD5A108E18B446009F8E5CBE4200D35A
:105700009AE161469B1A013B0131002BF1DC884292
:1057100005D00B78009A0126934200D811E10CAB1A
:105720000121009A0AA80A933BF084FF0A9B606B50
:1057300098460B9E2AF090F812AB07009A461093F9
:1057400004960F2E00D966E1012E00D05CE143469D
:1057500038211B7804AA5218137004AA53469346A2
:10576000002211969A55109B58460193019A119B5D
:1057700094463A680293D668390062466344B0475B
:105780001098504504D0129B591C01931EF04CF800
:105790000A980CAB984204D00C9B591C01931EF044
:1057A00043F8E369A66901939E421AD0049BA1467F
:1057B00098463400059F66683200BE4200D93A0020
:1057C000002A00D1D3E0414620685DF035FE002874
:1057D00000D1CCE000DCCEE0019B3034A342EAD122
:1057E0004C463023E75C0133E35CA06B984631F014
:1057F00067FF836906005B5D3B4200D094E043464F
:10580000DB0709D5037F002B00D14EE17C23C05C70
:10581000009B984200D187E02369E6680293A36B5E
:105820001800019331F04CFF804601201DF0ECFF81
:10583000421C9146009A010002704246136807001C
:105840004A465B694046984701982AF005F8534656
:1058500080464A46390010A81093FDF76DFC109B56
:105860000AA80193019A119B944642461268039339
:10587000D2684146914663446246C84710985045F5
:1058800003D0129901311DF0CFFF012138001DF026
:10589000CBFF029B991BC9108A0052181301D21822
:1058A0001302D2181304D3185B005B189A10032B51
:1058B00000DC98E10A9B0B9F9A4653009B185B0102
:1058C0009846B04418E018239946F369B1449F42C2
:1058D00000D175E030239946736BB1449F4200D1EB
:1058E0007AE048239946F36CB1449F4200D17FE0AF
:1058F0006036B04500D1E5E07368BB42E3D1002FCC
:1059000006D03A00514630685DF096FD0028DAD1A5
:105910000CAB27699A4504D00C99504601311DF013
:1059200083FFB74200D189E05B461B680126984699
:1059300006AB984505D05B469968404601311DF09D
:1059400073FF3C211F226B09615C9B002A40E31816
:10595000B14224D0012191400A00196C01350A435B
:105960001A6480235B009D4223D06068BBE6F01B75
:10597000002800DD30E7E6693A00B74200D932007E
:10598000002A05D04046A1695DF056FD002800D1EF
:10599000B81B002800DD1FE74C460126C8E701219F
:1059A00091401A6C01358A431A6480235B009D4242
:1059B000DBD117B0F0BCBB46B246A946A046F0BD4D
:1059C000002F07D03A005146B0695DF035FD002840
:1059D00000D07FE74E469BE7002FFBD03A005146B0
:1059E000306B5DF029FD002800D07AE74E468FE746
:1059F000002FEFD03A005146B06C5DF01DFD00283D
:105A000000D075E74E4683E704AA9346002E00D1E6
:105A1000A6E6180009E004AB1900002210A89B4676
:105A20003BF0EAFD049B10901293320041461DF0BA
:105A3000E5FE049E109B93E6130058E6A36A666A8F
:105A40009A46A846A146B3421ED04B46986B34787E
:105A5000757831F035FE4246836907009B5C23422E
:105A60000DD101232B4207D0037F002B11D07C23C3
:105A7000C05C009B984202D045464C4654E7023633
:105A8000B245E2D145464C465B461B680026984627
:105A90004EE724F04BFE3B68544A9B695F209342DB
:105AA000E7D05F2138009847E3E724F03FFE3368F2
:105AB0004E4A9B695F20934200D1A9E65F213000E6
:105AC0009847A5E6029B991BC9108A00521813013A
:105AD000D2181302D2181304D3185B005B18022BE0
