:020000041000EA
:1000000000B5324B212058609868022188439860DF
:10001000D860186158612E4B002199600221596106
:100020000121F02299502B49196001219960352056
:1000300000F044F80222904214D00621196600F024
:1000400034F8196E01211966002018661A6600F04E
:100050002CF8196E196E196E052000F02FF8012189
:100060000842F9D1002199601B49196000215960AB
:100070001A491B48016001219960EB211966A021F2
:10008000196600F012F800219960164914480160C1
:100090000121996001BC002800D000471248134993
:1000A000086003C880F30888084703B5996A0420EC
:1000B0000142FBD001200142F8D103BD02B5186610
:1000C0001866FFF7F2FF186E186E02BD00000240BE
:1000D000000000180000070000035F00212200005C
:1000E000F4000018222000A00001001008ED00E03C
:1000F00000000000000000000000000074B24E7A12
:1001000000200420F7010010C3010010C5010010F9
:10011000C1010010C1010010C1010010C101001097
:10012000C1010010C1010010C1010010C701001081
:10013000C1010010C1010010C9010010CB01001065
:10014000CD010010CD010010CD010010CD01001037
:10015000CD010010CD010010CD010010CD01001027
:10016000CD010010CD010010CD010010CD01001017
:10017000CD010010CD010010CD010010CD01001007
:10018000CD010010CD010010CD010010CD010010F7
:10019000CD010010CD010010CD010010CD010010E7
:1001A000CD010010CD010010CD010010CD010010D7
:1001B000CD010010CD010010CD010010CD010010C7
:1001C00000BE00BE00BE00BE00BE00BE00F04BF888
:1001D000103800BEF2EB8871ACA60A10C8A60A104F
:1001E0003402001090A31AE700202149086006C8D5
:1001F00081F3088810471F48006800282FD10DA4FC
:100200000ECC002902D000F012F8F9E71A491B4A77
:10021000002000E001C19142FCD1194988471949E9
:1002200088471949884700BEFDE701C901C29A42C3
:10023000FBD37047C8A60A10C0000020B4200020DD
:10024000BCC60A100000042000000420BCC60A102E
:1002500000100420001004200000000070470B482C
:1002600013F0FEFA0047EFF30580C0B270470000BC
:1002700008ED00E0000000D0B8200020B0AC002065
:100280009D1B01107DEA0010C51C0110575600008F
:1002900006005250ABB3605390E70910060052506D
:1002A000861C0302A0E70910060052505422A29DAA
:1002B000A8E7091005005250DE65F468BCC60A10B4
:1002C000F8B5C04610B5064C2378002B07D1054B76
:1002D000002B02D0044800E000BF0123237010BDB2
:1002E000D023002000000000984F0510044B10B5EB
:1002F000002B03D00349044800E000BF10BDC046F6
:1003000000000000D4230020984F05107047C0461D
:100310000122084B10B51A70074B02321A700023E5
:100320009620064A40001360054A13600FF03CFD1A
:1003300010BDC046A9AC0020A2AC002090AC0020AB
:1003400094AC0020F0B5DE4657464E464546E0B533
:100350008DB06A46436808AF0833DB08DB00D31A68
:100360009D4608AC0168200048F036F923783A2B06
:1003700003D0637801343A2BFBD16578642D00D12A
:10038000B6E0042301347B600623BB606F2D00D1EF
:10039000A3E0622D00D189E0EE231B019B46002DD6
:1003A0006BD0604B9A46604B1B78002B00D079E0F5
:1003B0002A00303A092A6CD800218B005918657838
:1003C000490051182A00303A0134092AF5D9002988
:1003D0005FD0584613F076FA0023613DEDB298469F
:1003E000F860062D02D8514B5B5D98466578232D49
:1003F00051D001342E2D09D1FA6865789446D30F77
:1004000063445B109C4463460134FB602B00BA6874
:10041000303B9146092B03D8DBB29946657801340D
:100420002C2D01D1657801344346002B2DD0642357
:100430000793F86813F05AFD3D4A3E4B13F0DDFC7C
:1004400013F090FD4A46043A53009B189B003A4A29
:10045000434406905B009B5E6A4605935346103307
:1004600043CB43C203CB03C253460FCB0EF072FC07
:10047000F8680FF099FC002D95D1BD4605B0F0BC91
:10048000BB46B246A946A046F0BDF8680FF08CFC0A
:10049000F1E779689DE743460133DBB2A5789846DA
:1004A0000234A7E70023204A1370E6E7A278002170
:1004B000303AA01C092A08D88B005918490001308D
:1004C00051180278303A092AF6D94578441C1B485D
:1004D00013F0F8F983009B4661E7A3781A00333ADA
:1004E000042A02D8303BDBB2BB602579043450E7E4
:1004F000E178E01C3039092910D800239A00D3187C
:100500005B000130CB18017830390929F6D9002B6E
:1005100004DDDBB27B604578441C35E704237B6057
:10052000F9E7C0463C960020A9AC0020005E05100B
:10053000CDCCCCCCCCCCEC3F7C12002060EA0000CF
:10054000F0B54546DE4657464E469E4BE0B59846CA
:100550009D4BADB09B4604AF0AAE10AD9B4C002244
:1005600026A902A82694029732F088FD22000024D2
:10057000269B41460493029014F082FE269B029A29
:100580000393D454924B01929946002226A908A8BD
:100590002693089632F072FD269B4A468D490A93AF
:1005A000089014F06DFE269B089A0993D4548A4B48
:1005B00001929946002226A90EA826930E9532F0A4
:1005C0005DFD269B4A46854910930E9014F058FE17
:1005D000269B0E9A0F93D45416AB1493F4230192D6
:1005E00026A9002214A8269332F048FD269BF42267
:1005F00059461693149014F043FE269B149A1593B3
:10060000D45401920FF0BCFB754B984207D9754B3F
:100610001B78022B6AD0032B46D0002B21D01498D4
:1006200016AB984204D0169B591C019314F03EFE61
:100630000E98A84204D0109B591C019314F036FE6A
:100640000898B04204D00A9B591C019314F02EFE66
:100650000298B84282D0049B591C019314F026FEE4
:100660007CE71CAB99461A930E9B0F9C9A46002B75
:1006700000D18AE026940F2C78D8012C00D090E08D
:1006800068211B7802AA521813704A4600231B9453
:100690001AA81355FFF756FE1A984845BFD01C9963
:1006A000013114F003FEBAE728AB99462693089B64
:1006B000099C9A46002B71D020940F2C47D8012C0E
:1006C0007AD198211B7802AA521813704A46002347
:1006D000279426A81355FFF735FE269848459ED047
:1006E000289B591C019314F0E1FD98E722AB20935D
:1006F000149B159C9946002B4BD026940F2C17D891
:10070000012C54D180211B7802AA5218137022AAFE
:100710000023219420A81355FFF714FE209822AB44
:10072000984200D17BE72299013114F0BFFD76E7B2
:10073000002226A920A832F0A1FC269B209022931B
:100740002200494614F09CFD269C209AE0E70022F6
:1007500020A926A832F092FC209B26902893220004
:10076000514614F08DFD209C269AB0E7002226A960
:100770001AA832F083FC269B1A901C932200514643
:1007800014F07EFD269C1A9A80E7002C03D14A467D
:100790007CE7002CBBD0144827F042FD002C95D0FC
:1007A000F9E74A46002C00D170E74846E6E722AA5E
:1007B000002CADD01000C3E74A46002C87D0484635
:1007C000CDE7C046984F05103C5C05105D03000066
:1007D000D6040000F85205106A040000D057051036
:1007E000DC050000A2AC0020345D0510F0B5DE464B
:1007F00057464E464546E0B5584B83B01B6801202E
:100800000193002B06D003B0F0BCBB46B246A9460C
:10081000A046F0BD00220F33002100200EF056FC50
:100820004F4B4F4A1B6800270193013313600F227F
:10083000904600229346FAB20F2591469F4200DB74
:1008400085E05B46DB009A461E005C46FF000134F3
:10085000310008230822380064B20EF089FD083602
:10086000A542F4DC4F4601377FB2474547DA6B1E9D
:100870005BB20193DB00994643463C00A846FE006C
:100880004D46B9461F0001343000082308222900D4
:1008900064B20EF06DFD0836A742F4DC4546012334
:1008A000B846023D5B4243446DB24F4699465D45B2
:1008B00011DBB8465F465CB2E400EE00013D31005A
:1008C0000823082220006DB20EF052FD083EAF4210
:1008D000F4DDBB4647464B465BB29846019B9B45C1
:1008E0003ADB78237822002100200EF041FD96208B
:1008F0000FF05AFA0123194A0120136083E7013DE2
:100900006DB25D45EDDD01235B4243445CB2E60020
:10091000A7420DDCA9465546013C300008230822B9
:10092000290064B20EF024FD083EA742F4DD4D46D6
:100930005B4601335BB29B464745D2DAAB45D0DA22
:10094000074BFAB21B6891469F4200DA79E73220E2
:100950000FF02AFA002056E71D00D4E794AC0020DF
:1009600090AC0020F0B5CE46474680B53B4B050025
:100970001B7887B0022B08D0032B5CD0002B54D0FF
:1009800007B0C0BCB946B046F0BD354B354F1B680B
:100990003A6898467B689446002000219E1A0022FF
:1009A000029003910492634551D02F4B9E4253D83D
:1009B000300014F06BFC3B6804009C4662467B6888
:1009C0009A1A9146A6190294039404969C4504D061
:1009D0004A466146200054F0CFFA244B4C449946D5
:1009E0001B68404600930122290002AB039401F0EA
:1009F0002FF90298002803D00499091A14F056FC24
:100A00001B4B2900186800F065FC50CFB44206D09B
:100A100001CC0122290001F0D3FAA642F8D14B46BD
:100A20002900186802F0F2FBAAE7124B29001868A7
:100A30000DF092FEA4E70D4C0F4B290018682268B8
:100A40000DF05AFB2900206802F0E0FB98E7002235
:100A5000002691460024B5E727F0C2FBA2AC002097
:100A600058AC00204CAC0020FCFFFF7F10AC0020F5
:100A70000CAC002088AC002060AB00201D4B70B592
:100A80001B780500022B04D0032B28D0002B20D08C
:100A900070BD194C01220100206800F03BFC174B8F
:100AA0002900186801F0AEF920680122290000F041
:100AB00047FC134B50CBB44205D001CC290001F0C8
:100AC000E3FAA642F9D10F4B2900186802F060FC46
:100AD000DEE70D4B290018680DF068FED8E7FFF738
:100AE00085FE0028D4D0094B290018680DF062FC5F
:100AF000E9E7C046A2AC00200CAC002058AC0020B6
:100B00004CAC002010AC002088AC002060AB002072
:100B1000F8B5574645464E46DE460368E0B5476899
:100B20009246344A9946FB1A050088469B10934228
:100B30005CD00126002B02D05E00B34250D8434661
:100B40004A469C1A002E1BD100239B4652465B4608
:100B500012681A51002C23DC434604345C44FF1A0B
:100B6000002F30DC4B46E719002B35D15B466F6018
:100B7000AE602B60F0BCBB46B246A946A046F8BDAD
:100B800080239B059E422FD2B600300014F07EFBDE
:100B9000834652465B4612685E441A51002CDBDDE8
:100BA00022004946584654F0E7F9434604345C4471
:100BB000FF1A002F07DC4A46AB68E719991A484626
:100BC00014F074FBD2E73A004146200014F058FBC1
:100BD0004B46E719002BC9D04A46AB68991AEEE795
:100BE0004A46054E8C1AD0E7024ECDE7034827F05F
:100BF00047FBC046FFFFFF1FFCFFFF7F605D051046
:100C0000F0B524208FB014F041FB040034223421CD
:100C100000F0BAFB854B10201C6014F037FB040079
:100C200000F020FA824B2C201C6014F02FFB0400F3
:100C300002F0DEFA7F4B10201C6014F027FB04004A
:100C40000DF050FA7C4B01201C6014F01FFB7B4B15
:100C50001860302014F01AFB01220400784B542154
:100C60001B680192774A12680092342201F094F9CD
:100C7000754D06946968AB68994200D1BAE010C11D
:100C800069602B688B4200D1C0E0002108220CA8CB
:100C90001F6814F0EFFA6D4E08AC23003200069482
:100CA00003CA03C3118838001980927823219A70EF
:100CB0000B230793002302AA5218137006A901F010
:100CC000EDFA0698A04204D0089B591C039314F037
:100CD000EDFA2B686A689A4200D197E01F681423E6
:100CE000002205A906A80593069432F0C7F9059BD2
:100CF000142257490893069014F0C2FA0023059A6B
:100D0000069907928B540C93524B380006A90D9309
:100D100001F0C4FA0698A04204D0089B591C039322
:100D200014F0C4FA302014F0B1FA012207004A4B43
:100D300074211B680192494A12680092342201F022
:100D40002BF96968AB680697994259D080C16960F0
:100D50002B68C91A042963D9082200210CA85F68EE
:100D600014F088FA2300069406CE06C332882321A5
:100D70001A80B27838009A700B230793002302AAD6
:100D80005218137006A901F089FA0698A04204D0FF
:100D9000089B591C039314F089FA2B686A68D21ACD
:100DA000042A38D95D681123002205A906A80593F5
:100DB000069432F063F9059B1122294908930690A5
:100DC00014F05EFA0023059A069907928B540C934F
:100DD000244B280006A90D9301F060FA0698A04262
:100DE00003D00899013114F061FA1F4814F0A8FEED
:100DF0000FB0F0BD280006AAFFF78AFE696840E739
:100E0000280006AAFFF784FE6968A1E700221748B8
:100E1000110027F065FA01211448921027F060FABA
:100E20008A101248012127F05BFAC04658AC002016
:100E30000CAC002010AC002060AB002088AC00207F
:100E400018AC002014AC00204CAC0020C85D05108C
:100E5000D45D05101103001020AC00201CAC002054
:100E6000EC5D05100D030010410500107C5D0510C0
:100E700010B53223002486B00093C82214214C48B8
:100E8000059404940394029401940DF051FF3C23C3
:100E9000002205936421474804940394029401942A
:100EA00000940DF045FF1021434AC0200EF070FE63
:100EB000424B38211860424B424A186038200EF0ED
:100EC00067FE414B10211860404B414A1860C0201A
:100ED0000EF05EFE3F4B382118603F4B3F4A1860D2
:100EE00038200EF055FE3E4B102118603D4B3E4A17
:100EF0001860C0200EF04CFE3C4B382118603C4B73
:100F00003C4A186038200EF043FE3B4B102118601D
:100F10003A4B3B4A1860C0200EF03AFE394B38215C
:100F20001860394B394A186038200EF031FE384BC2
:100F300010211860374B384A1860C0200EF028FE88
:100F4000364B38211860364B364A186038200EF080
:100F50001FFE354B10211860344B354A1860C020F5
:100F60000EF016FE334B38211860334B334A1860AD
:100F700038200EF00DFE324B10211860314B324AF2
:100F80001860C0200EF004FE304B38211860304B42
:100F9000304A186038200EF0FBFD2F4B18602F4BA5
:100FA00018602F4B1C605C609C6006B010BDC04692
:100FB0003C960020482500208809061014240020B3
:100FC00018AC0020085E05101024002014AC00208E
:100FD0008C2106101C24002020AC002088760510EF
:100FE000182400201CAC0020903906102424002076
:100FF00028AC0020088F05102024002024AC0020FD
:10100000905106102C24002030AC002088A7051039
:10101000282400202CAC00209469061034240020E1
:1010200038AC002008C005103024002034AC00206B
:10103000948106103C24002040AC002088D8051084
:10104000382400203CAC0020949906104424002051
:1010500048AC002008F105104024002044AC0020DA
:101060004CAC00200023036043608360C360704782
:10107000F8B5CE464746050089469046002680B51D
:101080000024F70049466B68F3189A00D2182B68C1
:101090005201E3185B00C918885E411C11D0EB684F
:1010A000E100FA18AB680C3A9C4661440C390EF02A
:1010B000ABFA6B68F3189A00D2182B685201E31848
:1010C0005B004344985E431C09D0EB68E100FA18CA
:1010D000AB680C3A9C4661440C390EF095FA013429
:1010E000122CCFD10136122ECAD1C0BCB946B0469F
:1010F000F8BDC046F8B5DE46574645464E4628235D
:10110000E0B504008A4605259B4661686B1F98463A
:10111000CB189A00D218C82352019B00D31822681A
:101120005344501D4000C75E7E1C1ED06E18B14651
:10113000B600B446CC44664650447601805F461CF7
:1011400013D0E368A1681A005A440C3A1C310EF01F
:101150005BFA43466168CA1893009B18C822920044
:1011600094465B01634422685344901D4000C75E6F
:101170007E1C1ED06E18B146B600B446CC446646FE
:1011800050447601805F461C13D0E368A1681A00C2
:101190005A440C3A24310EF037FA43466168CA18B3
:1011A00093009B18C822920094465B016344226816
:1011B0005344D01D4000C75E7E1C1ED06E18B14641
:1011C000B600B446CC44664650447601805F461C67
:1011D00013D0E368A1681A005A440C3A2C310EF07F
:1011E00013FA43466168CA1893009B18C8229200FC
:1011F00094465B0163442268534410000830400069
:10120000C75E7E1C1ED06E18B146B600B446CC44F4
:10121000664650447601805F461C13D0E368A1689F
:101220001A005A440C3A34310EF0EEF94346616824
:10123000CA1893009B18C822920094465B0163442D
:1012400022685344100009304000C75E7E1C1ED047
:101250006E18B146B600B446CC446646504476019A
:10126000805F461C13D0E368A1681A005A440C3A08
:101270003C310EF0C9F943466168CB189A00D31887
:10128000C822920094465B016344226853440A32A8
:101290005200D35E01330FD06B189900CB185B015D
:1012A0005244D05E431C07D0E368A1681A005A4438
:1012B0000C3A44310EF0A8F908239C460135E3446A
:1012C0000B2D00D021E7F0BCBB46B246A946A04694
:1012D000F8BDC0460722110070B50D4C2368656843
:1012E000DE173140C918C910494201601100EC17DE
:1012F000760F2140640F9B1949192D191340C9100D
:101300002A409B1B4942121B41608360C26070BD32
:1013100098AC002010B50400012A00D010BD054B88
:1013200018680DF041FF2000034A0449FFF7A0FEB2
:10133000F4E7C0468CAC002094B1061094E306108C
:1013400010B50400012A00D010BD044B18680DF040
:101350002BFF20000249FFF7CDFEF5E78CAC002003
:1013600094B1061010B5A021A820044A0EF010FC7C
:10137000034B1860034B186010BDC046941507104E
:10138000482400208CAC002010B50124074B81615B
:101390001C600023036043608360C360044BC26130
:1013A00003610223FF338382847510BDE41400209F
:1013B00001000001F0B54F46D6464646C0B5536819
:1013C000176804008A46994684B09F4266D000237D
:1013D0000F259846504E3A680395029570685369F8
:1013E00084466344019313693268E1699446634417
:1013F00000930F220F23A06910310EF0E7FB0028A5
:1014000001D04346E3743A680395029570685369C6
:1014100084466344019313693268E16994466344E6
:1014200000930F220F23A06910390EF0CFFB002884
:1014300001D0434623753A68039502957168536954
:101440008C466344019313693268A06994466344EF
:1014500000930F220F23E16910380EF0B7FB00282C
:1014600001D0434663753A680395029571685369E4
:101470008C466344019313693268A06994466344BF
:1014800000930F220F23E16910300EF09FFB00281C
:1014900001D04346A3750437B9459CD1C82562687D
:1014A000ED0093009B182268AC4651005246A425DB
:1014B0005B01D218501860441026805FFF35A842A7
:1014C00001D10020E074F02080008446A42052184E
:1014D00062441025525FFF30824201D10022227502
:1014E000A022D2009446A42263445B1853440C20EB
:1014F000195EFF32914201D100226275A4221421AB
:101500005B5EFF32934201D10023A37504B0E0BCBF
:10151000BA46B146A846F0BD98AC0020F0B5DE460C
:10152000454657464E46E0B54B680C6897B00500F7
:101530009B4605929C4200D1D4E0D64B984603E0EE
:101540000434A34500D1CDE012200EF0FBFB0028AF
:10155000F6D02B7C002BF3D00F2340462268E9699C
:10156000039302934068536984466344019313696B
:101570004246126810319446634400930F220F23B1
:10158000A8690EF023FB002804D02023EB5C012B7C
:1015900000D105E122680F234046E96903930293D5
:1015A0004068536984466344019313694246126854
:1015B00010399446634400930F220F23A8690EF05C
:1015C00005FB002800D094E022680F234146A8695B
:1015D00003930293496853698C46634401931369EA
:1015E0004246126810389446634400930F220F233A
:1015F000E9690EF0EBFA002804D02023EB5C022B03
:1016000000D11FE122680F234146A869039302938A
:10161000496853698C4663440193136942461268D2
:1016200010309446634400930F220F23E9690EF0B3
:10163000CDFA002884D02023EB5C032B80D100223C
:1016400000212368186A9946DB69129113920022DF
:101650000490C71A1492984200D116E28E4B9F4212
:1016600000D91EE2380013F011FE4A464B46060030
:10167000126ADB690492F719129613961497934233
:1016800000D176E11F00A146AA4611E0012C00D04E
:10169000F7E12B783372002374600355BB69B361A3
:1016A000FB692037F361049B2036BB4200D15EE129
:1016B0003000083030603D687C68002D00D128E1A2
:1016C0000E940F2CE2D9002230000EA931F0D6FC86
:1016D0000E9B3060B3602200290013F0D1FD0E9CF8
:1016E0003068D8E717B0F0BCBB46B246A946A04662
:1016F000F0BD2023EB5C2268002B00D065E70020C2
:101700000021166A9146D2690A900B910496B71A85
:101710000C93964200D1ECE05F4B9F4200D9C0E1B0
:10172000380013F0B3FD4B460600DA691B6A0493D8
:10173000049BF7190A960B960C979A4200D1EEE09B
:101740001700A146AA4611E0012C00D08DE12B78AC
:101750003372002374600355BB69B361FB692037A2
:10176000F361049B2036BB4200D1D6E03000083044
:1017700030603D687C68002D00D1BDE012940F2CD4
:10178000E2D90022300012A931F078FC129B3060BF
:10179000B3602200290013F073FD129C3068D8E773
:1017A000002200212368069107920022186A9946B8
:1017B000DB690490C71A0892984200D169E1364B60
:1017C0009F4200D96DE1380013F060FD4A464B4658
:1017D0000600126ADB690492F719069607960897C5
:1017E000934200D1EFE01F00A146AA4611E0012C70
:1017F00000D03EE12B783372002374600355BB693F
:10180000B361FB692037F361049B2036BB4200D1F2
:10181000D7E03000083030603D687C68002D71D022
:1018200012940F2CE3D90022300012A931F026FCCB
:10183000129B3060B3602200290013F021FD129C3E
:101840003068D9E7002200212368186A9946DB69CD
:101850000E910F9200220490C71A1092984200D164
:101860001BE10D4B9F4200D91BE1380013F00EFD28
:101870004A464B460600126ADB690492F7190E9637
:101880000F961097934200D1C7E01F00A146AA46C9
:1018900016E0C04698AC0020E0FFFF7F012C00D08E
:1018A000EBE02B783372002374600355BB69B3619E
:1018B000FB692037F361049B2036BB4200D1AAE0CC
:1018C0003000083030603D687C68002D1ED01294D6
:1018D0000F2CE3D90022300012A931F0CFFB129B6C
:1018E0003060B3602200290013F0CAFC129C3068FB
:1018F000D9E7002700261BE7002C00D129E76A481A
:1019000026F08EFC002C00D176E7F8E7002CCAD038
:10191000F5E7002C00D1BEE6F1E74C4655460598A8
:101920000AA90B960BF0AAFE0A9E0B9FBE420CD092
:10193000330030680833984215D0B3682036591CFC
:1019400013F0B4FCB742F3D10A9F002F04D00C99D6
:101950003800C91B13F0AAFC2268544BD16A1960E5
:101960000123137631E62036B742E1D1ECE74C464D
:101970005546059812A913960BF080FE129E139FF0
:10198000BE420CD0330030680833984215D0B3689B
:101990002036591C13F08AFCBE42F3D1129F002F4F
:1019A00004D014993800C91B13F080FC23683F4A07
:1019B000D96A116002221A76C2E52036B742E1D117
:1019C000ECE74C465546059806A907960BF056FEDF
:1019D000069E079FBE420CD0330030680833984201
:1019E00015D0B3682036591C13F060FCB742F3D110
:1019F000069F002F04D008993800C91B13F056FC2D
:101A000022682A4BD16A196000231376C3E5203679
:101A1000B742E1D1ECE74C46554605980EA90F9622
:101A20000BF02CFE0E9E0F9FBE420CD03300306890
:101A30000833984215D0B3682036591C13F036FC91
:101A4000BE42F3D10E9F002F04D010993800C91B5D
:101A500013F02CFC2268154BD16A1960032313760E
:101A6000D1E52036B742E1D1ECE7002C00D170E699
:101A70008FE6002C00D1BFE6DDE6002C00D112E796
:101A800030E7002C00D106E625E6002700260200FC
:101A9000F1E50027002602009EE60027002602004E
:101AA000ECE626F09DFBC046345D0510F4AB00204B
:101AB00070B5040014200EF057F900281DD0237CC7
:101AC000002B1AD0E37C002B00D078E001232022E9
:101AD000A354A37413200EF047F900280CD05B4ADE
:101AE0001168CB0F5B185B1051685B001360CB0F64
:101AF0005B185B105B00536070BD17200EF034F96B
:101B000000280BD0237C002B08D0237D002B4AD14A
:101B100020230022E2541F3BA374DBE716200EF0C3
:101B200023F900280BD0237C002B08D0637D002BE9
:101B30005BD120230222E2541F3BA374CAE7152085
:101B40000EF012F900280BD0237C002B08D0A37DC7
:101B5000002B3FD120230322E2541F3BA374B9E79B
:101B60003A4D6B681B070BD12B681B0705D0202350
:101B7000E35C022B50D0032B5BD00023A374A9E7B6
:101B80002023E65C012E3CD0002EEDD113200EF078
:101B9000EBF8431E98416B6801309C46012360447A
:101BA0006860A37496E713200EF0DEF8431E984198
:101BB000264B01305A68944660445860A8E71320C9
:101BC0000EF0D2F8431E9841204B01305A68101A8B
:101BD00058607BE713200EF0C7F8431E98411B4B5B
:101BE00001301A68101A1860B4E713200EF0BCF820
:101BF000431E9841154B01301A68944660441860A2
:101C000097E713200EF0B0F8431E98416B6801303F
:101C1000181A6860A6745DE713200EF0A5F8431E3D
:101C200098412B6801309C46012360442860A374CE
:101C300050E713200EF098F8431E98412B680130AE
:101C4000181A01232860A37444E7C04698AC00200A
:101C5000F0B51D00674B040042CB30000F23084352
:101C600003405842434107202374CB179C4603404E
:101C70005B18DB105B4223600300F7173B409B19A6
:101C8000DB105B42636063465B0FC9180140C646C8
:101C9000C91A0123A160022100B57F0FE374A37567
:101CA000554BF61930401B78C01BFF3188B0E060FF
:101CB000A182002B33D1012A35D02000FFF7F8FE96
:101CC0000023002204920593002368682968069384
:101CD000471A884200D181E0484B9F4200D986E0F4
:101CE000380013F0D3FA296806006868451AF71916
:101CF000049605960697814203D02A00300053F0DF
:101D00003BF920000E9A761904A90596FFF706FC08
:101D10000498002803D00699091A13F0C7FA08B0EE
:101D200080BCB846F0BD29686A688C460020571A06
:101D30000021029300900191624553D02F4B9F42A6
:101D400055D8380013F0A2FA2B686A689C46D31A5B
:101D500006009846F719009601960297944504D01C
:101D600042466146300053F007F946440196244E3E
:101D700020006A463100FFF71DFB0098002803D0C1
:101D80000299091A13F092FA0023D1206268637451
:101D900093009B18226840005100B42280465B01EA
:101DA000D2009A185218B2181020175E474512D068
:101DB0001220125E42450ED0A022D2009446634407
:101DC0005B18F31810215A5E424504D012229B5E24
:101DD000434500D071E7012363746EE700250027B7
:101DE000002684E70023002798460026B2E726F065
:101DF000F7F9C04698AC0020ADAC0020FCFFFF7F97
:101E000028790810F8B5304B04001B680E00022B2F
:101E100031D0032B39D0012B32D02023E35C0025B5
:101E2000032B02D8294A9B009D58A37C002B03D08A
:101E3000274B1B78002B2DD02800E269A1690DF0FB
:101E4000E3FBA169E2690831681C0DF0DDFB637CEE
:101E5000002B00D0F8BD2800E269A16908321830D3
:101E60000DF0D2FB2800E269A1690832083119306F
:101E70000DF0CAFBEEE7174B18680DF095F9CCE7AB
:101E8000154B18680DF090F9C7E7144B18680DF062
:101E90008BF9C2E713200DF067FF00280FD10A2746
:101EA0002821300011F036FD0800390011F032FD14
:101EB00040000428C0D0062804D02D18BCE706270F
:101EC0001821EEE70435B7E7E414002094E7071083
:101ED000ADAC002078AB00206CAB002084AB0020C0
:101EE00010B510211A4AC0200DF052FE194B3821AE
:101EF0001860194B194A186038200DF049FE184B2C
:101F000010211860174B184A1860C0200DF040FED1
:101F1000164B38211860164B164A186038200DF001
:101F200037FE154B10211860144B154A1860C0205D
:101F30000DF02EFE134B38211860134B134A186016
:101F400038200DF025FE124B1860124B186010BDA2
:101F500024310810F42300206CAB0020A4E7071004
:101F6000F023002068AB0020244908100024002042
:101F700078AB002024000810FC23002074AB002064
:101F8000246108100C24002084AB0020A418081041
:101F90000824002080AB0020F0B505AC40CC012720
:101FA00025780024C760C6620576C4610462446275
:101FB000016142610460446004728362F0BDC04606
:101FC000094910B50C680722A4460B68DB171340BB
:101FD0006344DB105B4203604B68D9170A40D21898
:101FE000D2105242426010BD98AC0020F0B5574666
:101FF0004E46DE464546E0B51E0087B010338246A9
:102000000592882B39D813001033882B35D80B0153
:1020100098460023994601339B4633004E46994625
:1020200005E001239C460136E144102E25D04B46A5
:10203000002BF6DB3300002446469846059D002D14
:1020400013DB53469F6A3000396811F03BFC0023D4
:1020500003934B4602935B46020100933800012331
:102060004244091901950DF0EBF901340135102CAA
:10207000E5D14346B0461E00D3E707B0F0BCBB46EF
:10208000B246A946A046F0BD037E002110B5032B41
:1020900002D8074A9B0099584469064AA4465368E7
:1020A00004696344A44612686244FFF79FFF10BDB1
:1020B00028AB081098AC0020F0B545465746DE46E0
:1020C0004E46E0B543689246026889B09046019357
:1020D0009B1A6E4A0D000C0005905B11934200D1D3
:1020E000D1E0002B50D05A000392934200D9A6E0D1
:1020F0004346EB1A0493039B002B4DD11E00029321
:10210000049B9C4653461B686644994653463000E0
:102110005F684B4608303060002B00D1A5E0079780
:102120000F2F00D992E0012F00D0A8E01B78337266
:1021300000237760C35553469B69B3615346DB69FF
:10214000F361A84500D198E008234344A1464646E0
:102150001C00029F0DE03B60B368BB6073682034D5
:102160007B60B369BB61F3692036FB612037AE4207
:102170001ED03800083038603368A342EBD11022FB
:10218000210013F07DF8E9E7013303934346EB1A8E
:102190000493039B002BB1D08022D20493426AD2D5
:1021A0005B011800039313F071F806000290A7E793
:1021B000029A4C469446049B6344202292469A44D9
:1021C000019BAB4220D02E005B1B9B465546083638
:1021D0000EE02B60A368AB60636820366B60A36978
:1021E000AB61E3692034EB61019B20359C420AD04E
:1021F0002800236808302860B342EAD11022310059
:1022000013F03EF8E8E7DA444346002B07D0424695
:10221000059B40469B68991A019313F047F8029A70
:10222000514694460398059B60441A605960986033
:1022300009B0F0BCBB46B246A946A046F0BD434635
:10224000CB1A0493124B18000393ACE70022300022
:1022500007A930F013FF079B3060B3603A0049468E
:1022600013F00EF8079F306862E7002F00D15FE798
:10227000084825F0D5FF054B92E7029B9DE7002F0C
:1022800000D155E7EAE7044825F0FAFFFFFFFF0316
:10229000E0FFFF7F345D0510605D0510F0B5C646B8
:1022A00000B5056A436A04000E0082B09D4221D049
:1022B0002800083028600B684F689846002B14D01F
:1022C00001970F2F1CD8012F29D11B782B720023C7
:1022D0006F60C355B369AB61F369EB61236A203367
:1022E000236202B080BCB846F0BD002FEFD00D488D
:1022F00025F096FF0A001C302900FFF7DDFEF0E70D
:102300000022280001A930F0B9FE019B2860AB60D3
:102310003A00414612F0B4FF019F2868D7E7002F2A
:10232000D5D0F5E7345D0510080070470800704708
:102330007047C046012A00D1016000207047C046A6
:1023400008780A2804D00D38431E9841C0B270475F
:102350000020FCE7012A00D1016000207047C04640
:1023600008780A2804D00D38431E9841C0B270473F
:102370000020FCE70B784078C01A43425841C0B2B5
:102380007047C0460B780079C01A43425841C0B22A
:102390007047C0461F230268012010B50C78234007
:1023A00098400300610989005218D06B1840431E01
:1023B0009841C0B210BDC0461F230268012010B56D
:1023C0000C78234098400300610989005218106C72
:1023D0001840431E9841C0B210BDC0461F2302687A
:1023E000012010B50C782340984003006109890052
:1023F0005218106C1840431E9841C0B210BDC04620
:102400001F230268012010B50C7823409840030078
:10241000610989005218106C1840431E9841C0B2DF
:1024200010BDC0467047C046074B0C3010B50400C5
:10243000994206D0080030F09BF8431E9841404274
:102440000440200010BDC046A8B0081010B504001C
:10245000382112F02BFF200010BDC04610B53821E6
:1024600012F024FF10BDC046012A03D0022A03D077
:10247000002070470160FBE70B680360F8E7C04687
:10248000012A03D0022A03D0002070470160FBE735
:102490000B680360F8E7C046012A03D0022A03D084
:1024A000002070470160FBE70B680360F8E7C04657
:1024B000012A03D0022A03D0002070470160FBE705
:1024C0000B680360F8E7C046012A03D0022A03D054
:1024D000002070470160FBE70B680360F8E7C04627
:1024E000012A03D0022A03D0002070470160FBE7D5
:1024F0000B680360F8E7C04610B5012A03D0022A32
:1025000003D0002010BD0160FBE712F0B9FEF8E730
:10251000012A03D0022A03D0002070470160FBE7A4
:102520000CC90CC0F8E7C046012A03D0022A03D028
:10253000002070470160FBE70CC90CC0F8E7C046FB
:10254000012A03D0022A03D0002070470160FBE774
:102550000CC90CC0F8E7C046F0B54F464646D64613
:10256000541E9146E20F121952109046C0B5914286
:1025700031DA0F007C1C6400651E42199246025D30
:1025800006199446425D624537D86246C255A04559
:1025900003DD2700EEE756462C004A46D2071FD53A
:1025A000621ED50FAD186D108C4209DC0DE002558E
:1025B0006C1EE20F121952102C00A94205DA150008
:1025C000425D46199A42F2D306193370E0BCBA460E
:1025D000B146A846F0BD4A464618D207F5D40C00CD
:1025E0004D46023DEA0F521952109442D8D1640070
:1025F0000134025D32700619D2E7C255A845CADD22
:102600002C002700B6E7C0460122F8B517000D4C94
:102610000E782378BFF35B8F1F401A4206D00A4D15
:102620002878801B431E9841C0B2F8BD200013F0EB
:10263000ADFA054D0028F3D020002F7013F0C2FA38
:10264000EEE7C0462C250020A6AC00200122F8B5FC
:1026500017000D4C0E782378BFF35B8F1F401A4292
:1026600006D00A4D2878801B431E9841C0B2F8BDA1
:10267000200013F08BFA054D0028F3D020002F70B6
:1026800013F0A0FAEEE7C04628250020A5AC0020F4
:10269000F8B5CE4647460B1A80B5060017008C46A3
:1026A0009946102B66DD431C9846002A47D06346A6
:1026B00061469A1BD30F9B185B10F2187078F35C7D
:1026C00001390C78013F98421DD2A34231D3A04278
:1026D0001DD33378307073700A7863464446013BEB
:1026E00021782500814203D20134F9E7013B1A78B1
:1026F0008242FBD8A3420FD92270013B5970307837
:102700001A780134ECE7A042E3D3A34211D2327825
:1027100034700A703078E0E73A0061462000FFF735
:10272000B7FFA31B9946102B24DD002F08D0A44629
:10273000BDE730783370107030780A78CDE70D003F
:102740004B469C1E641000E0013C4A4621003000CC
:10275000335DFFF701FF002CF6D1013D3278AC1B51
:102760002B7800212A7030002200FFF7F5FE013D92
:10277000012CF3DCC0BCB946B046F8BD70B5884248
:102780000BD002004E1E03E01C785D78A54206D0F7
:102790001300013210009E42F6D108000FE08B4278
:1027A000FBD09A1C8A4201D109E01C781578A54219
:1027B00001D05D70013301328A42F6D1581C70BDE0
:1027C000F8B5CE464746050080B5814229D050C9AC
:1027D0000368371B99464A4683689B1A9C469F426A
:1027E00023D84B464268D11A8F4241D8002F16DDBC
:1027F000B9108B005B181A019B181A029B181A0457
:102800009A184B46520052182168013A19606168C3
:102810005960217A0C3419720C33002AF4D14F44D8
:102820006F60C0BCB946B046F8BD002F4AD0284BF7
:102830009F424AD8380012F029FD2B6880469946FD
:102840004A46AB689B1A9C464346A64203D007CC37
:1028500007C3A642FBD14B46002B03D06146484636
:1028600012F024FD434647442B60AF606F60D8E709
:102870006318002922DD89108C4689006144080113
:102880008046414408028046414408048046414451
:1028900049008C4449462068086060684860207A96
:1028A0000C340872012040428046C44460460C311A
:1028B0000028F0D19E42B2D013CB13C29E42FBD16E
:1028C0004F44ADE700239846BEE725F089FCC0469B
:1028D000F8FFFF7F70B50C00220009680832050080
:1028E0000368914218D0083083420DD02960616896
:1028F000A8686960A168A960002B0AD02360A06065
:10290000002262601A7070BD636829606B60A36802
:10291000AB6013002260F3E76268002A06D0012A48
:1029200009D0180012F0ACFC62682B6800216A60C4
:1029300099542368E4E7227A1A7062680368F5E71D
:10294000F0B5D6464F46464694229821C0B58358E6
:102950004158040082B08B4200D1EBE0591C8150F9
:102960001D789C23C058461933001E33FF33197855
:1029700000290BD10368704A1B6A2900934200D0DA
:1029800086E0002902D01E36FF3631708823E258D7
:102990001378002B04D12AE093780232002B26D042
:1029A0009942F9D1622D15D17C23E35C022B11D021
:1029B000842318222000E250143B0093A030002111
:1029C00042686F3B30F0B6FC02B0E0BCBA46B1469C
:1029D000A846F0BD842301212000E1505378A030A7
:1029E000009300210123426830F0A4FCECE7622D43
:1029F000DED0422D50D020232A009A43442A3BD0D7
:102A000024232A009A43532A36D0632D51D0782D9F
:102A10005ED0752D5CD09C23E3589B695B5D5B07A2
:102A200000D484E026000095A036012372680021BE
:102A3000300030F07FFC94239822E358A2589A4249
:102A400016D09C220427904694250AE05A1C625115
:102A50001978300030F04CFC98226359A258934208
:102A600006D04246A1581A7889698A5C1742EDD18E
:102A700084230422E250A7E784230E22200000953D
:102A8000A030E25000214268833B30F053FC9BE7CA
:102A900000229847010074E7842318222000E250A6
:102AA000163B0093A030002142686D3B30F042FCA1
:102AB0008AE794229821A35861588B423AD0842106
:102AC000012060502000591CA1501B78A03087E7DE
:102AD000A0239846A044002342465360A022783D9C
:102AE0002E00A25800251370731E9E4198239A460B
:102AF000043394279946760002365246E359A25889
:102B0000934217D04A46A1581A7889698A5C4421B1
:102B100011420FD05A1CE25140461978013530F06D
:102B2000E7FBAE42E9D184230322E2504CE7842341
:102B30000122A3E744F0A8FA2D23001070B5050088
:102B40000E0082B000291DD0541A01940F2C0BD80E
:102B50000068012C1BD10B780370019C28680023AE
:102B60006C60035502B070BD002201A930F086FAF6
:102B7000019B2860AB602200310012F081FB019CB8
:102B80002868ECE7002A05D100240068E7E7002C5C
:102B9000E5D0F0E7014825F043FBC046345D051061
:102BA00070B50600343013F089F9B46AF56AAC42A6
:102BB00003D111E01834A5420DD023680B2BF9D1B5
:102BC0002369002BF6D020000830032201001834BE
:102BD0009847A542F1D1B56A002D04D0336B280087
:102BE000591B12F063FBF068002803D07169091AC1
:102BF00012F05CFB70BDC04670B5047900680D78BA
:102C000026F0A0FA036829001B699847201A43425E
:102C10005841C0B270BDC04670B5047900680D78E7
:102C200026F090FA036829001B699847201A43424E
:102C30005841C0B270BDC046F0B5DE4657464E465C
:102C40004546E0B583B00190002876D0019BDB6853
:102C50009946002B68D04B46DB689A46002B59D02A
:102C60005346DB689B46002B4AD05B46DC68002C51
:102C700032D0E568002D1DD0EB689846002B22D09D
:102C80004346DE68002E31D0F768002F09D0F8687F
:102C9000FFF7D2FF3800BF68182112F007FB002FA2
:102CA000F5D1B7681821300012F000FB002F1DD0BD
:102CB0003E00E9E7A5681821200012F0F7FA002D80
:102CC0000AD02C00D5E7AE681821280012F0EEFAE1
:102CD000002EEFD03500CFE75B469C6818215846A0
:102CE00012F0E4FA002C0BD0A346BEE743469E68E0
:102CF0001821404612F0DAFA002EE4D0B046BFE7C1
:102D000053469C681821504612F0D0FA002C01D08E
:102D1000A246A5E74B469C681821484612F0C6FA21
:102D2000002C01D0A14696E701981821846812F082
:102D3000BDFA002C01D0019488E703B0F0BCBB467B
:102D4000B246A946A046F0BD70B5040000680D78F3
:102D500026F0F8F9036829001B69984705002068E8
:102D600026F0F0F903680A211B69984706002068DD
:102D700026F0E8F903680D211B699847AE4204D09C
:102D8000401B431E9841C0B270BD0020FCE7C04606
:102D900070B5040000680D7826F0D4F903682900A6
:102DA0001B6998470500206826F0CCF903680A21C2
:102DB0001B6998470600206826F0C4F903680D21B6
:102DC0001B699847AE4204D0401B431E9841C0B2D5
:102DD00070BD0020FCE7C046F0B5DE4657464E46C3
:102DE0004546E0B5BFB007AB0200019105A801213F
:102DF0009A46059330F060F91CA825F067FB1C2269
:102E00000025B42304A98918CD5004A989180433D6
:102E1000CD5204A989180433CD5004A9891804336C
:102E2000CD5004A989180433CD5004A9891804335E
:102E3000CD50654B654F59689B680B9102910C39D9
:102E40000E00009304AB09689B18009A1C975A5017
:102E50000C9533680BA89C460021604425F022FBAA
:102E60005B4C14A8230014331C935A4B0E959B46BD
:102E70000D930F9510951195129513950B9413F0D2
:102E800033FE554B18AA99460D93059B1595904610
:102E9000069D03931692002B6AD004950F2D58D8E7
:102EA000012D00D086E01C201A78342304A90918CB
:102EB000CA544346002217955A5508231593169B6A
:102EC0000DA80393039900232FF0A2FE1CA80DA9BF
:102ED00025F0E8FA0598504504D0079B591C039348
:102EE00012F0E4F9019B082B48D0102B54D005A90F
:102EF0000BA825F007FC0523219A01921A425FD105
:102F0000059D4B4616980B9414341C940D93404524
:102F100004D0189B591C019312F0C8F95B4614A801
:102F20000D9312F0CBFF1C21029B04AA0B935218A5
:102F3000336800991CA8D15000231C970C9325F0EE
:102F400003FB28003FB0F0BCBB46B246A946A046F2
:102F5000F0BD002204A916A830F090F8049B16904A
:102F600018932A00039912F08BF9049D169BA1E790
:102F70001300002D9ED0194825F052F90B9B0C3BF5
:102F80001A680BAB9C464A236244D16899430B00F4
:102F900040210B43D360AAE70B9B0C3B1A680BAB99
:102FA0009C464A236244D16899430B0008210B4395
:102FB000D3609CE71300002D00D17BE71000D0E721
:102FC00001256D429DE7C04690130A10140B0A10AC
:102FD000AC130A105C140A1030130A10345D05108B
:102FE000F8B5144D0F782B780400BFF35B8FDB0727
:102FF0000DD5114E206826F0A5F8036839001B692D
:1030000098473378181A421E9041C0B2F8BD280084
:1030100012F0BCFD0028ECD0206826F093F803687D
:1030200000211B699847044E3070280012F0CAFD39
:10303000E0E7C04634250020A8AC0020F8B5144DC8
:103040000F782B780400BFF35B8FDB070DD5114E93
:10305000206826F077F8036839001B6998473378B1
:10306000181A421E9041C0B2F8BD280012F08EFD21
:103070000028ECD0206826F065F8036800211B6961
:103080009847044E3070280012F09CFDE0E7C046DF
:1030900030250020A7AC0020F8B5CE4647461400E6
:1030A000060080B51820884612F0F0F82368050065
:1030B0001F6800234361331D444699460761434519
:1030C0003CD023699F4217DAF3689846A34208D0A0
:1030D000200014F0B1FC03699F4250DDC368002B4F
:1030E00042D001204B462200290014F0C1FC736934
:1030F0002800013373611DE09F4216DD33694345AB
:1031000036D0404614F082FC03699F425ADAE368E5
:10311000002B2DD004000120E4E7230000293ED13C
:10312000974202DD0024002B4AD12800182112F01A
:10313000BDF82000C0BCB946B046F8BD7369002B8D
:1031400003D0346923699F420FDCB468002C05D199
:1031500024E00121A368002BDFD01C0022699742E4
:10316000F7DB0021E368F6E704000120A145B9D0B0
:10317000236901209F4200DB0020C0B2B2E7B4689F
:10318000002C05D12FE00121A368002B11D01C00D9
:1031900022699742F7DB0021E368F6E74446F368CB
:1031A000A3421ED0200014F047FC23000269040053
:1031B000B6E723000029B3D04346A045F2D1B1E7DA
:1031C0001C00D2E7B468002C05D10EE00121A368F1
:1031D000002BA2D01C0022699742F7DB0021E36894
:1031E000F6E723009EE74C46E6E74C46D7E7C046A5
:1031F000002301228360C360036143610370426066
:103200000383C3610362436283627047304B10B52E
:103210001A780400002A0ED0027E002A0CD1427EC9
:10322000002A1FD0226A772A13DC2A490978032949
:103230000FD00432226210BD427E002AF2D1236AEE
:10324000582B2BDD234A1278032A27D0043B236214
:10325000F1E700221A7063692276203B6361DB6923
:103260009847E8E712200CF06DFD002819D162693B
:1032700063685268934201D20133636012200CF0FC
:1032800061FD00281DD02378002B1AD163695B688B
:103290006360012BCFD900232370CCE70023237672
:1032A000C9E7616963684A689342E3D10A00E0684C
:1032B00020326261824206D001234A6A6360237031
:1032C000D8E76368E5E7012262764A6AD2E7C0463A
:1032D000ADAC0020A2AC0020F0B5DE465746464615
:1032E000C0B51F000E0015000F230F220F210F2065
:1032F0000BF0ECFEBB1E9A46741C1A00290020003D
:103300000BF094FF089B5246E918200001390BF09E
:103310008DFF6B1C9846089B4146023B9B461A005A
:1033200030000BF0C9FFF0195A46414601380BF046
:10333000C3FF5B465246414620000CF019F80236A6
:103340000F23043F0322032103200BF0BFFE41465D
:1033500030003A000BF06AFF4146594430003A0011
:1033600001390BF063FF089B02351F1F3A0029004B
:1033700020000BF0A1FF200050443A002900013842
:103380000BF09AFFE0BCBB46B246A846F0BDC04673
:10339000F0B5C64600B54A4B04001B788AB0002B36
:1033A0000DD0437E002B02D1037E002B0BD0A36AED
:1033B00020000093636A226AE169FFF78DFF0AB07B
:1033C00080BCB846F0BD202358220021009358331A
:1033D000FFF782FF0F230022002100200BF076FE72
:1033E00006AF63690497196862685D68884695420C
:1033F00000D915004346002B4FD003950F2D3CD824
:10340000012D56D13A001B7804AE337200233000F0
:103410007560042153555C226C330CF08FFB0498CB
:10342000B84203D0B168013111F040FF63696268AE
:103430005B689A42C3D10CF0A3FC9621890010F07E
:1034400069FA96235B0099422ED3712470256F266A
:103450006E2108226A200BF0E9FE310006226B2063
:103460000BF0E4FE290004226C200BF0DFFE0222A8
:1034700021006D200BF0DAFEA1E704AE002230003F
:1034800003A92FF0FBFD039B0490B3602A00414683
:1034900011F0F6FE039D049AB8E73A0004AE002D41
:1034A000B4D0084824F0BCFE7224712570266F2128
:1034B000CFE73A0004AE002DA8D03800E6E7C046BA
:1034C000ADAC0020345D05100368F0B54E464546AE
:1034D00057469946DE46E0B517004A46436885B030
:1034E00003939B1A5B4A80460E000D005B119342CA
:1034F00000D1ACE00124002B03D05C00A34200D932
:1035000099E04B46F31A0093002C48D100239B46C8
:103510002034029308229446009BBC445B4418006C
:10352000624608309A4618603B680192634500D1B4
:1035300088E0524613605346BA689A6053467A68E8
:103540005A60019BBA693B6000237B603B72534623
:103550009A61FA69DA61B14534D008234B449A463E
:103560002B005C4655464F469A460DE02360BB68EB
:10357000A3607B6820356360BB69A361FB6920376A
:10358000E3612034B74219D02000083020603B6846
:10359000AB42EBD11022290011F072FEE9E7802343
:1035A000DB049C424CD26401200011F06FFE23002A
:1035B000834604005B4402932034ABE75546009CED
:1035C00020345C44039BB3421DD037009E1B083758
:1035D000A6190DE02360AB68A3606B6820376360B9
:1035E000AB69A361EB692035E3612034B4420BD0B1
:1035F00020002B6808302060BB42EBD1102239003C
:1036000011F03EFEE9E726004B46002B06D043466C
:103610004A469B684846991A11F048FE43465A4666
:103620001A60029A5E609A6005B0F0BCBB46B24672
:10363000A946A046F0BD4B46CB1A074C0093B3E712
:10364000044CB0E71022614611F01AFE76E70348F9
:1036500024F016FEFFFFFF03E0FFFF7F605D051013
:10366000F8B5FC230E00CB58FC369C467368050069
:103670000C009C4509D060460C382B000200E43455
:10368000C2CAC2C3A0612800F8BD0200F368E434D6
:10369000043B1B68ED33FF3383CB83C2FC216046C0
:1036A000490011F003FE636A043BF3601B681A00D3
:1036B0007360F932ED33FF32FF33B260A361E2E7AA
:1036C000036810B504000B2B01D0200010BD036966
:1036D000002BFAD00830032201009847F5E7C046D6
:1036E000F0B5CE464746942280B583580400591C55
:1036F00081501D789C23C05883B0461933001E3377
:10370000FF33197800290AD10368314A1B6A29005E
:10371000934257D1002902D01E36FF3631708823DC
:10372000E3581A78002A04D116E09A780233002A66
:1037300012D08A42F9D1842201212000A1505B7865
:10374000A03000930021012342682FF0F3FD03B065
:10375000C0BCB946B046F0BD9C23E3589B695B5D95
:103760005B0733D52B00383B012B2FD92600009562
:10377000A03601230021300072682FF0DBFD982372
:103780009846043302279425994643466259E358E4
:103790009A4211D04946615813788969C95C490732
:1037A0000AD5383B012B07D9531C635130001178DF
:1037B0002FF09EFD012F03D184230222E250C6E7A1
:1037C0000127E2E7002298470100A3E743F05CFCF1
:1037D0002D230010F0B5C6469423982200B5C35897
:1037E0008258040082B0934258D01D788C23C75869
:1037F0001033C058461933001E33FF33197800299F
:103800000CD10368264A1B6A290098462B00904574
:103810003FD1002B02D01E36FF363370380044F003
:1038200033FE002802D00378002B10D18023E25809
:1038300013422AD190235B001A4208D0843BE358FC
:103840009A690423525D134201D0302D12D1200019
:1038500084230122A0300095E25000214268833B7E
:103860002FF068FD9422A3580133A35002B080BC0E
:10387000B846F0BD200084220095A030A35000215E
:103880004268033B2FF056FDECE72000FFF728FFCE
:10389000ECE70022C04703000100BAE743F0F4FB65
:1038A0002D230010F0B5C646942200B583580400BD
:1038B000591C81501D788C23C7581033C05882B0D2
:1038C000461933001E33FF33197800290DD10368E0
:1038D0007A4A1B6A290098462B00904500D08EE05A
:1038E000202B02D01E36FF363370380044F0CCFD5A
:1038F00000286CD05C2D43D0282D2FD0292D62D0EC
:103900005B2D00D180E07B2D56D0DF232B405D2B3B
:103910005DD09C23E75826007B191E33FF331B78AC
:10392000A846002B00D0A4E03B68644A1B6A93427F
:1039300000D0ACE0002D03D047441E37FF373D7068
:103940002378002B04D117E0337A0836002B13D0EC
:103950009D42F9D184237268E2500DE08023E35840
:10396000DA0604D59421625810783F2865D09B0769
:103970001ED484230522E25002B080BCB846F0BDBC
:1039800094239822E358A258934200D194E08022D5
:10399000A158A032114226D01A78110028390129E5
:1039A00001D97B2A1FD19422591CA1501D78A3E76D
:1039B00084230622E250DFE77C230122E25408330D
:1039C0000B32E250D8E784230822E250D4E72000EB
:1039D000842301220095A030E25000214268833BFD
:1039E0002FF0A8FCC8E7BC23E058C3071FD5B823B5
:1039F00040102018E3580268D3589847BCE72022AB
:103A0000C047030001006BE77C2302229821E254A7
:103A10001433013AE2549332A35861588B4202D0D6
:103A200019785E2927D084230922E250A4E7B8231D
:103A30004010E358201898479EE79820531C635085
:103A40002058834238D053783A2B1AD03D2B24D0BB
:103A5000212B31D102326250072220006333E25021
:103A6000163B0093A030002142686D3B2FF062FCB2
:103A700082E71D0064E70A20263101336050A3501D
:103A80007AE70232625006224A33E25074E7290094
:103A900000223800984705004CE7023262500722A6
:103AA00020004733E250143B0093A03000214268CD
:103AB0006F3B2FF03FFC5FE743F0E6FA2D23001049
:103AC000F0B54E464546DE4657469822E0B5942569
:103AD0009146435982580400944683B0934200D1E2
:103AE00084E09C215E1C46514158042007001A784E
:103AF0008969895C0F40B846084222D12C2A1CD023
:103B000080216058A03107000F40084266D05C2A2F
:103B10006CD1B4456AD05A787D2A67D14146013AC2
:103B2000A1540D2108320233A150635103B0F0BCFF
:103B3000BB46B246A946A046F0BD8423133AE250E4
:103B4000F4E7260084231A21A0360092E15072681F
:103B5000833B002130002FF0EDFB4A466359A25809
:103B60009342E3D09C229246983A914690329046F6
:103B70000CE05A46DA55A02375600022E3585A55E6
:103B800043469832E358A2589342CFD05246A158A8
:103B90001A7889698A5C49461142C7D041465A1C45
:103BA00062501B7822009B46A0237768E358A83216
:103BB0007D1C934210D0B2689542DAD901230022CD
:103BC00039000093300000232FF0D4FAA023594687
:103BD000E258D1557560D0E70F22EDE77D2A05D177
:103BE0007C23703AE7540833E2509FE743F04CFAE5
:103BF000F8B5574645464E46DE460368E0B5476889
:103C00009246344A9946FB1A050088469B10934217
:103C10005CD00126002B02D05E00B34250D8434650
:103C20004A469C1A002E1BD100239B4652465B46F7
:103C300012681A51002C23DC434604345C44FF1AFA
:103C4000002F30DC4B46E719002B35D15B466F6007
:103C5000AE602B60F0BCBB46B246A946A046F8BD9C
:103C600080239B059E422FD2B600300011F00EFB40
:103C7000834652465B4612685E441A51002CDBDDD7
:103C800022004946584651F077F9434604345C44D3
:103C9000FF1A002F07DC4A46AB68E719991A484615
:103CA00011F004FBD2E73A004146200011F0E8FA97
:103CB0004B46E719002BC9D04A46AB68991AEEE784
:103CC0004A46054E8C1AD0E7024ECDE7034824F051
:103CD000D7FAC046FFFFFF1FFCFFFF7F605D0510A6
:103CE000F0B5DE464E4657464546A022E0B50600F2
:103CF00000238258A0367360137098229433C358FF
:103D0000825804008B4685B09A4249D09421894656
:103D10000C31884608318C468444614603910CE09E
:103D20005246DA5542460023A258756053554B4619
:103D30009822E358A258934232D0197859451BD0A3
:103D400049465A1C62501B7877689A464346039A44
:103D5000E3587D1C93420DD0B2689542E0D901230F
:103D6000002200933900002330002FF003FA43466D
:103D7000E358D5E70F22F0E79421581C60501D78D6
:103D80005D450DD182420BD09A1C62505B785D2B51
:103D900006D105B0F0BCBB46B246A946A046F0BD70
:103DA00043F072F99421982230B5435885580400A5
:103DB00083B0AB425DD0581C60501A782D2A2FD0AA
:103DC0005B2A14D05D2A2FD05C2A19D18021902340
:103DD0006158194214D02C33E058C30733D5B823A7
:103DE00040102018E3580268D358984713E08542E2
:103DF0003FD058782E2836D03A2837D03D2828D0C2
:103E0000200084230121A0300092E150426800216B
:103E1000833B2FF08FFA90230022E25403B030BD91
:103E20008423113AE250F6E78023E358DB0603D4FB
:103E30009023E35C002BE3D184230B22E250002289
:103E4000083BE254E7E7B8234010E35820189847AE
:103E5000E1E784222C38A0509A1C62502000597847
:103E6000FFF73EFFD7E729321E38F4E784222B38CC
:103E7000F1E743F009F9C0469423C2580433C3580C
:103E800010B59A420ED07C23C35C002B04D0022BC9
:103E900005D0012B0AD010BDFFF704FDFBE7FFF7AB
:103EA00081FFF8E784231B22C250F4E7FFF708FEE6
:103EB000F1E7C046F8B504002A2558204746CE460B
:103EC000A561163DE56117352562163D65622A3507
:103ED000A5622D3DE56201356563E5636564434D8B
:103EE0008046A564424D0630E564424D206025655C
:103EF000414D48386565414D6060A565404D0E30C7
:103F0000E565404DA06025663F4D0D3865663F4D27
:103F1000E06017307C262061A56600206C2580B506
:103F20000A272663A763606120646053384DA0446C
:103F300025673848384F6067A767B9460027A755F7
:103F40000436A351DF0636D523008820483323509A
:103F500028008C230025E0500433E5540433E1505D
:103F60000433E2502D4812F0C7F9089B1B685A68C9
:103F70009B68984237D280008358002B33D09C2214
:103F8000A35023000432A833A350083B5D60A8234C
:103F9000E554283BE358DB061FD421490022BC230B
:103FA000E250043B2000E150FFF766FF2000C0BC58
:103FB000B946B046F8BD8825474667519D06C8D426
:103FC00048465D06C5D4DD0509D49D0509D43340B6
:103FD0005D1EAB415B421840BBE71249DEE7124869
:103FE000B7E71248B5E724F00BF9C0463000620885
:103FF000660C6E0A720D7409760B000022222F2FB8
:104000005C5C61076208660C6E0A720D7409760BBF
:1040100038AB081058AB081048AB081024AA002091
:10402000D53700104129001070AB081060AB0810A4
:10403000F0B5C6460368140082680500D61AB010B1
:10404000820012181701D2191702D2191704D219B7
:104050005200121800B58A424ED36A68D61AB610BA
:104060009446B20092191701D2191702D2191704F7
:10407000D2195200921991421DD9634508D0266881
:104080001E6066685E60267A1E720C339C45F6D10F
:104090008B1A9846634642462600013A83CE83C374
:1040A000002AF9D143465A004244910061446960B4
:1040B00080BCB846F0BD00291AD04A0051188900CA
:1040C0005F18BB4214D01A002668166066685660F6
:1040D000267A16720C329742F6D11B4A0C3989089F
:1040E00051438900890801314A00511889005B1841
:1040F0009C45DDD06B60DBE7144A914221D8002952
:104100001CD04E007618B600300011F0BFF8320017
:104110008446030062442100C1C9C1C39342FAD15D
:104120002B68A968CE1A61466A602960AA60002BD4
:10413000BED03100180011F0B9F8B9E7002294465A
:10414000F1E7034824F09CF8ABAAAA2AAAAAAA0A73
:1041500078AB0810F0B54E46DE4645465746E0B50A
:104160000368466889B002910391F11AC91090461C
:104170008A00521899461301D2181302D218130458
:10418000D3185B006F4A5B188346934200D1D5E099
:104190000124002B03D05C00A34200D9C6E04A46AC
:1041A000029B9B1A9A46002C00D0AEE000231834E4
:1041B00004930193019B414653441A00A1C9A1C233
:1041C000A1C9A1C2424612680B2A17D106AA100043
:1041D0001039A0C9A0C0180008390830A0C8A0C173
:1041E0001900083121CA21C14246126941461A61AB
:1041F000002258690A614A6948615A61029B9945DF
:1042000030D000229246039A4C4690461D00019FF2
:10421000059605E03B0018341833AC421DD01F0052
:104220003B00220043CA43C343CA43C323680B2B4A
:10423000F0D153463B612369002BEBD021003800BD
:104240000222083108309847636922697B613B008C
:1042500018343A611833AC42E1D143463C00059E24
:104260000393303400239846029B9E4221D0039D45
:1042700003E018351834B5421BD023002A0083CA46
:1042800083C383CA83C32B680B2BF2D143462361BC
:104290002B69002BEDD029002000022208310830C4
:1042A00098472B6923616B69183563611834B542EF
:1042B000E3D14D46B14503D110E01835B5420DD0DC
:1042C0002B680B2BF9D12B69002BF6D02800083076
:1042D0000322010018359847B542F1D14B46002B17
:1042E00006D05B464A469B684846991A10F0DEFFA6
:1042F0005B46019A5C601A60049A9A6009B0F0BC4F
:10430000BB46B246A946A046F0BD0E4B9C4213D810
:1043100063001C19E400200010F0B8FF030084467D
:1043200018336444049401901C0043E74A46029BFE
:10433000054C9B1A9A46EEE71C00E9E7034823F078
:104340009FFFC04655555505F8FFFF7F605D05107E
:10435000F0B50A00436A016A050083B0994239D07A
:104360000B001400C1CCC1C3C1CCC1C313680B2B5B
:1043700015D02B6A18332B62EA699B1ADA10900069
:104380008018010140180102401801044018400043
:104390008018144A934222D8013803B0F0BD00239C
:1043A0000B619C466B4610001C000830C0C8C0C49E
:1043B0000C0008380834C0CCC0C00800083050CB0E
:1043C00050C0136948690B616346136153695061BA
:1043D0004B61CEE71C30FFF7BDFE2B6ACCE742F005
:1043E00053FEC046009F2400F0B5CE464746012349
:1043F0000A2280B55B4289B002920393066A436A3F
:10440000040002AD9E4249D033002A0083CA83C310
:1044100083CA83C3029B0B2B1CD0226A18322262F0
:10442000E369D21AD1108B005B1818011B1818020F
:104430001B181C041C191E4B640064189A4234D8C3
:10444000029B013C0B2B21D0200009B0C0BCB94617
:10445000B046F0BD00236F469946336104AB9846E1
:1044600019000822380010F00BFF330042460833D1
:1044700003CB03C2083B06CF06C34A46069B0692FF
:1044800072693361079B07927361C6E72B69002B42
:10449000DAD004A9032208009847D5E72A003100A2
:1044A0001C30FFF757FE226ABAE742F0EDFDC04626
:1044B000009F2400F0B5CE46474680B54369416869
:1044C0005A1C4261826891B004000193914200D16C
:1044D0006FE008C14160012308225B42049205930A
:1044E0000AAD019B2800103204A9069310F0C8FE03
:1044F000266A636A9E4254D033002A0083CA83C36B
:1045000083CA83C30A9B0B2B1FD0226A18322262F4
:10451000E369D21AD1108B005B1818011B1818021E
:104520001B181C041C19264B640064189A4244D8BA
:104530000A9B013C0B2B2CD0049B0B2B21D0200081
:1045400011B0C0BCB946B046F0BD002399463361F6
:104550000CAB984602AF19000822380010F090FE0C
:1045600033004246083303CB03C2083B06CF06C3E1
:104570004A460E9B0E92726933610F9B0F927361D4
:10458000C3E7089B002BDAD006A90322080098474E
:10459000D5E72B69002BCFD00CA903220800984740
:1045A000CAE720002A0031001C30FFF7D3FD226A41
:1045B000AEE701AAFFF71CFB8DE742F065FDC046A0
:1045C000009F2400F0B5C646882300B5C3580400F8
:1045D00082B0022B08D0032B2DD00020012B49D014
:1045E00002B080BCB846F0BD07000100CC37051D05
:1045F000A43138002EF084FD2800FFF73DFC7A68D6
:10460000002A43D0CC230025002698464346E35891
:104610000821985DFEF7E0FB7A68ED0001362D1861
:10462000B242F3D8E8B200900123002138002EF006
:1046300081FE0120D4E707000100CC37051DA4311D
:1046400038002EF05DFD2800FFF716FC7A68002A7E
:104650001CD0CC230025002698464346E358102161
:10466000985DFEF7B9FB7A682D0101362D18B2422C
:10467000F3D8D7E721002000A431CC30251D2EF03F
:104680003FFD2800FFF7F8FB0120A9E70020CAE75B
:10469000F8B5CC234746984680444346CE465B68EF
:1046A00080B50E000700002B15D0CC230025002478
:1046B00099464B46FB583100585DFEF78DFB43464B
:1046C00074435B6801352418AB42F2D82000C0BCAB
:1046D000B946B046F8BD0024F8E7C04670B50600FC
:1046E000406A002803D0F36A191A10F0DFFDB069A0
:1046F000002803D0336A191A10F0D8FDF468356920
:10470000AC420CD0230020680833984217D0A3682D
:104710001834591C10F0CAFDA542F3D1F568002DDC
:1047200004D073692800591B10F0C0FD30680028C0
:1047300003D0B368191A10F0B9FD300070BD1834F9
:10474000A542DFD1EAE7C046F0B55746DE464E4601
:104750004546E0B5070083B0012A09D10B68036024
:10476000002003B0F0BCBB46B246A946A046F0BD4F
:10477000022A0CD0032AF3D10468002CF0D02000C8
:10478000FFF7ACFF5C21200010F090FDE8E70B681C
:104790005C20994610F07AFD4B4659681A68002350
:1047A00080468D1A036043608360914200D1ECE043
:1047B000002D00DAF1E0280010F068FD0400434607
:1047C00065191C605C609D604B4600250ACB5A1A37
:1047D0008B4200D0CDE0434664195C604B464046B6
:1047E0001969DA6800238D1AC3600361436191423D
:1047F00000D1C7E06A4B9D4200D9CEE0280010F0FE
:1048000045FD040043466519DC601C615D614B4653
:10481000DE681B699B469E420CD12CE0012D00D026
:10482000ACE01B78237200231836656043551834BA
:10483000B34520D0200008302060336875689A4660
:10484000002B00D18FE001950F2DE7D90022200029
:1048500001A92EF013FC019B2060A3602A005146A1
:1048600010F00EFD0023019D206818366560435549
:104870001834B345DED143461C614B464046D969E6
:104880009A6900238C1A8361C3610362914200D14B
:1048900080E0444B9C4200D97FE0200010F0F6FC01
:1048A000050043462C199D61DD611C624B469B69E6
:1048B0009A464B46DE69B2450CD053460024F61AA0
:1048C0005346281919190222023410F0D9FCA642C5
:1048D000F6D1AD194346DD614B464046996A5A6AA6
:1048E00000238C1A43628362C36291424FD02D4BE6
:1048F0009C4252D8200010F0C9FC050043462C19F8
:104900005D629D62DC624B465B6A9A464B469E6ADC
:10491000B2450CD053460024F61A534628191919EB
:104920000222023410F0ACFCA642F6D1AD19434687
:104930009D624B4642461B8E414613864A4643467D
:10494000526B5A6338234A46D25CCA5442464B469D
:104950003C323C3313CB13C213CB13C203CB03C281
:1049600043463B60FCE6002D00D15CE70E4823F097
:1049700057FC2000150050F0FFFA2CE7002D00D165
:1049800051E76BE7002500243CE7002417E70024EB
:104990000025B3E70024002583E723F021FCC0466F
:1049A000F8FFFF7FFEFFFF7F345D051070B5050047
:1049B000406A002803D0EB6A191A10F077FCAC6942
:1049C000EE69B44215D02300A0692033984203D089
:1049D000236A591C10F06AFC2300206808339842AF
:1049E0002FD0A3683034591C10F060FCA642EAD1E5
:1049F000AE69002E04D02B6A3000991B10F056FCD3
:104A0000EC682E69B4420CD0230020680833984229
:104A10001BD0A3681834591C10F048FCA642F3D1EF
:104A2000EE68002E04D06B693000991B10F03EFC3C
:104A30002868002803D0AB68191A10F037FC28004A
:104A400070BD3034A642BED1D2E71834A642DBD1C5
:104A5000E6E7C04670B50600406A002803D0F36A56
:104A6000191A10F023FCB069002803D0336A191A10
:104A700010F01CFCF4683569AC420CD023002068AF
:104A80000833984217D0A3681834591C10F00EFC54
:104A9000A542F3D1F568002D04D073692800591B95
:104AA00010F004FC3068002803D0B368191A10F025
:104AB000FDFB300070BD1834A542DFD1EAE7C046E7
:104AC000F0B55746DE464E464546E0B5070083B092
:104AD000012A09D10B680360002003B0F0BCBB467B
:104AE000B246A946A046F0BD022A0CD0032AF3D153
:104AF0000468002CF0D02000FFF7ACFF60212000FC
:104B000010F0D4FBE8E70B686020994610F0BEFB7C
:104B10004B4659681A68002380468D1A036043602B
:104B20008360914200D1EFE0002D00DAF4E028002C
:104B300010F0ACFB0400434665191C605C609D608E
:104B40004B4600250ACB5A1A8B4200D0D0E0434690
:104B500064195C604B4640461969DA6800238D1A77
:104B6000C36003614361914200D1CAE06B4B9D4237
:104B700000D9D1E0280010F089FB040043466519F4
:104B8000DC601C615D614B46DE681B699B469E4292
:104B90000CD12CE0012D00D0AFE01B782372002354
:104BA0001836656043551834B34520D020000830CE
:104BB0002060336875689A46002B00D192E0019519
:104BC0000F2DE7D90022200001A92EF057FA019BF2
:104BD0002060A3602A00514610F052FB0023019D83
:104BE00020681836656043551834B345DED1434616
:104BF0001C614B464046D9699A6900238C1A83612F
:104C0000C3610362914200D183E0454B9C4200D9CD
:104C100082E0200010F03AFB050043462C199D610C
:104C2000DD611C624B469B699A464B46DE69B24584
:104C30000CD053460024F61A53462819191902229B
:104C4000023410F01DFBA642F6D1AD194346DD61DA
:104C50004B464046996A5A6A00238C1A4362836223
:104C6000C362914252D02E4B9C4255D8200010F086
:104C70000DFB050043462C195D629D62DC624B46CC
:104C80005B6A9A464B469E6AB2450CD05346002456
:104C9000F61A5346281919190222023410F0F0FAB4
:104CA000A642F6D1AD1943469D624B4642461B8E45
:104CB000414613864A464346526B5A634A46926BB4
:104CC0009A633C234A46D25CCA5442464B46403221
:104CD000403313CB13C213CB13C203CB03C24346DF
:104CE0003B60F9E6002D00D159E70E4823F098FA11
:104CF0002000150050F040F929E7002D00D14EE7C3
:104D000068E70025002439E7002414E70024002583
:104D1000B0E70024002580E723F062FAF8FFFF7F68
:104D2000FEFFFF7F345D051070B50500406A002866
:104D300003D0EB6A191A10F0B9FAAC69EE69B44203
:104D400015D02300A0692033984203D0236A591C50
:104D500010F0ACFA23002068083398422FD0A368E3
:104D60003034591C10F0A2FAA642EAD1AE69002EE6
:104D700004D02B6A3000991B10F098FAEC682E6969
:104D8000B4420CD023002068083398421BD0A3689B
:104D90001834591C10F08AFAA642F3D1EE68002E9E
:104DA00004D06B693000991B10F080FA2868002845
:104DB00003D0AB68191A10F079FA280070BD3034AE
:104DC000A642BED1D2E71834A642DBD1E6E7C04600
:104DD000F0B54E46DE465746454604000220E0B593
:104DE0008FB002AE337308AB029071601800B260EE
:104DF000310018229B4610F043FA276A636A9F42EB
:104E000058D03B005A4623CA23C323CA23C3089B56
:104E10000B2B21D0226A18322262E369D21AD110F8
:104E20008B005B1818011B1818021B181C041C1996
:104E3000254B640064189A4244D8089B013C0B2B14
:104E40002FD0029B0B2B24D020000FB0F0BCBB4610
:104E5000B246A946A046F0BD0023E8469A463B610B
:104E60000AAB994619000822404610F009FA3B00A7
:104E70004A46083303CB03C24246083B03CA03C376
:104E800052460C9B0C927A693B610D9B0D927B61A3
:104E9000C0E73369002BD7D004A903220800984744
:104EA000D2E75B461B69002BCBD00AA9032208007E
:104EB0009847C6E720005A4639001C30FFF74AF9E8
:104EC000226AAAE742F0E0F8009F2400F0B5DE462F
:104ED00057464E464546E0B501238FB06E460B223D
:104EE0005B420C00029203930A00330008AD0700F6
:104EF00003CA03C322002B0003CB03C208223100E4
:104F00002800984610F0BCF9A36808229B460023AD
:104F10009946A360E36829009A4600233000E360C5
:104F200010F0AEF90822310004A810F0A9F95B4690
:104F300006935346182202A92800079310F0A0F9FF
:104F4000082204A9300010F09BF90822414604A869
:104F500010F096F908223100404610F091F94B46C6
:104F600006935B460C930D9B079353460D933B6A48
:104F70009A467B6A9A4555D053462A0013CA13C3F2
:104F800013CA13C3089B0B2B21D03A6A18323A621A
:104F9000FB69D21AD1108B005B1818011B1818027C
:104FA0001B181C041C19244B640064189A4241D835
:104FB000089B013C0B2B2DD0029B0B2B22D02000F9
:104FC0000FB0F0BCBB46B246A946A046F0BD4B466A
:104FD0005246414613613000082210F051F9534601
:104FE0004246083303CB03C2083B06CE06C34A46FB
:104FF0000C9B0C925246136152690D9B0D925246C6
:105000005361C2E7069B002BD9D004A903220800F4
:105010009847D4E72B69002BCED00AA903220800B9
:105020009847C9E738002A0051461C30FFF792F82C
:105030003A6AADE742F028F8009F2400F0B54546F3
:105040005746DE464E460300E0B5A0CB804697B0FB
:105050002800AF423BD07C1B20000EF0F5FB1F2345
:105060001B1A390028005A00FDF712FB102C00DC37
:1050700069E210239946013B9B460E3B2C009A4661
:10508000A944AB442200287856780134210013004B
:10509000B04200D89CE2621BA54200D084E22E7090
:1050A0005C45EFD17D1E4F450FD0230059781A780B
:1050B00001342000914205D25A701800013B1A7841
:1050C0009142F9D30170A542EFD1434621CB29008B
:1050D000FDF754FB43465B68984201D04346586055
:1050E000002344461D002168EBB20093431A002BB5
:1050F0000DDD5A108E18B446009F8E5CBE4200D360
:105100009AE161469B1A013B0131002BF1DC884298
:1051100005D00B78009A0126934200D811E10CAB20
:105120000121009A0AA80A932DF0C6FF0A9B606B22
:1051300098460B9E1CF0D2F812AB07009A461093CB
:1051400004960F2E00D966E1012E00D05CE14346A3
:1051500038211B7804AA5218137004AA53469346A8
:10516000002211969A55109B58460193019A119B63
:1051700094463A680293D668390062466344B04761
:105180001098504504D0129B591C019310F08EF8D2
:105190000A980CAB984204D00C9B591C019310F058
:1051A00085F8E369A66901939E421AD0049BA14643
:1051B00098463400059F66683200BE4200D93A0026
:1051C000002A00D1D3E0414620684FF055FE002868
:1051D00000D1CCE000DCCEE0019B3034A342EAD128
:1051E0004C463023E75C0133E35CA06B984623F028
:1051F000A9FF836906005B5D3B4200D094E0434613
:10520000DB0709D5037F002B00D14EE17C23C05C76
:10521000009B984200D187E02369E6680293A36B64
:105220001800019323F08EFF8046012010F02EF825
:10523000421C9146009A0100027042461368070022
:105240004A465B694046984701981CF047F8534628
:1052500080464A46390010A81093FDF76FFC109B5A
:105260000AA80193019A119B94464246126803933F
:10527000D2684146914663446246C84710985045FB
:1052800003D01299013110F011F80121380010F00B
:105290000DF8029B991BC9108A0052181301D218ED
:1052A0001302D2181304D3185B005B189A10032B57
:1052B00000DC98E10A9B0B9F9A4653009B185B0108
:1052C0009846B04418E018239946F369B1449F42C8
:1052D00000D175E030239946736BB1449F4200D1F1
:1052E0007AE048239946F36CB1449F4200D17FE0B5
:1052F0006036B04500D1E5E07368BB42E3D1002FD2
:1053000006D03A00514630684FF0B6FD0028DAD199
:105310000CAB27699A4504D00C99504601310FF027
:10532000C5FFB74200D189E05B461B68012698465D
:1053300006AB984505D05B469968404601310FF0B1
:10534000B5FF3C211F226B09615C9B002A40E318DA
:10535000B14224D0012191400A00196C01350A4361
:105360001A6480235B009D4223D06068BBE6F01B7B
:10537000002800DD30E7E6693A00B74200D9320084
:10538000002A05D04046A1694FF076FD002800D1E3
:10539000B81B002800DD1FE74C460126C8E70121A5
:1053A00091401A6C01358A431A6480235B009D4248
:1053B000DBD117B0F0BCBB46B246A946A046F0BD53
:1053C000002F07D03A005146B0694FF055FD002834
:1053D00000D07FE74E469BE7002FFBD03A005146B6
:1053E000306B4FF049FD002800D07AE74E468FE73A
:1053F000002FEFD03A005146B06C4FF03DFD002831
:1054000000D075E74E4683E704AA9346002E00D1EC
:10541000A6E6180009E004AB1900002210A89B467C
:105420002DF02CFE049B10901293320041460FF099
:1054300027FF049E109B93E6130058E6A36A666A52
:105440009A46A846A146B3421ED04B46986B347884
:10545000757823F077FE4246836907009B5C234200
:105460000DD101232B4207D0037F002B11D07C23C9
:10547000C05C009B984202D045464C4654E7023639
:10548000B245E2D145464C465B461B68002698462D
:105490004EE716F08DFE3B68544A9B695F209342AD
:1054A000E7D05F2138009847E3E716F081FE3368C4
:1054B0004E4A9B695F20934200D1A9E65F213000EC
:1054C0009847A5E6029B991BC9108A005218130140
:1054D000D2181302D2181304D3185B005B18022BE6
:1054E00020D0032B14D0012B01D0029E10E70B9F7C
:1054F0007368BB42F9D1002F00D109E73A00514649
:1055000030684FF0B9FC002800D101E7029EFFE6A9
:105510000B9F7368BB424ED0183673689F4205D00C
:105520001836E5E70B9F73689F42F9D1002F00D131
:10553000EEE63A00514630684FF09EFC002800D15C
:10554000E6E61836D4E701226B1C2C0091467E1E3D
:105550009F4200D1B9E52200287857780134210014
:105560001300B8420ED9621BA54216D12F70B44267
:1055700000D1AAE5220028785778013421001300D1
:10558000B842F0D81278BA4205D95A701900013BD6
:105590001A789742F9D30F70E9E74B46981A290019
:1055A00020184FF0E9FCE1E75346981A290020182B
:1055B0004FF0E2FC73E5002F00D1A9E63A00514616
:1055C00030684FF059FC002800D1A1E61836A4E756
:1055D0001278964205D25A701900013B1A78964209
:1055E000F9D30E705CE50A9A924678E729230010F9
:1055F000F0B5DE46574645464E46E0B50368476877
:1056000005009B4618008FB09F422BD0FC1A20004B
:105610000EF01AF91F231B1A390058465A00FDF7DD
:1056200037F8102C00DDE6E15B46012201335C46D1
:1056300090467E1E9F4212D0A9465D4622002878E1
:105640005778013421001300B84200D821E2621BD0
:10565000A54200D016E22F70A642EFD14D466B68EE
:1056600028689B465946FDF789F86B680600984202
:1056700000D0686000231C00E3B2686B9B462F6873
:1056800023F060FD036859461B699847F31B002B04
:105690000CDD5A10B9188C46B95C814200D34EE13A
:1056A00067469B1A013B0137002BF2DCB74202D060
:1056B0003B78834226D9EB69AF6908AA9046B94680
:1056C00001939F4241D04B461F785B78696B4046FF
:1056D0009A4610F059FB404623F034FD0600404640
:1056E00010F0ECFB336859461B693000984733686B
:1056F00000909B68594630009847009B9F421AD8FB
:105700009A4518D301203C211F226309695C9B0044
:105710002240EB18814200D1F3E0012191400A00C0
:10572000196C01340A431A6480235B009C4200D147
:10573000F2E06E68A0E7874201D88245E2D20223F8
:105740009C46019BE1444B45BDD13023EF5C0133C6
:10575000EB5CA86B984623F0F5FC836906001B5DA3
:105760003B42CFD14346DB0707D5037F002B00D157
:10577000F3E07C23C05C5845C4D02B69EE680093ED
:10578000AB6B1800994623F0DDFC804601200FF03A
:105790007DFD431C9A465B46037043461B68524698
:1057A00001005B6907004046984748461BF096FD9C
:1057B00008AB9846814652460AAB390040460893EA
:1057C000FDF7BCF942465268089B94464A46126867
:1057D0006344D26802A892464946089AD04708987E
:1057E0000AAB984204D04346996801310FF05EFD40
:1057F000012138000FF05AFD009B991BC9108A0047
:1058000052181301D2181302D2181304D3185B00D4
:105810005B189A10032B00DC51E1029B039F984612
:1058200053009B185B019946B14415E018239A4632
:10583000F369B2449F424ED030239A46736BB24410
:105840009F4253D048239A46F36CB2449F426AD099
:105850006036B14500D18DE07368BB42E6D1002FC0
:1058600006D03A00414630684FF006FB0028DDD1F3
:1058700004AB2F69984504D00499404601310FF0DC
:1058800015FDB74200D03DE7AB6A6E6A9A46A04666
:10589000A9469E421DD04B46986B3478757823F00C
:1058A00051FC4246836907009B5C23420CD10123D3
:1058B0002B4206D0037F002B43D07C23C05C834562
:1058C00002D044464D461DE70236B245E3D1444678
:1058D0004D46002017E7002F06D03A004146B06938
:1058E0004FF0CAFA0028A7D15646C1E7002FFBD0D7
:1058F0003A004146306B4FF0BFFA0028A2D156461D
:10590000B6E7012191401A6C01348A431A6480235E
:105910005B009C4200D00CE70FB0F0BCBB46B24627
:10592000A946A046F0BD002FDED03A004146B06C3B
:105930004FF0A2FA002800D08AE7564698E71300F5
:10594000A5E616F035FC3B685E4A9B695F209342F2
:10595000B5D05F2138009847B1E716F029FC3368CD
:10596000584A9B695F20934200D104E75F213000D1
:10597000984700E7009B991BC9108A005218130131
:10598000D2181302D2181304D3185B005B18022B31
:1059900020D0032B14D0012B01D0009E68E7039F79
:1059A00073689F42F9D1002F00D161E73A00414668
:1059B00030684FF061FA002800D159E7009E57E7A0
:1059C000039F7368BB4250D018367368BB4205D042
:1059D0001836E5E7039F7368BB42F9D1002F00D169
:1059E00046E73A00414630684FF046FA002800D1B9
:1059F0003EE71836D4E710235B4499460F235B44F7
:105A0000984601239A462B005C465D469B46220041
:105A100028785678013421001300B04244D9621B23
:105A2000A5421BD12E704445F1D15D467E1E4F45E7
:105A300000D114E6230059781A78013420009142ED
:105A400005D25A701800013B1A789142F9D30170BF
:105A5000A642EFD16B6828689B4603E65346981A26
:105A6000290020184FF088FADCE7002F00D1FFE66C
:105A70003A00414630684FF0FFF9002800D1F7E6C0
:105A80001836A2E74346981A290020184FF074FAF6
:105A9000E1E51278BA4205D95A701900013B1A782B
:105AA0009742F9D30F70D7E51278964205D25A7013
:105AB0001900013B1A789642F9D30E70B3E7029AA7
:105AC000904664E729230010F0B5DE465746454668
:105AD0004E46E0B54368056807009B46280097B02E
